:040000000CEF00F011
:10000800FACF03F0FBCF04F0E9CF05F03AED0EF09C
:10001800FAEF0DF046AE1CD02D0E0001DD6F7F0EFD
:100028004614176E186A000E1A6E0A0E196EE6EC60
:100038000CF01750300F0001DE6F7F0E4614116E62
:10004800126A000E146E0A0E136EB9EC0DF01BD076
:100058002B0E0001DD6F46C017F047C018F0000EE8
:100068001A6E0A0E196EE6EC0CF01750300F0001EC
:10007800DE6F46C011F047C012F0000E146E0A0E73
:10008800136EB9EC0DF01150300F0001DF6F00D086
:1000980049AE28D02D0E0001E16F48C043F049C099
:1000A80044F0431E441E434A442A43C0FCF044C063
:1000B800FDF0FCC017F0FDC018F0000E1A6E0A0E15
:1000C800196EE6EC0CF01750300F0001E26FFCC01F
:1000D80011F0FDC012F0000E146E0A0E136EB9EC8A
:1000E8000DF01BD02B0E0001E16F48C017F049C07E
:1000F80018F0000E1A6E0A0E196EE6EC0CF0175086
:10010800300F0001E26F48C011F049C012F0000E34
:10011800146E0A0E136EB9EC0DF01150300F000179
:10012800E36F00D05E380F0B300F0001C76F5E50D1
:100138000F0B300F0001C86F5F380F0B300F000135
:10014800CA6F5F500F0B300F0001CB6F62380F0B77
:10015800300F0001CD6F62500F0B300F0001CE6FD2
:1001680060380F0B300F0001BE6F60500F0B300F5F
:100178000001BF6F5A380F0B300F0001C16F5A5082
:100188000F0B300F0001C26F6C380F0B300F0001DE
:10019800C46F6C500F0B300F0001C56F5004D8A40A
:1001A8000BD0D90E116E000E126EEC0E136EFF0EF0
:1001B800146E45EC11F00BD0D90E116E000E126EB4
:1001C800F00E136EFF0E146E45EC11F000D05CC0FB
:1001D80017F0186A000E1A6E640E196EE6EC0CF031
:1001E8001750300F0001D56F000E146E640E136E99
:1001F8005CC011F0126AB9EC0DF011C017F012C012
:1002080018F0000E1A6E0A0E196EE6EC0CF0175074
:10021800300F0001D66F000E146E640E136E5CC0B2
:1002280011F0126AB9EC0DF011C0FEF012C0FFF027
:10023800FEC011F0FFC012F0000E146E0A0E136E0D
:10024800B9EC0DF01150300F0001D76F4CC017F00A
:100258004DC018F0030E1A6EE80E196EE6EC0CF09D
:100268001750300F0001D06F030E146EE80E136E96
:100278004CC011F04DC012F0B9EC0DF011C017F0E0
:1002880012C018F0000E1A6E640E196EE6EC0CF02F
:100298001750300F0001D16F030E146EE80E136E65
:1002A8004CC011F04DC012F0B9EC0DF011C0FEF0C9
:1002B80012C0FFF0000E146E640E136EFEC011F033
:1002C800FFC012F0B9EC0DF011C017F012C018F011
:1002D800000E1A6E0A0E196EE6EC0CF01750300F6D
:1002E8000001D26F030E146EE80E136E4CC011F0AD
:1002F8004DC012F0B9EC0DF011C0FEF012C0FFF0C5
:10030800000E146E640E136EFEC011F0FFC012F0E2
:10031800B9EC0DF011C0FAF012C0FBF0FAC011F000
:10032800FBC012F0000E146E0A0E136EB9EC0DF03D
:100338001150300F0001D36F170E396EDD0E3A6E73
:10034800000E3B6EFF0E3D6EE00E3C6E000E3F6EE3
:10035800000E3E6E020E406E010E5CEC09F0170EA8
:10036800396EE10E3A6E000E3B6EFF0E3D6EE00EEA
:100378003C6E000E3F6E000E3E6E020E406E460E44
:100388005CEC09F0340E396EC70E3A6E000E3B6E07
:10039800070E3D6E3C68000E3F6E000E3E6E020E6C
:1003A800406E0F0E5CEC09F0520E396EBE0E3A6EBE
:1003B800000E3B6E070E3D6EE00E3C6E000E3F6E6B
:1003C800000E3E6E020E406E0F0E5CEC09F0820EBF
:1003D800396ED90E3A6E000E3B6EF80E3D6E000E69
:1003E8003C6E000E3F6E000E3E6E010E406E5F0EBC
:1003F8005CEC09F0960E396ED50E3A6E000E3B6E27
:10040800070E3D6EE00E3C6E000E3F6E000E3E6E17
:10041800010E406E0A0E5CEC09F0960E396ED00E95
:100428003A6E000E3B6E070E3D6EE00E3C6E000EFF
:100438003F6E000E3E6E010E406E5D0E5CEC09F0E4
:1004480012001F0E306E000E316E99D1250E38182D
:10045800D8B404D03850AAEC12F091D1000E376EFF
:10046800000E366E000E356E05D035841D4A1E2AE4
:1004780001D00BD01DC0F6FF1EC0F7FF0800F550D5
:10048800300AD8B4F2D701D0F5D71DC0F6FF1EC088
:10049800F7FF0800F550D6EC11F0D8A03BD0000EBD
:1004A800376E000E366E00D036C011F037C012F02D
:1004B800000E146E0A0E136E8BEC11F011C036F09C
:1004C80012C037F0D00E2B6EFF0E2C6E1DC0F6FF3B
:1004D8001EC0F7FF0800F5502D6E2E6A2B502D26F2
:1004E8002C502E222D5036262E5037221D4A1E2AD9
:1004F8001DC0F6FF1EC0F7FF0800F550D6EC11F03E
:10050800D8A008D0D1D706D048D11BD0358E19D065
:1005180036D117D01DC0F6FF1EC0F7FF1D4A1E2A90
:100528000800F5CF38F03850000AD8B436D1640A3C
:10053800D8B407D00D0AD8B404D0110AD8B4E6D775
:100548001ED135BE15D030C0D9FF31C0DAFFDECF9D
:1005580033F0DDCF34F0020E3026000E312234AEF7
:100568004ED0030E3512336C341ED8B0342A47D01F
:1005780030C0D9FF31C0DAFFDECF33F0DDCF34F041
:10058800020E3026000E31223AD0010E386E050ECA
:100598003818D8B43DD001D03BD03850020D020EE7
:1005A800F324F66EFF0EF420F76E0900F550335C65
:1005B8000900F5503458D8A02BD001D029D0382ABA
:1005C800E6D726D0010E386E040E3818D8B420D0DD
:1005D80001D01ED03850020D0C0EF324F66EFF0E1B
:1005E800F420F76E0900F550335C0900F5503458D3
:1005F800D8A00ED001D00CD0382AE6D709D0355073
:10060800800B000AD8B4C1D7800AD8B4DBD700D091
:1006180036503710D8B40AD035C02BF0030E2B163D
:10062800D8B404D03606D8A0370600D0800E38BE1D
:100638007F0E2B6E3650385C3750800A2B58D8B056
:1006480007D03850365E000E38BEFF0E375A05D038
:10065800000E376E000E366E00D035A41AD035C0A5
:100668002BF0030E2B16D8B404D02D0EAAEC12F0E2
:1006780000D036503710D8B426D0300EAAEC12F07D
:100688003606D8A0370636503710D8B41CD0F5D760
:100698001AD036503710D8B40CD0200EAAEC12F06D
:1006A8003606D8A0370636503710D8B402D0F5D75A
:1006B80000D035C02BF0030E2B16D8B404D02D0E65
:1006C800AAEC12F000D038C032F053D045D03250E6
:1006D800020D020EF324F66EFF0EF420F76E0900E9
:1006E800F5CF13F00A00F5CF14F033C011F034C081
:1006F80012F07EEC0FF011C018F012C019F0000EC5
:100708001B6E0A0E1A6EFCEC0FF01850300F386E84
:100718002CD033C011F034C012F03250020D0C0E40
:10072800F324F66EFF0EF420F76E0900F5CF13F0F0
:100738000A00F5CF14F07EEC0FF011500F0B2F6E5E
:100748002F50010D9F0EF324F66EFF0EF420F76E66
:100758000800F5CF38F009D03550800B000AD8B41E
:10076800B6D7800AD8B4D5D700D03850AAEC12F042
:1007780000D032063228D8B402D0EED700D01DC03F
:10078800F6FF1EC0F7FF1D4A1E2A0800F5CF38F0F5
:100798003850D8B402D05AD600D0120065EC12F006
:1007A80076EC11F0000E256E000E246E17EC12F098
:1007B800690E4E6E010E4F6E4EC011F04FC012F012
:1007C800600E136EFF0E146E45EC11F0010E396EBB
:1007D8004EC03AF04FC03BF0FF0E3D6E3C68000E35
:1007E8003F6E000E3E6E010E406E010E5CEC09F08D
:1007F8004EC011F04FC012F0CF0E136EFF0E146EE4
:1008080045EC11F00B0E396E4EC03AF04FC03BF07C
:10081800F80E3D6E1F0E3C6E000E3F6E000E3E6ED3
:10082800010E406E180E5CEC09F0000E1D6E280ECD
:100838001C6E000E1F6E170E1E6E000E216E020E2D
:10084800206EFF0E236EE00E226E0DEC06F04EC0F9
:1008580011F04FC012F0F80E136EFF0E146E45EC37
:1008680011F0170E396E4EC03AF04FC03BF0FF0E34
:100878003D6EE00E3C6E000E3F6E000E3E6E020EA8
:10088800406E2D0E5CEC09F04EC011F04FC012F016
:10089800F20E136EFF0E146E45EC11F0000E1D6E75
:1008A8006E0E1C6E000E1F6E170E1E6E000E216E51
:1008B800020E206EFF0E236EE00E226E0DEC06F087
:1008C800170E396E4EC03AF04FC03BF0FF0E3D6E2A
:1008D800E00E3C6E000E3F6E000E3E6E020E406E45
:1008E800730E5CEC09F04EC011F04FC012F0E20E2E
:1008F800136EFF0E146E45EC11F0280E396E4EC0C3
:100908003AF04FC03BF0000E3D6E1F0E3C6E000EDD
:100918003F6E000E3E6E010E406E320E5CEC09F02A
:100928004EC011F04FC012F0E70E136EFF0E146E9A
:1009380045EC11F0470E396E4EC03AF04FC03BF00F
:10094800F80E3D6E000E3C6E000E3F6E000E3E6EC1
:10095800010E406E320E5CEC09F04EC011F04FC033
:1009680012F0DC0E136EFF0E146E45EC11F0780ECB
:10097800396E4EC03AF04FC03BF0000E3D6E1F0E70
:100988003C6E000E3F6E000E3E6E010E406E550E20
:100998005CEC09F04EC011F04FC012F0FB0E136E64
:1009A800FF0E146E45EC11F08C0E396E4EC03AF005
:1009B8004FC03BF0FF0E3D6E3C68000E3F6E000ED0
:1009C8003E6E010E406E0C0E5CEC09F04EC011F04C
:1009D8004FC012F0F40E136EFF0E146E45EC11F0BA
:1009E8008C0E396E4EC03AF04FC03BF0FF0E3D6E94
:1009F8003C68000E3F6E000E3E6E010E406E5F0EAC
:100A08005CEC09F0120022EC10F0D2EC03F0809AB2
:100A18008494320E5C6E5C508BEC0CF000D04CEC85
:100A28000FF062506E18D8B475D062C06EF00DEC3D
:100A380011F014C046F015C047F046C011F047C089
:100A480012F0000E146E090E136E8BEC11F011C02B
:100A580017F012C018F0000E1A6E050E196EE6ECAB
:100A68000CF0200E1724486E000E1820496E91ECE9
:100A780010F01FC04CF020C04DF0140E1D6EFF0E7C
:100A88001E6E5EC01FF0206A5FC021F0226A62C03D
:100A980023F0246A60C025F0266A5AC027F0286A25
:100AA8006CC029F02A6A25EC02F0760E1D6EFF0E46
:100AB8001E6E46C01FF047C020F048C021F049C054
:100AC80022F025EC02F08B0E1D6EFF0E1E6E4CC040
:100AD8001FF04DC020F05CC021F0226A25EC02F026
:100AE8005CC017F0186A000E1A6E0A0E196EE6EC52
:100AF8000CF017500101886F88C111F0126A48EC98
:100B080008F04CC011F04DC012F0B0EC0EF00EEC35
:100B180000F000D00001ED050001EE11D8A47FD748
:100B2800000E0001EE6F000EED6FB00E1D6EFF0E91
:100B38001E6E51C01FF0206A25EC02F0F288F19C6D
:100B48005D68000E01018A6F000E896F01018ABF7E
:100B58000AD001018A5120E1150E0101895DD8B042
:100B68001BD001D019D0540E01018925D96E010E70
:100B780001018A21DA6E5150DE18D8A408D089C143
:100B88005DF0000E01018A6F150E896F00D001011A
:100B9800894B8A2BDBD700D05D28D8A407D04A0E12
:100BA8001D6EFF0E1E6E25EC02F039D75BEC12F0BD
:100BB800C00E1D6EFF0E1E6E5DC01FF0206A25EC74
:100BC80002F0050E5D18D8A403D03DEC12F000D059
:100BD800060E5D18D8A403D0E7EC11F000D0070E7C
:100BE8005D18D8A403D0B2EC11F000D0080E5D183F
:100BF800D8A409D0320E1D6EFF0E1E6E25EC02F031
:100C0800E6EC0EF00CD75C508BEC0CF008D70CEF30
:100C180000F020C024F021C025F0241E251E244AFF
:100C2800252A010E24242A6E000E25202B6E000E84
:100C3800276E010E266E20C024F021C025F0D89022
:100C480024362536241E251E244A252A24C028F0A9
:100C580025C029F0000E2D6E000E2C6E20C02EF03F
:100C680021C02FF01E502024186E22C019F023C076
:100C78001AF01C505EEC11F0205000081E24186E6B
:100C880022C019F023C01AF01C505EEC11F01EC0EF
:100C980018F022C019F023C01AF01C5020245EEC72
:100CA80011F01EC018F022C019F023C01AF020500D
:100CB80000081C245EEC11F078D02BBE0BD02E0659
:100CC800D8A02F06020E2826000E292228502A26F0
:100CD80029502B222C4A2D2A020E2626000E2722C6
:100CE80026502A2627502B221E502E24186E22C04A
:100CF80019F023C01AF01C502C245EEC11F01E5081
:100D08002E24186E22C019F023C01AF02C500008A7
:100D18001C245EEC11F02E5000081E24186E22C010
:100D280019F023C01AF01C502C245EEC11F02E5040
:100D380000081E24186E22C019F023C01AF02C5087
:100D480000081C245EEC11F01E502C24186E22C0E2
:100D580019F023C01AF01C502E245EEC11F01E501E
:100D68002C24186E22C019F023C01AF02E50000847
:100D78001C245EEC11F02C5000081E24186E22C0B2
:100D880019F023C01AF01C502E245EEC11F02C50E0
:100D980000081E24186E22C019F023C01AF02E5025
:100DA80000081C245EEC11F000D02E502C5C2D5055
:100DB800800A246E2F50800A2458D8A07ED71200AB
:100DC800F2925250D8B4A3D0CE50CFCF01F0026ADD
:100DD80001C002F0016A01104A6E02504B6E000E0B
:100DE800CF6E000ECE6E93D0000ECF6E000ECE6E7C
:100DF8009E90900ECD6ECD80000E586E000E0001B4
:100E0800E56F000EE66F000EE76F000EE86F010E4B
:100E1800526E27D08DD0350E4A5C210E4B58D8A083
:100E280009D01C0E4A5C250E4B58D8B003D0020ED0
:100E3800526E2AD0DDEC12F027D026D079D0A10E40
:100E48004A5C0F0E4B58D8A009D0880E4A5C130E86
:100E58004B58D8B003D0030E526E03D0DDEC12F01D
:100E680000D0F18C65D0910E4A5C010E4B58D8A089
:100E780008D0BC0E4A5C020E4B58D8B002D0040E03
:100E8800D7D7DDEC12F000D0F19C52D0900E4A5C1E
:100E9800010E4B58D8A034D0090E4A5C070E4B58A7
:100EA800D8B02ED0D8900001E5350001E56F0001DB
:100EB800E6350001E66F0001E7350001E76F000144
:100EC800E8350001E86FE90E4A5C030E4B58D8A0DC
:100ED80008D0010E0001E527000EE623E723E823EA
:100EE80000D0582A1F0E586408D0000E0001EE6F7B
:100EF800010EED6FF298000E526E030E526E03D083
:100F0800DDEC12F000D0F18CE6C051F011D0525057
:100F1800000AD8B469D7010AD8B47DD7030AD8B46F
:100F28008ED7010AD8B49FD7070AD8B4AFD700D054
:100F38001200366E800E3660A6D09F0E2E6401D049
:100F4800A2D03450D8A403D0010E346E00D01F0EA6
:100F58002F6404D07E0E2F6403D000D03F0E2F6E76
:100F6800000E386E040E386401D08DD0530E2F60F9
:100F780015D0E00E2F24116E126AFF0E1222000EF9
:100F8800146E050E136E8BEC11F038501126000EFE
:100F98001222270E1124F66EFD0E14D0AD0E2F244A
:100FA800116E126AFF0E1222000E146E050E136ED9
:100FB8008BEC11F038501126000E1222260E112447
:100FC800F66EFE0E1220F76E0800F5CF35F000D051
:100FD800000E376E060E376401D053D035A023D0EB
:100FE8003404D8A40CD02E503724186E30C019F011
:100FF80031C01AF0365038245EEC11F03ED037502C
:101008003402F3502E24236E34C024F034C025F06B
:1010180030C026F031C027F038503402F35036245F
:1010280048EC10F02AD03050321804E1315033180F
:10103800D8B423D03404D8A40CD02E503724186E3A
:1010480032C019F033C01AF0365038245EEC11F073
:1010580014D037503402F3502E24236E34C024F0B9
:1010680034C025F032C026F033C027F0385034029F
:10107800F350362448EC10F000D0372AD890353297
:10108800A9D7382A6FD7120012BE0AD012BE06D0CE
:10109800125006E1090E115CD8B002D0809211D02E
:1010A80012BE11D0125004E10A0E115CD8A00BD068
:1010B80012BE06D0125007E1130E115CD8B003D04F
:1010C8008082809412D012BE12D0125004E1140E05
:1010D800115CD8A00CD012BE06D0125008E11D0E2B
:1010E800115CD8B004D0809213D0809858D012BE2A
:1010F80011D0125004E11E0E115CD8A00BD012BE04
:1011080006D0125007E1270E115CD8B003D08082B8
:101118008084EBD712BE10D0125004E1280E115C67
:10112800D8A00AD012BE06D0125006E1310E115CCA
:10113800D8B002D0809211D012BE11D0125004E162
:10114800320E115CD8A00BD012BE06D0125007E1A7
:101158003B0E115CD8B003D08082809412D012BEAE
:1011680012D0125004E13C0E115CD8A00CD012BE73
:1011780006D0125008E1450E115CD8B004D0809218
:101188000BD080880CD012BE0AD0125004E1460E53
:10119800115CD8A004D080828084F3D700D01200DC
:1011A800010EA2EC12F0000E186E960E176EACEC43
:1011B8000FF0110EA2EC12F0010E186EF40E176E5D
:1011C800ACEC0FF0B10EA2EC12F0010E9AEC12F09A
:1011D8002C0E9AEC12F02D0E9AEC12F0B20EA2EC34
:1011E80012F0010E9AEC12F02C0E9AEC12F02D0E61
:1011F8009AEC12F0B30EA2EC12F0010E9AEC12F077
:101208002C0E9AEC12F02D0E9AEC12F0010E9AECBC
:1012180012F02C0E9AEC12F02D0E9AEC12F0B40E7D
:10122800A2EC12F0070E9AEC12F0C00EA2EC12F02B
:10123800A20E9AEC12F0020E9AEC12F0840E9AECBE
:1012480012F0C10EA2EC12F0C50E9AEC12F0C20E0A
:10125800A2EC12F00A0E9AEC12F0000E9AEC12F0C0
:10126800C30EA2EC12F08A0E9AEC12F02A0E9AEC37
:1012780012F0C40EA2EC12F08A0E9AEC12F0EE0EE6
:101288009AEC12F0C50EA2EC12F00E0E9AEC12F0C7
:10129800200EA2EC12F0360EA2EC12F0C80E9AEC58
:1012A80012F03A0EA2EC12F0050E9AEC12F01200AF
:1012B8000001F36FF3C0F9F039C0F8F03AC011F04B
:1012C8003BC012F0B0EC10F011C0F4F012C0F5F011
:1012D800000E0001F76F000EF66F64D06F50D8B49F
:1012E80034D04050050D0001F951416E426AF35067
:1012F8004126F450422242BE28D0425004E1810ED9
:10130800415CD8A022D0000E0001F96F4050070DB3
:10131800F3500001F825030F0001F86FA00E00013B
:10132800F86504D0A00E0001F86F00D00001F65156
:101338003A24D96E0001F7513B20DA6E200EDE18F0
:10134800D8B42CD002D02AD000D0F8C02EF000019A
:10135800F6513A24D96E0001F7513B20DA6EDF507E
:101368002F6E3CC030F03DC031F03EC032F03FC07F
:1013780033F040C034F00001F9519DEC07F04050C3
:10138800060DF3500001F9250001F96F800E0001E8
:10139800F96504D0800E0001F96F00D00001F64B0A
:1013A800F72B00D00001F4510001F65D0001F55162
:1013B8000001F759D8A092D712001FC023F0246A61
:1013C800256A1E34233601E324802350266E2650D6
:1013D800D8A402D00ED06CD022C023F0246A256A8B
:1013E8002134233601E3248023502B6E2B50D8A4BC
:1013F80007D0000E1D6E000E1E6E000E1F6E58D018
:101408002B507B0F26261FC02BF022502B1A800E44
:101418002B161E8E218EFF0E2016FF0E2116000E93
:101428002216000E276E000E286E000E296E070E7B
:101438002A6E00D01DA007D0205027262150282230
:101448002250292200D0D8901F321E321D32D89047
:101458002036213622362A2EEDD700D0090E2A6EE4
:1014680000D01DA007D02050272621502822225026
:10147800292200D0D8901F321E321D32D89029322E
:10148800283227322A2EEDD700D027C011F028C0E5
:1014980012F029C013F026C014F02BC015F028EC68
:1014A8000CF011C01DF012C01EF013C01FF000D0C8
:1014B8001200E00EA2EC12F0020E9AEC12F01C0ED2
:1014C8009AEC12F0070E9AEC12F0120E9AEC12F047
:1014D800370E9AEC12F0320E9AEC12F0290E9AECB2
:1014E80012F02D0E9AEC12F0290E9AEC12F0250E3D
:1014F8009AEC12F02B0E9AEC12F0390E9AEC12F0CC
:10150800000E9AEC12F0010E9AEC12F0030E9AEC0F
:1015180012F0100E9AEC12F0E10EA2EC12F0030E8B
:101528009AEC12F01D0E9AEC12F0070E9AEC12F0DB
:10153800060E9AEC12F02E0E9AEC12F02C0E9AEC83
:1015480012F0290E9AEC12F02D0E9AEC12F02E0ED3
:101558009AEC12F02E0E9AEC12F0370E9AEC12F06A
:101568003F0E9AEC12F0000E9AEC12F0000E9AEC74
:1015780012F0020E9AEC12F0100E9AEC12F0130E02
:10158800A2EC12F0000E186E0A0E176EACEC0FF0FB
:10159800290EA2EC12F0000E186E640E176EACEC59
:1015A8000FF0120013C015F0166A176A12341536B8
:1015B80001E3168015501F6E1F50D8A402D039D0F1
:1015C80063D0170E156E11C016F012C017F013C0B5
:1015D80018F01528196E04D0D89018321732163220
:1015E800192EFAD716501A6E128EFF0E1116FF0E0C
:1015F8001216000E131611501B6E12501C6E13504B
:101608001D6E1E6A8E0E1F5E1FAE10D01F50800A00
:101618008F0FD8B003D00DD037D000D0D8901E325D
:101628001D321C321B321F3EF9D719D0170E1F640A
:1016380011D0000E116E000E126E000E136E000E09
:10164800146E22D007D0D8901B361C361D361E3695
:101658001F0600D01F50D8B402D0F5D700D01A50BA
:10166800D8B409D01E1E1D1E1C1E1B6C000E1C2289
:101678001D221E2200D01BC011F01CC012F01DC07C
:1016880013F01EC014F000D012002EC032F0336ADE
:10169800346A2D34323601E333803250396E395092
:1016A800D8A402D00ED061D031C032F0336A346A87
:1016B8003034323601E3338032503A6E3A50D8A48F
:1016C80007D0000E2C6E000E2D6E000E2E6E4DD023
:1016D800000E366E000E376E000E386E3A50890FC7
:1016E800395E2EC03AF031503A1A800E3A162D8ED5
:1016F800FF0E2C16FF0E2D16000E2E16308EFF0E26
:101708002F16FF0E3016000E3116180E356E00D04B
:10171800D8903636373638362F502C5C30502D5806
:1017280031502E58D8A007D02F502C5E30502D5A4B
:1017380031502E5A3680D8902C362D362E36352EEE
:10174800E7D700D036C011F037C012F038C013F018
:1017580039C014F03AC015F028EC0CF011C02CF088
:1017680012C02DF013C02EF000D01200236E800E90
:10177800236069D09F0E186401D065D0FF0E1D6EDE
:10178800FF0E1E6E195023C01FF0206A1F26000E80
:1017980020221D501F261E50202220BE0AD0205075
:1017A80004E1800E1F5CD8A004D023500008800FED
:1017B800196EFF0E1D6EFF0E1E6E1A5018C01FF018
:1017C800206A1F26000E20221D501F261E50202290
:1017D80020BE0BD0205004E1A00E1F5CD8A005D07D
:1017E80018500008A00F1A6E00D018C014F023502B
:1017F80019241D6E1D04156E18501A241E6E1E0421
:10180800166E2350D5EC0FF01C50216E1BC022F031
:10181800838083921AC018F01850D8B413D001D01E
:1018280011D019C023F02350D8B40AD001D008D061
:10183800215047EC12F0225047EC12F02306F3D760
:101848001806EAD7838212001450D8B405D0115074
:1018580012101310D8A40ED0000E116E000E126EC6
:10186800000E136E53D006D0142AD89013321232B9
:10187800113200D0000E1114166E000E1214176EDD
:10188800FE0E1314186E165017101810D8B40ED078
:10189800EBD70CD0142A010E1126000E1222000ECE
:1018A8001322D89013321232113200D0000E1114C4
:1018B800166E000E1214176EFF0E1314186E1650C3
:1018C80017101810D8B408D0E5D706D01406D89049
:1018D80011361236133600D012BE04D0020E146030
:1018E800F5D700D014B002D0129E00D0D890143290
:1018F800145013121550D8B402D0138E00D011C052
:1019080011F012C012F013C013F000D01200416E93
:10191800040ECB6E070ECA6E000E206E800E216E6E
:10192800400E226E41509FEC11F019C01DF01AC0F4
:101938001EF01BC01FF0E1EC09F01DC02CF01EC00A
:101948002DF01FC02EF0000E2F6EA00E306E410E2F
:10195800316E49EC0BF02CC03EF02DC03FF02EC08C
:1019680040F03EC011F03FC012F040C013F0D6EC7A
:101978000AF011C042F012C043F041503B6E3C6A7D
:1019880042503B5C3C50800A3D6E4350800A3D58B3
:10199800D8B003D0424A432A00D042C03BF0030EDD
:1019A8003B163B38F00B0C09BD6E42C03BF043C000
:1019B8003CF03C343C323B323C343C323B323B50D2
:1019C800BE6E1200000E1C6E1AAE07D0196C1A1EDD
:1019D800D8B01A2A010E1C6E00D018AE07D0176CAA
:1019E800181ED8B0182A010E1C1A00D0000E1E6E40
:1019F800000E1D6E19501A10D8B421D0010E1B6E9E
:101A080005D0D89019361A361B2A00D01ABE02D033
:101A1800F8D700D0D8901D361E361950175C1A50CA
:101A28001858D8A006D01950175E1A50185A1D8099
:101A380000D0D8901A3219321B2EECD700D01C5087
:101A4800D8B405D01D6C1E1ED8B01E2A00D01DC0EB
:101A580017F01EC018F000D0120043482D0043486C
:101A6800200043482B00505256004E585400504C0A
:101A78005900564C2D00564C2B0045512000203063
:101A88002000313030003230300020312000203248
:101A9800200020332000203420002035200020366C
:101AA8002000203720002038200020392000A262A2
:101AB800E22202C2E0A8906898B030187A10385A2A
:101AC800424A5220454345333330314C2046616CFD
:101AD8006C273231204C313100000000000000003A
:101AE8000000226E800E22603FD09F0E186401D045
:101AF8003BD0FF0E1C6EFF0E1D6E195018C01EF055
:101B08001F6A1E26000E1F221C501E261D501F2253
:101B18001FBE0BD01F5004E1A00E1E5CD8A005D03C
:101B280018500008A00F196E00D01B50206E1AC064
:101B380021F018C014F022C015F0185019241C6E9A
:101B48001C04166E2250D5EC0FF08380839207D0C8
:101B5800205047EC12F0215047EC12F000D0190643
:101B68001928D8A4F5D783821200000E166E12AE7B
:101B780007D0116C121ED8B0122A010E166E00D0B2
:101B880014AE05D0136C141ED8B0142A00D013500C
:101B98001410D8B41DD0010E156E05D0D890133688
:101BA8001436152A00D014BE02D0F8D700D013502E
:101BB800115C14501258D8A005D01350115E14505F
:101BC800125A00D0D89014321332152EF0D700D004
:101BD8001650D8B405D0116C121ED8B0122A00D0F5
:101BE80011C011F012C012F000D0120000EEE5F0A2
:101BF8000E0EEE6AE806FDE100EE46F0270EEE6AEC
:101C0800E806FDE1620EF66E1A0EF76E000EF86E2B
:101C180001EE00F010EE88F00900F5CFEEFFE55078
:101C2800E150FAE1320EF66E1E0EF76E000EF86EF7
:101C380000EE80F010EE65F00900F5CFEEFFE550FC
:101C4800E150FAE1C20EF66E250EF76E000EF86E40
:101C58000900F5CF6DF00900F5CF6EF00900F5CF5A
:101C68006FF0000EF86E000107EF05F00600EACFEE
:101C780006F0E1CF07F0E2CF08F0D9CF09F0DACFCC
:101C88000AF0F3CF0BF0F4CF0CF0F6CF0DF0F7CF4E
:101C98000EF0F8CF0FF0F5CF10F09EA003D0B7EC00
:101CA80012F000D0F2A203D0E4EC06F000D010C08D
:101CB800F5FF0FC0F8FF0EC0F7FF0DC0F6FF0CC010
:101CC800F4FF0BC0F3FF0AC0DAFF09C0D9FF08C050
:101CD800E2FF07C0E1FF06C0EAFF05C0E9FF04C054
:101CE800FBFF03C0FAFF1100136E000EAC6E000E6E
:101CF800AB6E13A002D0AC8800D013A203D0AC8C7A
:101D0800AB8C00D013A402D0AC8E00D013A602D0A6
:101D1800AB8802D0AB8A00D013B8AC849E9813AAC3
:101D280002D0AB8600D013AC02D09D8A01D09D9A18
:101D38009E9A13AE02D09D8801D09D9811C0AFFF26
:101D48001250B06EAC8AAB8E949C948EACB8ACBE7C
:101D580002D0948C00D0120011501210D8A402D0D6
:101D6800839C10D012BE10D0125003E11104D8A0E9
:101D78000BD012BE06D0080E115C070E1258D8B050
:101D880003D0838C839E1DD012BE10D0080E115C28
:101D9800070E1258D8A00AD012BE06D08C0E115CBD
:101DA8000A0E1258D8B002D0838C09D012BE09D0BE
:101DB8008C0E115C0A0E1258D8A003D0839C838E17
:101DC80000D01200680E136E000E146E000E626EC4
:101DD800000E5F6E000E5E6E000E5B6E280E5A6E71
:101DE800100E606E210E6C6E80EC12F013501324EE
:101DF800EEEC10F01450EEEC10F06250EEEC10F037
:101E08005F50EEEC10F05E50EEEC10F05B50EEEC34
:101E180010F05A50EEEC10F06050EEEC10F06C50F0
:101E2800EEEC10F077EC12F012000002040610122B
:101E3800141616161630303A30303A30300030303A
:101E48003A30303A30300030312F30312F303000D6
:101E580030303A30303A30300030373546004F466F
:101E680046000040C080300030302F30302F3030F6
:101E78000030303A30303A303000303030300030D6
:101E88003030004F4646002B3235002B37370000E4
:101E9800680E156E000E146E80EC12F015501524A5
:101EA800EEEC10F01450EEEC10F032EC12F0D8809A
:101EB8001534EEEC10F0010E6DEC10F0626E010EB0
:101EC8006DEC10F05F6E010E6DEC10F05E6E010EA1
:101ED8006DEC10F05B6E010E6DEC10F05A6E010E99
:101EE8006DEC10F0606E000E6DEC10F06C6E77EC1F
:101EF80012F01200000E176E000E166E135014101A
:101F0800D8B421D0010E156E05D0D89013361436EA
:101F1800152A00D014BE02D0F8D700D0D8901636B3
:101F280017361350115C14501258D8A006D013500D
:101F3800115E1450125A168000D0D8901432133201
:101F4800152EECD700D016C011F017C012F01200F1
:101F580017C011F018C012F0000E146E7D0E136E2B
:101F68008BEC11F011C01BF012C01CF01BC019F053
:101F78001CC01AF0191E1A1E194A1A2AFF0E192413
:101F88001B6EFF0E1A201C6E030ED56E1BC0D6FFEB
:101F98001C50D76EF294D58E00D0F2A4FED7D59EF1
:101FA8001200176E2A0EA2EC12F0000E9AEC12F034
:101FB800175059249AEC12F0000E9AEC12F01550B2
:101FC80059249AEC12F02B0EA2EC12F0000E9AECA7
:101FD80012F0145061249AEC12F0000E9AEC12F0F0
:101FE800165061249AEC12F02C0EA2EC12F012009A
:101FF8001A501B10D8B41DD0010E1C6E05D0D890F5
:102008001A361B361C2A00D01BBE02D0F8D700D0C7
:102018001A50185C1B501958D8A005D01A50185ED1
:102028001B50195A00D0D8901B321A321C2EF0D7E8
:1020380000D018C018F019C019F0120051EC12F0B5
:10204800700ED36E0F0EC16E000E926E010E936E5F
:10205800020E946E000E956E000E966EF19E000EA6
:10206800B26E030EB16EA00E116E860E126E010EC8
:10207800136E000E146EC2EC12F008EC12F02BEC8A
:1020880011F0000E506E12002B6E2BC02CF02D6A32
:102098000ED023C018F025C019F026C01AF027C0AA
:1020A8001BF02C5075EC0DF02C4A2D2A00D0245032
:1020B8002BC028F0296A2826000E292228502C5CDB
:1020C8002D50800A2A6E2950800A2A58D8A0E1D7B4
:1020D8001200116ED9EC12F0000E126E070E126487
:1020E80001D00FD0B1EC12F081AA03D0D8801336FA
:1020F80004D013501324136E00D0D5EC12F0122A1A
:10210800EDD71150D8B403D089EC12F003D0C7EC46
:1021180012F000D0135000D01200B2CF17F0186A96
:10212800000E1A6E020E196EE6EC0CF017C021F0C4
:1021380018C022F0000EB26E21C011F022C012F0B9
:10214800000E146E3C0E136E8BEC11F011C01FF0D4
:1021580012C020F000D0120011C015F012C016F005
:1021680003D0154A162A00D015C0D9FF16C0DAFFC9
:10217800DF50D8A4F6D711C013F012C014F0131E04
:10218800141E134A142A15501324116E16501420C5
:10219800126E00D012002A0EA2EC12F0000E9AEC79
:1021A80012F0000E9AEC12F0000E9AEC12F07F0E6C
:1021B8009AEC12F02B0EA2EC12F0000E9AEC12F030
:1021C800000E9AEC12F0000E9AEC12F09F0E9AECA8
:1021D80012F01200116E000E126E070E126401D07A
:1021E80011D011AE03D0D9EC12F003D0CCEC12F020
:1021F80000D0B1EC12F0D5EC12F011501124116E90
:10220800122AEBD7D9EC12F0B1EC12F0D5EC12F09F
:102218001200480E186EAA0E166E80EC12F01850B6
:102228001824EEEC10F01650EEEC10F032EC12F030
:10223800D8801834EEEC10F0000E6DEC10F0176E2C
:1022480077EC12F017C014F0156A00D01200F29261
:10225800F19CF288000ECF6E000ECE6E9E909D808F
:10226800F28CF28E000E0001EE6F000EED6F000E84
:102278000001E56F000EE66F000EE76F000EE86FD5
:10228800120011C015F012C016F005D0154A162A12
:10229800134A142A00D013C0F6FF14C0F7FF15C064
:1022A800D9FF16C0DAFF0800F5CFDFFFDF50D8A44A
:1022B800EDD712001B6E800E1B6013D09F0E1864A2
:1022C80001D00FD018C014F01B28156E1828166EF0
:1022D8001B50D5EC0FF01A509AEC12F019509AECEA
:1022E80012F0120083828390800EC76E300EC66E85
:1022F800D4EC08F0CFEC10F05DEC0AF0360EA2EC4E
:1023080012F0C00E9AEC12F0010E536E120011502A
:102318001302F3CF15F0F4CF16F011501402F35056
:10232800162612501302F350162615C011F016C0C7
:1023380012F000D012001C6E1C50116E126A136A43
:102348008E0E146E000E156E28EC0CF011C019F0EC
:1023580012C01AF013C01BF000D01200640E5C18F3
:10236800D8A406D05BEC12F05C508BEC0CF007D0D4
:102378005C50050F5C6E5C508BEC0CF000D01200CA
:10238800000E126E000E116E12BE08D0680E115C9F
:10239800420E1258D8B005D001D003D0114A122AE3
:1023A800F3D71200136E000E126E3A0E136006D0A9
:1023B8002F0E136403D0010E126E00D012C011F05C
:1023C800113000D012005C50D8A406D05BEC12F09B
:1023D8005C508BEC0CF007D05C50FB0F5C6E5C50D3
:1023E8008BEC0CF000D01200156E80EC12F015503A
:1023F8001524EEEC10F01350EEEC10F01450EEEC47
:1024080010F077EC12F01200480E166EAC0E136E38
:10241800020E146E1650F8EC11F0EE0E136E1650F4
:1024280025EC12F01200000E186E800E196EA00E28
:102438001A6E24C01BF025C01CF0000EBAEC0BF07D
:102448001200146E80EC12F014501424EEEC10F00C
:102458001350EEEC10F077EC12F01200D5EC12F0FD
:10246800D9EC12F0B1EC12F0CCEC12F0D5EC12F081
:1024780012005050D8A403D092EC12F003D0BDEC57
:1024880012F000D01200126E9E96C9CF11F012C041
:10249800C9FF00D0C7A0FED71200000E126E190E99
:1024A800116E3C0E78EC0EF0700ED36E12006EECCE
:1024B80012F0C4EC11F0D1EC12F05C508BEC0CF083
:1024C80012008394000E186E640E176EACEC0FF0B9
:1024D80083841200F90ECB6E050ECA6E4A0EBB6ECF
:1024E8003C0EBA6E1200D5EC12F0CCEC12F0B1EC46
:1024F80012F0D9EC12F01200D9EC12F0B1EC12F093
:10250800CCEC12F0D5EC12F01200CCEC12F0B1ECDD
:1025180012F0D5EC12F0D9EC12F01200010E506E48
:102528005C508BEC0CF0808A84821200136E8392CC
:102538008380135047EC12F083821200136E83924B
:102548008390135047EC12F083821200116E00D072
:10255800ACA2FED711C0ADFF12009388060EE82E7C
:10256800FED700D01200000E526EF19CCD909E90C6
:102578001200000E506E809A84921200B1EC12F094
:10258800D9EC12F01200B1EC12F0D5EC12F01200F6
:10259800819A939A00D000D01200000EBA6E8196EC
:1025A80012008198939800D01200938A00D000D02E
:0E25B8001200000E526ECD9012004BFF01007B
:10FD260000000000000000005F0000000700070060
:10FD3600147F147F14242A7F2A1223130864623640
:10FD4600495620500008070300001C2241000041CC
:10FD5600221C002A1C7F1C2A08083E080800807006
:10FD66003000080808080800006060002010080439
:10FD7600023E5149453E00427F400072494949468C
:10FD86002141494D331814127F1027454545393C0A
:10FD96004A494931412111090736494949364649F7
:10FDA60049291E0000140000004034000000081419
:10FDB6002241141414141400412214080201590992
:10FDC600063E415D594E7C1211127C7F49494936E7
:10FDD6003E414141227F4141413E7F494949417F60
:10FDE600090909013E414151737F0808087F004116
:10FDF6007F41002040413F017F081422417F40405F
:10FE060040407F021C027F7F0408107F3E41414133
:10FE16003E7F090909063E4151215E7F091929469F
:10FE2600264949493203017F01033F4040403F1FB5
:10FE36002040201F3F4038403F63140814630304EA
:10FE46007804036159494D43007F4141410204084A
:10FE56001020004141417F0402010204404040401D
:10FE660040000307080020545478407F2844443853
:10FE76003844444428384444287F3854545418009D
:10FE8600087E090218A4A49C787F0804047800441C
:10FE96007D40002040403D007F1028440000417F07
:10FEA60040007C047804787C080404783844444490
:10FEB60038FC1824241818242418FC7C0804040888
:10FEC600485454542404043F44243C4040207C1CA1
:10FED6002040201C3C4030403C44281028444C9094
:10FEE60090907C4464544C440008364100000077EE
:10FEF60000000041360800020102040201000A0067
:10FF06006400E803102701001000000100102530EE
:10FF160032783A253032783A253032782025303218
:10FF2600782F253032782F25303278000A54696DC3
:10FF36006520686173206265656E207265736574FD
:10FF46000D0A0A0043616E6E6F742066696E642046
:10FF5600627574746F6E200D0A0045434533333065
:10FF6600314C20537072696E672032312D53310047
:10FF76002054656D70203D2025642043203D2025BA
:10FF8600642046200052504D203D202564202064E8
:10FF960063203D2025640D0A003031323334353676
:10FFA600373839616263646566004E45435F436F67
:10FFB6006465203D2025780D0A00627574746F6EA5
:10FFC600203D202564200D0A0054656D7065726120
:10FFD600747572653A00202046414E0054696D657D
:10FFE6000044617465004F4E20004F464600525053
:0AFFF6004D00432F004443000000BB
:020000040020DA
:08000000FFFFFFFFFFFFFFFF00
:020000040030CA
:0E000000FF08191EFF8281FF0FC00FE00F40A6
:00000001FF
