:04000000A9EF7FF0F5
:10FF1E0000020406080A0C0E07060504030201007F
:10FF2E00000E026E000E016E02BE08D0680E015C5D
:10FF3E00420E0258D8B005D001D003D0014A022A91
:10FF4E00F3D712001E0EF66EFF0EF76E000EF86E51
:10FF5E0000EE15F010EE10F00900F5CFEEFFE550B3
:10FF6E00E150FAE10001BCEF7FF020EE15F010EE4B
:10FF7E0003F0070EDBCFE3FFE806FCE220EE1DF0F8
:10FF8E0010EE0BF0070EDBCFE3FFE806FCE2926803
:10FF9E00000E936E000E946E000E956E000E816E26
:10FFAE00000E826E00D0000E146E000E136E14BE84
:10FFBE0008D01450F8E1080E135CD8B0F4D701D075
:10FFCE00F2D7030E1324D96E000E1420DA6EDF5012
:10FFDE00826E0B0E1324D96E000E1420DA6EDF50D3
:10FFEE00836E97EC7FF0134A142AE1D7DCD700EF2B
:02FFFE0000F011
:020000040020DA
:08000000FFFFFFFFFFFFFFFF00
:020000040030CA
:0E000000FF08191EFF8381FF0FC00FE00F40A5
:00000001FF
