:04000000CDEF7FF0D1
:10FF9A000001E2EF7FF0000E026E000E016E02BE5B
:10FFAA0008D0680E015C420E0258D8B005D001D0C4
:10FFBA0003D0014A022AF3D712009268000E936E08
:10FFCA00000E946E000E956E030EC16E000E816EC9
:10FFDA00000E826E000E836E000E036E0E0E036418
:10FFEA0001D0FAD703C082FFD0EC7FF0032AF6D7FC
:06FFFA00F3D700EF00F058
:020000040020DA
:08000000FFFFFFFFFFFFFFFF00
:020000040030CA
:0E000000FF08191EFF8381FF0FC00FE00F40A5
:00000001FF
