:040000000CEF00F011
:10000800FACF34F0FBCF35F0E9CF36F0E5ED05F067
:10001800A7EF05F0500E0001E46F000E0001E56F38
:10002800D6D1250E0001EC19D8B405D00001EC5149
:100038007EEC08F0CCD1000E0001EB6F000EEA6FE9
:10004800000E0001E96F06D00001E9854E4A4F2AEB
:1000580001D00BD04EC0F6FF4FC0F7FF0800F55097
:10006800300AD8B4F1D701D0F5D74EC0F6FF4FC04B
:10007800F7FF0800F550F8EC07F0D8A03FD0000EC5
:100088000001EB6F000EEA6F00D0EAC042F0EBC04F
:1000980043F0000E456E0A0E446ED1EC07F042C0E4
:1000A800EAF043C0EBF0D00E5C6EFF0E5D6E4EC002
:1000B800F6FF4FC0F7FF0800F5505E6E5F6A5C50B0
:1000C8005E265D505F225E500001EA275F50000106
:1000D800EB234E4A4F2A4EC0F6FF4FC0F7FF0800E9
:1000E800F550F8EC07F0D8A009D0CFD707D07ED1CB
:1000F8001DD00001E98F1AD06AD118D04EC0F6FF82
:100108004FC0F7FF4E4A4F2A0800F5CFECF0000128
:10011800EC51000AD8B46AD1640AD8B407D00D0AE1
:10012800D8B404D0110AD8B4E4D751D10001E9BF3A
:1001380019D0E4C0D9FFE5C0DAFFDECFE7F0DDCFA4
:10014800E8F0020E0001E427000EE5230001E8AF05
:100158005DD0030E0001E9130001E76DE81FD8B078
:10016800E82B54D0E4C0D9FFE5C0DAFFDECFE7F0D2
:10017800DDCFE8F0020E0001E427000EE52346D0AB
:10018800010E0001EC6F050E0001EC19D8B448D03F
:1001980001D046D00001EC51020D500EF324F66E4A
:1001A800FF0EF420F76E0900F5500001E75D090025
:1001B800F5500001E859D8A033D001D031D0000162
:1001C800EC2BE1D72DD0010E0001EC6F040E0001DD
:1001D800EC19D8B425D001D023D00001EC51020D80
:1001E8005A0EF324F66EFF0EF420F76E0900F55050
:1001F8000001E75D0900F5500001E859D8A010D0CA
:1002080001D00ED00001EC2BE1D70AD00001E95152
:10021800800B000AD8B4B4D7800AD8B4D4D700D099
:100228000001EA510001EB11D8B40BD0E9C05CF031
:10023800030E5C16D8B405D00001EA07D8A0EB0776
:1002480000D0800E0001ECBF7F0E5C6E0001EA5109
:100258000001EC5D0001EB51800A5C58D8B00BD06E
:100268000001EC510001EA5F000E0001ECBFFF0E37
:100278000001EB5B06D0000E0001EB6F000EEA6F89
:1002880000D00001E9A51FD0E9C05CF0030E5C16A0
:10029800D8B404D02D0E7EEC08F000D00001EA514D
:1002A8000001EB11D8B42ED0300E7EEC08F000011E
:1002B800EA07D8A0EB070001EA510001EB11D8B416
:1002C80021D0F2D71FD00001EA510001EB11D8B4B8
:1002D8000FD0200E7EEC08F00001EA07D8A0EB074B
:1002E8000001EA510001EB11D8B402D0F2D700D0D6
:1002F800E9C05CF0030E5C16D8B404D02D0E7EEC79
:1003080008F000D0ECC0E6F05AD04AD00001E6511F
:10031800020D500EF324F66EFF0EF420F76E09005E
:10032800F5CF44F00A00F5CF45F0E7C042F0E8C049
:1003380043F0BFEC06F042C049F043C04AF0000E5B
:100348004C6E0A0E4B6EEDEC06F04950300F000172
:10035800EC6F30D0E7C042F0E8C043F00001E6514E
:10036800020D5A0EF324F66EFF0EF420F76E090004
:10037800F5CF44F00A00F5CF45F0BFEC06F0425047
:100388000F0B0001E36F0001E351010DBF0EF324D1
:10039800F66EFF0EF420F76E0800F5CFECF00AD0E9
:1003A8000001E951800B000AD8B4B0D7800AD8B44C
:1003B800D1D700D00001EC517EEC08F000D000014C
:1003C800E6070001E629D8B402D0EAD700D04EC02B
:1003D800F6FF4FC0F7FF4E4A4F2A0800F5CFECF062
:1003E8000001EC51D8B402D01CD600D01200F29211
:1003F8001750D8B49AD0CE50CFCF32F0336A32C02B
:1004080033F0326A32100B6E33500C6E000ECF6E22
:10041800000ECE6E8AD0000ECF6E000ECE6E9E906D
:10042800900ECD6ECD80000E1D6E000E016E000E7A
:10043800026E000E036E000E046E010E176E73D06E
:1004480085D0350E0B5C210E0C58D8A009D01C0E97
:100458000B5C250E0C58D8B003D0020E176E2AD0AC
:10046800B3EC08F027D026D071D0A10E0B5C0F0E8C
:100478000C58D8A009D0880E0B5C130E0C58D8B0B5
:1004880003D0030E176E4FD0B3EC08F04CD04BD00E
:100498005DD0910E0B5C010E0C58D8A008D0BC0E94
:1004A8000B5C020E0C58D8B002D0040ED7D7B3ECB0
:1004B80008F000D0F19C4AD0910E0B5C010E0C584C
:1004C800D8A02ED0080E0B5C070E0C58D8B028D038
:1004D800D8900134016E0234026E0334036E043482
:1004E800046EE90E0B5C030E0C58D8A00CD0010E5C
:1004F8000124016E000E0220026E000E0320036E1E
:10050800000E0420046E1D281D6E1F0E1D64B9D731
:10051800000E0E6E010E0D6EF298000E176EB1D71A
:10052800B3EC08F000D0F18C11D01750000AD8B401
:1005380072D7010AD8B485D7030AD8B496D7010A66
:10054800D8B4A7D7070AD8B4B7D700D012005FC06D
:10055800E3F00001E46BE56B5E340001E33701E38F
:10056800E4810001E3510001EA6F0001EA51D8A4D7
:1005780002D013D071D062C0E3F00001E46BE56BE8
:1005880061340001E33701E3E4810001E351000134
:10059800EB6F0001EB51D8A407D0000E5D6E000E82
:1005A8005E6E000E5F6E58D0000E0001E76F000E01
:1005B8000001E86F000E0001E96F0001EB51890F9F
:1005C8000001EA5F5FC0EBF062500001EB1B800E98
:1005D8000001EB175E8EFF0E5D16FF0E5E16000E15
:1005E8005F16618EFF0E6016FF0E6116000E621612
:1005F800180E0001E66F00D00001D890E737E83701
:10060800E93760505D5C61505E5862505F58D8A011
:1006180008D060505D5E61505E5A62505F5A0001BA
:10062800E781D8905D365E365F360001E62FE4D765
:1006380000D0E7C042F0E8C043F0E9C044F0EAC0A7
:1006480045F0EBC046F0F9EC04F042C05DF043C061
:100658005EF044C05FF000D0120050C054F0556AFC
:10066800566A4F34543601E355805450576E5750EC
:10067800D8A402D00ED06CD053C054F0556A566A34
:100688005234543601E3558054505C6E5C50D8A403
:1006980007D0000E4E6E000E4F6E000E506E58D0F2
:1006A8005C507B0F572650C05CF053505C1A800E8C
:1006B8005C164F8E528EFF0E5116FF0E5216000E0C
:1006C8005316000E586E000E596E000E5A6E070E25
:1006D8005B6E00D04EA007D0515058265250592278
:1006E80053505A2200D0D89050324F324E32D890C0
:1006F8005136523653365B2EEDD700D0090E5B6E5D
:1007080000D04EA007D0515058265250592253506D
:100718005A2200D0D89050324F324E32D8905A32A6
:10072800593258325B2EEDD700D058C042F059C02C
:1007380043F05AC044F057C045F05CC046F0F9ECAD
:1007480004F042C04EF043C04FF044C050F000D017
:10075800120044C046F0476A486A4334463601E30B
:1007680047804650506E5050D8A402D039D063D03C
:10077800170E466E42C047F043C048F044C049F0E7
:1007880046284A6E04D0D8904932483247324A2E19
:10079800FAD747504B6E438EFF0E4216FF0E431694
:1007A800000E441642504C6E43504D6E44504E6EEF
:1007B8004F6A8E0E505E50AE10D05050800A8F0F88
:1007C800D8B003D00DD037D000D0D8904F324E32A9
:1007D8004D324C32503EF9D719D0170E506411D013
:1007E800000E426E000E436E000E446E000E456E03
:1007F80022D007D0D8904C364D364E364F3650065C
:1008080000D05050D8B402D0F5D700D04B50D8B44F
:1008180009D04F1E4E1E4D1E4C6C000E4D224E220E
:100828004F2200D04CC042F04DC043F04EC044F0BF
:100838004FC045F000D0120013EC07F076EC08F03A
:10084800320E216E21508EEC04F000D05BEC06F0E5
:1008580027506418D8B4FAD727C064F09BEC07F087
:1008680045C007F046C008F007C042F008C043F092
:10087800000E456E090E446ED1EC07F042C048F0F8
:1008880043C049F0000E4B6E050E4A6E5CEC05F055
:10089800200E4824096E000E49200A6E5DEC07F010
:1008A80050C00FF051C010F0620E4E6EFF0E4F6E2A
:1008B80023C050F0516A24C052F0536A27C054F044
:1008C800556A25C056F0576A1FC058F0596A31C09A
:1008D8005AF05B6A0EEC00F0960E4E6EFF0E4F6EED
:1008E80007C050F008C051F009C052F00AC053F0D8
:1008F8000EEC00F0AB0E4E6EFF0E4F6E0FC050F0B8
:1009080010C051F021C052F0536A0EEC00F09ED78F
:100918000CEF00F00001F26F040ECB6E070ECA6EEA
:10092800000E516E800E526E400E536E0001F25151
:10093800E5EC07F04AC04EF04BC04FF04CC050F009
:1009480031EC03F04EC05DF04FC05EF050C05FF078
:10095800000E606EA00E616E410E626EABEC02F08E
:100968005DC0EFF05EC0F0F05FC0F1F0EFC042F0A4
:10097800F0C043F0F1C044F0ADEC03F042C0F3F036
:1009880043C0F4F00001F2510001EC6FED6B00017F
:10099800F3510001EC5D0001ED51800A0001EE6F9A
:1009A8000001F451800A0001EE59D8B004D00001CA
:1009B800F34BF42B00D0F3C0ECF0030E0001EC175E
:1009C8000001EC39F00B0C09BD6EF3C0ECF0F4C07B
:1009D800EDF00001ED35ED33EC330001ED35ED338D
:1009E800EC330001EC51BE6E12004550D8B405D06E
:1009F800425043104410D8A40ED0000E426E000E90
:100A0800436E000E446E53D006D0452AD890443227
:100A18004332423200D0000E4214476E000E431497
:100A2800486EFE0E4414496E475048104910D8B419
:100A38000ED0EBD70CD0452A010E4226000E4322D9
:100A4800000E4422D89044324332423200D0000E85
:100A58004214476E000E4314486EFF0E4414496E4C
:100A6800475048104910D8B408D0E5D706D04506F5
:100A7800D89042364336443600D043BE04D0020EE6
:100A88004560F5D700D045B002D0439E00D0D8903D
:100A98004532455044124650D8B402D0448E00D056
:100AA80042C042F043C043F044C044F000D01200BA
:100AB800000E4D6E4BAE07D04A6C4B1ED8B04B2A79
:100AC800010E4D6E00D049AE07D0486C491ED8B013
:100AD800492A010E4D1A00D0000E4F6E000E4E6EC0
:100AE8004A504B10D8B421D0010E4C6E05D0D89086
:100AF8004A364B364C2A00D04BBE02D0F8D700D02D
:100B0800D8904E364F364A50485C4B504958D8A07A
:100B180006D04A50485E4B50495A4E8000D0D89073
:100B28004B324A324C2EECD700D04D50D8B405D0B9
:100B38004E6C4F1ED8B04F2A00D04EC048F04FC060
:100B480049F000D012000001F66BF56B00EE01F0E1
:100B5800310EEE6AE806FDE1120EF66E100EF76E23
:100B6800000EF86E01EE00F010EE21F00900F5CF4E
:100B7800EEFFE550E150FAE11A0EF66E0D0EF76E33
:100B8800000EF86E00EE80F010EE63F00900F5CF6D
:100B9800EEFFE550E150FAE1220EF66E110EF76E07
:100BA800000EF86E00EE63F010EE0BF00900F5CFC2
:100BB800EEFFE550E150FAE1000EF86E000120EF7B
:100BC80004F00600EACF37F0E1CF38F0E2CF39F091
:100BD800D9CF3AF0DACF3BF0F3CF3CF0F4CF3DF089
:100BE800F6CF3EF0F7CF3FF0F8CF40F0F5CF41F029
:100BF8009EA003D08BEC08F000D0F2A203D0FBEC4F
:100C080001F000D041C0F5FF40C0F8FF3FC0F7FF3A
:100C18003EC0F6FF3DC0F4FF3CC0F3FF3BC0DAFF27
:100C28003AC0D9FF39C0E2FF38C0E1FF37C0EAFF58
:100C380036C0E9FF35C0FBFF34C0FAFF1100446E2F
:100C4800000EAC6E000EAB6E44A002D0AC8800D093
:100C580044A203D0AC8CAB8C00D044A402D0AC8EA0
:100C680000D044A602D0AB8802D0AB8A00D044B8EA
:100C7800AC849E9844AA02D0AB8600D044AC02D083
:100C88009D8A01D09D9A9E9A44AE02D09D8801D03B
:100C98009D9842C0AFFF4350B06EAC8AAB8E949C17
:100CA800948EACB8ACBE02D0948C00D01200680E02
:100CB800466E000E456E64EC08F0465046247CEC07
:100CC80007F045507CEC07F046EC08F0D880463435
:100CD8007CEC07F0010E39EC07F0276E010E39ECB9
:100CE80007F0246E010E39EC07F0236E010E39EC83
:100CF80007F0206E010E39EC07F01F6E010E39EC7B
:100D080007F0256E000E39EC07F0316E5BEC08F049
:100D18001200A262E22202C2E0A8906898B03018DD
:100D28007A10385A424A5230303A30303A3030002D
:100D380030303A30303A30300030312F30312F30C7
:100D4800300030303A30303A3030003037354600F5
:100D58004F464600300030302F30302F30300030D2
:100D6800303A30303A3030003030303000303030C7
:100D7800004F46460000000E486E000E476E445075
:100D88004510D8B421D0010E466E05D0D89044360F
:100D98004536462A00D045BE02D0F8D700D0D890B4
:100DA800473648364450425C45504358D8A006D090
:100DB8004450425E4550435A478000D0D89045324F
:100DC8004432462EECD700D047C042F048C043F02A
:100DD80012004B504C10D8B41DD0010E4D6E05D0EA
:100DE800D8904B364C364D2A00D04CBE02D0F8D79E
:100DF80000D04B50495C4C504A58D8A005D04B50B5
:100E0800495E4C504A5A00D0D8904C324B324D2E45
:100E1800F0D700D049C049F04AC04AF0120051EC5E
:100E280008F0700ED36E0F0EC16E000E926E010E9A
:100E3800936E010E946E000E956E000E156EF19E67
:100E4800000EB26E030EB16EA00E426E860E436E99
:100E5800010E446E000E456E9CEC08F02AEC08F07A
:100E6800B9EC07F097EC08F01200426EAFEC08F00E
:100E7800000E436E070E436401D00FD085EC08F0D6
:100E880081AA03D0D880443604D044504424446E08
:100E980000D0ABEC08F0432AEDD74250D8B403D0C9
:100EA8006DEC08F003D0A1EC08F000D0445000D05D
:100EB8001200B2CF48F0496A000E4B6E020E4A6E1D
:100EC8005CEC05F048C052F049C053F0000EB26E19
:100ED80052C042F053C043F0000E456E3C0E446EC3
:100EE800D1EC07F042C050F043C051F000D01200DE
:100EF800426E000E436E070E436401D011D042AE1D
:100F080003D0AFEC08F003D0A6EC08F000D085ECD5
:100F180008F0ABEC08F042504224426E432AEBD76B
:100F2800AFEC08F085EC08F0ABEC08F01200480EC6
:100F3800496EAA0E476E64EC08F0495049247CECCF
:100F480007F047507CEC07F046EC08F0D8804934AD
:100F58007CEC07F0000E39EC07F0486E5BEC08F00B
:100F680048C045F0466A00D01200F292F19CF2881F
:100F7800000ECF6E000ECE6E9E909D80F28CF28E8B
:100F8800000E0E6E000E0D6E000E016E000E026E4B
:100F9800000E036E000E046E120042504402F3CF9E
:100FA80046F0F4CF47F042504502F35047264350ED
:100FB8004402F350472646C042F047C043F000D0F1
:100FC80012004D6E4D50426E436A446A8E0E456E55
:100FD800000E466EF9EC04F042C04AF043C04BF0F4
:100FE80044C04CF000D01200446E000E436E3A0E1E
:100FF800446006D02F0E446403D0010E436E00D027
:1010080043C042F0423000D01200204543453333FC
:1010180030314C205370273231204C3132000000DF
:10102800000000000000000000000000466E64ECB4
:1010380008F0465046247CEC07F044507CEC07F05E
:1010480045507CEC07F05BEC08F01200480E476E48
:10105800AC0E446E020E456E47501AEC08F0EE0EC8
:10106800446E475039EC08F01200456E64EC08F005
:10107800455045247CEC07F044507CEC07F05BECD1
:1010880008F01200ABEC08F0AFEC08F085EC08F0C3
:10109800A6EC08F0ABEC08F01200000E436E190E37
:1010A800426E3C0E23EC06F0700ED36E1200ABECD1
:1010B80008F0A6EC08F085EC08F0AFEC08F0120098
:1010C800AFEC08F085EC08F0A6EC08F0ABEC08F003
:1010D8001200A6EC08F085EC08F0ABEC08F0AFECD9
:1010E80008F01200010E156E21508EEC04F0808A73
:1010F80084841200426E00D0ACA2FED742C0ADFF7D
:1011080012009388060EE82EFED700D01200000EBB
:10111800176EF19CCD909E9012004BFF012B32353B
:10112800002B37370000000E156E809A8494120049
:1011380085EC08F0AFEC08F0120085EC08F0ABEC99
:1011480008F01200819A939A00D000D0120081987A
:10115800939800D01200938A00D000D01200000E9D
:06116800176ECD9012008D
:10FD740000000000000000005F0000000700070012
:10FD8400147F147F14242A7F2A12231308646236F2
:10FD9400495620500008070300001C22410000417E
:10FDA400221C002A1C7F1C2A08083E0808008070B8
:10FDB40030000808080808000060600020100804EB
:10FDC400023E5149453E00427F400072494949463E
:10FDD4002141494D331814127F1027454545393CBC
:10FDE4004A494931412111090736494949364649A9
:10FDF40049291E00001400000040340000000814CB
:10FE04002241141414141400412214080201590943
:10FE1400063E415D594E7C1211127C7F4949493698
:10FE24003E414141227F4141413E7F494949417F11
:10FE3400090909013E414151737F0808087F0041C7
:10FE44007F41002040413F017F081422417F404010
:10FE540040407F021C027F7F0408107F3E414141E5
:10FE64003E7F090909063E4151215E7F0919294651
:10FE7400264949493203017F01033F4040403F1F67
:10FE84002040201F3F4038403F631408146303049C
:10FE94007804036159494D43007F414141020408FC
:10FEA4001020004141417F040201020440404040CF
:10FEB40040000307080020545478407F2844443805
:10FEC4003844444428384444287F3854545418004F
:10FED400087E090218A4A49C787F080404780044CE
:10FEE4007D40002040403D007F1028440000417FB9
:10FEF40040007C047804787C080404783844444442
:10FF040038FC1824241818242418FC7C0804040839
:10FF1400485454542404043F44243C4040207C1C52
:10FF24002040201C3C4030403C44281028444C9045
:10FF340090907C4464544C4400083641000000779F
:10FF440000000041360800020102040201000A0018
:10FF54006400E803102701001000000100102530A0
:10FF640032783A253032783A2530327820253032CA
:10FF7400782F253032782F253032780045434533A9
:10FF84003330314C20537072696E672032312D53F7
:10FF940031002054656D70203D2025642043203DB0
:10FFA4002025642046200052504D203D2025642009
:10FFB400206463203D2025640D0A0030313233343F
:10FFC40035363738396162636465660054656D702F
:10FFD400657261747572653A00202046414E005482
:10FFE400696D650044617465004F4E20004F4646BC
:0CFFF4000052504D00432F004443000019
:020000040020DA
:08000000FFFFFFFFFFFFFFFF00
:020000040030CA
:0E000000FF08191EFF8281FF0FC00FE00F40A6
:00000001FF
