:040000000CEF00F011
:10000800FACF03F0FBCF04F0E9CF05F068ED16F066
:10001800B6EF17F046AE23D02D0E0001D96F46502B
:100028007F0B0008800F0101486F48C13CF10101B6
:100038003D6B000E01013F6F0A0E3E6F5EEC12F041
:1000480001013C51300F0001DA6F48C13BF03C6AB6
:10005800000E3E6E0A0E3D6E36EC17F01DD02B0ECC
:100068000001D96F46C03CF147C03DF1000E0101C7
:100078003F6F0A0E3E6F5EEC12F001013C51300FEB
:100088000001DA6F46C03BF047C03CF0000E3E6E00
:100098000A0E3D6E36EC17F03B50300F0001DB6F57
:1000A80000D049AE35D02D0E0001DD6F7F0E48140B
:1000B8000001FE6F000E49140001FF6F0001FE1FD2
:1000C800FF1FFE4BFF2B800E0001FE250101466F2E
:1000D800000E0001FF210101476F46C13CF147C1F5
:1000E8003DF1000E01013F6F0A0E3E6F5EEC12F00B
:1000F80001013C51300F0001DE6F46C13BF047C1A2
:100108003CF0000E3E6E0A0E3D6E36EC17F01DD028
:100118002B0E0001DD6F48C03CF149C03DF1000ED7
:1001280001013F6F0A0E3E6F5EEC12F001013C5177
:10013800300F0001DE6F48C03BF049C03CF0000EB4
:100148003E6E0A0E3D6E36EC17F03B50300F000144
:10015800DF6F00D05F380F0B300F0001AF6F5F50BB
:100168000F0B300F0001B06F60380F0B300F00011C
:10017800B26F60500F0B300F0001B36F63380F0B75
:10018800300F0001B56F63500F0B300F0001B66FD1
:1001980061380F0B300F00018B6F61500F0B300F60
:1001A80000018C6F5B380F0B300F00018E6F5B50B6
:1001B8000F0B300F00018F6F6E380F0B300F0001DF
:1001C800916F6E500F0B300F0001926F57380F0B65
:1001D800300F0001826F57500F0B300F0001836FF3
:1001E80058380F0B300F0001856F58500F0B300F28
:1001F8000001866F59380F0B300F0001886F595076
:100208000F0B300F0001896F44044510D8A40BD0A0
:10021800CD0E116E000E126EE90E136EFF0E146EE7
:1002280054EC1CF00BD0CD0E116E000E126EED0EBC
:10023800136EFF0E146E54EC1CF000D06FC03CF12E
:1002480001013D6B000E01013F6F640E3E6F5EECD5
:1002580012F001013C51300F0001BE6F000E3E6EDE
:10026800640E3D6E6FC03BF03C6A36EC17F03BC045
:100278003CF13CC03DF1000E01013F6F0A0E3E6F9C
:100288005EEC12F001013C51300F0001BF6F6FC0EE
:100298003BF03C6A000E3E6E0A0E3D6E36EC17F0DF
:1002A8003B50300F0001C06F5004D8A40BD0D50EBE
:1002B800116E000E126EE90E136EFF0E146E54ECE2
:1002C8001CF00BD0D50E116E000E126EED0E136ED3
:1002D800FF0E146E54EC1CF000D082B202D0310E26
:1002E80001D0300E0001E16F00D05DC03CF101018A
:1002F8003D6B000E01013F6F640E3E6F5EEC12F025
:1003080001013C51300F0001D16F000E3E6E640EAA
:100318003D6E5DC03BF03C6A36EC17F03BC03CF1EB
:100328003CC03DF1000E01013F6F0A0E3E6F5EECCE
:1003380012F001013C51300F0001D26F000E3E6EE9
:10034800640E3D6E5DC03BF03C6A36EC17F03BC076
:1003580044F13CC045F144C13BF045C13CF0000EBE
:100368003E6E0A0E3D6E36EC17F03B50300F000122
:10037800D36FE7C02CF0E8C02DF0E9C02EF00CECEC
:1003880011F02C50300F0001B86F000E206E200EB7
:10039800216E410E226EE7C01DF0E8C01EF0E9C0D4
:1003A8001FF025EC0FF01DC02CF01EC02DF01FC053
:1003B8002EF00CEC11F02CC03BF02DC03CF0000EE0
:1003C8003E6E0A0E3D6E36EC17F03B50300F0001C2
:1003D800BA6F000E206EC80E216E420E226EE7C064
:1003E8001DF0E8C01EF0E9C01FF025EC0FF01DC09D
:1003F8002CF01EC02DF01FC02EF00CEC11F02CC0FC
:100408003BF02DC03CF0000E3E6E0A0E3D6E36EC01
:1004180017F03B50300F0001BB6F4CC03CF14DC092
:100428003DF1030E01013F6FE80E3E6F5EEC12F0E6
:1004380001013C51300F0001C36F030E3E6EE80E00
:100448003D6E4CC03BF04DC03CF036EC17F03BC065
:100458003CF13CC03DF1000E01013F6F640E3E6F60
:100468005EEC12F001013C51300F0001C46F000E28
:100478003E6E640E3D6E4CC03BF04DC03CF036EC19
:1004880017F03BC03CF13CC03DF1000E01013F6F4D
:100498000A0E3E6F5EEC12F001013C51300F000174
:1004A800C56F4CC03BF04DC03CF0000E3E6E0A0ECE
:1004B8003D6E36EC17F03B50300F0001C66F170E3B
:1004C800396ED90E3A6E000E3B6EFF0E3D6EE00E91
:1004D8003C6E000E3F6E000E3E6E020E406E010E28
:1004E80092EC0DF0170E396EDD0E3A6E000E3B6E73
:1004F800FF0E3D6EE00E3C6E000E3F6E000E3E6E2F
:10050800020E406E460E92EC0DF0340E396EAF0EB0
:100518003A6E000E3B6E070E3D6E3C68000E3F6E55
:10052800000E3E6E020E406E0F0E92EC0DF0520E53
:10053800396E8B0E3A6E000E3B6E070E3D6EE00E66
:100548003C6E000E3F6E000E3E6E020E406E0F0EA9
:1005580092EC0DF06E0E396E820E3A6E000E3B6E06
:10056800070E3D6E3C68000E3F6E000E3E6E010E9B
:10057800406E0A0E92EC0DF06E0E396ECD0E3A6E8C
:10058800000E3B6E070E3D6E3C68000E3F6E000E7F
:100598003E6E010E406E5F0E92EC0DF0820E396ECB
:1005A800BE0E3A6E000E3B6EF80E3D6E000E3C6EAF
:1005B800000E3F6E000E3E6E010E406E230E92EC52
:1005C8000DF0820E396ED50E3A6E000E3B6EF80EA7
:1005D8003D6E000E3C6E000E3F6E000E3E6E010E2C
:1005E800406E5F0E92EC0DF0960E396ED10E3A6E9B
:1005F800000E3B6E070E3D6EE00E3C6E000E3F6E29
:10060800000E3E6E010E406E0A0E92EC0DF0960E34
:10061800396EE10E3A6E000E3B6E070E3D6EE00E2F
:100628003C6E000E3F6E000E3E6E010E406E230EB5
:1006380092EC0DF0960E396EB80E3A6E000E3B6EC7
:10064800070E3D6EE00E3C6E000E3F6E000E3E6ED5
:10065800010E406E320E92EC0DF0960E396EC30EFE
:100668003A6E000E3B6E070E3D6EE00E3C6E000EBD
:100678003F6E000E3E6E010E406E5D0E92EC0DF068
:10068800120022EC1EF0B2EC1CF0000E256E000EDB
:10069800246E63EC1DF04EC011F04FC012F0600ED6
:1006A800136EFF0E146E54EC1CF0010E396E4EC022
:1006B8003AF04FC03BF0FF0E3D6E3C68000E3F6EB7
:1006C800000E3E6E010E406E010E92EC0DF04EC013
:1006D80011F04FC012F0880E136EFF0E146E54EC1A
:1006E8001CF00B0E396E4EC03AF04FC03BF0F80EBE
:1006F8003D6E1F0E3C6E000E3F6E000E3E6E010EEC
:10070800406E180E92EC0DF0000E1D6E280E1C6E39
:10071800000E1F6E170E1E6E000E216E020E206E4A
:10072800FF0E236EE00E226E66EC09F04EC011F04B
:100738004FC012F0F50E136EFF0E146E54EC1CF041
:10074800170E396E4EC03AF04FC03BF0FF0E3D6EAB
:10075800E00E3C6E000E3F6E000E3E6E020E406EC6
:100768002D0E92EC0DF04EC011F04FC012F0EF0EAE
:10077800136EFF0E146E54EC1CF0000E1D6E6E0E00
:100788001C6E000E1F6E170E1E6E000E216E020EDE
:10079800206EFF0E236EE00E226E66EC09F0170E37
:1007A800396E4EC03AF04FC03BF0FF0E3D6EE00E82
:1007B8003C6E000E3F6E000E3E6E020E406E730ED3
:1007C80092EC0DF04EC011F04FC012F0B00E136E47
:1007D800FF0E146E54EC1CF0280E396E4EC03AF021
:1007E8004FC03BF0000E3D6E1F0E3C6E000E3F6E7C
:1007F800000E3E6E010E406E320E92EC0DF04EC0B1
:1008080011F04FC012F0DF0E136EFF0E146E54EC91
:100818001CF0470E396E4EC03AF04FC03BF0F80E50
:100828003D6E000E3C6E000E3F6E000E3E6E010ED9
:10083800406E320E92EC0DF04EC011F04FC012F027
:10084800AA0E136EFF0E146E54EC1CF0640E396E73
:100858004EC03AF04FC03BF0FF0E3D6EE00E3C6ECE
:10086800000E3F6E000E3E6E010E406E040E92ECBE
:100878000DF04EC011F04FC012F0BF0E136EFF0EF8
:10088800146E54EC1CF0640E396E4EC03AF04FC032
:100898003BF0FF0E3D6EE00E3C6E000E3F6E000E0C
:1008A8003E6E010E406E4D0E92EC0DF04EC011F0F2
:1008B8004FC012F06F0E136EFF0E146E54EC1CF046
:1008C800780E396E4EC03AF04FC03BF0000E3D6EC8
:1008D8001F0E3C6E000E3F6E000E3E6E010E406E07
:1008E800060E92EC0DF04EC011F04FC012F0D80E6B
:1008F800136EFF0E146E54EC1CF0780E396E4EC059
:100908003AF04FC03BF0000E3D6E1F0E3C6E000EDD
:100918003F6E000E3E6E010E406E550E92EC0DF0CD
:100928004EC011F04FC012F0F80E136EFF0E146E89
:1009380054EC1CF08C0E396E4EC03AF04FC03BF0B0
:10094800FF0E3D6E3C68000E3F6E000E3E6E010EBF
:10095800406E0C0E92EC0DF04EC011F04FC012F02C
:10096800FB0E136EFF0E146E54EC1CF08C0E396ED9
:100978004EC03AF04FC03BF0FF0E3D6E3C68000E93
:100988003F6E000E3E6E010E406E210E92EC0DF091
:100998004EC011F04FC012F0E40E136EFF0E146E2D
:1009A80054EC1CF08C0E396E4EC03AF04FC03BF040
:1009B800FF0E3D6E3C68000E3F6E000E3E6E010E4F
:1009C800406E320E92EC0DF04EC011F04FC012F096
:1009D800F10E136EFF0E146E54EC1CF08C0E396E73
:1009E8004EC03AF04FC03BF0FF0E3D6E3C68000E23
:1009F8003F6E000E3E6E010E406E5F0E92EC0DF0E3
:100A080012001F0E306E000E316E99D1250E381867
:100A1800D8B404D0385088EC1EF091D1000E376E4F
:100A2800000E366E000E356E05D035841D4A1E2A1E
:100A380001D00BD01DC0F6FF1EC0F7FF0800F5500F
:100A4800300AD8B4F2D701D0F5D71DC0F6FF1EC0C2
:100A5800F7FF0800F55013EC1DF0D8A03BD0000EAE
:100A6800376E000E366E00D036C011F037C012F067
:100A7800000E146E0A0E136EC7EC1CF011C036F08F
:100A880012C037F0D00E2B6EFF0E2C6E1DC0F6FF75
:100A98001EC0F7FF0800F5502D6E2E6A2B502D262C
:100AA8002C502E222D5036262E5037221D4A1E2A13
:100AB8001DC0F6FF1EC0F7FF0800F55013EC1DF02F
:100AC800D8A008D0D1D706D048D11BD0358E19D0A0
:100AD80036D117D01DC0F6FF1EC0F7FF1D4A1E2ACB
:100AE8000800F5CF38F03850000AD8B436D1640A77
:100AF800D8B407D00D0AD8B404D0110AD8B4E6D7B0
:100B08001ED135BE15D030C0D9FF31C0DAFFDECFD7
:100B180033F0DDCF34F0020E3026000E312234AE31
:100B28004ED0030E3512336C341ED8B0342A47D059
:100B380030C0D9FF31C0DAFFDECF33F0DDCF34F07B
:100B4800020E3026000E31223AD0010E386E050E04
:100B58003818D8B43DD001D03BD03850020D680EBB
:100B6800F324F66EFE0EF420F76E0900F550335CA0
:100B78000900F5503458D8A02BD001D029D0382AF4
:100B8800E6D726D0010E386E040E3818D8B420D017
:100B980001D01ED03850020D720EF324F66EFE0EF0
:100BA800F420F76E0900F550335C0900F55034580D
:100BB800D8A00ED001D00CD0382AE6D709D03550AD
:100BC800800B000AD8B4C1D7800AD8B4DBD700D0CC
:100BD80036503710D8B40AD035C02BF0030E2B1678
:100BE800D8B404D03606D8A0370600D0800E38BE58
:100BF8007F0E2B6E3650385C3750800A2B58D8B091
:100C080007D03850365E000E38BEFF0E375A05D072
:100C1800000E376E000E366E00D035A41AD035C0DF
:100C28002BF0030E2B16D8B404D02D0E88EC1EF032
:100C380000D036503710D8B426D0300E88EC1EF0CD
:100C48003606D8A0370636503710D8B41CD0F5D79A
:100C58001AD036503710D8B40CD0200E88EC1EF0BD
:100C68003606D8A0370636503710D8B402D0F5D794
:100C780000D035C02BF0030E2B16D8B404D02D0E9F
:100C880088EC1EF000D038C032F053D045D0325036
:100C9800020D680EF324F66EFE0EF420F76E0900BE
:100CA800F5CF13F00A00F5CF14F033C011F034C0BB
:100CB80012F093EC19F011C018F012C019F0000EE0
:100CC8001B6E0A0E1A6EB0EC1AF01850300F386E00
:100CD8002CD033C011F034C012F03250020D720E15
:100CE800F324F66EFE0EF420F76E0900F5CF13F02C
:100CF8000A00F5CF14F093EC19F011500F0B2F6E7A
:100D08002F50010D2F0EF324F66EFF0EF420F76E10
:100D18000800F5CF38F009D03550800B000AD8B458
:100D2800B6D7800AD8B4D5D700D0385088EC1EF092
:100D380000D032063228D8B402D0EED700D01DC079
:100D4800F6FF1EC0F7FF1D4A1E2A0800F5CF38F02F
:100D58003850D8B402D05AD600D01200F0EC17F0B0
:100D680045EC03F0EAEC19F08AEC1AF0000180690E
:100D780000D02FEC19F0635000018019D8B4A7D027
:100D880063C080F043EC1BF041C04CF042C04DF012
:100D9800FDEC18F03BC0E7F03CC0E8F03DC0E9F0DE
:100DA8001DEC1CF014C046F015C047F046AE1DD02F
:100DB80046C049F147C04AF10101491F4A1F494B42
:100DC8004A2B800E01014927000E4A237F0E01019C
:100DD8004917000E4A170101491F4A1F494B4A2B60
:100DE80049C146F04AC147F000D046C011F047C09B
:100DF80012F0000E146E090E136EC7EC1CF011C031
:100E08003CF112C03DF1000E01013F6F050E3E6F2F
:100E18005EEC12F0200E01013C25486E000E010127
:100E28003D21496E7A0E1D6EFE0E1E6E5FC01FF0CC
:100E3800206A60C021F0226A63C023F0246A61C07E
:100E480025F0266A5BC027F0286A6EC029F02A6A56
:100E580005EC05F0B10E1D6EFE0E1E6E46C01FF0AD
:100E680047C020F048C021F049C022F005EC05F049
:100E7800980E1D6EFE0E1E6E82A204D00101496BF3
:100E8800492B02D00101496B010149511F6E206AAB
:100E980050C021F0226A05EC05F01B0E1D6EFF0EF6
:100EA8001E6E4CC01FF04DC020F05DC021F0226ABC
:100EB80005EC05F04CC011F04DC012F060EC18F0D4
:100EC8006DEC1CF078EC0CF00EEC00F000D020EC8F
:100ED80016F0E806D8A42CD0000E0001F36F000E1F
:100EE800F26F17D0BAEC1DF0C6EC12F021D0BAECB4
:100EF8001DF08EEC13F01CD0BAEC1DF045EC15F08B
:100F080017D0BAEC1DF058EC1EF012D0C6EC1DF04C
:100F18000FD05E50000AD8B4E5D7010AD8B4E7D795
:100F2800030AD8B4E9D7070AD8B4EBD7EFD700D06B
:100F38000001F705D8A41DD7000E0001F76F445033
:100F48004510D8A402D0010E01D0000E446E456AA7
:100F580010D70CEF00F02E6E240E306E1E0E2F6E82
:100F6800C2D02F50440F236E190E246E020E256E28
:100F7800000E276E000E266E3050020DF3500E0F35
:100F8800D6EC1AF0440E236E190E246E020E256E4E
:100F9800000E276E000E266E3050020DF3500E0F15
:100FA800D6EC1AF0440E236E190E246E020E256E2E
:100FB800070E276E26680E0ED6EC1AF0A8D0440E3F
:100FC800236E190E246E020E256E000E276E000E7B
:100FD800266E0E0ED6EC1AF0440E236E190E246EF1
:100FE800020E256E070E276E266830500E0FD6ECBF
:100FF8001AF08DD0440E236E190E246E020E256E43
:10100800000E276E000E266E30500E0FD6EC1AF02A
:10101800440E236E190E246E020E256E070E276EDF
:1010280026683050020DF3500E0FD6EC1AF06FD030
:10103800440E236E190E246E020E256E000E276EC6
:10104800000E266E3050020DF3500E0FD6EC1AF03B
:101058002F50440F236E190E246E020E256E070EB4
:10106800276E26680E0ED6EC1AF051D02F50440F7A
:10107800236E190E246E020E256E000E276E000ECA
:10108800266E0E0ED6EC1AF02F50440F236E190E52
:10109800246E020E256E070E276E266830500E0F3E
:1010A800D6EC1AF034D02F50440F236E190E246E4C
:1010B800020E256E000E276E000E266E30500E0FA3
:1010C800D6EC1AF02F50440F236E190E246E020E20
:1010D800256E070E276E26683050020DF3500E0F4E
:1010E800D6EC1AF014D02E50000AD8B43AD7010A18
:1010F800D8B465D7030AD8B47DD7010AD8B498D72D
:10110800070AD8B4B3D7010AD8B4CDD700D0120093
:101118002E6E240E306E1E0E2F6EBFD0440E236E20
:10112800190E246E020E256E000E276E000E266E16
:1011380030500E0FD6EC1AF0440E236E190E246EA2
:10114800020E256E070E276E26680E0ED6EC1AF0D4
:10115800B8D0440E236E190E246E020E256E000EB2
:10116800276E000E266E3050020DF3500E0FD6EC8F
:101178001AF0440E236E190E246E020E256E070E09
:10118800276E266830500E0FD6EC1AF09AD0440E0F
:10119800236E190E246E020E256E000E276E000EA9
:1011A800266E0E0ED6EC1AF02F50440F236E190E31
:1011B800246E020E256E000E276E000E266E0E0E91
:1011C800D6EC1AF0440E236E190E246E020E256E0C
:1011D800070E276E26683050020DF3500E0FD6EC1E
:1011E8001AF06FD02F50440F236E190E246E020E82
:1011F800256E000E276E000E266E30500E0FD6ECB0
:101208001AF02F50440F236E190E246E020E256E0D
:10121800070E276E26680E0ED6EC1AF052D02F5005
:10122800440F236E190E246E020E256E000E276ED3
:10123800000E266E3050020DF3500E0FD6EC1AF049
:101248002F50440F236E190E246E020E256E070EC2
:10125800276E266830500E0FD6EC1AF032D0440EA6
:10126800236E190E246E020E256E000E276E000ED8
:10127800266E0E0ED6EC1AF02F50440F236E190E60
:10128800246E020E256E070E276E26683050020D5A
:10129800F3500E0FD6EC1AF014D02E50000AD8B422
:1012A8003DD7010AD8B455D7030AD8B470D7010A74
:1012B800D8B498D7070AD8B4B2D7010AD8B4CFD7C8
:1012C80000D0120020C024F021C025F0241E251EC5
:1012D800244A252A010E24242A6E000E25202B6E6E
:1012E800000E276E010E266E20C024F021C025F0C6
:1012F800D89024362536241E251E244A252A24C0A3
:1013080028F025C029F0000E2D6E000E2C6E20C08E
:101318002EF021C02FF01E502024186E22C019F084
:1013280023C01AF01C5085EC1CF0205000081E2425
:10133800186E22C019F023C01AF01C5085EC1CF05E
:101348001EC018F022C019F023C01AF01C50202427
:1013580085EC1CF01EC018F022C019F023C01AF04A
:10136800205000081C2485EC1CF078D02BBE0BD034
:101378002E06D8A02F06020E2826000E2922285055
:101388002A2629502B222C4A2D2A020E2626000E08
:10139800272226502A2627502B221E502E24186E2C
:1013A80022C019F023C01AF01C502C2485EC1CF024
:1013B8001E502E24186E22C019F023C01AF02C508B
:1013C80000081C2485EC1CF02E5000081E24186E02
:1013D80022C019F023C01AF01C502C2485EC1CF0F4
:1013E8002E5000081E24186E22C019F023C01AF0CF
:1013F8002C5000081C2485EC1CF01E502C24186E60
:1014080022C019F023C01AF01C502E2485EC1CF0C1
:101418001E502C24186E22C019F023C01AF02E502A
:1014280000081C2485EC1CF02C5000081E24186EA3
:1014380022C019F023C01AF01C502E2485EC1CF091
:101448002C5000081E24186E22C019F023C01AF070
:101458002E5000081C2485EC1CF000D02E502C5C6B
:101468002D50800A246E2F50800A2458D8A07ED789
:10147800120069C03CF101013D6B000E01013F6F94
:101488000A0E3E6F5EEC12F001013C51300F000174
:10149800A66F69C03BF03C6A000E3E6E0A0E3D6EB8
:1014A80036EC17F03B50300F0001A76F6AC03CF1D3
:1014B80001013D6B000E01013F6F0A0E3E6F5EECAD
:1014C80012F001013C51300F0001A96F6AC03BF0D6
:1014D8003C6A000E3E6E0A0E3D6E36EC17F03B502D
:1014E800300F0001AA6F6CC03CF101013D6B000E8A
:1014F80001013F6F0A0E3E6F5EEC12F001013C5194
:10150800300F0001AC6F6CC03BF03C6A000E3E6EC1
:101518000A0E3D6E36EC17F03B50300F0001AD6FF0
:101528006BC03CF101013D6B000E01013F6F0A0EDB
:101538003E6F5EEC12F001013C51300F00019D6FCF
:101548006BC03BF03C6A000E3E6E0A0E3D6E36ECF8
:1015580017F03B50300F00019E6F67C03CF101014E
:101568003D6B000E01013F6F0A0E3E6F5EEC12F0FC
:1015780001013C51300F0001A06F67C03BF03C6A8D
:10158800000E3E6E0A0E3D6E36EC17F03B50300FE3
:101598000001A16F6DC03CF101013D6B000E01011E
:1015A8003F6F0A0E3E6F5EEC12F001013C51300FA6
:1015B8000001A36F6DC03BF03C6A000E3E6E0A0E40
:1015C8003D6E36EC17F03B50300F0001A46F340E1F
:1015D800396EA60E3A6E000E3B6E070E3D6E3C68E5
:1015E800000E3F6E000E3E6E020E406E0F0E92EC25
:1015F8000DF0520E396E9D0E3A6E000E3B6E070EC0
:101608003D6EE00E3C6E000E3F6E000E3E6E020E0A
:10161800406E0F0E92EC0DF01200F2925250D8B4B8
:10162800A6D0CE50CFCF01F0026A01C002F0016A05
:1016380001104A6E02504B6E000ECF6E000ECE6E39
:1016480096D0000ECF6E000ECE6E9E90900ECD6E90
:10165800CD80000E0001FD6F000E0001E36F000E4B
:10166800E46F000EE56F000EE66F010E526E27D094
:101678008FD0350E4A5C210E4B58D8A009D01C0ECD
:101688004A5C250E4B58D8B003D0020E526E2AD0B1
:10169800CDEC1EF027D026D07BD0A10E4A5C0F0ED1
:1016A8004B58D8A009D0880E4A5C130E4B58D8B0B6
:1016B80003D0030E526E03D0CDEC1EF000D0F18C97
:1016C80067D0910E4A5C010E4B58D8A008D0BC0ECA
:1016D8004A5C020E4B58D8B002D0040ED7D7CDECD6
:1016E8001EF000D0F19C54D0900E4A5C010E4B586D
:1016F800D8A036D0090E4A5C070E4B58D8B030D067
:10170800D8900001E3350001E36F0001E4350001E2
:10171800E46F0001E5350001E56F0001E6350001E1
:10172800E66FE90E4A5C030E4B58D8A008D0010EAC
:101738000001E327000EE423E523E62300D000019F
:10174800FD2B1F0E0001FD6508D0000E0001F36F90
:10175800010EF26FF298000E526E030E526E03D015
:10176800CDEC1EF000D0F18CE4C051F011D05250F5
:10177800000AD8B466D7010AD8B47BD7030AD8B40C
:101788008CD7010AD8B49DD7070AD8B4ADD700D0F2
:101798001200366E800E3660A6D09F0E2E6401D0E1
:1017A800A2D03450D8A403D0010E346E00D01F0E3E
:1017B8002F6404D07E0E2F6403D000D03F0E2F6E0E
:1017C800000E386E040E386401D08DD0530E2F6091
:1017D80015D0E00E2F24116E126AFF0E1222000E91
:1017E800146E050E136EC7EC1CF038501126000E4F
:1017F80012228D0E1124F66EFC0E14D0AD0E2F247D
:10180800116E126AFF0E1222000E146E050E136E70
:10181800C7EC1CF038501126000E12228C0E112431
:10182800F66EFD0E1220F76E0800F5CF35F000D0E9
:10183800000E376E060E376401D053D035A023D082
:101848003404D8A40CD02E503724186E30C019F0A8
:1018580031C01AF03650382485EC1CF03ED0375091
:101868003402F3502E24236E34C024F034C025F003
:1018780030C026F031C027F038503402F3503624F7
:10188800D6EC1AF02AD03050321804E1315033180F
:10189800D8B423D03404D8A40CD02E503724186ED2
:1018A80032C019F033C01AF03650382485EC1CF0D9
:1018B80014D037503402F3502E24236E34C024F051
:1018C80034C025F032C026F033C027F03850340237
:1018D800F3503624D6EC1AF000D0372AD890353297
:1018E800A9D7382A6FD712000001EC510001ED1179
:1018F800D8A40CD044044510D8A408D0C1EC19F0E1
:10190800000E0001ED6F010EEC6F16D00001EC0522
:101918000001ED11D8A416D044504510D8A412D017
:10192800EAEC19F0000E0001ED6F000EEC6F000EEE
:1019380001EC1DF0C1EC1EF0000E0001EB6F000E73
:10194800EA6F63D00001EC050001ED11D8A45DD069
:1019580044044510D8A459D082B208D0000E000122
:10196800EB6F010EEA6F19EC1EF000D00001EA05DA
:101978000001EB11D8A449D00001EE5101EC1DF093
:101988000001EE4BEF2B0001EFBF0ED00001EF512D
:1019980005E1080E0001EE5DD8A006D0000E00019A
:1019A800EF6F000EEE6F00D0FDEC18F03BC0E7F0D3
:1019B8003CC0E8F03DC0E9F0000E116E400E126E1A
:1019C800400E136EE7C014F0E8C015F0E9C016F039
:1019D800FAEC14F0D8B019D0000E0001EB6F000E2D
:1019E800EA6F000E0001EF6F000EEE6F0001EE517E
:1019F80001EC1DF0C1EC1EF05D5049EC14F0000E36
:101A08000001ED6F000EEC6F00D01200010E80ECAB
:101A18001EF0000E186E960E176E13EC1AF0110ECB
:101A280080EC1EF0010E186EF40E176E13EC1AF00F
:101A3800B10E80EC1EF0010E78EC1EF02C0E78EC46
:101A48001EF02D0E78EC1EF0B20E80EC1EF0010E8A
:101A580078EC1EF02C0E78EC1EF02D0E78EC1EF0B3
:101A6800B30E80EC1EF0010E78EC1EF02C0E78EC14
:101A78001EF02D0E78EC1EF0010E78EC1EF02C0EE8
:101A880078EC1EF02D0E78EC1EF0B40E80EC1EF0F3
:101A9800070E78EC1EF0C00E80EC1EF0A20E78EC5B
:101AA8001EF0020E78EC1EF0840E78EC1EF0C10ECB
:101AB80080EC1EF0C50E78EC1EF0C20E80EC1EF015
:101AC8000A0E78EC1EF0000E78EC1EF0C30E80ECC7
:101AD8001EF08A0E78EC1EF02A0E78EC1EF0C40E6A
:101AE80080EC1EF08A0E78EC1EF0EE0E78EC1EF0FC
:101AF800C50E80EC1EF00E0E78EC1EF0200E80EC69
:101B08001EF0360E80EC1EF0C80E78EC1EF03A0E71
:101B180080EC1EF0050E78EC1EF0120001013C6FFF
:101B28003CC142F139C041F13AC011F03BC012F05A
:101B3800A3EC1BF011C03DF112C03EF1000E0101F3
:101B4800406F000E3F6F66D0000181510001D8B48C
:101B580034D04050050D01014251416E426AF350A4
:101B68004126F450422242BE28D0425004E1810E60
:101B7800415CD8A022D0000E0101426F4050070DF1
:101B8800F35001014125030F0101416FA00E01012E
:101B9800416504D0A00E0101416F00D001013F5101
:101BA8003A24D96E010140513B20DA6E200EDE182E
:101BB800D8B42CD002D02AD000D041C12EF00101D7
:101BC8003F513A24D96E010140513B20DA6EDF5073
:101BD8002F6E3CC030F03DC031F03EC032F03FC007
:101BE80033F040C034F001014251CDEC0BF04050CD
:101BF800060DF350010142250101426F800E0101DB
:101C0800426504D0800E0101426F00D001013F4BB4
:101C1800402B00D001013D5101013F5D01013E51C2
:101C280001014059D8A090D71200000E256E000E71
:101C3800246E63EC1DF04EC011F04FC012F0F20E8E
:101C4800136EFE0E146E54EC1CF0010E396E4EC06D
:101C58003AF04FC03BF0FF0E3D6E3C68000E3F6E01
:101C6800000E3E6E010E406E010E92EC0DF04EC05D
:101C780011F04FC012F07C0E136EFF0E146E54EC70
:101C88001CF0100E396E4EC03AF04FC03BF0F80E03
:101C98003D6E1F0E3C6E000E3F6E000E3E6E020E35
:101CA800406E040E92EC0DF04EC011F04FC012F0D1
:101CB800B00E136EFF0E146E54EC1CF0280E396E25
:101CC8004EC03AF04FC03BF0000E3D6E1F0E3C6E0A
:101CD800000E3F6E000E3E6E010E406E320E92EC0C
:101CE8000DF0440E236E190E246E020E256E070E9B
:101CF800276E26680E0ED6EC1AF04EC011F04FC0B3
:101D080012F0DF0E136EFF0E146E54EC1CF0470E2B
:101D1800396E4EC03AF04FC03BF0F80E3D6E000EE3
:101D28003C6E000E3F6E000E3E6E010E406E320E8F
:101D380092EC0DF01200000E256E000E246E63EC7E
:101D48001DF04EC011F04FC012F0070E136EFF0EBB
:101D5800146E54EC1CF0010E396E4EC03AF04FC0B0
:101D68003BF0FF0E3D6E3C68000E3F6E000E3E6E6F
:101D7800010E406E010E92EC0DF04EC011F04FC0F6
:101D880012F0C80E136EFF0E146E54EC1CF00B0EFE
:101D9800396E4EC03AF04FC03BF0F80E3D6E1F0E44
:101DA8003C6E000E3F6E000E3E6E020E406E060E3A
:101DB80092EC0DF04EC011F04FC012F0D00E136E21
:101DC800FF0E146E54EC1CF01A0E396E4EC03AF029
:101DD8004FC03BF0F80E3D6E1F0E3C6E000E3F6E7E
:101DE800000E3E6E020E406E060E92EC0DF04EC0D6
:101DF80011F04FC012F0B00E136EFF0E146E54ECBB
:101E08001CF0280E396E4EC03AF04FC03BF0000E61
:101E18003D6E1F0E3C6E000E3F6E000E3E6E010EB4
:101E2800406E320E92EC0DF0440E236E190E246EA5
:101E3800020E256E070E276E26680E0ED6EC1AF0D7
:101E480012001FC023F0246A256A1E34233601E3DA
:101E580024802350266E2650D8A402D00ED06CD0F1
:101E680022C023F0246A256A2134233601E3248022
:101E780023502B6E2B50D8A407D0000E1D6E000ED9
:101E88001E6E000E1F6E58D02B507B0F26261FC0CB
:101E98002BF022502B1A800E2B161E8E218EFF0E31
:101EA8002016FF0E2116000E2216000E276E000EB9
:101EB800286E000E296E070E2A6E00D01DA007D0CE
:101EC80020502726215028222250292200D0D8909D
:101ED8001F321E321D32D8902036213622362A2E45
:101EE800EDD700D0090E2A6E00D01DA007D02050D3
:101EF8002726215028222250292200D0D8901F328C
:101F08001E321D32D8902932283227322A2EEDD798
:101F180000D027C011F028C012F029C013F026C045
:101F280014F02BC015F02BEC13F011C01DF012C0EB
:101F38001EF013C01FF000D01200000E256E000E18
:101F4800246E63EC1DF04EC011F04FC012F0DD0E90
:101F5800136EFE0E146E54EC1CF0010E396E4EC05A
:101F68003AF04FC03BF0FF0E3D6E3C68000E3F6EEE
:101F7800000E3E6E010E406E010E92EC0DF04EC04A
:101F880011F04FC012F09F0E136EFF0E146E54EC3A
:101F98001CF01A0E396E4EC03AF04FC03BF0FF0EDF
:101FA8003D6EE00E3C6E000E3F6E000E3E6E020E61
:101FB800406E010E92EC0DF04EC011F04FC012F0C1
:101FC800B50E136EFF0E146E54EC1CF0290E396E0C
:101FD8004EC03AF04FC03BF0FF0E3D6EE00E3C6E37
:101FE800000E3F6E000E3E6E020E406E010E92EC29
:101FF8000DF04EC011F04FC012F0400E136EFF0EE0
:10200800146E54EC1CF03C0E396E4EC03AF04FC0C2
:102018003BF0070E3D6E3C68000E3F6E000E3E6EB4
:10202800010E406E0F0E92EC0DF01200E00E80ECE7
:102038001EF0020E78EC1EF01C0E78EC1EF0070E57
:1020480078EC1EF0120E78EC1EF0370E78EC1EF0CD
:10205800320E78EC1EF0290E78EC1EF02D0E78EC7E
:102068001EF0290E78EC1EF0250E78EC1EF02B0ED3
:1020780078EC1EF0390E78EC1EF0000E78EC1EF0AD
:10208800010E78EC1EF0030E78EC1EF0100E78ECC2
:102098001EF0E10E80EC1EF0030E78EC1EF01D0E13
:1020A80078EC1EF0070E78EC1EF0060E78EC1EF0A9
:1020B8002E0E78EC1EF02C0E78EC1EF0290E78EC23
:1020C8001EF02D0E78EC1EF02E0E78EC1EF02E0E63
:1020D80078EC1EF0370E78EC1EF03F0E78EC1EF010
:1020E800000E78EC1EF0000E78EC1EF0020E78EC74
:1020F8001EF0100E78EC1EF0130E80EC1EF0000E91
:10210800186E0A0E176E13EC1AF0290E80EC1EF0EA
:10211800000E186E640E176E13EC1AF01200940E6F
:102128001D6EFF0E1E6E64C01FF0206A65C021F090
:10213800226A66C023F0246A05EC05F064C03CF10D
:1021480001013D6B000E01013F6F0A0E3E6F5EEC10
:1021580012F001013C51300F0001946F64C03BF054
:102168003C6A000E3E6E0A0E3D6E36EC17F03B5090
:10217800300F0001956F65C03CF101013D6B000E09
:1021880001013F6F0A0E3E6F5EEC12F001013C51F7
:10219800300F0001976F65C03BF03C6A000E3E6E41
:1021A8000A0E3D6E36EC17F03B50300F0001986F69
:1021B80066C03CF101013D6B000E01013F6F0A0E44
:1021C8003E6F5EEC12F001013C51300F00019A6F36
:1021D80066C03BF03C6A000E3E6E0A0E3D6E36EC61
:1021E80017F03B50300F00019B6F340E396E940E80
:1021F8003A6E000E3B6E070E3D6E3C68000E3F6E59
:10220800000E3E6E020E406E0F0E92EC0DF01200A4
:102218002EC030F0316A326A2D34303601E3318015
:1022280030503A6E3A50D8A402D039D063D0170E45
:10223800306E2CC031F02DC032F02EC033F0302873
:10224800346E04D0D890333232323132342EFAD749
:102258003150356E2D8EFF0E2C16FF0E2D16000EEA
:102268002E162C50366E2D50376E2E50386E396A19
:102278008E0E3A5E3AAE10D03A50800A8F0FD8B020
:1022880003D00DD037D000D0D89039323832373219
:1022980036323A3EF9D719D0170E3A6411D0000EEB
:1022A8002C6E000E2D6E000E2E6E000E2F6E22D09C
:1022B80007D0D89036363736383639363A0600D011
:1022C8003A50D8B402D0F5D700D03550D8B409D098
:1022D800391E381E371E366C000E37223822392236
:1022E80000D036C02CF037C02DF038C02EF039C0E1
:1022F8002FF000D012002EC032F0336A346A2D3429
:10230800323601E333803250396E3950D8A402D0C6
:102318000ED061D031C032F0336A346A303432368C
:1023280001E3338032503A6E3A50D8A407D0000EF9
:102338002C6E000E2D6E000E2E6E4DD0000E366ED9
:10234800000E376E000E386E3A50890F395E2EC077
:102358003AF031503A1A800E3A162D8EFF0E2C168E
:10236800FF0E2D16000E2E16308EFF0E2F16FF0EA6
:102378003016000E3116180E356E00D0D89036364D
:10238800373638362F502C5C30502D5831502E5857
:10239800D8A007D02F502C5E30502D5A31502E5ACD
:1023A8003680D8902C362D362E36352EE7D700D0ED
:1023B80036C011F037C012F038C013F039C014F02D
:1023C8003AC015F02BEC13F011C02CF012C02DF010
:1023D80013C02EF000D01200236E800E236069D047
:1023E8009F0E186401D065D0FF0E1D6EFF0E1E6E85
:1023F800195023C01FF0206A1F26000E20221D50EE
:102408001F261E50202220BE0AD0205004E1800E34
:102418001F5CD8A004D023500008800F196EFF0E4F
:102428001D6EFF0E1E6E1A5018C01FF0206A1F2660
:10243800000E20221D501F261E50202220BE0BD029
:10244800205004E1A00E1F5CD8A005D01850000849
:10245800A00F1A6E00D018C014F0235019241D6E56
:102468001D04156E18501A241E6E1E04166E235075
:1024780063EC1AF01C50216E1BC022F083808392FB
:102488001AC018F01850D8B413D001D011D019C000
:1024980023F02350D8B40AD001D008D0215005EC3D
:1024A8001EF0225005EC1EF02306F3D71806EAD7D3
:1024B80083821200000E0101416F01013FAF09D074
:1024C80001013E6D3F1FD8B03F2B010E0101416F46
:1024D80000D001013DAF09D001013C6D3D1FD8B0CE
:1024E8003D2B010E0101411B00D0000E0101436F7D
:1024F800000E426F01013E5101013F11D8B431D0A5
:10250800010E0101406F07D00101D8903E373F37D7
:102518000101402B00D001013FBF02D0F5D700D008
:102528000101D8904237433701013E5101013C5D1A
:1025380001013F5101013D59D8A00BD001013E5185
:1025480001013C5F01013F5101013D5B01014281F5
:1025580000D00101D8903F333E330101402FE0D72E
:1025680000D0010141510101D8B406D00101426DEA
:10257800431FD8B0432B00D042C13CF143C13DF1C9
:1025880000D01200000E546E2FEC19F063509DEC31
:102598001CF06C6E60509DEC1CF06A6E5F509DECF8
:1025A8001CF0696E5B509DEC1CF0676E61509DECF1
:1025B8001CF06B6E6E509DEC1CF06D6E19EC0EF0FD
:1025C8003DEC0AF0010E0001FB6F3CD020EC16F048
:1025D800E806D8A437D0020E5E6431D0090E5E60DA
:1025E8002ED0BAEC1DF0030E5E18D8A403D07EECF2
:1025F8001DF000D0040E5E18D8A403D08AEC1DF09C
:1026080000D0050E5E18D8A403D0DDEC1DF000D074
:10261800060E5E18D8A403D0F4EC16F000D0070E0E
:102628005E18D8A403D0D8EC15F000D0080E5E18B8
:10263800D8A403D060EC1EF000D05E6803D0C6ECCE
:102648001DF000D00001FB05D8B4C0D7120014500B
:10265800D8B405D0115012101310D8A40ED0000E03
:10266800116E000E126E000E136E53D006D0142A8F
:10267800D89013321232113200D0000E1114166E97
:10268800000E1214176EFE0E1314186E1650171043
:102698001810D8B40ED0EBD70CD0142A010E11267E
:1026A800000E1222000E1322D89013321232113269
:1026B80000D0000E1114166E000E1214176EFF0EC5
:1026C8001314186E165017101810D8B408D0E5D780
:1026D80006D01406D89011361236133600D012BE22
:1026E80004D0020E1460F5D700D014B002D0129EA8
:1026F80000D0D8901432145013121550D8B402D008
:10270800138E00D011C011F012C012F013C013F0D4
:1027180000D01200000E536E010E0001F96F8AEC12
:102728001AF059509DEC1CF0596E58509DEC1CF055
:10273800586E57509DEC1CF0576E59C066F058C043
:1027480065F057C064F09FEC0EF093EC10F03CD0AD
:1027580020EC16F0E806D8A437D0020E5E6431D01B
:10276800090E5E602ED0BAEC1DF0030E5E18D8A4D8
:1027780003D096EC1DF000D0040E5E18D8A403D048
:10278800A2EC1DF000D0050E5E18D8A403D0AEEC64
:102798001DF000D0060E5E18D8A403D0FBEC1AF08A
:1027A80000D0070E5E18D8A403D03CEC1AF000D075
:1027B800080E5E18D8A403D070EC1EF000D05E6836
:1027C80003D0C6EC1DF000D00001F905D8B4C0D77D
:1027D8001200680E1A6E070E176E0E0E186E18C0CD
:1027E80014F01A503BEC1CF0196E1950010B196EBD
:1027F80019502509196E18C013F019C014F01A5091
:1028080024EC1DF046EC1EF01A501A24C2EC1BF002
:102818001750C2EC1BF0D2EC1DF0D8801A34C2EC71
:102828001BF0010E1FEC1BF0596E010E1FEC1BF084
:10283800586E010E1FEC1BF0576E000E1FEC1BF0BC
:10284800566E59507F0B596E58507F0B586E575023
:102858007F0B576E56508009566E46EC1EF01A5084
:102868001A24C2EC1BF01750C2EC1BF05950C2ECF2
:102878001BF05850C2EC1BF05750C2EC1BF05650DE
:10288800C2EC1BF03DEC1EF01200416E040ECB6E44
:10289800070ECA6E000E206E800E216E400E226E4C
:1028A8004150EEEC1CF019C01DF01AC01EF01BC000
:1028B8001FF025EC0FF01DC02CF01EC02DF01FC01E
:1028C8002EF0000E2F6EA00E306E410E316E7FEC92
:1028D80011F02CC03EF02DC03FF02EC040F03EC09D
:1028E8002CF03FC02DF040C02EF00CEC11F02CC0A5
:1028F80042F02DC043F041503B6E3C6A42503B5C75
:102908003C50800A3D6E4350800A3D58D8B003D0F1
:10291800424A432A00D042C03BF0030E3B163B38E4
:10292800F00B0C09BD6E42C03BF043C03CF03C3498
:102938003C323B323C343C323B323B50BE6E1200A0
:1029480068C03CF101013D6B000E01013F6F640E50
:102958003E6F5EEC12F001013C510101446F000E24
:102968003E6E640E3D6E68C03BF03C6A36EC17F074
:102978003BC03CF13CC03DF1000E01013F6F0A0E27
:102988003E6F5EEC12F001013C510101456F68C0D9
:102998003BF03C6A000E3E6E0A0E3D6E36EC17F0B8
:1029A8003B500101466F01014451300F0001C86FCF
:1029B80001014551300F0001C96F01014651300F27
:1029C8000001CA6F4A0E396EC80E3A6E000E3B6E91
:1029D800F80E3D6E000E3C6E000E3F6E000E3E6E11
:1029E800020E406E280E92EC0DF0120013AE17D0B6
:1029F80011C017F012C018F013C019F0171E181ED6
:102A0800191E172A000E18221922000E1724116EFB
:102A1800000E1820126E800E1920136E00D016AE0C
:102A280017D014C017F015C018F016C019F0171EEB
:102A3800181E191E172A000E18221922000E172414
:102A4800146E000E1820156E800E1920166E00D018
:102A5800000E111A000E121A800E131A000E141A04
:102A6800000E151A800E161A1450115C15501258C3
:102A780016501358D8B002D0D89002D0D88000D0C1
:102A88001200010E0001FA6F6FC068F0A1EC0FF0A0
:102A9800A4EC14F03BD0010E0001FE6F000E000103
:102AA800FF6F20EC16F00001FE19FF11D8A42ED0FC
:102AB800000E0001F36F000EF26F040E5E6423D067
:102AC800090E5E6020D0BAEC1DF0050E5E18D8A481
:102AD80003D0F1EC1DF000D0060E5E18D8A403D088
:102AE800FBEC1DF000D0070E5E18D8A403D0E7EC6D
:102AF8001DF000D0080E5E18D8A403D068EC1EF0B4
:102B080000D05E6803D0C6EC1DF000D00001FA05C5
:102B1800D8B4C1D71200680E0101476F000E010139
:102B2800486F6C5096EC18F04150636E6A5096EC02
:102B380018F04150606E695096EC18F041505F6E85
:102B4800010E5C6E675096EC18F041505B6E6B504E
:102B580096EC18F04150616E6D5096EC18F04150AB
:102B68006E6E46EC1EF0010147514725C2EC1BF082
:102B780001014851C2EC1BF06350C2EC1BF06050DD
:102B8800C2EC1BF05F50C2EC1BF05C50C2EC1BF0B7
:102B98005B50C2EC1BF06150C2EC1BF06E50C2ECF3
:102BA8001BF03DEC1EF0120030D0692A180E69188F
:102BB800D8A43FD0000E696E3CD06A2A3C0E6A1831
:102BC800D8A437D0000E6A6E34D06C2A3C0E6C182C
:102BD800D8A42FD0000E6C6E2CD06B2A0C0E6B185C
:102BE800D8A427D0000E6B6E24D0672A1F0E671852
:102BF800D8A41FD0000E676E1CD06D2A640E6D1805
:102C0800D8A417D0000E6D6E14D05450000AD8B452
:102C1800CCD7010AD8B4D1D7030AD8B4D6D7010A79
:102C2800D8B4DBD7070AD8B4E0D7010AD8B4E5D7B7
:102C380000D03DEC0AF012000001F2050001F3118A
:102C4800D8A441D0000E0001F36F000EF26F500EB1
:102C58001D6EFF0E1E6E51C01FF0206A05EC05F0B8
:102C6800F288F19C5E68000E3B6E000E3A6E3BBE29
:102C780008D03B501BE1150E3A5CD8B017D001D0F4
:102C880015D01F0E3A24D96E010E3B20DA6E515032
:102C9800DE18D8A407D03AC05EF0000E3B6E150EC1
:102CA8003A6E00D03A4A3B2AE2D700D05E28D8A430
:102CB80008D0C70E1D6EFE0E1E6E05EC05F0000E48
:102CC80002D0010E00D012000600EACF06F0E1CFD4
:102CD80007F0E2CF08F0D9CF09F0DACF0AF0F3CF46
:102CE8000BF0F4CF0CF0F6CF0DF0F7CF0EF0F8CFD5
:102CF8000FF0F5CF10F0F2A203D011EC0BF000D0DA
:102D0800F0A003D0BCEC1EF000D0F0A203D0B7ECCA
:102D18001EF000D09EA003D0A2EC1EF000D010C080
:102D2800F5FF0FC0F8FF0EC0F7FF0DC0F6FF0CC08F
:102D3800F4FF0BC0F3FF0AC0DAFF09C0D9FF08C0CF
:102D4800E2FF07C0E1FF06C0EAFF05C0E9FF04C0D3
:102D5800FBFF03C0FAFF1100226E800E22603FD0F5
:102D68009F0E186401D03BD0FF0E1C6EFF0E1D6E27
:102D7800195018C01EF01F6A1E26000E1F221C5074
:102D88001E261D501F221FBE0BD01F5004E1A00E8F
:102D98001E5CD8A005D018500008A00F196E00D0EE
:102DA8001B50206E1AC021F018C014F022C015F074
:102DB800185019241C6E1C04166E225063EC1AF06D
:102DC8008380839207D0205005EC1EF0215005EC3B
:102DD8001EF000D019061928D8A4F5D7838212004E
:102DE8002AD06950D8A403D0170E696E38D0690666
:102DF80036D06A50D8A403D03B0E6A6E30D06A062B
:102E08002ED06C50D8A403D03B0E6C6E28D06C0624
:102E180026D06B50D8A403D00C0E6B6E20D06B0656
:102E28001ED06750D8A403D01F0E676E18D067064F
:102E380016D06D0614D05450000AD8B4D2D7010A5F
:102E4800D8B4D7D7030AD8B4DCD7010AD8B4E1D7A5
:102E5800070AD8B4E6D7010AD8B4EBD700D03DECBE
:102E68000AF01200000E406E3CAE07D03B6C3C1ED0
:102E7800D8B03C2A010E406E00D03EAE05D03D6C65
:102E88003E1ED8B03E2A00D03D503E10D8B41DD0CA
:102E9800010E3F6E05D0D8903D363E363F2A00D011
:102EA8003EBE02D0F8D700D03D503B5C3E503C5867
:102EB800D8A005D03D503B5E3E503C5A00D0D8903B
:102EC8003E323D323F2EF0D700D04050D8B405D026
:102ED8003B6C3C1ED8B03C2A00D03BC03BF03CC009
:102EE8003CF000D012002FEC19F05BC056F0680ED1
:102EF8000101476F070E0101486F645096EC18F006
:102F08004150576E655096EC18F04150586E665017
:102F180096EC18F04150596E59507F0B596E585025
:102F28007F0B586E57507F0B576E56508009566E60
:102F380046EC1EF0010147514725C2EC1BF0010188
:102F48004851C2EC1BF05950C2EC1BF05850C2EC6F
:102F58001BF05750C2EC1BF05650C2EC1BF03DEC76
:102F68001EF0120000EEE3F01B0EEE6AE806FDE12B
:102F780000EE44F02B0EEE6AE806FDE1C20EF66E96
:102F8800370EF76E000EF86E01EE00F010EE3CF012
:102F98000900F5CFEEFFE550E150FAE1C20EF66EFA
:102FA800320EF76E000EF86E00EE80F010EE63F051
:102FB8000900F5CFEEFFE550E150FAE1A20EF66EFA
:102FC8003D0EF76E000EF86E0900F5CF6FF0000E9B
:102FD800F86E0001B2EF06F00FEC1EF08FEC1EF059
:102FE800700ED36E0E0EC16E010E926E070E936EAA
:102FF800030E946E000E956E000E966E000E846E93
:10300800000E506EF19E000EB26E030EB16EA00E51
:10301800116E860E126E010E136E000E146EA8EC61
:103028001EF054EC1DF064EC1BF096EC1EF04B0EF9
:103038006F6E000E0001F66F000E456E000E446EB6
:10304800000E01EC1DF01200136E000EAC6E000EA7
:10305800AB6E13A002D0AC8800D013A203D0AC8C06
:10306800AB8C00D013A402D0AC8E00D013A602D033
:10307800AB8802D0AB8A00D013B8AC849E9813AA50
:1030880002D0AB8600D013AC02D09D8A01D09D9AA5
:103098009E9A13AE02D09D8801D09D9811C0AFFFB3
:1030A8001250B06EAC8AAB8E949C948EACB8ACBE09
:1030B80002D0948C00D0120011501210D8A402D063
:1030C800839C10D012BE10D0125003E11104D8A076
:1030D8000BD012BE06D0080E115C070E1258D8B0DD
:1030E80003D0838C839E1DD012BE10D0080E115CB5
:1030F800070E1258D8A00AD012BE06D08C0E115C4A
:103108000A0E1258D8B002D0838C09D012BE09D04A
:103118008C0E115C0A0E1258D8A003D0839C838EA3
:1031280000D012000101466F46C13CF101013D6B20
:10313800000E01013F6F0A0E3E6F5EEC12F03CC1BB
:10314800FEF03DC1FFF00001FE3BFF3BF00EFF1714
:10315800FE510F0BFF13F00EFE1746C13BF03C6A01
:10316800000E3E6E0A0E3D6E36EC17F03B50000125
:10317800FE250101446F3C500001FF210101456F0C
:1031880044C141F045C142F000D012001150135C17
:103198001450800A156E1250800A1558D8B005D000
:1031A800000E126E000E1DD023D011C015F012C0F3
:1031B80016F0151E161E154A162A135015261450F9
:1031C8001622D8901534176E1634186E18BE0BD008
:1031D800185004E1650E175CD8A005D0000E126ED9
:1031E800640E116E05D017C011F018C012F000D08F
:1031F8001200DBEC1CF011C041F012C042F041C0DB
:1032080011F042C012F0000E146E050E136EC7ECDA
:103218001CF011C019F012C01AF0FFEC1BF019C015
:103228002CF01AC02DF01BC02EF0000E2F6E800E51
:10323800306E440E316E7FEC11F02CC03EF02DC084
:103248003FF02EC040F03EC03BF03FC03CF040C0D5
:103258003DF000D01200680E156E000E146E46EC9C
:103268001EF015501524C2EC1BF01450C2EC1BF0D4
:10327800D2EC1DF0D8801534C2EC1BF0010E1FEC07
:103288001BF0636E010E1FEC1BF0606E010E1FEC4D
:103298001BF05F6E010E1FEC1BF05C6E010E1FEC45
:1032A8001BF05B6E010E1FEC1BF0616E000E1FEC35
:1032B8001BF06E6E3DEC1EF01200FF0130303A300C
:1032C800303A30300030302F30302F30300030304E
:1032D8003A30303A30300030312F30312F30300032
:1032E80030303A30303A30300030303A30303A30DE
:1032F8003000302E30305600303735460030303010
:10330800300030373546004F464600303030004FE9
:103318004646002B3235002B373700300000000EB0
:10332800166E000E156E13501410D8B421D0010E6D
:10333800176E05D0D89013361436172A00D014BE4D
:1033480002D0F8D700D0D890153616361350115C35
:1033580014501258D8A006D01350115E1450125AA7
:10336800158000D0D89014321332172EECD700D025
:1033780015C011F016C012F01200680E1F6E0E0E66
:103388001B6E0F0E1C6E1BC014F01F503BEC1CF084
:103398001D6E1D5001091D6E1BC013F01DC014F0D9
:1033A8001F5024EC1DF01CC014F01F503BEC1CF007
:1033B8001E6E1E50FE0B1E6E1CC013F01EC014F0B5
:1033C8001F5024EC1DF0EDEC13F01200680E1F6E78
:1033D8000E0E1B6E0F0E1C6E1BC014F01F503BEC24
:1033E8001CF01D6E1D50FE0B1D6E1BC013F01DC082
:1033F80014F01F5024EC1DF01CC014F01F503BECBF
:103408001CF01E6E1E50FE0B1E6E1CC013F01EC05C
:1034180014F01F5024EC1DF0EDEC13F0120017C04F
:1034280011F018C012F0000E146E7D0E136EC7EC6A
:103438001CF011C01BF012C01CF01BC019F01CC0FE
:103448001AF0191E1A1E194A1A2AFF0E19241B6E81
:10345800FF0E1A201C6E030ED56E1BC0D6FF1C5023
:10346800D76EF294D58E00D0F2A4FED7D59E120066
:1034780018D0642A180E6418D8A41ED0000E646EE2
:103488001BD0652A3C0E6518D8A416D0000E656EB0
:1034980013D0662A3C0E6618D8A40ED0000E666EAD
:1034A8000BD05350000AD8B4E4D7010AD8B4E9D7EE
:1034B800030AD8B4EED700D093EC10F01200176EC0
:1034C8002A0E80EC1EF0000E78EC1EF017505A24DD
:1034D80078EC1EF0000E78EC1EF015505A2478ECAB
:1034E8001EF02B0E80EC1EF0000E78EC1EF014502F
:1034F800622478EC1EF0000E78EC1EF01650622460
:1035080078EC1EF02C0E80EC1EF01200680E156E82
:10351800070E146E46EC1EF015501524C2EC1BF075
:103528001450C2EC1BF0D2EC1DF0D8801534C2EC5C
:103538001BF0010E1FEC1BF0596E010E1FEC1BF067
:10354800586E010E1FEC1BF0576E000E1FEC1BF09F
:10355800566E3DEC1EF012001A501B10D8B41DD048
:10356800010E1C6E05D0D8901A361B361C2A00D0C6
:103578001BBE02D0F8D700D01A50185C1B5019583F
:10358800D8A005D01A50185E1B50195A00D0D890F0
:103598001B321A321C2EF0D700D018C018F019C0F0
:1035A80019F012002B6E2BC02CF02D6A0ED023C000
:1035B80018F025C019F026C01AF027C01BF02C50AF
:1035C800B0EC16F02C4A2D2A00D024502BC028F03D
:1035D800296A2826000E292228502C5C2D50800AA2
:1035E8002A6E2950800A2A58D8A0E1D7120015D08F
:1035F8006450D8A403D0170E646E1AD0640618D08D
:103608006550D8B405D0650613D06650D8A403D049
:103618003B0E656E0DD066060BD05350000AD8B429
:10362800E7D7010AD8B4ECD7030AD8B4EED700D04C
:1036380093EC10F01200116EC9EC1EF0000E126E21
:10364800070E126401D00FD09CEC1EF081AA03D0A3
:10365800D880133604D013501324136E00D0C5EC51
:103668001EF0122AEDD71150D8B403D04FEC1EF03B
:1036780003D0ADEC1EF000D0135000D01200B2CF32
:103688003CF101013D6B000E01013F6F020E3E6FE0
:103698005EEC12F03CC1FEF03DC1FFF0000EB26ED0
:1036A800FEC011F0FFC012F0000E146E3C0E136E37
:1036B800C7EC1CF011C041F012C042F000D012005B
:1036C800F292F090F092F288F086F088F19CF19AEC
:1036D800F198000ECF6E000ECE6E9E909D80F28CFB
:1036E800F28E000E0001F36F000EF26F000E000163
:1036F800E36F000EE46F000EE56F000EE66F120038
:103708002A0E80EC1EF0000E78EC1EF0000E78EC0D
:103718001EF0000E78EC1EF07F0E78EC1EF02B0EDB
:1037280080EC1EF0000E78EC1EF0000E78EC1EF017
:10373800000E78EC1EF09F0E78EC1EF0120011C0FF
:1037480015F012C016F003D0154A162A00D015C07D
:10375800D9FF16C0DAFFDF50D8A4F6D711C013F08E
:1037680012C014F0131E141E134A142A15501324E1
:10377800116E16501420126E00D01200116E000E39
:10378800126E070E126401D011D011AE03D0C9EC2D
:103798001EF003D0B2EC1EF000D09CEC1EF0C5EC7D
:1037A8001EF011501124116E122AEBD7C9EC1EF02D
:1037B8009CEC1EF0C5EC1EF0120045434533333037
:1037C800314C204627323100000000000000000084
:1037D800000000000000000000A262E22202C2E035
:1037E800A8906898B030187A10385A424A520002A5
:1037F800040610121416000E1C6E1AAE07D0196CAF
:103808001A1ED8B01A2A010E1C6E00D019C011F069
:103818001AC012F0136A8E0E146E1CC015F02BEC31
:1038280013F011C019F012C01AF013C01BF000D029
:103838001200480E186EAA0E166E46EC1EF01850AE
:103848001824C2EC1BF01650C2EC1BF0D2EC1DF091
:10385800D8801834C2EC1BF0000E1FEC1BF0176E5A
:103868003DEC1EF017C014F0156A00D01200166E59
:1038780046EC1EF016501624C2EC1BF01450C2EC95
:103888001BF0D2EC1DF0D8801634C2EC1BF0000EF1
:103898001FEC1BF0156E3DEC1EF0155000D0120009
:1038A80011C015F012C016F005D0154A162A134A91
:1038B800142A00D013C0F6FF14C0F7FF15C0D9FFB3
:1038C80016C0DAFF0800F5CFDFFFDF50D8A4EDD728
:1038D800120048C011F049C012F06FC013F0146A0A
:1038E800CAEC18F011505D6E5D5049EC14F05004AC
:1038F800D8A403D0808A848403D08494809A00D08A
:1039080012001B6E800E1B6013D09F0E186401D02E
:103918000FD018C014F01B28156E1828166E1B50EF
:1039280063EC1AF01A5078EC1EF0195078EC1EF07F
:103938001200156E15C011F00F0E111615C012F0F9
:10394800123A0F0E121612500A0D1150F324136E6C
:10395800000EF420146E135000D01200838283905E
:10396800800EC76E300EC66E0AEC0DF084EC1BF0AC
:103978001AEC10F0360E80EC1EF0C00E78EC1EF03B
:10398800010E556E120011501302F3CF15F0F4CF4B
:1039980016F011501402F350162612501302F35069
:1039A800162615C011F016C012F000D01200C282FF
:1039B8000ED0C450146E136AC3501324156E000E33
:1039C8001420166E15C011F016C012F002D0C2B243
:1039D800F0D712001C6E1C50116E126A136A8E0EFC
:1039E800146E000E156E2BEC13F011C019F012C0F6
:1039F8001AF013C01BF000D01200136E8050200B79
:103A0800146E1350010D340EF324D96E010EF420F8
:103A1800DA6EDF501410806E34EC1DF01200136E55
:103A2800000E126E3A0E136006D02F0E136403D0E8
:103A3800010E126E00D012C011F0113000D0120029
:103A4800156E46EC1EF015501524C2EC1BF01350F1
:103A5800C2EC1BF01450C2EC1BF03DEC1EF012003F
:103A6800000E126E000E116E112805E11228D8B44E
:103A780006D001D004D0114A122AF6D7FCD712007A
:103A8800156E46EC1EF015501524C2EC1BF01350B1
:103A9800C2EC1BF01450C2EC1BF03DEC1EF01200FF
:103AA800480E166EAC0E136E020E146E165044ECD1
:103AB8001DF0EE0E136E165071EC1DF01200000E84
:103AC800186E800E196EA00E1A6E24C01BF025C049
:103AD8001CF0000EF0EC11F01200146E46EC1EF013
:103AE80014501424C2EC1BF01350C2EC1BF03DEC34
:103AF8001EF012005450D8A403D0050E546E02D004
:103B0800540600D054508CEC08F01200542A060ECB
:103B18005418D8A403D0000E546E00D05450AFEC03
:103B280007F012005350D8A403D0020E536E02D0EF
:103B3800530600D053508CEC08F01200532A030EA1
:103B48005318D8A403D0000E536E00D05350AFECD6
:103B580007F0120077EC17F08AEC1AF02FEC19F046
:103B680045EC03F0000E0001F96F12002BEC1EF07B
:103B780034EC1DF0C1EC1EF034EC1DF05D5049EC46
:103B880014F0120034EC1EF034EC1DF0C1EC1EF001
:103B980034EC1DF05D5049EC14F01200C5EC1EF039
:103BA800C9EC1EF09CEC1EF0B2EC1EF0C5EC1EF049
:103BB80012008FEC15F02FEC19F045EC03F0000E15
:103BC8000001FB6F1200682A6E0E686403D06E0E47
:103BD800686E00D0A4EC14F0120068C06FF02FECEF
:103BE80019F045EC03F0000E0001FA6F12006806A8
:103BF800320E686003D0320E686E00D0A4EC14F068
:103C08001200126E9E96C9CF11F012C0C9FF00D0E3
:103C1800C7A0FED71200000E126E190E116E3C0ED0
:103C280028EC18F0700ED36E12007C0ECB6E050EC9
:103C3800CA6E3E0EBB6E1C0EBA6E12008394000E46
:103C4800186E640E176E13EC1AF083841200F90EC6
:103C5800CB6E050ECA6E7C0EBB6E3C0EBA6E1200A1
:103C6800F90ECB6E070ECA6E7C0EBB6E3C0EBA6E9A
:103C78001200C5EC1EF0B2EC1EF09CEC1EF0C9EC74
:103C88001EF01200C9EC1EF09CEC1EF0B2EC1EF007
:103C9800C5EC1EF01200B2EC1EF09CEC1EF0C5EC58
:103CA8001EF0C9EC1EF012005050D8A402D0010E2C
:103CB80001D0000E506E12002FEC19F045EC03F005
:103CC800000E0001FB6F12002FEC19F045EC03F019
:103CD800000E0001FA6F12002FEC19F045EC03F00A
:103CE800000E0001F96F1200136E83928380135047
:103CF80005EC1EF083821200136E8392839013509A
:103D080005EC1EF083821200116E00D0ACA2FED723
:103D180011C0ADFF1200010EC26E0E0EC16EA90ECB
:103D2800C06E1200000E0001F66F809A8494120093
:103D38009388060EE82EFED700D01200000E526EB1
:103D4800F19CCD909E9012009CEC1EF0C9EC1EF0E8
:103D580012009CEC1EF0C5EC1EF01200819A939A9A
:103D680000D000D01200F092010E0001F86F12008E
:103D7800F090010E0001F76F1200000EBA6E8196E6
:103D880012008198939800D01200938A00D000D036
:0C3D98001200000E526ECD9012004B0085
:10FC8C0000000000000000005F00000007000700FB
:10FC9C00147F147F14242A7F2A12231308646236DB
:10FCAC00495620500008070300001C224100004167
:10FCBC00221C002A1C7F1C2A08083E0808008070A1
:10FCCC0030000808080808000060600020100804D4
:10FCDC00023E5149453E00427F4000724949494627
:10FCEC002141494D331814127F1027454545393CA5
:10FCFC004A49493141211109073649494936464992
:10FD0C0049291E00001400000040340000000814B3
:10FD1C00224114141414140041221408020159092C
:10FD2C00063E415D594E7C1211127C7F4949493681
:10FD3C003E414141227F4141413E7F494949417FFA
:10FD4C00090909013E414151737F0808087F0041B0
:10FD5C007F41002040413F017F081422417F4040F9
:10FD6C0040407F021C027F7F0408107F3E414141CE
:10FD7C003E7F090909063E4151215E7F091929463A
:10FD8C00264949493203017F01033F4040403F1F50
:10FD9C002040201F3F4038403F6314081463030485
:10FDAC007804036159494D43007F414141020408E5
:10FDBC001020004141417F040201020440404040B8
:10FDCC0040000307080020545478407F28444438EE
:10FDDC003844444428384444287F38545454180038
:10FDEC00087E090218A4A49C787F080404780044B7
:10FDFC007D40002040403D007F1028440000417FA2
:10FE0C0040007C047804787C08040478384444442A
:10FE1C0038FC1824241818242418FC7C0804040822
:10FE2C00485454542404043F44243C4040207C1C3B
:10FE3C002040201C3C4030403C44281028444C902E
:10FE4C0090907C4464544C44000836410000007788
:10FE5C0000000041360800020102040201000A0001
:10FE6C006400E80310270100100000010010253089
:10FE7C0032783A253032783A2530327820253032B3
:10FE8C00782F253032782F2530327800616C6172F2
:10FE9C006D203D20256420486561746572203D20ED
:10FEAC002564202C002054656D70203D2025642095
:10FEBC0043203D2025642046202C0043616E6E6F4C
:10FECC00742066696E6420627574746F6E200D0AFE
:10FEDC0000454345333330314C20462732312046E0
:10FEEC00696E616C0000454345333330314C20461C
:10FEFC003B32312046696E616C000045434533331B
:10FF0C0030314C20462732312046696E616C0052EC
:10FF1C00504D203D20256420206463203D20256425
:10FF2C000D0A00303132333435363738396162637B
:10FF3C00646566005365742048656174657220546D
:10FF4C00656D70004E45435F436F6465203D202511
:10FF5C00780D0A00454345333330314C2046273267
:10FF6C00310000485452205365742054656D700064
:10FF7C0054696D65205365747570000054656D701F
:10FF8C00657261747572650025783A25783A257822
:10FF9C000D0A002020486561746572002000416CD8
:10FFAC0061726D2054696D65002020536574757005
:10FFBC00002000416C61726D205357002020416C71
:10FFCC0061726D0020205365747570004854522086
:10FFDC005357004461746500566F6C74004F4E208B
:10FFEC00004F46460052504D00432F0044430052F0
:04FFFC004D000000B4
:020000040020DA
:08000000FFFFFFFFFFFFFFFF00
:020000040030CA
:0E000000FF08191EFF8281FF0FC00FE00F40A6
:00000001FF
