:0400000021EF7FF07D
:10FE38003F065B4F666D7C077F67380EF66EFE0ED9
:10FE4800F76E000EF86E00EE2DF010EE0AF00900C5
:10FE5800F5CFEEFFE550E150FAE1000134EF7FF015
:10FE68003F0E956E000E936E20EE2DF010EE21F0F1
:10FE7800090EDBCFE3FFE806FCE200D083A003D045
:10FE88001B6A1B2A01D01B6A1B50016E026A83A2DF
:10FE980003D01C6A1C2A01D01C6A1C50036E046A19
:10FEA80083A403D01D6A1D2A01D01D6A1D50056E4A
:10FEB800066A83A603D01E6A1E2A01D01E6A1E5037
:10FEC800076E086A83A803D01F6A1F2A01D01F6A19
:10FED8001F50096E0A6A83AA03D0206A202A01D01B
:10FEE800206A20500B6E0C6A89EC7FF001C02BF061
:10FEF80002C02CF0210E2B24D96E000E2C20DA6EB5
:10FF0800DF50816EBBD700EF00F0000E1A6E000EB6
:10FF1800196E075001140D6E085002140E6E07502A
:10FF280001180F6E08500218106E09500314116E54
:10FF38000A500414126E09500318136E0A5004185C
:10FF4800146E0B500514156E0C500614166E0B50DB
:10FF58000518176E0C500618186E0F041010D8A448
:10FF680006D0010E1924196E000E1A201A6E0D04FF
:10FF78000E10D8A406D0020E1924196E000E1A20ED
:10FF88001A6E13041410D8A406D0020E1924196E80
:10FF9800000E1A201A6E11041210D8A406D0040EEE
:10FFA8001924196E000E1A201A6E17041810D8A4F6
:10FFB80006D0040E1924196E000E1A201A6E1504A4
:10FFC8001610D8A406D0080E1924196E000E1A208F
:10FFD8001A6E1ABE0BD01A5004E10A0E195CD8A08A
:10FFE80005D0000E1A6E000E196E00D019C001F06F
:08FFF8001AC002F000D0120053
:020000040020DA
:08000000FFFFFFFFFFFFFFFF00
:020000040030CA
:0E000000FF08191EFF8281FF0FC00FE00F40A6
:00000001FF
