:040000000CEF00F011
:10000800FACF03F0FBCF04F0E9CF05F056ED03F08B
:10001800A9EF04F01F0E0001A06F000E0001A16FF0
:10002800D6D1250E0001A819D8B405D00001A851D1
:10003800C0EC05F0CCD1000E0001A76F000EA66F32
:10004800000E0001A56F06D00001A5851D4A1E2AD5
:1000580001D00BD01DC0F6FF1EC0F7FF0800F550F9
:10006800300AD8B4F1D701D0F5D71DC0F6FF1EC0AD
:10007800F7FF0800F55053EC05F0D8A03FD0000E6C
:100088000001A76F000EA66F00D0A6C011F0A7C090
:1000980012F0000E146E0A0E136E3FEC05F011C03C
:1000A800A6F012C0A7F0D00E2B6EFF0E2C6E1DC04E
:1000B800F6FF1EC0F7FF0800F5502D6E2E6A2B5074
:1000C8002D262C502E222D500001A6272E5000013F
:1000D800A7231D4A1E2A1DC0F6FF1EC0F7FF0800F1
:1000E800F55053EC05F0D8A009D0CFD707D07ED172
:1000F8001DD00001A58F1AD06AD118D01DC0F6FFF7
:100108001EC0F7FF1D4A1E2A0800F5CFA8F00001FF
:10011800A851000AD8B46AD1640AD8B407D00D0A25
:10012800D8B404D0110AD8B4E4D751D10001A5BF7E
:1001380019D0A0C0D9FFA1C0DAFFDECFA3F0DDCF70
:10014800A4F0020E0001A027000EA1230001A4AF15
:100158005DD0030E0001A5130001A36DA41FD8B044
:10016800A42B54D0A0C0D9FFA1C0DAFFDECFA3F0E2
:10017800DDCFA4F0020E0001A027000EA12346D077
:10018800010E0001A86F050E0001A819D8B448D0C7
:1001980001D046D00001A851020D920EF324F66E4C
:1001A800FF0EF420F76E0900F5500001A35D090069
:1001B800F5500001A459D8A033D001D031D00001A6
:1001C800A82BE1D72DD0010E0001A86F040E000165
:1001D800A819D8B425D001D023D00001A851020D08
:1001E8009C0EF324F66EFF0EF420F76E0900F5500E
:1001F8000001A35D0900F5500001A459D8A010D052
:1002080001D00ED00001A82BE1D70AD00001A551DA
:10021800800B000AD8B4B4D7800AD8B4D4D700D099
:100228000001A6510001A711D8B40BD0A5C02BF02E
:10023800030E2B16D8B405D00001A607D8A0A7072F
:1002480000D0800E0001A8BF7F0E2B6E0001A651C2
:100258000001A85D0001A751800A2B58D8B00BD027
:100268000001A8510001A65F000E0001A8BFFF0E03
:100278000001A75B06D0000E0001A76F000EA66F55
:1002880000D00001A5A51FD0A5C02BF0030E2B168A
:10029800D8B404D02D0EC0EC05F000D00001A65152
:1002A8000001A711D8B42ED0300EC0EC05F0000123
:1002B800A607D8A0A7070001A6510001A711D8B426
:1002C80021D0F2D71FD00001A6510001A711D8B440
:1002D8000FD0200EC0EC05F00001A607D8A0A70794
:1002E8000001A6510001A711D8B402D0F2D700D05E
:1002F800A5C02BF0030E2B16D8B404D02D0EC0ECDD
:1003080005F000D0A8C0A2F05AD04AD00001A251EE
:10031800020D920EF324F66EFF0EF420F76E09001C
:10032800F5CF13F00A00F5CF14F0A3C011F0A4C064
:1003380012F031EC04F011C018F012C019F0000EE0
:100348001B6E0A0E1A6E5FEC04F01850300F000195
:10035800A86F30D0A3C011F0A4C012F00001A251C0
:10036800020D9C0EF324F66EFF0EF420F76E0900C2
:10037800F5CF13F00A00F5CF14F031EC04F011506A
:100388000F0B00019F6F00019F51010DED0EF3242B
:10039800F66EFF0EF420F76E0800F5CFA8F00AD02D
:1003A8000001A551800B000AD8B4B0D7800AD8B490
:1003B800D1D700D00001A851C0EC05F000D0000151
:1003C800A2070001A229D8B402D0EAD700D01DC0E4
:1003D800F6FF1EC0F7FF1D4A1E2A0800F5CFA8F039
:1003E8000001A851D8B402D01CD600D01200F29255
:1003F8004250D8B49AD0CE50CFCF01F0026A01C093
:1004080002F0016A0110366E0250376E000ECF6E90
:10041800000ECE6E8AD0000ECF6E000ECE6E9E906D
:10042800900ECD6ECD80000E496E000E326E000E1D
:10043800336E000E346E000E356E010E426E73D0B0
:1004480085D0350E365C210E3758D8A009D01C0E41
:10045800365C250E3758D8B003D0020E426E2AD02B
:10046800F0EC05F027D026D071D0A10E365C0F0E27
:100478003758D8A009D0880E365C130E3758D8B034
:1004880003D0030E426E4FD0F0EC05F04CD04BD0A9
:100498005DD0910E365C010E3758D8A008D0BC0E3E
:1004A800365C020E3758D8B002D0040ED7D7F0EC1D
:1004B80005F000D0F19C4AD0910E365C010E3758F9
:1004C800D8A02ED0080E365C070E3758D8B028D0E2
:1004D800D8903234326E3334336E3434346E35342B
:1004E800356EE90E365C030E3758D8A00CD0010ED5
:1004F8003224326E000E3320336E000E3420346EF8
:10050800000E3520356E4928496E1F0E4964B9D74B
:10051800000E3B6E010E3A6EF298000E426EB1D795
:10052800F0EC05F000D0F18C11D04250000AD8B49C
:1005380072D7010AD8B485D7030AD8B496D7010A66
:10054800D8B4A7D7070AD8B4B7D700D01200CAECD6
:1005580004F0CCEC03F0FFEC03F054506B18D8B463
:10056800FAD754C06BF009EC05F01450306E3050D7
:10057800116E126A11BE1206000E146E090E136E69
:100588003FEC05F011C017F012C018F0000E1A6EFB
:10059800050E196E0BEC03F01750200F316ECF0EBD
:1005A8001D6EFF0E1E6E4EC01FF0206A50C021F057
:1005B800226A54C023F0246A51C025F0266A4BC031
:1005C80027F0286A60C029F02A6A0EEC00F0A40E11
:1005D8001D6EFF0E1E6E30501F6E206A1FBE200655
:1005E8003150216E226A21BE22060EEC00F03150F5
:1005F800176E186A17BE1806000E1A6E0A0E196EC4
:100608000BEC03F017502F6EA6D70CEF00F0000E7E
:100618001C6E1AAE07D0196C1A1ED8B01A2A010E11
:100628001C6E00D018AE07D0176C181ED8B0182A48
:10063800010E1C1A00D0000E1E6E000E1D6E195001
:100648001A10D8B421D0010E1B6E05D0D8901936D7
:100658001A361B2A00D01ABE02D0F8D700D0D8907C
:100668001D361E361950175C1A501858D8A006D0D7
:100678001950175E1A50185A1D8000D0D8901A3297
:1006880019321B2EECD700D01C50D8B405D01D6CE5
:100698001E1ED8B01E2A00D01DC017F01EC018F0AC
:1006A80000D012000600EACF06F0E1CF07F0E2CF53
:1006B80008F0D9CF09F0DACF0AF0F3CF0BF0F4CF76
:1006C8000CF0F6CF0DF0F7CF0EF0F8CF0FF0F5CF16
:1006D80010F09EA003D0D3EC05F000D0F2A203D016
:1006E800FBEC01F000D010C0F5FF0FC0F8FF0EC002
:1006F800F7FF0DC0F6FF0CC0F4FF0BC0F3FF0AC0F4
:10070800DAFF09C0D9FF08C0E2FF07C0E1FF06C051
:10071800EAFF05C0E9FF04C0FBFF03C0FAFF1100B0
:10072800136E000EAC6E000EAB6E13A002D0AC8838
:1007380000D013A203D0AC8CAB8C00D013A402D091
:10074800AC8E00D013A602D0AB8802D0AB8A00D002
:1007580013B8AC849E9813AA02D0AB8600D013AC11
:1007680002D09D8A01D09D9A9E9A13AE02D09D8890
:1007780001D09D9811C0AFFF1250B06EAC8AAB8EFD
:10078800949C948EACB8ACBE02D0948C00D012006D
:10079800680E136E000E146E000E546E000E506E2E
:1007A800090E4E6E000E4C6E210E4B6E110E516EE0
:1007B800280E606EAEEC05F013501324EAEC04F03A
:1007C8001450EAEC04F05450EAEC04F05050EAEC0F
:1007D80004F04E50EAEC04F04C50EAEC04F04B50B4
:1007E800EAEC04F05150EAEC04F06050EAEC04F052
:1007F800A5EC05F01200680E156E000E146EAEEC36
:1008080005F015501524EAEC04F01450EAEC04F055
:1008180090EC05F0D8801534EAEC04F0010E85EC74
:1008280004F0546E010E85EC04F0506E010E85EC58
:1008380004F04E6E010E85EC04F04C6E010E85EC52
:1008480004F04B6E010E85EC04F0516E000E85EC41
:1008580004F0606EA5EC05F01200000E176E000E95
:10086800166E13501410D8B421D0010E156E05D091
:10087800D89013361436152A00D014BE02D0F8D7F3
:1008880000D0D890163617361350115C14501258F1
:10089800D8A006D01350115E1450125A168000D0FA
:1008A800D89014321332152EECD700D016C011F0A0
:1008B80017C012F012001A501B10D8B41DD0010E28
:1008C8001C6E05D0D8901A361B361C2A00D01BBEC9
:1008D80002D0F8D700D01A50185C1B501958D8A06D
:1008E80005D01A50185E1B50195A00D0D8901B32E8
:1008F8001A321C2EF0D700D018C018F019C019F001
:100908001200116EECEC05F0000E126E070E126468
:1009180001D00FD0CDEC05F082A203D0D8801336D9
:1009280004D013501324136E00D0E8EC05F0122AFB
:10093800EDD71150D8B403D0B7EC05F003D0DEECF6
:1009480005F000D0135000D0120000EE80F01F0E0A
:10095800EE6AE806FDE100EE32F02F0EEE6AE806D8
:10096800FDE18E0EF66E0B0EF76E000EF86E00EEC1
:1009780061F010EE0CF00900F5CFEEFFE550E15004
:10098800FAE1000EF86E0001ABEF02F09BEC05F007
:10099800700ED36E0F0EC16E000E926E010E936E26
:1009A800000E946E000E956E000E966EF19E74EC1D
:1009B80005F027EC05F0A00E116E860E126E010EE2
:1009C800136E000E146ED9EC05F01200116E000EB5
:1009D800126E070E126401D011D011AE03D0ECECE8
:1009E80005F003D0E3EC05F000D0CDEC05F0E8EC21
:1009F80005F011501124116E122AEBD7ECEC05F01A
:100A0800CDEC05F0E8EC05F01200480E186EAA0EC1
:100A1800166EAEEC05F018501824EAEC04F01650E7
:100A2800EAEC04F090EC05F0D8801834EAEC04F015
:100A3800000E85EC04F0176EA5EC05F017C014F055
:100A4800156A00D01200F292F19CF288000ECF6E67
:100A5800000ECE6E9E909D80F28CF28E000E3B6E44
:100A6800000E3A6E000E326E000E336E000E346EBB
:100A7800000E356E120011501302F3CF15F0F4CFAB
:100A880016F011501402F350162612501302F350A8
:100A9800162615C011F016C012F000D01200136E01
:100AA800000E126E3A0E136006D02F0E136403D098
:100AB800010E126E00D012C011F0113000D01200D9
:100AC800156EAEEC05F015501524EAEC04F0135041
:100AD800EAEC04F01450EAEC04F0A5EC05F012007E
:100AE800480E166EAC0E136E020E146E165064ECA1
:100AF80005F0EE0E136E165083EC05F01200146E1E
:100B0800AEEC05F014501424EAEC04F01350EAECAF
:100B180004F0A5EC05F01200E8EC05F0ECEC05F0AB
:100B2800CDEC05F0E3EC05F0E8EC05F01200000E62
:100B3800126E190E116E3C0E94EC03F0700ED36E0B
:100B48001200E8EC05F0E3EC05F0CDEC05F0ECEC78
:100B580005F01200ECEC05F0CDEC05F0E3EC05F047
:100B6800E8EC05F01200E3EC05F0CDEC05F0E8EC5C
:100B780005F0ECEC05F01200116E00D0ACA2FED727
:100B880011C0ADFF1200000204061012141616164A
:100B9800FF019484060EE82EFED700D01200000E46
:100BA800426EF19CCD909E901200CDEC05F0ECECDD
:100BB80005F01200CDEC05F0E8EC05F01200829289
:100BC800949200D000D012008294949400D0120025
:100BD800948200D000D01200000E426ECD90120018
:10FDB60000000000000000005F00000007000700D0
:10FDC600147F147F14242A7F2A12231308646236B0
:10FDD600495620500008070300001C22410000413C
:10FDE600221C002A1C7F1C2A08083E080800807076
:10FDF60030000808080808000060600020100804A9
:10FE0600023E5149453E00427F40007249494946FB
:10FE16002141494D331814127F1027454545393C79
:10FE26004A49493141211109073649494936464966
:10FE360049291E0000140000004034000000081488
:10FE46002241141414141400412214080201590901
:10FE5600063E415D594E7C1211127C7F4949493656
:10FE66003E414141227F4141413E7F494949417FCF
:10FE7600090909013E414151737F0808087F004185
:10FE86007F41002040413F017F081422417F4040CE
:10FE960040407F021C027F7F0408107F3E414141A3
:10FEA6003E7F090909063E4151215E7F091929460F
:10FEB600264949493203017F01033F4040403F1F25
:10FEC6002040201F3F4038403F631408146303045A
:10FED6007804036159494D43007F414141020408BA
:10FEE6001020004141417F0402010204404040408D
:10FEF60040000307080020545478407F28444438C3
:10FF06003844444428384444287F3854545418000C
:10FF1600087E090218A4A49C787F0804047800448B
:10FF26007D40002040403D007F1028440000417F76
:10FF360040007C047804787C0804047838444444FF
:10FF460038FC1824241818242418FC7C08040408F7
:10FF5600485454542404043F44243C4040207C1C10
:10FF66002040201C3C4030403C44281028444C9003
:10FF760090907C4464544C4400083641000000775D
:10FF860000000041360800020102040201000A00D6
:10FF96006400E8031027010010000001001020543F
:10FFA600656D7065726174757265203D20256420EB
:10FFB6006465677265657343203D2025642064652A
:10FFC6006772656573460D0A00253032783A25302A
:10FFD60032783A2530327820253032782F25303263
:10FFE600782F253032780030313233343536373891
:0AFFF6003961626364656600000073
:020000040020DA
:08000000FFFFFFFFFFFFFFFF00
:020000040030CA
:0E000000FF08191EFF8281FF0FC00FE00F40A6
:00000001FF
