:040000000CEF00F011
:10000800FACF03F0FBCF04F0E9CF05F083ED0DF054
:10001800C1EF0DF046AE1CD02D0E0001DE6F7F0E35
:100028004614176E186A000E1A6E0A0E196EB3EC93
:100038000CF01750300F0001DF6F7F0E4614116E61
:10004800126A000E146E0A0E136E42EC0DF01BD0ED
:100058002B0E0001DE6F46C017F047C018F0000EE7
:100068001A6E0A0E196EB3EC0CF01750300F00011F
:10007800DF6F46C011F047C012F0000E146E0A0E72
:10008800136E42EC0DF01150300F0001E06F00D0FC
:1000980049AE28D02D0E0001E26F48C043F049C098
:1000A80044F0431E441E434A442A43C0FCF044C063
:1000B800FDF0FCC017F0FDC018F0000E1A6E0A0E15
:1000C800196EB3EC0CF01750300F0001E36FFCC051
:1000D80011F0FDC012F0000E146E0A0E136E42EC01
:1000E8000DF01BD02B0E0001E26F48C017F049C07D
:1000F80018F0000E1A6E0A0E196EB3EC0CF01750B9
:10010800300F0001E36F48C011F049C012F0000E33
:10011800146E0A0E136E42EC0DF01150300F0001F0
:10012800E46F00D060380F0B300F0001C86F6050CB
:100138000F0B300F0001C96F61380F0B300F000132
:10014800CB6F61500F0B300F0001CC6F64380F0B71
:10015800300F0001CE6F64500F0B300F0001CF6FCE
:1001680062380F0B300F0001BF6F62500F0B300F5A
:100178000001C06F5C380F0B300F0001C26F5C507C
:100188000F0B300F0001C36F6D380F0B300F0001DC
:10019800C56F6D500F0B300F0001C66F5004D8A407
:1001A8000BD0DA0E116E000E126EEC0E136EFF0EEF
:1001B800146ED2EC10F00BD0DA0E116E000E126E27
:1001C800F00E136EFF0E146ED2EC10F000D05EC06D
:1001D80017F0186A000E1A6E640E196EB3EC0CF064
:1001E8001750300F0001D66F000E146E640E136E98
:1001F8005EC011F0126A42EC0DF011C017F012C087
:1002080018F0000E1A6E0A0E196EB3EC0CF01750A7
:10021800300F0001D76F000E146E640E136E5EC0AF
:1002280011F0126A42EC0DF011C0FEF012C0FFF09E
:10023800FEC011F0FFC012F0000E146E0A0E136E0D
:1002480042EC0DF01150300F0001D86F4CC017F080
:100258004DC018F0030E1A6EE80E196EB3EC0CF0D0
:100268001750300F0001D16F030E146EE80E136E95
:100278004CC011F04DC012F042EC0DF011C017F057
:1002880012C018F0000E1A6E640E196EB3EC0CF062
:100298001750300F0001D26F030E146EE80E136E64
:1002A8004CC011F04DC012F042EC0DF011C0FEF040
:1002B80012C0FFF0000E146E640E136EFEC011F033
:1002C800FFC012F042EC0DF011C017F012C018F088
:1002D800000E1A6E0A0E196EB3EC0CF01750300FA0
:1002E8000001D36F030E146EE80E136E4CC011F0AC
:1002F8004DC012F042EC0DF011C0FEF012C0FFF03C
:10030800000E146E640E136EFEC011F0FFC012F0E2
:1003180042EC0DF011C0FAF012C0FBF0FAC011F077
:10032800FBC012F0000E146E0A0E136E42EC0DF0B4
:100338001150300F0001D46F170E396EDE0E3A6E71
:10034800000E3B6EFF0E3D6EE00E3C6E000E3F6EE3
:10035800000E3E6E020E406E010ED0EC08F0170E35
:10036800396EE20E3A6E000E3B6EFF0E3D6EE00EE9
:100378003C6E000E3F6E000E3E6E020E406E460E44
:10038800D0EC08F0340E396EC80E3A6E000E3B6E93
:10039800070E3D6E3C68000E3F6E000E3E6E020E6C
:1003A800406E0F0ED0EC08F0520E396EBF0E3A6E4A
:1003B800000E3B6E070E3D6EE00E3C6E000E3F6E6B
:1003C800000E3E6E020E406E0F0ED0EC08F0820E4C
:1003D800396EDA0E3A6E000E3B6EF80E3D6E000E68
:1003E8003C6E000E3F6E000E3E6E010E406E5F0EBC
:1003F800D0EC08F0960E396ED60E3A6E000E3B6EB3
:10040800070E3D6EE00E3C6E000E3F6E000E3E6E17
:10041800010E406E0A0ED0EC08F0960E396ED10E21
:100428003A6E000E3B6E070E3D6EE00E3C6E000EFF
:100438003F6E000E3E6E010E406E5D0ED0EC08F071
:1004480012001F0E306E000E316E99D1250E38182D
:10045800D8B404D038504DEC12F091D1000E376E5C
:10046800000E366E000E356E05D035841D4A1E2AE4
:1004780001D00BD01DC0F6FF1EC0F7FF0800F550D5
:10048800300AD8B4F2D701D0F5D71DC0F6FF1EC088
:10049800F7FF0800F55063EC11F0D8A03BD0000E30
:1004A800376E000E366E00D036C011F037C012F02D
:1004B800000E146E0A0E136E18EC11F011C036F00F
:1004C80012C037F0D00E2B6EFF0E2C6E1DC0F6FF3B
:1004D8001EC0F7FF0800F5502D6E2E6A2B502D26F2
:1004E8002C502E222D5036262E5037221D4A1E2AD9
:1004F8001DC0F6FF1EC0F7FF0800F55063EC11F0B1
:10050800D8A008D0D1D706D048D11BD0358E19D065
:1005180036D117D01DC0F6FF1EC0F7FF1D4A1E2A90
:100528000800F5CF38F03850000AD8B436D1640A3C
:10053800D8B407D00D0AD8B404D0110AD8B4E6D775
:100548001ED135BE15D030C0D9FF31C0DAFFDECF9D
:1005580033F0DDCF34F0020E3026000E312234AEF7
:100568004ED0030E3512336C341ED8B0342A47D01F
:1005780030C0D9FF31C0DAFFDECF33F0DDCF34F041
:10058800020E3026000E31223AD0010E386E050ECA
:100598003818D8B43DD001D03BD03850020D020EE7
:1005A800F324F66EFF0EF420F76E0900F550335C65
:1005B8000900F5503458D8A02BD001D029D0382ABA
:1005C800E6D726D0010E386E040E3818D8B420D0DD
:1005D80001D01ED03850020D0C0EF324F66EFF0E1B
:1005E800F420F76E0900F550335C0900F5503458D3
:1005F800D8A00ED001D00CD0382AE6D709D0355073
:10060800800B000AD8B4C1D7800AD8B4DBD700D091
:1006180036503710D8B40AD035C02BF0030E2B163D
:10062800D8B404D03606D8A0370600D0800E38BE1D
:100638007F0E2B6E3650385C3750800A2B58D8B056
:1006480007D03850365E000E38BEFF0E375A05D038
:10065800000E376E000E366E00D035A41AD035C0A5
:100668002BF0030E2B16D8B404D02D0E4DEC12F03F
:1006780000D036503710D8B426D0300E4DEC12F0DA
:100688003606D8A0370636503710D8B41CD0F5D760
:100698001AD036503710D8B40CD0200E4DEC12F0CA
:1006A8003606D8A0370636503710D8B402D0F5D75A
:1006B80000D035C02BF0030E2B16D8B404D02D0E65
:1006C8004DEC12F000D038C032F053D045D0325043
:1006D800020D020EF324F66EFF0EF420F76E0900E9
:1006E800F5CF13F00A00F5CF14F033C011F034C081
:1006F80012F00BEC0FF011C018F012C019F0000E38
:100708001B6E0A0E1A6E89EC0FF01850300F386EF7
:100718002CD033C011F034C012F03250020D0C0E40
:10072800F324F66EFF0EF420F76E0900F5CF13F0F0
:100738000A00F5CF14F00BEC0FF011500F0B2F6ED1
:100748002F50010D9F0EF324F66EFF0EF420F76E66
:100758000800F5CF38F009D03550800B000AD8B41E
:10076800B6D7800AD8B4D5D700D038504DEC12F09F
:1007780000D032063228D8B402D0EED700D01DC03F
:10078800F6FF1EC0F7FF1D4A1E2A0800F5CF38F0F5
:100798003850D8B402D05AD600D0120008EC12F063
:1007A80003EC11F0000E256E000E246EB5EC11F06E
:1007B800930E4E6E010E4F6E4EC011F04FC012F0E8
:1007C800600E136EFF0E146ED2EC10F0010E396E2F
:1007D8004EC03AF04FC03BF0FF0E3D6E3C68000E35
:1007E8003F6E000E3E6E010E406E010ED0EC08F01A
:1007F8004EC011F04FC012F0CF0E136EFF0E146EE4
:10080800D2EC10F00B0E396E4EC03AF04FC03BF0F0
:10081800F80E3D6E1F0E3C6E000E3F6E000E3E6ED3
:10082800010E406E180ED0EC08F0000E1D6E280E5A
:100838001C6E000E1F6E170E1E6E000E216E020E2D
:10084800206EFF0E236EE00E226E0DEC06F04EC0F9
:1008580011F04FC012F0F80E136EFF0E146ED2ECAA
:1008680010F0170E396E4EC03AF04FC03BF0FF0E35
:100878003D6EE00E3C6E000E3F6E000E3E6E020EA8
:10088800406E2D0ED0EC08F04EC011F04FC012F0A3
:10089800F20E136EFF0E146ED2EC10F0000E1D6EE9
:1008A8006E0E1C6E000E1F6E170E1E6E000E216E51
:1008B800020E206EFF0E236EE00E226E0DEC06F087
:1008C800170E396E4EC03AF04FC03BF0FF0E3D6E2A
:1008D800E00E3C6E000E3F6E000E3E6E020E406E45
:1008E800730ED0EC08F04EC011F04FC012F0E20EBB
:1008F800136EFF0E146ED2EC10F0280E396E4EC037
:100908003AF04FC03BF0000E3D6E1F0E3C6E000EDD
:100918003F6E000E3E6E010E406E320ED0EC08F0B7
:100928004EC011F04FC012F0E70E136EFF0E146E9A
:10093800D2EC10F0470E396E4EC03AF04FC03BF083
:10094800F80E3D6E000E3C6E000E3F6E000E3E6EC1
:10095800010E406E320ED0EC08F04EC011F04FC0C0
:1009680012F0DC0E136EFF0E146ED2EC10F0780E3F
:10097800396E4EC03AF04FC03BF0000E3D6E1F0E70
:100988003C6E000E3F6E000E3E6E010E406E550E20
:10099800D0EC08F04EC011F04FC012F0FB0E136EF1
:1009A800FF0E146ED2EC10F08C0E396E4EC03AF079
:1009B8004FC03BF0FF0E3D6E3C68000E3F6E000ED0
:1009C8003E6E010E406E0C0ED0EC08F04EC011F0D9
:1009D8004FC012F0F40E136EFF0E146ED2EC10F02E
:1009E8008C0E396E4EC03AF04FC03BF0FF0E3D6E94
:1009F8003C68000E3F6E000E3E6E010E406E5F0EAC
:100A0800D0EC08F01200AFEC0FF0D2EC03F0809AB3
:100A18008494320E5E6E5E50FFEC0BF000D0D9EC81
:100A28000EF064506E18D8B475D064C06EF09AECAD
:100A380010F014C046F015C047F046C011F047C08A
:100A480012F0000E146E090E136E18EC11F011C09E
:100A580017F012C018F0000E1A6E050E196EB3ECDE
:100A68000CF0200E1724486E000E1820496E1EEC5C
:100A780010F01FC04CF020C04DF0140E1D6EFF0E7C
:100A88001E6E60C01FF0206A61C021F0226A64C037
:100A980023F0246A62C025F0266A5CC027F0286A21
:100AA8006DC029F02A6A25EC02F0760E1D6EFF0E45
:100AB8001E6E46C01FF047C020F048C021F049C054
:100AC80022F025EC02F08B0E1D6EFF0E1E6E4CC040
:100AD8001FF04DC020F05EC021F0226A25EC02F024
:100AE8005EC017F0186A000E1A6E0A0E196EB3EC83
:100AF8000CF017500101B26FB2C111F0126AC3ECC9
:100B080011F04CC011F04DC012F0FEEC0DF00EECDF
:100B180000F000D00001EE050001EF11D8A47FD746
:100B2800000E0001EF6F000EEE6FB00E1D6EFF0E8F
:100B38001E6E53C01FF0206A25EC02F0F288F19C6B
:100B48005F68000E0101B46F000EB36F0101B4BFFE
:100B58000AD00101B45120E1150E0101B35DD8B0EE
:100B68001BD001D019D07E0E0101B325D96E010E1C
:100B78000101B421DA6E5350DE18D8A408D0B3C1ED
:100B88005FF0000E0101B46F150EB36F00D00101C4
:100B9800B34BB42BDBD700D05F28D8A407D04A0EBC
:100BA8001D6EFF0E1E6E25EC02F039D7DDEC11F03C
:100BB800C00E1D6EFF0E1E6E5FC01FF0206A25EC72
:100BC80002F0050E5F18D8A403D074EC11F000D021
:100BD800060E5F18D8A403D085EC11F000D0070EDC
:100BE8005F18D8A403D03FEC11F000D0080E5F18AE
:100BF800D8A409D0320E1D6EFF0E1E6E25EC02F031
:100C0800A6EC0EF00CD75E50FFEC0BF008D70CEFFB
:100C180000F020C024F021C025F0241E251E244AFF
:100C2800252A010E24242A6E000E25202B6E000E84
:100C3800276E010E266E20C024F021C025F0D89022
:100C480024362536241E251E244A252A24C028F0A9
:100C580025C029F0000E2D6E000E2C6E20C02EF03F
:100C680021C02FF01E502024186E22C019F023C076
:100C78001AF01C50EBEC10F0205000081E24186EDF
:100C880022C019F023C01AF01C50EBEC10F01EC063
:100C980018F022C019F023C01AF01C502024EBECE5
:100CA80010F01EC018F022C019F023C01AF020500E
:100CB80000081C24EBEC10F078D02BBE0BD02E06CD
:100CC800D8A02F06020E2826000E292228502A26F0
:100CD80029502B222C4A2D2A020E2626000E2722C6
:100CE80026502A2627502B221E502E24186E22C04A
:100CF80019F023C01AF01C502C24EBEC10F01E50F5
:100D08002E24186E22C019F023C01AF02C500008A7
:100D18001C24EBEC10F02E5000081E24186E22C084
:100D280019F023C01AF01C502C24EBEC10F02E50B4
:100D380000081E24186E22C019F023C01AF02C5087
:100D480000081C24EBEC10F01E502C24186E22C056
:100D580019F023C01AF01C502E24EBEC10F01E5092
:100D68002C24186E22C019F023C01AF02E50000847
:100D78001C24EBEC10F02C5000081E24186E22C026
:100D880019F023C01AF01C502E24EBEC10F02C5054
:100D980000081E24186E22C019F023C01AF02E5025
:100DA80000081C24EBEC10F000D02E502C5C2D50C9
:100DB800800A246E2F50800A2458D8A07ED71200AB
:100DC800F2925450D8B4A3D0CE50CFCF01F0026ADB
:100DD80001C002F0016A01104A6E02504B6E000E0B
:100DE800CF6E000ECE6E93D0000ECF6E000ECE6E7C
:100DF8009E90900ECD6ECD80000E5A6E000E0001B2
:100E0800E66F000EE76F000EE86F000EE96F010E47
:100E1800546E27D08DD0350E4A5C210E4B58D8A081
:100E280009D01C0E4A5C250E4B58D8B003D0020ED0
:100E3800546E2AD080EC12F027D026D079D0A10E9B
:100E48004A5C0F0E4B58D8A009D0880E4A5C130E86
:100E58004B58D8B003D0030E546E03D080EC12F078
:100E680000D0F18C65D0910E4A5C010E4B58D8A089
:100E780008D0BC0E4A5C020E4B58D8B002D0040E03
:100E8800D7D780EC12F000D0F19C52D0900E4A5C7B
:100E9800010E4B58D8A034D0090E4A5C070E4B58A7
:100EA800D8B02ED0D8900001E6350001E66F0001D9
:100EB800E7350001E76F0001E8350001E86F000140
:100EC800E9350001E96FE90E4A5C030E4B58D8A0DA
:100ED80008D0010E0001E627000EE723E823E923E6
:100EE80000D05A2A1F0E5A6408D0000E0001EF6F76
:100EF800010EEE6FF298000E546E030E546E03D07E
:100F080080EC12F000D0F18CE7C053F011D05450AF
:100F1800000AD8B469D7010AD8B47DD7030AD8B46F
:100F28008ED7010AD8B49FD7070AD8B4AFD700D054
:100F38001200366E800E3660A6D09F0E2E6401D049
:100F4800A2D03450D8A403D0010E346E00D01F0EA6
:100F58002F6404D07E0E2F6403D000D03F0E2F6E76
:100F6800000E386E040E386401D08DD0530E2F60F9
:100F780015D0E00E2F24116E126AFF0E1222000EF9
:100F8800146E050E136E18EC11F038501126000E71
:100F98001222270E1124F66EFD0E14D0AD0E2F244A
:100FA800116E126AFF0E1222000E146E050E136ED9
:100FB80018EC11F038501126000E1222260E1124BA
:100FC800F66EFE0E1220F76E0800F5CF35F000D051
:100FD800000E376E060E376401D053D035A023D0EB
:100FE8003404D8A40CD02E503724186E30C019F011
:100FF80031C01AF036503824EBEC10F03ED03750A0
:101008003402F3502E24236E34C024F034C025F06B
:1010180030C026F031C027F038503402F35036245F
:10102800D5EC0FF02AD03050321804E13150331883
:10103800D8B423D03404D8A40CD02E503724186E3A
:1010480032C019F033C01AF036503824EBEC10F0E7
:1010580014D037503402F3502E24236E34C024F0B9
:1010680034C025F032C026F033C027F0385034029F
:10107800F3503624D5EC0FF000D0372AD89035320B
:10108800A9D7382A6FD71200010E45EC12F0000ECE
:10109800186E960E176E39EC0FF0110E45EC12F023
:1010A800010E186EF40E176E39EC0FF0B10E45EC08
:1010B80012F0010E3DEC12F02C0E3DEC12F02D0E4C
:1010C8003DEC12F0B20E45EC12F0010E3DEC12F0C0
:1010D8002C0E3DEC12F02D0E3DEC12F0B30E45EC4B
:1010E80012F0010E3DEC12F02C0E3DEC12F02D0E1C
:1010F8003DEC12F0010E3DEC12F02C0E3DEC12F01E
:101108002D0E3DEC12F0B40E45EC12F0070E3DEC3E
:1011180012F0C00E45EC12F0A20E3DEC12F0020ED9
:101128003DEC12F0840E3DEC12F0C10E45EC12F0CD
:10113800C50E3DEC12F0C20E45EC12F00A0E3DEC65
:1011480012F0000E3DEC12F0C30E45EC12F08A0EC0
:101158003DEC12F02A0E3DEC12F0C40E45EC12F0F4
:101168008A0E3DEC12F0EE0E3DEC12F0C50E45EC89
:1011780012F00E0E3DEC12F0200E45EC12F0360E79
:1011880045EC12F0C80E3DEC12F03A0E45EC12F0A8
:10119800050E3DEC12F012000001F36FF3C0F9F0F8
:1011A80039C0F8F03AC011F03BC012F03DEC10F035
:1011B80011C0F4F012C0F5F0000E0001F76F000E38
:1011C800F66F64D06F50D8B434D04050050D00018C
:1011D800F951416E426AF3504126F450422242BE10
:1011E80028D0425004E1810E415CD8A022D0000EE4
:1011F8000001F96F4050070DF3500001F825030F67
:101208000001F86FA00E0001F86504D0A00E0001DF
:10121800F86F00D00001F6513A24D96E0001F75159
:101228003B20DA6E200EDE18D8B42CD002D02AD09B
:1012380000D0F8C02EF00001F6513A24D96E000112
:10124800F7513B20DA6EDF502F6E3CC030F03DC0C6
:1012580031F03EC032F03FC033F040C034F00001FE
:10126800F9519DEC07F04050060DF3500001F925A7
:101278000001F96F800E0001F96504D0800E0001AD
:10128800F96F00D00001F64BF72B00D00001F451A4
:101298000001F65D0001F5510001F759D8A092D779
:1012A80012001FC023F0246A256A1E34233601E386
:1012B80024802350266E2650D8A402D00ED06CD09D
:1012C80022C023F0246A256A2134233601E32480CE
:1012D80023502B6E2B50D8A407D0000E1D6E000E85
:1012E8001E6E000E1F6E58D02B507B0F26261FC077
:1012F8002BF022502B1A800E2B161E8E218EFF0EDD
:101308002016FF0E2116000E2216000E276E000E64
:10131800286E000E296E070E2A6E00D01DA007D079
:1013280020502726215028222250292200D0D89048
:101338001F321E321D32D8902036213622362A2EF0
:10134800EDD700D0090E2A6E00D01DA007D020507E
:101358002726215028222250292200D0D8901F3237
:101368001E321D32D8902932283227322A2EEDD744
:1013780000D027C011F028C012F029C013F026C0F1
:1013880014F02BC015F09CEC0BF011C01DF012C02E
:101398001EF013C01FF000D01200E00E45EC12F052
:1013A800020E3DEC12F01C0E3DEC12F0070E3DEC67
:1013B80012F0120E3DEC12F0370E3DEC12F0320E28
:1013C8003DEC12F0290E3DEC12F02D0E3DEC12F022
:1013D800290E3DEC12F0250E3DEC12F02B0E3DECE3
:1013E80012F0390E3DEC12F0000E3DEC12F0010E39
:1013F8003DEC12F0030E3DEC12F0100E3DEC12F035
:10140800E10E45EC12F0030E3DEC12F01D0E3DEC22
:1014180012F0070E3DEC12F0060E3DEC12F02E0E07
:101428003DEC12F02C0E3DEC12F0290E3DEC12F0C2
:101438002D0E3DEC12F02E0E3DEC12F02E0E3DEC72
:1014480012F0370E3DEC12F03F0E3DEC12F0000E9C
:101458003DEC12F0000E3DEC12F0020E3DEC12F0E5
:10146800100E3DEC12F0130E45EC12F0000E186E43
:101478000A0E176E39EC0FF0290E45EC12F0000E2B
:10148800186E640E176E39EC0FF0120013C015F0C9
:10149800166A176A1234153601E3168015501F6E46
:1014A8001F50D8A402D039D063D0170E156E11C0C2
:1014B80016F012C017F013C018F01528196E04D0D2
:1014C800D890183217321632192EFAD716501A6ECB
:1014D800128EFF0E1116FF0E1216000E1316115063
:1014E8001B6E12501C6E13501D6E1E6A8E0E1F5EF0
:1014F8001FAE10D01F50800A8F0FD8B003D00DD068
:1015080037D000D0D8901E321D321C321B321F3EFD
:10151800F9D719D0170E1F6411D0000E116E000EE6
:10152800126E000E136E000E146E22D007D0D890E3
:101538001B361C361D361E361F0600D01F50D8B469
:1015480002D0F5D700D01A50D8B409D01E1E1D1EDF
:101558001C1E1B6C000E1C221D221E2200D01BC04C
:1015680011F01CC012F01DC013F01EC014F000D002
:1015780012002EC032F0336A346A2D34323601E359
:1015880033803250396E3950D8A402D00ED061D091
:1015980031C032F0336A346A3034323601E3338092
:1015A80032503A6E3A50D8A407D0000E2C6E000E76
:1015B8002D6E000E2E6E4DD0000E366E000E376E5C
:1015C800000E386E3A50890F395E2EC03AF031500D
:1015D8003A1A800E3A162D8EFF0E2C16FF0E2D1677
:1015E800000E2E16308EFF0E2F16FF0E3016000E30
:1015F8003116180E356E00D0D89036363736383654
:101608002F502C5C30502D5831502E58D8A007D070
:101618002F502C5E30502D5A31502E5A3680D8908B
:101628002C362D362E36352EE7D700D036C011F0A1
:1016380037C012F038C013F039C014F03AC015F0B2
:101648009CEC0BF011C02CF012C02DF013C02EF042
:1016580000D01200236E800E236069D09F0E18649C
:1016680001D065D0FF0E1D6EFF0E1E6E195023C0EF
:101678001FF0206A1F26000E20221D501F261E5014
:10168800202220BE0AD0205004E1800E1F5CD8A082
:1016980004D023500008800F196EFF0E1D6EFF0E38
:1016A8001E6E1A5018C01FF0206A1F26000E202236
:1016B8001D501F261E50202220BE0BD0205004E1B2
:1016C800A00E1F5CD8A005D018500008A00F1A6EF5
:1016D80000D018C014F0235019241D6E1D04156E77
:1016E80018501A241E6E1E04166E235062EC0FF05A
:1016F8001C50216E1BC022F0838083921AC018F000
:101708001850D8B413D001D011D019C023F02350E9
:10171800D8B40AD001D008D02150F4EC11F02250EE
:10172800F4EC11F02306F3D71806EAD783821200E7
:101738001450D8B405D0115012101310D8A40ED0DC
:10174800000E116E000E126E000E136E53D006D0EE
:10175800142AD89013321232113200D0000E11140C
:10176800166E000E1214176EFE0E1314186E165015
:1017780017101810D8B40ED0EBD70CD0142A010EBD
:101788001126000E1222000E1322D89013321232A4
:10179800113200D0000E1114166E000E1214176EBE
:1017A800FF0E1314186E165017101810D8B408D05E
:1017B800E5D706D01406D89011361236133600D065
:1017C80012BE04D0020E1460F5D700D014B002D0B7
:1017D800129E00D0D8901432145013121550D8B459
:1017E80002D0138E00D011C011F012C012F013C035
:1017F80013F000D01200416E040ECB6E070ECA6EB5
:10180800000E206E800E216E400E226E41502CEC90
:1018180011F019C01DF01AC01EF01BC01FF055ECC6
:1018280009F01DC02CF01EC02DF01FC02EF0000EB8
:101838002F6EA00E306E410E316EBDEC0AF02CC03A
:101848003EF02DC03FF02EC040F03EC011F03FC02A
:1018580012F040C013F04AEC0AF011C042F012C076
:1018680043F041503B6E3C6A42503B5C3C50800A1E
:101878003D6E4350800A3D58D8B003D0424A432AAF
:1018880000D042C03BF0030E3B163B38F00B0C096E
:10189800BD6E42C03BF043C03CF03C343C323B326E
:1018A8003C343C323B323B50BE6E120043482D0064
:1018B8004348200043482B00505256004E585400CD
:1018C800504C5900564C2D00564C2B0045512000C9
:1018D80020302000313030003230300020312000FC
:1018E8002032200020332000203420002035200022
:1018F8002036200020372000203820002039200002
:1019080000F800F800F81F001F00E0071FF81FF894
:101918001FF80000000000000000000000000000A8
:1019280000000000000000000000A262E22202C2E3
:10193800E0A8906898B030187A10385A424A522075
:10194800454345333330314C2046616C6C27323186
:10195800204C313100000000000000000000000EA3
:101968001C6E1AAE07D0196C1A1ED8B01A2A010EAE
:101978001C6E00D018AE07D0176C181ED8B0182AE5
:10198800010E1C1A00D0000E1E6E000E1D6E19509E
:101998001A10D8B421D0010E1B6E05D0D890193674
:1019A8001A361B2A00D01ABE02D0F8D700D0D89019
:1019B8001D361E361950175C1A501858D8A006D074
:1019C8001950175E1A50185A1D8000D0D8901A3234
:1019D80019321B2EECD700D01C50D8B405D01D6C82
:1019E8001E1ED8B01E2A00D01DC017F01EC018F049
:1019F80000D01200226E800E22603FD09F0E186425
:101A080001D03BD0FF0E1C6EFF0E1D6E195018C082
:101A18001EF01F6A1E26000E1F221C501E261D5077
:101A28001F221FBE0BD01F5004E1A00E1E5CD8A0C1
:101A380005D018500008A00F196E00D01B50206E5A
:101A48001AC021F018C014F022C015F0185019243B
:101A58001C6E1C04166E225062EC0FF08380839279
:101A680007D02050F4EC11F02150F4EC11F000D024
:101A780019061928D8A4F5D783821200000E166E0D
:101A880012AE07D0116C121ED8B0122A010E166EB3
:101A980000D014AE05D0136C141ED8B0142A00D090
:101AA80013501410D8B41DD0010E156E05D0D8905F
:101AB80013361436152A00D014BE02D0F8D700D039
:101AC8001350115C14501258D8A005D01350115E51
:101AD8001450125A00D0D89014321332152EF0D761
:101AE80000D01650D8B405D0116C121ED8B0122AE6
:101AF80000D011C011F012C012F000D01200060080
:101B0800EACF06F0E1CF07F0E2CF08F0D9CF09F02D
:101B1800DACF0AF0F3CF0BF0F4CF0CF0F6CF0DF0DC
:101B2800F7CF0EF0F8CF0FF0F5CF10F09EA003D04E
:101B38005AEC12F000D0F2A203D0E4EC06F000D088
:101B480010C0F5FF0FC0F8FF0EC0F7FF0DC0F6FF7D
:101B58000CC0F4FF0BC0F3FF0AC0DAFF09C0D9FFBD
:101B680008C0E2FF07C0E1FF06C0EAFF05C0E9FFC1
:101B780004C0FBFF03C0FAFF110000EEE6F00D0EF3
:101B8800EE6AE806FDE100EE46F0280EEE6AE80689
:101B9800FDE1B40EF66E180EF76E000EF86E01EE4B
:101BA80000F010EEB2F00900F5CFEEFFE550E1507D
:101BB800FAE1E60EF66E1C0EF76E000EF86E00EEF9
:101BC80080F010EE66F00900F5CFEEFFE550E15029
:101BD800FAE1080EF66E250EF76E000EF86E090093
:101BE800F5CF6EF00900F5CF6FF0000EF86E00012A
:101BF80007EF05F08350070B526E11501210D8A44E
:101C080003D00001B8512FD012BE10D0125003E1FA
:101C18001104D8A00BD012BE06D0080E115C070E16
:101C28001258D8B003D00001B9511DD012BE11D03E
:101C3800080E115C070E1258D8A00BD012BE06D0A1
:101C48008C0E115C0A0E1258D8B003D00001BA519C
:101C58000AD012BE0BD08C0E115C0A0E1258D8A0F6
:101C680005D00001BB515210836E00D01200136ED4
:101C7800000EAC6E000EAB6E13A002D0AC8800D084
:101C880013A203D0AC8CAB8C00D013A402D0AC8EC2
:101C980000D013A602D0AB8802D0AB8A00D013B80C
:101CA800AC849E9813AA02D0AB8600D013AC02D0A5
:101CB8009D8A01D09D9A9E9A13AE02D09D8801D02C
:101CC8009D9811C0AFFF1250B06EAC8AAB8E949C39
:101CD800948EACB8ACBE02D0948C00D01200000236
:101CE80004061012141616161630303A30303A30F0
:101CF800300030303A30303A30300030312F303127
:101D08002F30300030303A30303A3030003037350C
:101D180046004F4646000040C08030004B30302F10
:101D280030302F30300030303A30303A30300030F8
:101D380030303000303030004F4646002B3235000E
:101D48002B373700680E136E000E146E000E646E8B
:101D5800000E616E000E606E000E5D6E280E5C6EE9
:101D6800100E626E210E6D6E23EC12F013501324C8
:101D78007BEC10F014507BEC10F064507BEC10F00E
:101D880061507BEC10F060507BEC10F05D507BEC08
:101D980010F05C507BEC10F062507BEC10F06D5052
:101DA8007BEC10F01AEC12F01200680E156E000EA3
:101DB800146E23EC12F0155015247BEC10F014501F
:101DC8007BEC10F0E9EC11F0D88015347BEC10F0C6
:101DD800010EFAEC0FF0646E010EFAEC0FF0616E72
:101DE800010EFAEC0FF0606E010EFAEC0FF05D6E6A
:101DF800010EFAEC0FF05C6E010EFAEC0FF0626E59
:101E0800000EFAEC0FF06D6E1AEC12F01200000ED4
:101E1800176E000E166E13501410D8B421D0010E90
:101E2800156E05D0D89013361436152A00D014BE76
:101E380002D0F8D700D0D890163617361350115C58
:101E480014501258D8A006D01350115E1450125ACC
:101E5800168000D0D89014321332152EECD700D04B
:101E680016C011F017C012F0120017C011F018C0F8
:101E780012F0000E146E7D0E136E18EC11F011C0E6
:101E88001BF012C01CF01BC019F01CC01AF0191E60
:101E98001A1E194A1A2AFF0E19241B6EFF0E1A2041
:101EA8001C6E030ED56E1BC0D6FF1C50D76EF29465
:101EB800D58E00D0F2A4FED7D59E1200176E2A0E3A
:101EC80045EC12F0000E3DEC12F017505B243DEC8F
:101ED80012F0000E3DEC12F015505B243DEC12F0B0
:101EE8002B0E45EC12F0000E3DEC12F0145063245A
:101EF8003DEC12F0000E3DEC12F0165063243DEC60
:101F080012F02C0E45EC12F012001A501B10D8B427
:101F18001DD0010E1C6E05D0D8901A361B361C2A0F
:101F280000D01BBE02D0F8D700D01A50185C1B5046
:101F38001958D8A005D01A50185E1B50195A00D04D
:101F4800D8901B321A321C2EF0D700D018C018F0C7
:101F580019C019F01200FEEC11F0700ED36E0F0EBE
:101F6800C16E000E926E010E936E010E946E000EFD
:101F7800956E000E966EF19E000EB26E030EB16E57
:101F8800A00E116E860E126E010E136E000E146EE8
:101F980065EC12F0A6EC11F0B8EC10F0000E506EE3
:101FA80012002B6E2BC02CF02D6A0ED023C018F017
:101FB80025C019F026C01AF027C01BF02C50FEECE3
:101FC8000CF02C4A2D2A00D024502BC028F0296A66
:101FD8002826000E292228502C5C2D50800A2A6EB3
:101FE8002950800A2A58D8A0E1D71200116E7CEC3B
:101FF80012F0000E126E070E126401D00FD054ECCE
:1020080012F081AA03D0D880133604D013501324B9
:10201800136E00D078EC12F0122AEDD71150D8B414
:1020280003D02CEC12F003D06AEC12F000D013505D
:1020380000D01200B2CF17F0186A000E1A6E020E06
:10204800196EB3EC0CF017C021F018C022F0000E86
:10205800B26E21C011F022C012F0000E146E3C0EB8
:10206800136E18EC11F011C01FF012C020F000D050
:10207800120011C015F012C016F003D0154A162A26
:1020880000D015C0D9FF16C0DAFFDF50D8A4F6D7A4
:1020980011C013F012C014F0131E141E134A142A90
:1020A80015501324116E16501420126E00D0120011
:1020B8002A0E45EC12F0000E3DEC12F0000E3DEC3D
:1020C80012F0000E3DEC12F07F0E3DEC12F02B0EDC
:1020D80045EC12F0000E3DEC12F0000E3DEC12F053
:1020E800000E3DEC12F09F0E3DEC12F01200116E46
:1020F800000E126E070E126401D011D011AE03D07B
:102108007CEC12F003D06FEC12F000D054EC12F01B
:1021180078EC12F011501124116E122AEBD77CECD6
:1021280012F054EC12F078EC12F01200480E186E0F
:10213800AA0E166E23EC12F0185018247BEC10F03F
:1021480016507BEC10F0E9EC11F0D88018347BECD9
:1021580010F0000EFAEC0FF0176E1AEC12F017C020
:1021680014F0156A00D01200F292F19CF288000E69
:10217800CF6E000ECE6E9E909D80F28CF28E000E79
:102188000001EF6F000EEE6F000E0001E66F000E0B
:10219800E76F000EE86F000EE96F120011C015F02E
:1021A80012C016F005D0154A162A134A142A00D070
:1021B80013C0F6FF14C0F7FF15C0D9FF16C0DAFF29
:1021C8000800F5CFDFFFDF50D8A4EDD712001B6E53
:1021D800800E1B6013D09F0E186401D00FD018C05A
:1021E80014F01B28156E1828166E1B5062EC0FF0A1
:1021F8001A503DEC12F019503DEC12F01200838297
:102208008390800EC76E300EC66E48EC08F05CEC0A
:1022180010F0D1EC09F0360E45EC12F0C00E3DEC92
:1022280012F0010E556E120011501302F3CF15F083
:10223800F4CF16F011501402F35016261250130260
:10224800F350162615C011F016C012F000D0120077
:102258001C6E1C50116E126A136A8E0E146E000EDC
:10226800156E9CEC0BF011C019F012C01AF013C0D7
:102278001BF000D01200640E5E18D8A406D0DDEC66
:1022880011F05E50FFEC0BF007D05E50050F5E6E4C
:102298005E50FFEC0BF000D01200000E126E000E24
:1022A800116E12BE08D0680E115C420E1258D8B0DA
:1022B80005D001D003D0114A122AF3D71200136EA9
:1022C800000E126E3A0E136006D02F0E136403D060
:1022D800010E126E00D012C011F0113000D01200A1
:1022E8005050D8A402D0010E01D0000E506E5004F8
:1022F800D8A403D035EC12F003D060EC12F000D073
:1023080012005E50D8A406D0DDEC11F05E50FFEC50
:102318000BF007D05E50FB0F5E6E5E50FFEC0BF0CB
:1023280000D01200156E23EC12F0155015247BEC2A
:1023380010F013507BEC10F014507BEC10F01AECFA
:1023480012F01200480E166EAC0E136E020E146ECA
:10235800165096EC11F0EE0E136E1650D0EC11F0EC
:102368001200000E186E800E196EA00E1A6E24C090
:102378001BF025C01CF0000E2EEC0BF01200805054
:10238800200B516E800E1124D96E000E1220DA6EC9
:10239800DF505110806E1200146E23EC12F01450AE
:1023A80014247BEC10F013507BEC10F01AEC12F0B4
:1023B800120011EC12F051EC11F074EC12F051EC27
:1023C80011F05E50FFEC0BF0120078EC12F07CEC90
:1023D80012F054EC12F06FEC12F078EC12F01200DC
:1023E800126E9E96C9CF11F012C0C9FF00D0C7A0C7
:1023F800FED71200000E126E190E116E3C0E3BEC49
:102408000EF0700ED36E12008394000E186E640ED8
:10241800176E39EC0FF083841200F90ECB6E050E9F
:10242800CA6E4A0EBB6E3C0EBA6E120078EC12F001
:102438006FEC12F054EC12F07CEC12F012007CEC11
:1024480012F054EC12F06FEC12F078EC12F012006B
:102458006FEC12F054EC12F078EC12F07CEC12F005
:102468001200010E506E5E50FFEC0BF0808A8484DF
:102478001200136E839283801350F4EC11F0838260
:102488001200136E839283901350F4EC11F0838240
:102498001200116E00D0ACA2FED711C0ADFF120021
:1024A8009388060EE82EFED700D01200000E546E58
:1024B800F19CCD909E901200000E506E809A8494EC
:1024C800120054EC12F07CEC12F0120054EC12F0F2
:1024D80078EC12F01200819A939A00D000D0120082
:1024E800000EBA6E819612008198939800D012005F
:1024F800938A00D000D01200000E546ECD901200C6
:02250800FF01D1
:10FD260000000000000000005F0000000700070060
:10FD3600147F147F14242A7F2A1223130864623640
:10FD4600495620500008070300001C2241000041CC
:10FD5600221C002A1C7F1C2A08083E080800807006
:10FD66003000080808080800006060002010080439
:10FD7600023E5149453E00427F400072494949468C
:10FD86002141494D331814127F1027454545393C0A
:10FD96004A494931412111090736494949364649F7
:10FDA60049291E0000140000004034000000081419
:10FDB6002241141414141400412214080201590992
:10FDC600063E415D594E7C1211127C7F49494936E7
:10FDD6003E414141227F4141413E7F494949417F60
:10FDE600090909013E414151737F0808087F004116
:10FDF6007F41002040413F017F081422417F40405F
:10FE060040407F021C027F7F0408107F3E41414133
:10FE16003E7F090909063E4151215E7F091929469F
:10FE2600264949493203017F01033F4040403F1FB5
:10FE36002040201F3F4038403F63140814630304EA
:10FE46007804036159494D43007F4141410204084A
:10FE56001020004141417F0402010204404040401D
:10FE660040000307080020545478407F2844443853
:10FE76003844444428384444287F3854545418009D
:10FE8600087E090218A4A49C787F0804047800441C
:10FE96007D40002040403D007F1028440000417F07
:10FEA60040007C047804787C080404783844444490
:10FEB60038FC1824241818242418FC7C0804040888
:10FEC600485454542404043F44243C4040207C1CA1
:10FED6002040201C3C4030403C44281028444C9094
:10FEE60090907C4464544C440008364100000077EE
:10FEF60000000041360800020102040201000A0067
:10FF06006400E803102701001000000100102530EE
:10FF160032783A253032783A253032782025303218
:10FF2600782F253032782F25303278000A54696DC3
:10FF36006520686173206265656E207265736574FD
:10FF46000D0A0A0043616E6E6F742066696E642046
:10FF5600627574746F6E200D0A0045434533333065
:10FF6600314C20537072696E672032312D53310047
:10FF76002054656D70203D2025642043203D2025BA
:10FF8600642046200052504D203D202564202064E8
:10FF960063203D2025640D0A003031323334353676
:10FFA600373839616263646566004E45435F436F67
:10FFB6006465203D2025780D0A00627574746F6EA5
:10FFC600203D202564200D0A0054656D7065726120
:10FFD600747572653A00202046414E0054696D657D
:10FFE6000044617465004F4E20004F464600525053
:0AFFF6004D00432F004443000000BB
:020000040020DA
:08000000FFFFFFFFFFFFFFFF00
:020000040030CA
:0E000000FF08191EFF8281FF0FC00FE00F40A6
:00000001FF
