:04000000CDEF14F03C
:1010000000010000000A00000064000000E8030086
:101010000010270000A086010040420F0080969833
:101020000000E1F50500CA9A3B00803FCDCC3DD7DA
:10103000233C12833AB7D138C62737388635C0D615
:1010400033CC2B32708930E7DB2EE53C1E42A20DFB
:1010500000803F00204100C842007A44401C4650B6
:10106000C34724744997184BBCBE4C6B6E4E031596
:101070005079AD60F34971766F6C74203D20256620
:101080000D0A0000590E656E000E666EFFD2250E29
:101090007818D8B404D078504EEC15F0F7D2000E82
:1010A000686E000E676E05D0FFD2688413D0EED252
:1010B00011D057C0F6FF58C0F7FF574A582A08000A
:1010C000F5CF78F07850000AD8B4EED2660AD8B4DA
:1010D000ECD7DCD2070E6814D8B4CAD2000E6A6E00
:1010E000060E696E65C0D9FF66C0DAFFDECF75F007
:1010F000DECF76F0DDCF77F0030E6526000E662298
:1011000077AE11D075C001F076C002F077C003F061
:101110000EEC15F001C075F002C076F003C077F058
:10112000030E671200D0000E706E000E6F6E7550C9
:1011300076107710D8B485D0820E5C6EFF0E5D6E8F
:1011400075C05EF076C05FF077C060F078C061F087
:10115000100E05D0D890613260325F325E32E82ED8
:10116000F9D75E505C246F6E000E5D20706E6F06C6
:10117000D8A070066FC035F070C036F0000E386E23
:10118000030E376EE7EC14F035C06FF036C070F028
:101190006FC02DF070C02EF0000E306E0A0E2F6E54
:1011A0008CEC12F02DC06FF02EC070F070AE04D039
:1011B0006F06D8A0700600D06F50000855EC0BF0F9
:1011C0003BC071F03CC072F03DC073F071C009F0DB
:1011D00072C00AF073C00BF075C00CF076C00DF051
:1011E00077C00EF056EC10F009C071F00AC072F032
:1011F0000BC073F071C001F072C002F073C003F055
:10120000000E046E800E056E3F0E066ED7EC12F0D7
:10121000D8B004D06F06D8A0700613D071C001F00A
:1012200072C002F073C003F0000E046E200E056E53
:10123000410E066ED7EC12F0D8A003D06F4A702A88
:1012400000D06ABE06D06A501CE10D0E695CD8B0B1
:1012500018D075C045F076C046F077C047F06950A9
:1012600045EC0DF03BC048F03CC049F03DC04AF0B1
:1012700067EC0EF045C075F046C076F047C077F0D9
:1012800000D070BE06D0705020E10A0E6F5CD8B05E
:101290001CD0755076107710D8B46DD075C018F08A
:1012A00076C019F077C01AF045EC11F018501910FB
:1012B0001A101B10D8B470BE5ED0705006E1020E3A
:1012C0006F5CD8B002D057D000D071C001F072C0AE
:1012D00002F073C003F0700E046E890E056E400EAE
:1012E000066ED7EC12F0D8B002D0F70E01D0F80E8F
:1012F0006F26FF0E702200D06F5055EC0BF03BC0F4
:1013000071F03CC072F03DC073F017D075C001F0B1
:1013100076C002F077C003F071C004F072C005F02F
:1013200073C006F0D1EC0FF001C06BF002C06CF09E
:1013300003C06DF004C06EF017D075C001F076C028
:1013400002F077C003F071C004F072C005F073C002
:1013500006F049EC0FF001C06BF002C06CF003C066
:101360006DF004C06EF000D0000E756E000E766E4B
:10137000000E776E33D075C018F076C019F077C0C4
:101380001AF045EC11F018C06BF019C06CF01AC0DF
:101390006DF01BC06EF075C051F076C052F077C092
:1013A00053F06BC009F06CC00AF06DC00BF06EC05A
:1013B0000CF05DEC14F009C054F00AC055F00BC0FD
:1013C00056F08DEC14F051C075F052C076F053C059
:1013D00077F0000E706E000E6F6E00D0010E786E0A
:1013E0000A0E7818D8B41CD001D01AD07850040D49
:1013F000010EF324F66E100EF420F76E0900F5507E
:101400006B5C0900F5506C580900F5506D580900E7
:10141000F5506E58D8A004D001D002D0782AE0D779
:10142000030E67145C6E000E68145D6E5C505D10F8
:10143000D8B449D02D0E4EEC15F045D06BC001F05C
:101440006CC002F06DC003F06EC004F07850040D63
:10145000010EF324F66E100EF420F76E0900F5CF9E
:1014600005F00900F5CF06F00900F5CF07F00A00F6
:10147000F5CF08F022EC13F001C071F002C072F059
:1014800003C073F004C074F071C001F072C002F0C8
:1014900073C003F074C004F00A0E056E000E066EF1
:1014A000000E076E000E086EEDEC13F001C071F037
:1014B00002C072F003C073F004C074F07150300FBA
:1014C0004EEC15F000D078067828D8B409D0B6D7FD
:1014D00007D0300E4EEC15F06F06D8A0700600D085
:1014E00070BE05D07050F5E16F04D8B0F2D76ABE77
:1014F00009D06A5004E1090E695CD8A003D0080E37
:10150000786E03D069C078F000D07850695E000E24
:1015100078BEFF0E6A5A7850D8B404D02E0E4EEC26
:1015200015F000D0785055EC0BF03BC062F03CC099
:1015300063F03DC064F075C00CF076C00DF077C06C
:101540000EF062C009F063C00AF064C00BF056EC04
:1015500010F009C018F00AC019F00BC01AF045ECE1
:1015600011F018C06BF019C06CF01AC06DF01BC000
:101570006EF06BD06BC001F06CC002F06DC003F078
:101580006EC004F07850040D010EF324F66E100EB8
:10159000F420F76E0900F5CF05F00900F5CF06F04D
:1015A0000900F5CF07F00A00F5CF08F022EC13F0A0
:1015B00001C071F002C072F003C073F004C074F097
:1015C00071C001F072C002F073C003F074C004F087
:1015D0000A0E056E000E066E000E076E000E086EF7
:1015E000EDEC13F001C071F002C072F003C073F0B3
:1015F00004C074F07150300F4EEC15F06BC001F068
:101600006CC002F06DC003F06EC004F07850040DA1
:10161000010EF324F66E100EF420F76E0900F5CFDC
:1016200005F00900F5CF06F00900F5CF07F00A0034
:10163000F5CF08F0EDEC13F001C06BF002C06CF0D8
:1016400003C06DF004C06EF000D078067828D8B4DE
:1016500009D090D707D0300E4EEC15F06906D8A00F
:101660006A0600D069506A10D8B410D0F4D70ED0F2
:10167000030E67145C6E000E68145D6E5C505D10A6
:10168000D8B404D02D0E4EEC15F000D057C0F6FFA4
:1016900058C0F7FF574A582A0800F5CF78F078501D
:1016A000D8B402D0F4D400D01200416E41AEEFD0D5
:1016B000416C4150800A120FD8A08DD0000E386EB8
:1016C000030E376E000E306E0A0E2F6E000E2A6E5D
:1016D000640E296E4150276E286A27BE2806ACEC9E
:1016E00013F027C02DF028C02EF08CEC12F0090E5C
:1016F0002D24356E000E2E20366EE7EC14F0290EE8
:101700003524F66E100E3620F76E0900F5CF0CF07A
:101710000900F5CF0DF00A00F5CF0EF0000E306E87
:10172000640E2F6E41502D6E2E6A2DBE2E068CEC4F
:1017300012F0120E2D24356E000E2E20366E000E85
:10174000386E030E376EE7EC14F0290E3524F66E72
:10175000100E3620F76E0900F5CF09F00900F5CF1D
:101760000AF00A00F5CF0BF056EC10F009C03EF07D
:101770000AC03FF00BC040F03EC009F03FC00AF085
:1017800040C00BF0000E386E030E376E000E2A6E4E
:101790000A0E296E4150276E286A27BE2806ACEC37
:1017A00013F027C035F028C036F0E7EC14F0290E0E
:1017B0003524F66E100E3620F76E0900F5CF0CF0CA
:1017C0000900F5CF0DF00A00F5CF0EF056EC10F041
:1017D00041D15AD154D04150800A750FD8A04FD072
:1017E000000E306E0A0E2F6E41502D6E2E6A2DBEE9
:1017F0002E068CEC12F0090E2D24356E000E2E20D4
:10180000366E000E386E030E376EE7EC14F0290EBC
:101810003524F66E100E3620F76E0900F5CF09F06C
:101820000900F5CF0AF00A00F5CF0BF0000E386E74
:10183000030E376E000E2A6E0A0E296E4150276E77
:10184000286A27BE2806ACEC13F027C035F028C064
:1018500036F0E7EC14F0290E3524F66E100E362023
:10186000F76E0900F5CF0CF00900F5CF0DF00A0076
:10187000F5CF0EF056EC10F0EDD006D100D041506F
:10188000030D290EF324F66E100EF2D0FDD0415058
:10189000800A120FD8A08DD0000E386E030E376E5E
:1018A000000E306E0A0E2F6E000E2A6E640E296E28
:1018B0004150276E286A27BE2806ACEC13F027C0DB
:1018C0002DF028C02EF08CEC12F0090E2D24356E70
:1018D000000E2E20366EE7EC14F0500E3524F66E16
:1018E000100E3620F76E0900F5CF0CF00900F5CF89
:1018F0000DF00A00F5CF0EF0000E306E640E2F6E64
:1019000041502D6E2E6A2DBE2E068CEC12F0120E5A
:101910002D24356E000E2E20366E000E386E030E0E
:10192000376EE7EC14F0500E3524F66E100E3620AC
:10193000F76E0900F5CF09F00900F5CF0AF00A00AB
:10194000F5CF0BF056EC10F009C03EF00AC03FF0A6
:101950000BC040F03EC009F03FC00AF040C00BF0A1
:10196000000E386E030E376E000E2A6E0A0E296EB8
:101970004150276E286A27BE2806ACEC13F027C01A
:1019800035F028C036F0E7EC14F0500E3524F66E32
:10199000100E3620F76E0900F5CF0CF00900F5CFD8
:1019A0000DF00A00F5CF0EF056EC10F053D06CD0CD
:1019B00059D04150800A750FD8A054D0000E306E17
:1019C0000A0E2F6E41502D6E2E6A2DBE2E068CEC07
:1019D00012F0090E2D24356E000E2E20366E000EEC
:1019E000386E030E376EE7EC14F0500E3524F66EA9
:1019F000100E3620F76E0900F5CF09F00900F5CF7B
:101A00000AF00A00F5CF0BF0000E386E030E376EA9
:101A1000000E2A6E0A0E296E4150276E286A27BED4
:101A20002806ACEC13F027C035F028C036F0E7EC00
:101A300014F0500E3524F66E100E3620F76E0900A5
:101A4000F5CF0CF00900F5CF0DF00A00F5CF0EF040
:101A500056EC10F009C03BF00AC03CF00BC03DF062
:101A600013D000D04150030D500EF324F66E100E2B
:101A7000F420F76E0900F5CF3BF00900F5CF3CF0FC
:101A80000A00F5CF3DF000D01200446E6D0E4464A4
:101A90009BD0000E386E030E376E000E306E0A0EAD
:101AA0002F6E000E2A6E640E296E44C027F0286A3D
:101AB000ACEC13F027C02DF028C02EF08CEC12F007
:101AC000090E2D24356E000E2E20366EE7EC14F034
:101AD000290E3524F66E100E3620F76E0900F5CF6C
:101AE0000CF00900F5CF0DF00A00F5CF0EF0000E56
:101AF000306E640E2F6E44C02DF02E6A8CEC12F006
:101B0000120E2D24356E000E2E20366E000E386E0D
:101B1000030E376EE7EC14F0290E3524F66E100E26
:101B20003620F76E0900F5CF09F00900F5CF0AF06D
:101B30000A00F5CF0BF056EC10F009C041F00AC0D6
:101B400042F00BC043F0000E386E030E376E000EED
:101B50002A6E0A0E296E44C027F0286AACEC13F0F6
:101B600027C035F028C036F0E7EC14F0290E3524F4
:101B7000F66E100E3620F76E0900F5CF0CF0090056
:101B8000F5CF0DF00A00F5CF0EF041C009F042C0CC
:101B90000AF043C00BF056EC10F009C03EF00AC04A
:101BA0003FF00BC040F03EC009F03FC00AF040C01B
:101BB0000BF0000E0C6E000E0D6E3F0E0E6E56EC0E
:101BC00010F07DD083D062D00A0E44645FD0000E46
:101BD000386E030E376E000E2A6E0A0E296E44C050
:101BE00027F0286AACEC13F027C035F028C036F097
:101BF000E7EC14F0290E3524F66E100E3620F76E41
:101C00000900F5CF0CF00900F5CF0DF00A00F5CF73
:101C10000EF0000E306E0A0E2F6E44C02DF02E6AAC
:101C20008CEC12F0090E2D24356E000E2E20366E2F
:101C3000000E386E030E376EE7EC14F0290E3524D3
:101C4000F66E100E3620F76E0900F5CF09F0090088
:101C5000F5CF0AF00A00F5CF0BF056EC10F009C0F2
:101C600041F00AC042F00BC043F041C009F042C04D
:101C70000AF043C00BF0000E0C6E000E0D6E3F0E0E
:101C80000E6E56EC10F01BD021D000D04450030D46
:101C9000290EF324F66E100EF420F76E0900F5CF2E
:101CA00009F00900F5CF0AF00A00F5CF0BF0000E9D
:101CB0000C6E000E0D6E3F0E0E6E56EC10F009C04D
:101CC0003BF00AC03CF00BC03DF000D0120047C012
:101CD0004BF04C6A4D6A46344B3601E34C804B5016
:101CE000506E4AC04BF04C6A4D6A49344B3601E3A2
:101CF0004C804B504F6E5050D8B40BD04F50505C6E
:101D0000D8B00ED0505000084F244B6E180E4B64C4
:101D100007D048C045F049C046F04AC047F0B8D0A7
:101D20004F50D8B40BD050504F5CD8B00ED04F505D
:101D3000000850244B6E180E4B6407D045C045F088
:101D400046C046F047C047F0A3D0060E4E6E47AEE1
:101D500002D04E8E00D04ABE4E8C468EFF0E4516E7
:101D6000FF0E4616000E4716498EFF0E4816FF0E50
:101D70004916000E4A164F50505CD8B01ED0D8906D
:101D8000483649364A364F0650504F18D8B40FD00F
:101D90004E064EC04BF0070E4B16D8B408D0EFD706
:101DA00006D0D890473246324532502A00D04F50A4
:101DB0005018D8B424D0F5D722D050504F5CD8B0AA
:101DC0001ED0D890453646364736500650504F18EC
:101DD000D8B40FD04E064EC04BF0070E4B16D8B4F9
:101DE00008D0EFD706D0D8904A32493248324F2A2D
:101DF00000D04F505018D8B402D0F5D700D04EAE16
:101E00000CD0FF0E451AFF0E461AFF0E471A010EA0
:101E10004526000E4622000E47224EAC0DD0FF0E86
:101E2000481AFF0E491AFF0E4A1A010E4826000EE4
:101E30004922000E4A2200D0000E4E6E4550482620
:101E40004650492247504A224AAE0FD0FF0E481A48
:101E5000FF0E491AFF0E4A1A010E4826000E4922AB
:101E6000000E4A22010E4E6E00D048C001F049C05B
:101E700002F04AC003F050C004F04EC005F029EC57
:101E800012F001C045F002C046F003C047F000D098
:101E9000120003C007F0086A096A0234073601E33A
:101EA000088007500F6E0F50D8A402D05DD078D0B4
:101EB00006C007F0086A096A0534073601E308809E
:101EC00007500E6E0E50D8A402D04ED069D0028EAC
:101ED000FF0E0116FF0E0216000E0316058EFF0EF2
:101EE0000416FF0E0516000E0616000E0A6E000EF2
:101EF0000B6E000E0C6E000E0D6E7F0E0F5E0E5000
:101F0000980F0F5E180E0E6ED8900A360B360C36F0
:101F10000D360450015C0550025806500358D8A0F5
:101F200007D00450015E0550025A0650035A0A8039
:101F3000D8900136023603360E2EE6D700D00FAE0B
:101F400010D00F50800A970FD8B003D00DD028D0F2
:101F500000D0D8900D320C320B320A320F3EF9D736
:101F600017D0170E0F6411D0000E016E000E026E16
:101F7000000E036E000E046E13D007D0D8900A3600
:101F80000B360C360D360F0600D00F50D8A4F6D7FE
:101F90000AC001F00BC002F00CC003F00DC004F049
:101FA0001200033404340C6E0C50D8A402D061D05B
:101FB0007CD0063407340B6E0B50D8A402D059D015
:101FC00074D0038EFF0E0116FF0E0216FF0E0316CD
:101FD000000E0416068EFF0E0416FF0E0516FF0EE9
:101FE0000616000E0716000E076E000E086E000E95
:101FF000096E000E0A6E7F0E0C5E0B50A00F0C5E79
:10200000200E0B6E00D0D8900736083609360A36F7
:102010000450015C055002580650035807500458FC
:10202000D8A00AD00450015E0550025A0650035A47
:102030000750045A078000D0D89001360236033684
:1020400004360B2EE0D700D00CAE10D00C50800A16
:102050009F0FD8B003D00DD028D000D0D8900A322E
:102060000932083207320C3EF9D717D01F0E0C6424
:1020700011D0000E016E000E026E000E036E000EF7
:10208000046E13D007D0D8900736083609360A36C2
:102090000C0600D00C50D8A4F6D707C001F008C039
:1020A00002F009C003F00AC004F012000BC00FF0E8
:1020B000106A116A0A340F3601E310800F50126E55
:1020C0001250D8A402D00ED06CD00EC00FF0106AFF
:1020D000116A0D340F3601E310800F50176E175040
:1020E000D8A407D0000E096E000E0A6E000E0B6E0B
:1020F00058D017507B0F12260BC017F00E50171A2E
:10210000800E17160A8E0D8EFF0E0C16FF0E0D1682
:10211000000E0E16000E136E000E146E000E156EDD
:10212000070E166E00D009A007D00C5013260D50D4
:1021300014220E50152200D0D8900B320A320932E8
:10214000D8900C360D360E36162EEDD700D0090E6F
:10215000166E00D009A007D00C5013260D50142283
:102160000E50152200D0D8900B320A320932D89086
:10217000153214321332162EEDD700D013C001F0F1
:1021800014C002F015C003F012C004F017C005F02F
:1021900029EC12F001C009F002C00AF003C00BF0F4
:1021A00000D0120020EC15F000D0000E5CEC15F011
:1021B000FBEC14F0D89001360236D8900136023686
:1021C00001C079F002C07AF079C009F07AC00AF053
:1021D000AFEC14F009C00DF00AC00EF00BC00FF008
:1021E000000E106E7A0E116E440E126EB8EC11F0E5
:1021F0000DC07BF00EC07CF00FC07DF0770E576EE7
:10220000100E586E7BC059F07CC05AF07DC05BF058
:1022100042EC08F07BC018F07CC019F07DC01AF0C9
:1022200045EC11F018C07EF019C07FF0000E0C6E66
:10223000200E0D6E410E0E6E7BC009F07CC00AF0C0
:102240007DC00BF056EC10F009C018F00AC019F070
:102250000BC01AF045EC11F018C027F019C028F097
:10226000000E2A6E0A0E296EACEC13F027C094F013
:1022700028C095F07E5068EC13F0000194512EECCC
:1022800015F0839E92D700EF00F01AC01CF01D6A73
:102290001E6A19341C3601E31D801C50266E265020
:1022A000D8A402D039D063D0170E1C6E18C01DF010
:1022B00019C01EF01AC01FF01C28206E04D0D89040
:1022C0001F321E321D32202EFAD71D50216E198E5C
:1022D000FF0E1816FF0E1916000E1A161850226E51
:1022E0001950236E1A50246E256A8E0E265E26AE75
:1022F00010D02650800A8F0FD8B003D00DD037D021
:1023000000D0D8902532243223322232263EF9D70B
:1023100019D0170E266411D0000E186E000E196E1B
:10232000000E1A6E000E1B6E22D007D0D8902236F7
:10233000233624362536260600D02650D8B402D0BF
:10234000F5D700D02150D8B409D0251E241E231E55
:10235000226C000E23222422252200D022C018F055
:1023600023C019F024C01AF025C01BF000D01200C1
:102370000FC013F0146A156A0E34133601E314808B
:1023800013501A6E1A50D8A402D00ED061D012C0C9
:1023900013F0146A156A1134133601E314801350D4
:1023A0001B6E1B50D8A407D0000E0D6E000E0E6ED3
:1023B000000E0F6E4DD0000E176E000E186E000E40
:1023C000196E1B50890F1A5E0FC01BF012501B1A9A
:1023D000800E1B160E8EFF0E0D16FF0E0E16000E33
:1023E0000F16118EFF0E1016FF0E1116000E12168C
:1023F000180E166E00D0D8901736183619361050B1
:102400000D5C11500E5812500F58D8A007D0105024
:102410000D5E11500E5A12500F5A1780D8900D367B
:102420000E360F36162EE7D700D017C001F018C0B1
:1024300002F019C003F01AC004F01BC005F029EC2B
:1024400012F001C00DF002C00EF003C00FF000D07A
:1024500012000450D8B405D0015002100310D8A4C3
:102460000ED0000E016E000E026E000E036E53D0F1
:1024700006D0042AD89003320232013200D0000E76
:102480000114066E000E0214076EFE0E0314086E91
:10249000065007100810D8B40ED0EBD70CD0042A81
:1024A000010E0126000E0222000E0322D8900332F4
:1024B0000232013200D0000E0114066E000E02142A
:1024C000076EFF0E0314086E065007100810D8B4EC
:1024D00008D0E5D706D00406D89001360236033678
:1024E00000D002BE04D0020E0460F5D700D004B0C4
:1024F00002D0029E00D0D89004320450031205503E
:10250000D8B402D0038E00D001C001F002C002F0A6
:1025100003C003F000D01200000E326E30AE07D0C0
:102520002F6C301ED8B0302A010E326E00D02EAE85
:1025300007D02D6C2E1ED8B02E2A010E321A00D0D4
:10254000000E346E000E336E2F503010D8B421D0F0
:10255000010E316E05D0D8902F363036312A00D09A
:1025600030BE02D0F8D700D0D890333634362F5052
:102570002D5C30502E58D8A006D02F502D5E3050F4
:102580002E5A338000D0D89030322F32312EECD7F3
:1025900000D03250D8B405D0336C341ED8B0342AB1
:1025A00000D033C02DF034C02EF000D0120003AEA6
:1025B00017D001C007F002C008F003C009F0071EE1
:1025C000081E091E072A000E08220922000E0724F1
:1025D000016E000E0820026E800E0920036E00D0EE
:1025E00006AE17D004C007F005C008F006C009F019
:1025F000071E081E091E072A000E08220922000EC7
:102600000724046E000E0820056E800E0920066E59
:1026100000D0000E011A000E021A800E031A000EDE
:10262000041A000E051A800E061A0450015C0550AB
:10263000025806500358D8B002D0D89002D0D880A3
:1026400000D01200000E096E000E0A6E000E0B6E16
:10265000000E0C6E0550061007100810D8B42FD0CD
:10266000010E0D6E07D0D8900536063607360836AF
:102670000D2A00D008BE02D0F6D700D0D890093677
:102680000A360B360C360550015C065002580750CE
:10269000035808500458D8A00AD00550015E0650CF
:1026A000025A0750035A0850045A098000D0D890A3
:1026B00008320732063205320D2EE0D700D009C0AD
:1026C00001F00AC002F00BC003F00CC004F01200CD
:1026D000016E0150020D800EF324D96E000EF4201D
:1026E000DA6EDF503F0B826E0150020D800EF32434
:1026F000D96E000EF420DA6EDF50010B026E01502D
:10270000020D800EF324D96E000EF420DA6EDF5035
:10271000400B036E0350D8A405D00250D8A402D0B9
:10272000000E17D00250D8A405D00350D8B402D060
:10273000010E0FD00204D8A405D00350D8A402D0B3
:10274000020E07D00204D8A406D00350D8B403D098
:10275000030E846E00D01200000E2C6E28AE07D03F
:10276000276C281ED8B0282A010E2C6E00D02AAE65
:1027700005D0296C2A1ED8B02A2A00D029502A1048
:10278000D8B41DD0010E2B6E05D0D89029362A362C
:102790002B2A00D02ABE02D0F8D700D02950275CBF
:1027A0002A502858D8A005D02950275E2A50285AE8
:1027B00000D0D8902A3229322B2EF0D700D02C50BE
:1027C000D8B405D0276C281ED8B0282A00D027C03E
:1027D00027F028C028F000D012000550061007107E
:1027E0000810D8B429D0010E096E07D0D89005364C
:1027F000063607360836092A00D008BE02D0F6D7BA
:1028000000D00550015C065002580750035808508C
:102810000458D8A009D00550015E0650025A07504E
:10282000035A0850045A00D0D890083207320632B2
:102830000532092EE6D700D001C001F002C002F037
:1028400003C003F004C004F01200036E000EAC6E6F
:10285000000EAB6E03A002D0AC8800D003A203D060
:10286000AC8CAB8C00D003A402D0AC8E00D003A6FD
:1028700002D0AB8802D0AB8A00D003B8AC849E985B
:1028800003AA02D0AB8600D003AC02D09D8A01D04F
:102890009D9A9E9A03AE02D09D8801D09D9801C05A
:1028A000AFFF0250B06EAC8AAB8E949C948EACB8E5
:1028B000ACBE02D0948C00D012008E0E116E07D0E8
:1028C000D8900C320B320A320932112A00D0000E95
:1028D00009140D6E000E0A140E6E000E0B140F6E0E
:1028E000FF0E0C14106E0D500E100F101010D8A407
:1028F000E7D709C001F00AC002F00BC003F011C015
:1029000004F0000E056E29EC12F001C009F002C0BF
:102910000AF003C00BF000D01200545055105610AE
:10292000D8B407D0000E541A000E551A800E561A4D
:1029300000D051C045F052C046F053C047F054C0DB
:1029400048F055C049F056C04AF067EC0EF045C05B
:1029500051F046C052F047C053F000D01200000EB4
:102960000C6E0AAE07D0096C0A1ED8B00A2A010EF6
:102970000C6E00D009C001F00AC002F0036A8E0E8E
:10298000046E0CC005F029EC12F001C009F002C081
:102990000AF003C00BF000D012000001956B946B9D
:1029A0007F6A7E6A740EF66E2A0EF76E000EF86E5F
:1029B00000EE80F010EE14F00900F5CFEEFFE550C8
:1029C000E150FAE1000EF86E0001D2EF10F0355040
:1029D0003702F3CF39F0F4CF3AF035503802F350E4
:1029E0003A2636503702F3503A2639C035F03AC00D
:1029F00036F000D01200C28200D0C2B2FED7C4505E
:102A0000046E036AC3500324056E000E0420066E94
:102A100005C001F006C002F000D012000150021003
:102A20000310D8B406D0000E011A000E021A800E50
:102A3000031A01C001F002C002F003C003F012004B
:102A400044EC15F09268000E936E000E946E000E2A
:102A5000956E000E966E55EC15F01200016E015049
:102A6000020D800EF324D96E000EF420DA6EDF50D2
:102A7000836E12004000790024003000190012001B
:102A80000200780000001000000E026E190E016EA8
:102A90003C0E25EC14F0600ED36E1200016E00D0D7
:102AA000ACA2FED701C0ADFF1200010EC26E1B0E1C
:102AB000C16EA90EC06E1200016E0150040DF32804
:042AC000C26E1200D0
:020000040020DA
:08000000FFFFFFFFFFFFFFFF00
:020000040030CA
:0E000000FF08191EFF8381FF0FC00FE00F40A5
:00000001FF
