:0400000098EF16F06F
:1010000000010000000A00000064000000E8030086
:101010000010270000A086010040420F0080969833
:101020000000E1F50500CA9A3B00803FCDCC3DD7DA
:10103000233C12833AB7D138C62737388635C0D615
:1010400033CC2B32708930E7DB2EE53C1E42A20DFB
:1010500000803F00204100C842007A44401C4650B6
:10106000C34724744997184BBCBE4C6B6E4E031596
:101070005079AD60F34971526573697374616E6341
:10108000653A202566206B4F686D0D0A0000690ED9
:101090000001836F000E0001846F51D3250E000103
:1010A0009619D8B405D0000196516FEC17F047D3CC
:1010B000000E0001866F000E856F06D04FD3000131
:1010C000868514D03CD312D067C0F6FF68C0F7FF06
:1010D000674A682A0800F5CF96F000019651000A89
:1010E000D8B43CD3660AD8B4EAD729D3070E000196
:1010F0008615D8B414D3000E0001886F060E876FD2
:1011000083C0D9FF84C0DAFFDECF93F0DECF94F046
:10111000DDCF95F0030E00018327000E842300012C
:1011200095AF12D093C00DF094C00EF095C00FF0A3
:1011300024EC17F00DC093F00EC094F00FC095F0A2
:10114000030E0001851300D0000E00018E6F000E0B
:101150008D6F000193510001941100019511D8B4D5
:101160008DD0820E6C6EFF0E6D6E93C06EF094C0CB
:101170006FF095C070F096C071F0100E05D0D89049
:10118000713270326F326E32E82EF9D76E506C24A5
:1011900000018D6F000E6D2000018E6F00018D0724
:1011A000D8A08E078DC057F08EC058F0000E5A6E32
:1011B000030E596ED7EC16F057C08DF058C08EF064
:1011C0008DC04FF08EC050F0000E526E0A0E516E60
:1011D00049EC14F04FC08DF050C08EF000018EAF7E
:1011E00005D000018D07D8A08E0700D000018D51D9
:1011F0000008AFEC0BF05DC08FF05EC090F05FC0F8
:1012000091F08FC01CF090C01DF091C01EF093C0F3
:101210001FF094C020F095C021F086EC12F01CC0A5
:101220008FF01DC090F01EC091F08FC001F090C0F3
:1012300002F091C003F0000E046E800E056E3F0EAA
:10124000066E94EC14F0D8B005D000018D07D8A03C
:101250008E0714D08FC001F090C002F091C003F04F
:10126000000E046E200E056E410E066E94EC14F016
:10127000D8A004D000018D4B8E2B00D0000188BF78
:1012800008D0000188511EE10D0E0001875DD8B025
:1012900019D093C010F094C011F095C012F0000165
:1012A000875175EC0FF05DC013F05EC014F05FC0A5
:1012B00015F097EC10F010C093F011C094F012C02C
:1012C00095F000D000018EBF08D000018E5128E1BA
:1012D0000A0E00018D5DD8B023D0000193510001AA
:1012E000941100019511D8B477D093C03AF094C00E
:1012F0003BF095C03CF002EC13F03A503B103C1030
:101300003D10D8A469D000018EBF66D000018E5177
:1013100007E1020E00018D5DD8B002D05DD000D093
:101320008FC001F090C002F091C003F0700E046E07
:10133000890E056E400E066E94EC14F0D8B003D002
:101340000001F70E02D00001F80E8D27FF0E8E234C
:1013500000D000018D51AFEC0BF05DC08FF05EC08E
:1013600090F05FC091F017D093C001F094C002F0EC
:1013700095C003F08FC004F090C005F091C006F056
:1013800001EC12F001C089F002C08AF003C08BF0BA
:1013900004C08CF017D093C001F094C002F095C047
:1013A00003F08FC004F090C005F091C006F079EC16
:1013B00011F001C089F002C08AF003C08BF004C0B4
:1013C0008CF000D0000E0001936F000E0001946FAE
:1013D000000E0001956F34D093C03AF094C03BF0FA
:1013E00095C03CF002EC13F03AC089F03BC08AF0A3
:1013F0003CC08BF03DC08CF093C01CF094C01DF03D
:1014000095C01EF089C009F08AC00AF08BC00BF0AD
:101410008CC00CF01AEC16F009C01FF00AC020F0C6
:101420000BC021F076EC16F01CC093F01DC094F0B8
:101430001EC095F0000E00018E6F000E8D6F00D063
:10144000010E0001966F0A0E00019619D8B422D041
:1014500001D020D000019651040D010EF324F66E48
:10146000100EF420F76E0900F5500001895D0900A7
:10147000F55000018A590900F55000018B59090007
:10148000F55000018C59D8A005D001D003D000013F
:10149000962BD9D7030E000185156C6E000E000146
:1014A00086156D6E6C506D10D8B44BD02D0E6FEC50
:1014B00017F047D089C001F08AC002F08BC003F05A
:1014C0008CC004F000019651040D010EF324F66E59
:1014D000100EF420F76E0900F5CF05F00900F5CFE6
:1014E00006F00900F5CF07F00A00F5CF08F0DFECB1
:1014F00014F001C08FF002C090F003C091F004C05E
:1015000092F08FC001F090C002F091C003F092C041
:1015100004F00A0E056E000E066E000E076E000E39
:10152000086EAAEC15F001C08FF002C090F003C065
:1015300091F004C092F000018F51300F6FEC17F062
:1015400000D00001960700019629D8B40AD0B2D77E
:1015500008D0300E6FEC17F000018D07D8A08E0771
:1015600000D000018EBF07D000018E51F2E10001D2
:101570008D05D8B0EED7000188BF0CD0000188518E
:1015800005E1090E0001875DD8A004D0080E000116
:10159000966F03D087C096F000D0000196510001ED
:1015A000875F000E000196BFFF0E0001885B0001FF
:1015B00096510001D8B404D02E0E6FEC17F000D075
:1015C00000019651AFEC0BF05DC080F05EC081F081
:1015D0005FC082F093C01FF094C020F095C021F04E
:1015E00080C01CF081C01DF082C01EF086EC12F09D
:1015F0001CC03AF01DC03BF01EC03CF002EC13F0E2
:101600003AC089F03BC08AF03CC08BF03DC08CF002
:101610006ED089C001F08AC002F08BC003F08CC08C
:1016200004F000019651040D010EF324F66E100E25
:10163000F420F76E0900F5CF05F00900F5CF06F0AC
:101640000900F5CF07F00A00F5CF08F0DFEC14F041
:1016500001C08FF002C090F003C091F004C092F07E
:101660008FC001F090C002F091C003F092C004F06E
:101670000A0E056E000E066E000E076E000E086E56
:10168000AAEC15F001C08FF002C090F003C091F0F9
:1016900004C092F000018F51300F6FEC17F089C039
:1016A00001F08AC002F08BC003F08CC004F000018E
:1016B0009651040D010EF324F66E100EF420F76E11
:1016C0000900F5CF05F00900F5CF06F00900F5CFC8
:1016D00007F00A00F5CF08F0AAEC15F001C089F078
:1016E00002C08AF003C08BF004C08CF000D000016F
:1016F000960700019629D8B40AD08BD708D0300EAF
:101700006FEC17F000018707D8A0880700D0000110
:10171000875100018811D8B412D0F1D710D0030E30
:10172000000185156C6E000E000186156D6E6C5003
:101730006D10D8B404D02D0E6FEC17F000D067C038
:10174000F6FF68C0F7FF674A682A0800F5CF96F0F1
:1017500000019651D8B402D0A1D400D01200636E1B
:1017600063AEEFD0636C6350800A120FD8A08DD0A7
:10177000000E5A6E030E596E000E526E0A0E516E16
:10178000000E4C6E640E4B6E6350496E4A6A49BE41
:101790004A0669EC15F049C04FF04AC050F049ECD8
:1017A00014F0090E4F24576E000E5020586ED7ECDF
:1017B00016F0290E5724F66E100E5820F76E090009
:1017C000F5CF1FF00900F5CF20F00A00F5CF21F08A
:1017D000000E526E640E516E63504F6E506A4FBED3
:1017E000500649EC14F0120E4F24576E000E502094
:1017F000586E000E5A6E030E596ED7EC16F0290E75
:101800005724F66E100E5820F76E0900F5CF1CF025
:101810000900F5CF1DF00A00F5CF1EF086EC12F09E
:101820001CC060F01DC061F01EC062F060C01CF002
:1018300061C01DF062C01EF0000E5A6E030E596E9C
:10184000000E4C6E0A0E4B6E6350496E4A6A49BEDA
:101850004A0669EC15F049C057F04AC058F0D7EC79
:1018600016F0290E5724F66E100E5820F76E090058
:10187000F5CF1FF00900F5CF20F00A00F5CF21F0D9
:1018800086EC12F041D15AD154D06350800A750FC2
:10189000D8A04FD0000E526E0A0E516E63504F6E9C
:1018A000506A4FBE500649EC14F0090E4F24576E93
:1018B000000E5020586E000E5A6E030E596ED7EC73
:1018C00016F0290E5724F66E100E5820F76E0900F8
:1018D000F5CF1CF00900F5CF1DF00A00F5CF1EF082
:1018E000000E5A6E030E596E000E4C6E0A0E4B6EB1
:1018F0006350496E4A6A49BE4A0669EC15F049C010
:1019000057F04AC058F0D7EC16F0290E5724F66E5F
:10191000100E5820F76E0900F5CF1FF00900F5CF23
:1019200020F00A00F5CF21F086EC12F0EDD006D1C0
:1019300000D06350030D290EF324F66E100EF2D082
:10194000FDD06350800A120FD8A08DD0000E5A6EC1
:10195000030E596E000E526E0A0E516E000E4C6E42
:10196000640E4B6E6350496E4A6A49BE4A0669EC82
:1019700015F049C04FF04AC050F049EC14F0090E80
:101980004F24576E000E5020586ED7EC16F0500EB4
:101990005724F66E100E5820F76E0900F5CF1FF091
:1019A0000900F5CF20F00A00F5CF21F0000E526EAD
:1019B000640E516E63504F6E506A4FBE500649EC34
:1019C00014F0120E4F24576E000E5020586E000E69
:1019D0005A6E030E596ED7EC16F0500E5724F66E61
:1019E000100E5820F76E0900F5CF1CF00900F5CF56
:1019F0001DF00A00F5CF1EF086EC12F01CC060F05E
:101A00001DC061F01EC062F060C01CF061C01DF01E
:101A100062C01EF0000E5A6E030E596E000E4C6E20
:101A20000A0E4B6E6350496E4A6A49BE4A0669EC1B
:101A300015F049C057F04AC058F0D7EC16F0500ED8
:101A40005724F66E100E5820F76E0900F5CF1FF0E0
:101A50000900F5CF20F00A00F5CF21F086EC12F056
:101A600053D06CD059D06350800A750FD8A054D091
:101A7000000E526E0A0E516E63504F6E506A4FBE8A
:101A8000500649EC14F0090E4F24576E000E5020FA
:101A9000586E000E5A6E030E596ED7EC16F0500EAB
:101AA0005724F66E100E5820F76E0900F5CF1CF083
:101AB0000900F5CF1DF00A00F5CF1EF0000E5A6E9A
:101AC000030E596E000E4C6E0A0E4B6E6350496E3B
:101AD0004A6A49BE4A0669EC15F049C057F04AC047
:101AE00058F0D7EC16F0500E5724F66E100E582012
:101AF000F76E0900F5CF1FF00900F5CF20F00A00BE
:101B0000F5CF21F086EC12F01CC05DF01DC05EF038
:101B10001EC05FF013D000D06350030D500EF324AD
:101B2000F66E100EF420F76E0900F5CF5DF0090097
:101B3000F5CF5EF00A00F5CF5FF000D012005CEC4C
:101B400017F07CEC17F09268000E936E000E946E06
:101B5000000E956E000E966E00D0020E76EC17F019
:101B600011EC17F001C0C2F002C0C3F0C2C009F00E
:101B7000C3C00AF0EBEC16F009C01CF00AC01DF05F
:101B80000BC01EF0000E1F6E800E206E400E216EE8
:101B900086EC12F01CC09BF01DC09CF01EC09DF096
:101BA0009BC02BF09CC02CF09DC02DF0000E2E6E23
:101BB0007A0E2F6E440E306E75EC13F02BC09EF033
:101BC0002CC09FF02DC0A0F0000E1F6E800E206E66
:101BD0003F0E216E9EC01CF09FC01DF0A0C01EF0E5
:101BE00086EC12F01CC02BF01DC02CF01EC02DF096
:101BF000120E136E830E146E400E156E9EC00DF005
:101C00009FC00EF0A0C00FF024EC17F00DC010F034
:101C10000EC011F00FC012F097EC10F010C02EF0B3
:101C200011C02FF012C030F075EC13F02BC0A5F0EE
:101C30002CC0A6F02DC0A7F0A5C03AF0A6C03BF07E
:101C4000A7C03CF002EC13F03AC097F03BC098F00C
:101C5000000E1F6E200E206E410E216EA5C01CF0DE
:101C6000A6C01DF0A7C01EF086EC12F01CC03AF012
:101C70001DC03BF01EC03CF002EC13F03AC049F02E
:101C80003BC04AF0000E4C6E0A0E4B6E69EC15F02C
:101C900049C099F04AC09AF0A5C001F0A6C002F070
:101CA000A7C003F05C0E046E8F0E056E3D0E066E2F
:101CB00094EC14F0D8B005D066EC17F085EC17F072
:101CC00005D081EC17F088EC17F000D0A5C049F0E2
:101CD000A6C04AF0A7C04BF04AEC16F036EC17F05D
:101CE000A5C001F0A6C002F0A7C003F0000E046E6C
:101CF000200E056E410E066E94EC14F0D8B086D01E
:101D0000A5C01CF0A6C01DF0A7C01EF0000E1F6EDF
:101D1000200E206E410E216E86EC12F01CC0BFF02A
:101D20001DC0C0F01EC0C1F0BFC03AF0C0C03BF043
:101D3000C1C03CF002EC13F03AC049F03BC04AF09D
:101D4000B9EC16F049C0BCF04AC0BDF04BC0BEF0C3
:101D5000A5C03AF0A6C03BF0A7C03CF002EC13F0DF
:101D60003A500001A46F000E1F6E200E206E410E2F
:101D7000216EA5C013F0A6C014F0A7C015F0000195
:101D8000A451FEEC16F009C00DF00AC00EF00BC015
:101D90000FF024EC17F00DC010F00EC011F00FC0C2
:101DA00012F097EC10F010C01CF011C01DF012C022
:101DB0001EF086EC12F01CC03AF01DC03BF01EC0B5
:101DC0003CF002EC13F03A500001A16F0001A45165
:101DD000020DA80EF324D96E000EF420DA6EDF5047
:101DE000826E0001A151020DA80EF324D96E000EDF
:101DF000F420DA6EDF50836E0001A45125EC15F05B
:101E00000001A15146EC17F0839E5ED0A5C03AF0C8
:101E1000A6C03BF0A7C03CF002EC13F03AC049F07A
:101E20003BC04AF0B9EC16F049C0BCF04AC0BDF066
:101E30004BC0BEF0BCC03AF0BDC03BF0BEC03CF0F1
:101E400002EC13F03AC04FF03BC050F0000E526E5F
:101E50000A0E516E49EC14F04F500001A26FBCC045
:101E60003AF0BDC03BF0BEC03CF002EC13F03AC00B
:101E700049F03BC04AF0000E4C6E0A0E4B6E69EC06
:101E800015F049500001A36F0001A251020DA80EE8
:101E9000F324D96E000EF420DA6EDF50826E00015A
:101EA000A351020DA80EF324D96E000EF420DA6EB1
:101EB000DF50836E0001A25125EC15F00001A35103
:101EC00046EC17F0838E00D0770E676E100E686EAA
:101ED000A5C069F0A6C06AF0A7C06BF047EC08F097
:101EE00036EC17F03AD600EF00F0666E6D0E6664C1
:101EF0009BD0000E5A6E030E596E000E526E0A0EE3
:101F0000516E000E4C6E640E4B6E66C049F04A6A0C
:101F100069EC15F049C04FF04AC050F049EC14F09C
:101F2000090E4F24576E000E5020586ED7EC16F055
:101F3000290E5724F66E100E5820F76E0900F5CFC3
:101F40001FF00900F5CF20F00A00F5CF21F0000EB8
:101F5000526E640E516E66C04FF0506A49EC14F038
:101F6000120E4F24576E000E5020586E000E5A6EFF
:101F7000030E596ED7EC16F0290E5724F66E100E8C
:101F80005820F76E0900F5CF1CF00900F5CF1DF0C1
:101F90000A00F5CF1EF086EC12F01CC063F01DC0E5
:101FA00064F01EC065F0000E5A6E030E596E000EEE
:101FB0004C6E0A0E4B6E66C049F04A6A69EC15F029
:101FC00049C057F04AC058F0D7EC16F0290E5724F4
:101FD000F66E100E5820F76E0900F5CF1FF00900BD
:101FE000F5CF20F00A00F5CF21F063C01CF064C0EB
:101FF0001DF065C01EF086EC12F01CC060F01DC024
:1020000061F01EC062F060C01CF061C01DF062C0D3
:102010001EF0000E1F6E000E206E3F0E216E86EC2D
:1020200012F07DD083D062D00A0E66645FD0000EBD
:102030005A6E030E596E000E4C6E0A0E4B6E66C041
:1020400049F04A6A69EC15F049C057F04AC058F0A7
:10205000D7EC16F0290E5724F66E100E5820F76EA6
:102060000900F5CF1FF00900F5CF20F00A00F5CFE9
:1020700021F0000E526E0A0E516E66C04FF0506A8B
:1020800049EC14F0090E4F24576E000E5020586E84
:10209000000E5A6E030E596ED7EC16F0290E572417
:1020A000F66E100E5820F76E0900F5CF1CF00900EF
:1020B000F5CF1DF00A00F5CF1EF086EC12F01CC023
:1020C00063F01DC064F01EC065F063C01CF064C006
:1020D0001DF065C01EF0000E1F6E000E206E3F0E3C
:1020E000216E86EC12F01BD021D000D06650030D7B
:1020F000290EF324F66E100EF420F76E0900F5CFCA
:102100001CF00900F5CF1DF00A00F5CF1EF0000EFF
:102110001F6E000E206E3F0E216E86EC12F01CC06A
:102120005DF01DC05EF01EC05FF000D0120012C056
:1021300016F0176A186A1134163601E31780165024
:102140001B6E15C016F0176A186A1434163601E3B0
:10215000178016501A6E1B50D8B40BD01A501B5C47
:10216000D8B00ED01B5000081A24166E180E166434
:1021700007D013C010F014C011F015C012F0B8D081
:102180001A50D8B40BD01B501A5CD8B00ED01A50CD
:1021900000081B24166E180E166407D010C010F02D
:1021A00011C011F012C012F0A3D0060E196E12AEBB
:1021B00002D0198E00D015BE198C118EFF0E10168C
:1021C000FF0E1116000E1216148EFF0E1316FF0EC0
:1021D0001416000E15161A501B5CD8B01ED0D890DD
:1021E0001336143615361A061B501A18D8B40FD0E9
:1021F000190619C016F0070E1616D8B408D0EFD776
:1022000006D0D8901232113210321B2A00D01A5048
:102210001B18D8B424D0F5D722D01B501A5CD8B0E4
:102220001ED0D8901036113612361B061B501A18C5
:10223000D8B40FD0190619C016F0070E1616D8B468
:1022400008D0EFD706D0D8901532143213321A2A9C
:1022500000D01A501B18D8B402D0F5D700D019AE50
:102260000CD0FF0E101AFF0E111AFF0E121A010EDB
:102270001026000E1122000E122219AC0DD0FF0EF6
:10228000131AFF0E141AFF0E151A010E1326000E54
:102290001422000E152200D0000E196E10501326C5
:1022A000115014221250152215AE0FD0FF0E131A22
:1022B000FF0E141AFF0E151A010E1326000E14221B
:1022C000000E1522010E196E00D013C001F014C0CB
:1022D00002F015C003F01BC004F019C005F0E6ECD5
:1022E00013F001C010F002C011F003C012F000D0D2
:1022F000120003C007F0086A096A0234073601E3D6
:10230000088007500F6E0F50D8A402D05DD078D04F
:1023100006C007F0086A096A0534073601E3088039
:1023200007500E6E0E50D8A402D04ED069D0028E47
:10233000FF0E0116FF0E0216000E0316058EFF0E8D
:102340000416FF0E0516000E0616000E0A6E000E8D
:102350000B6E000E0C6E000E0D6E7F0E0F5E0E509B
:10236000980F0F5E180E0E6ED8900A360B360C368C
:102370000D360450015C0550025806500358D8A091
:1023800007D00450015E0550025A0650035A0A80D5
:10239000D8900136023603360E2EE6D700D00FAEA7
:1023A00010D00F50800A970FD8B003D00DD028D08E
:1023B00000D0D8900D320C320B320A320F3EF9D7D2
:1023C00017D0170E0F6411D0000E016E000E026EB2
:1023D000000E036E000E046E13D007D0D8900A369C
:1023E0000B360C360D360F0600D00F50D8A4F6D79A
:1023F0000AC001F00BC002F00CC003F00DC004F0E5
:102400001200033404340C6E0C50D8A402D061D0F6
:102410007CD0063407340B6E0B50D8A402D059D0B0
:1024200074D0038EFF0E0116FF0E0216FF0E031668
:10243000000E0416068EFF0E0416FF0E0516FF0E84
:102440000616000E0716000E076E000E086E000E30
:10245000096E000E0A6E7F0E0C5E0B50A00F0C5E14
:10246000200E0B6E00D0D8900736083609360A3693
:102470000450015C05500258065003580750045898
:10248000D8A00AD00450015E0550025A0650035AE3
:102490000750045A078000D0D89001360236033620
:1024A00004360B2EE0D700D00CAE10D00C50800AB2
:1024B0009F0FD8B003D00DD028D000D0D8900A32CA
:1024C0000932083207320C3EF9D717D01F0E0C64C0
:1024D00011D0000E016E000E026E000E036E000E93
:1024E000046E13D007D0D8900736083609360A365E
:1024F0000C0600D00C50D8A4F6D707C001F008C0D5
:1025000002F009C003F00AC004F012001EC022F05D
:10251000236A246A1D34223601E323802250256E6B
:102520002550D8A402D00ED06CD021C022F0236A4E
:10253000246A2034223601E3238022502A6E2A5056
:10254000D8A407D0000E1C6E000E1D6E000E1E6E6D
:1025500058D02A507B0F25261EC02AF021502A1A57
:10256000800E2A161D8E208EFF0E1F16FF0E2016BF
:10257000000E2116000E266E000E276E000E286E2D
:10258000070E296E00D01CA007D01F502626205011
:1025900027222150282200D0D8901E321D321C3212
:1025A000D8901F3620362136292EEDD700D0090EBF
:1025B000296E00D01CA007D01F50262620502722AD
:1025C0002150282200D0D8901E321D321C32D890C3
:1025D000283227322632292EEDD700D026C001F02E
:1025E00027C002F028C003F025C004F02AC005F07F
:1025F000E6EC13F001C01CF002C01DF003C01EF099
:1026000000D012003CC03EF03F6A406A3B343E3688
:1026100001E33F803E50486E4850D8A402D039D0E4
:1026200063D0170E3E6E3AC03FF03BC040F03CC056
:1026300041F03E28426E04D0D890413240323F32C1
:10264000422EFAD73F50436E3B8EFF0E3A16FF0ED6
:102650003B16000E3C163A50446E3B50456E3C50C3
:10266000466E476A8E0E485E48AE10D04850800ACB
:102670008F0FD8B003D00DD037D000D0D8904732CC
:10268000463245324432483EF9D719D0170E4864D5
:1026900011D0000E3A6E000E3B6E000E3C6E000E26
:1026A0003D6E22D007D0D890443645364636473660
:1026B000480600D04850D8B402D0F5D700D04350D7
:1026C000D8B409D0471E461E451E446C000E452254
:1026D0004622472200D044C03AF045C03BF046C0F5
:1026E0003CF047C03DF000D012002DC031F0326AFE
:1026F000336A2C34313601E332803150386E385031
:10270000D8A402D00ED061D030C031F0326A336A22
:102710002F34313601E332803150396E3950D8A42C
:1027200007D0000E2B6E000E2C6E000E2D6E4DD0BD
:10273000000E356E000E366E000E376E3950890F62
:10274000385E2DC039F03050391A800E39162C8E73
:10275000FF0E2B16FF0E2C16000E2D162F8EFF0EC1
:102760002E16FF0E2F16000E3016180E346E00D0E7
:10277000D8903536363637362E502B5C2F502C58A5
:1027800030502D58D8A007D02E502B5E2F502C5AE9
:1027900030502D5A3580D8902B362C362D36342E8D
:1027A000E7D700D035C001F036C002F037C003F0E3
:1027B00038C004F039C005F0E6EC13F001C02BF08E
:1027C00002C02CF003C02DF000D012000450D8B489
:1027D00005D0015002100310D8A40ED0000E016ED7
:1027E000000E026E000E036E53D006D0042AD8905D
:1027F00003320232013200D0000E0114066E000EC8
:102800000214076EFE0E0314086E0650071008101F
:10281000D8B40ED0EBD70CD0042A010E0126000E3E
:102820000222000E0322D89003320232013200D07D
:10283000000E0114066E000E0214076EFF0E031444
:10284000086E065007100810D8B408D0E5D706D097
:102850000406D89001360236033600D002BE04D0FA
:10286000020E0460F5D700D004B002D0029E00D062
:10287000D8900432045003120550D8B402D0038E0D
:1028800000D001C001F002C002F003C003F000D08C
:102890001200000E546E52AE07D0516C521ED8B0CA
:1028A000522A010E546E00D050AE07D04F6C501E0D
:1028B000D8B0502A010E541A00D0000E566E000EE9
:1028C000556E51505210D8B421D0010E536E05D020
:1028D000D89051365236532A00D052BE02D0F8D783
:1028E00000D0D8905536563651504F5C5250505803
:1028F000D8A006D051504F5E5250505A558000D04B
:10290000D89052325132532EECD700D05450D8B414
:1029100005D0556C561ED8B0562A00D055C04FF081
:1029200056C050F000D0120003AE17D001C007F01F
:1029300002C008F003C009F0071E081E091E072A7E
:10294000000E08220922000E0724016E000E082046
:10295000026E800E0920036E00D006AE17D004C0B0
:1029600007F005C008F006C009F0071E081E091E82
:10297000072A000E08220922000E0724046E000E0A
:102980000820056E800E0920066E00D0000E011A88
:10299000000E021A800E031A000E041A000E051A09
:1029A000800E061A0450015C055002580650035868
:1029B000D8B002D0D89002D0D88000D01200000E3B
:1029C000096E000E0A6E000E0B6E000E0C6E0550A6
:1029D000061007100810D8B42FD0010E0D6E07D0C6
:1029E000D89005360636073608360D2A00D008BEC0
:1029F00002D0F6D700D0D89009360A360B360C36FE
:102A00000550015C065002580750035808500458FE
:102A1000D8A00AD00550015E0650025A0750035A4A
:102A20000850045A098000D0D89008320732063284
:102A300005320D2EE0D700D009C001F00AC002F027
:102A40000BC003F00CC004F01200016E0150020D27
:102A5000A80EF324D96E000EF420DA6EDF503F0B7F
:102A6000826E0150020DA80EF324D96E000EF420E0
:102A7000DA6EDF50010B026E0150020DA80EF32436
:102A8000D96E000EF420DA6EDF50400B036E035057
:102A9000D8A405D00250D8A402D0000E17D00250FE
:102AA000D8A405D00350D8B402D0010E0FD0020430
:102AB000D8A405D00350D8A402D0020E07D0020437
:102AC000D8A406D00350D8B403D0030E846E00D02F
:102AD0001200000E4E6E4AAE07D0496C4A1ED8B0A6
:102AE0004A2A010E4E6E00D04CAE05D04B6C4C1EE7
:102AF000D8B04C2A00D04B504C10D8B41DD0010E89
:102B00004D6E05D0D8904B364C364D2A00D04CBE79
:102B100002D0F8D700D04B50495C4C504A58D8A04E
:102B200005D04B50495E4C504A5A00D0D8904C3298
:102B30004B324D2EF0D700D04E50D8B405D0496C52
:102B40004A1ED8B04A2A00D049C049F04AC04AF0CB
:102B500000D012000550061007100810D8B429D074
:102B6000010E096E07D0D8900536063607360836AE
:102B7000092A00D008BE02D0F6D700D00550015C6B
:102B8000065002580750035808500458D8A009D0DE
:102B90000550015E0650025A0750035A0850045A65
:102BA00000D0D8900832073206320532092EE6D717
:102BB00000D001C001F002C002F003C003F004C065
:102BC00004F01200036E000EAC6E000EAB6E03A09C
:102BD00002D0AC8800D003A203D0AC8CAB8C00D068
:102BE00003A402D0AC8E00D003A602D0AB8802D0E2
:102BF000AB8A00D003B8AC849E9803AA02D0AB86FF
:102C000000D003AC02D09D8A01D09D9A9E9A03AE5B
:102C100002D09D8801D09D9801C0AFFF0250B06ED8
:102C2000AC8AAB8E949C948EACB8ACBE02D0948C23
:102C300000D012008E0E116E07D0D8900C320B32DD
:102C40000A320932112A00D0000E09140D6E000E4E
:102C50000A140E6E000E0B140F6EFF0E0C14106E85
:102C60000D500E100F101010D8A4E7D709C001F0B6
:102C70000AC002F00BC003F011C004F0000E056E94
:102C8000E6EC13F001C009F002C00AF003C00BF03B
:102C900000D01200000E016E8C0E026E420E036E0A
:102CA00049C004F04AC005F04BC006F094EC14F0A3
:102CB000D8B002D0816819D0000E2E6E200E2F6E73
:102CC000410E306E49C02BF04AC02CF04BC02DF0A5
:102CD00075EC13F02BC03AF02CC03BF02DC03CF04B
:102CE00002EC13F03A50816E00D012001F502010F9
:102CF0002110D8B407D0000E1F1A000E201A800E23
:102D0000211A00D01CC010F01DC011F01EC012F01E
:102D10001FC013F020C014F021C015F097EC10F084
:102D200010C01CF011C01DF012C01EF000D0120027
:102D300000EEBCF0080EEE6AE806FDE100EE72F06F
:102D40000A0EEE6AE806FDE1A40EF66E2E0EF76E90
:102D5000000EF86E00EEA8F010EE14F00900F5CFAA
:102D6000EEFFE550E150FAE1000EF86E00019FEF32
:102D70000DF0000E4C6E4AAE07D0496C4A1ED8B01A
:102D80004A2A010E4C6E00D049C001F04AC002F040
:102D9000036A8E0E046E4CC005F0E6EC13F001C021
:102DA00049F002C04AF003C04BF000D01200575067
:102DB0005902F3CF5BF0F4CF5CF057505A02F35056
:102DC0005C2658505902F3505C265BC057F05CC03B
:102DD00058F000D0120009C001F00AC002F0036AE6
:102DE0008E0E046E000E056EE6EC13F001C009F0C5
:102DF00002C00AF003C00BF000D012000C6E0C50A1
:102E0000016E026A036A8E0E046E000E056EE6EC19
:102E100013F001C009F002C00AF003C00BF000D0AB
:102E20001200C28200D0C2B2FED7C450046E036A40
:102E3000C3500324056E000E0420066E05C001F089
:102E400006C002F000D012000D500E100F10D8B4C2
:102E500006D0000E0D1A000E0E1A800E0F1A0DC0AD
:102E60000DF00EC00EF00FC00FF01200000E026E3B
:102E7000000E016E012805E10228D8B406D001D069
:102E800004D0014A022AF6D7FCD71200016E015085
:102E9000020DA80EF324D96E000EF420DA6EDF5076
:102EA000836E1200400079002400300019001200E7
:102EB0000200780000001000000E026E190E016E74
:102EC0003C0EE2EC15F0600ED36E1200F90ECB6EE4
:102ED000050ECA6E4A0EBB6E3C0EBA6E1200016E33
:102EE00000D0ACA2FED701C0ADFF1200016E0150B0
:102EF000040DF328C26E12001A0EC16EA90EC06E28
:102F00001200000EBA6E8196120080868484120030
:062F10008096849412007B
:020000040020DA
:08000000FFFFFFFFFFFFFFFF00
:020000040030CA
:0E000000FF08191EFF8281FF0FC00FE00F40A6
:00000001FF
