:0400000021EF7DF07F
:10F86A00000EBA6E81961200839E6FEC7CF0838E36
:10F87A006FEC7CF01200010EC26E1B0EC16EA90E57
:10F88A00C06E1200F90ECB6E050ECA6E4A0EBB6E22
:10F89A003C0EBA6E1200000E166E190E156E3C0E54
:10F8AA0083EC7DF0600ED36E1200400079002400D4
:10F8BA003000190012000200780000001000838E48
:10F8CA0047EC7CF06FEC7CF0839E35EC7CF06FECBF
:10F8DA007CF01200020ED56EDB0ED66E0B0ED76EC2
:10F8EA00F294D58E00D0F2A4FED7D59E1200156EE2
:10F8FA00000E166E04D039EC7CF0162A00D0155092
:10F90A00165CD8A0F8D71200C28200D0C2B2FED7C5
:10F91A00C450186E176AC3501724196E000E1820A7
:10F92A001A6E19C015F01AC016F000D01200166E21
:10F93A006F0E1618D8A404D08350800B7F090DD0FF
:10F94A001650020D010EF324D96E000EF420DA6E61
:10F95A00DF50156E8350800B1510836E00D0120095
:10F96A00156E0AD0849401D08484819813D084942B
:10F97A0001D0848481880ED01550000AD8B4F2D7F9
:10F98A00010AD8B4F1D7030AD8B4F1D7010AD8B416
:10F99A00F0D700D01200156E0AD0819A01D0818A60
:10F9AA00819C13D0819A01D0818A818C0ED0155006
:10F9BA00000AD8B4F2D7010AD8B4F1D7030AD8B4E6
:10F9CA00F1D7010AD8B4F0D700D01200156E0AD0C8
:10F9DA00809201D08082809413D0809201D080825C
:10F9EA0080840ED01550000AD8B4F2D7010AD8B4D0
:10F9FA00F1D7030AD8B4F1D7010AD8B4F0D700D0A6
:10FA0A001200156E0AD0809601D08086809813D095
:10FA1A00809601D0808680880ED01550000AD8B40E
:10FA2A00F2D7010AD8B4F1D7030AD8B4F1D7010A38
:10FA3A00D8B4F0D700D0120000EE26F0080EEE6A15
:10FA4A00E806FDE1B40EF66EF80EF76E000EF86EDB
:10FA5A0000EE01F010EE14F00900F5CFEEFFE550CC
:10FA6A00E150FAE1000EF86E0001EAEF7EF0000EB6
:10FA7A00206E1EAE07D01D6C1E1ED8B01E2A010EA7
:10FA8A00206E00D01DC015F01EC016F0176A8E0E2B
:10FA9A00186E20C019F09DEC7FF015C01DF016C03D
:10FAAA001EF017C01FF000D01200196E6F0E9CECEA
:10FABA007CF06F0E9DEC7EF018C01AF01A50D8B484
:10FACA0014D001D012D01950D8A404D01A509DECE9
:10FADA007EF007D01904D8A404D01A509CEC7CF00C
:10FAEA0000D064EC7CF01A06E9D76F0E9DEC7EF02C
:10FAFA006F0E9CEC7CF064EC7CF01200176E000E2A
:10FB0A00AC6E000EAB6E17A002D0AC8800D017A264
:10FB1A0003D0AC8CAB8C00D017A402D0AC8E00D032
:10FB2A0017A602D0AB8802D0AB8A00D017B8AC8433
:10FB3A009E9817AA02D0AB8600D017AC02D09D8A35
:10FB4A0001D09D9A9E9A17AE02D09D8801D09D98A9
:10FB5A0015C0AFFF1650B06EAC8AAB8E949C948ED3
:10FB6A00ACB8ACBE02D0948C00D01200000E1A6E53
:10FB7A0018AE07D0176C181ED8B0182A010E1A6EC4
:10FB8A0000D016AE07D0156C161ED8B0162A010E74
:10FB9A001A1A00D0000E1C6E000E1B6E1750181099
:10FBAA00D8B421D0010E196E05D0D8901736183660
:10FBBA00192A00D018BE02D0F8D700D0D8901B3628
:10FBCA001C361750155C18501658D8A006D0175076
:10FBDA00155E1850165A1B8000D0D890183217326A
:10FBEA00192EECD700D01A50D8B405D01B6C1C1EA5
:10FBFA00D8B01C2A00D01BC015F01CC016F000D0CB
:10FC0A00120017AE17D015C01BF016C01CF017C093
:10FC1A001DF01B1E1C1E1D1E1B2A000E1C221D224F
:10FC2A00000E1B24156E000E1C20166E800E1D2061
:10FC3A00176E00D01AAE17D018C01BF019C01CF0EE
:10FC4A001AC01DF01B1E1C1E1D1E1B2A000E1C2284
:10FC5A001D22000E1B24186E000E1C20196E800E29
:10FC6A001D201A6E00D0000E151A000E161A800EEC
:10FC7A00171A000E181A000E191A800E1A1A18509E
:10FC8A00155C195016581A501758D8B002D0D89087
:10FC9A0002D0D88000D01200020EEBEC7CF0010EEC
:10FCAA00B5EC7CF0010ED0EC7CF0010E06EC7DF098
:10FCBA00090E7CEC7CF0030EEBEC7CF0030E7CEC82
:10FCCA007CF0010EEBEC7CF081A40FD0020ED0EC9C
:10FCDA007CF0070E7CEC7CF0030ED0EC7CF0030E7B
:10FCEA007CEC7CF0010ED0EC7CF0020EB5EC7CF0E2
:10FCFA00090E7CEC7CF0030EB5EC7CF0030E7CEC78
:10FD0A007CF0010EB5EC7CF081A211D0020E06EC5B
:10FD1A007DF0070E7CEC7CF0030E06EC7DF0030E02
:10FD2A007CEC7CF0010E06EC7DF001D0B5D7120018
:10FD3A00156E6F0E1518D8A404D082507F09826EF2
:10FD4A0043D01550020D010EF324D96E000EF42093
:10FD5A00DA6EDF503F0B826E1550020D010EF3244E
:10FD6A00D96E000EF420DA6EDF50010B166E1550B4
:10FD7A00020D010EF324D96E000EF420DA6EDF5064
:10FD8A00400B176E1750D8A405D01650D8A402D02D
:10FD9A00849007D01650D8A406D01750D8B403D0F0
:10FDAA008480849211D01604D8A405D01750D8A400
:10FDBA0002D0849007D01604D8A406D01750D8B41D
:10FDCA0003D08480848200D0120050EC7CF040EC96
:10FDDA007CF0600ED36E110E926E070E936E000EBB
:10FDEA00946E000E956E000E966E000E836E6F0E68
:10FDFA009DEC7EF06F0E9CEC7CF000D089EC7CF0E0
:10FE0A0015C024F016C025F0030E186EE80E176E02
:10FE1A0024C015F025C016F0BBEC7DF015C01DF00E
:10FE2A0016C01EF03CEC7DF01DC021F01EC022F071
:10FE3A001FC023F021C015F022C016F023C017F00E
:10FE4A00000E186E400E196E400E1A6E06EC7EF009
:10FE5A00D8B002D0010E01D0000E2A6E00D02A04BA
:10FE6A00D8A404D041EC7FF0818EC8D751EC7EF043
:10FE7A00819EC4D700EF00F0020EEBEC7CF0010E7D
:10FE8A00B5EC7CF0010ED0EC7CF0010E06EC7DF0B6
:10FE9A0080AA06D0070E186E000E5AEC7DF000D02C
:10FEAA00090E7CEC7CF0030EEBEC7CF0030E7CEC90
:10FEBA007CF0010EEBEC7CF081A40FD0020ED0ECAA
:10FECA007CF0070E7CEC7CF0030ED0EC7CF0030E89
:10FEDA007CEC7CF0010ED0EC7CF0020EB5EC7CF0F0
:10FEEA0081A006D0090E186E010E5AEC7DF000D0E2
:10FEFA00080E7CEC7CF0030EB5EC7CF0030E7CEC77
:10FF0A007CF0010EB5EC7CF081A211D0020E06EC59
:10FF1A007DF0070E7CEC7CF0030E06EC7DF0030E00
:10FF2A007CEC7CF0010E06EC7DF001D0A5D7120026
:10FF3A001850D8B405D0155016101710D8A40ED0E2
:10FF4A00000E156E000E166E000E176E53D006D0F8
:10FF5A00182AD89017321632153200D0000E15140E
:10FF6A001A6E000E16141B6EFE0E17141C6E1A5013
:10FF7A001B101C10D8B40ED0EBD70CD0182A010EC7
:10FF8A001526000E1622000E1722D89017321632A6
:10FF9A00153200D0000E15141A6E000E16141B6EC0
:10FFAA00FF0E17141C6E1A501B101C10D8B408D060
:10FFBA00E5D706D01806D89015361636173600D06B
:10FFCA0016BE04D0020E1860F5D700D018B002D0C1
:10FFDA00169E00D0D8901832185017121950D8B45B
:10FFEA0002D0178E00D015C015F016C016F017C033
:06FFFA0017F000D0120018
:020000040020DA
:08000000FFFFFFFFFFFFFFFF00
:020000040030CA
:0E000000FF08191EFF8281FF0FC00FE00F40A6
:00000001FF
