:0400000085EF16F082
:1010000000010000000A00000064000000E8030086
:101010000010270000A086010040420F0080969833
:101020000000E1F50500CA9A3B00803FCDCC3DD7DA
:10103000233C12833AB7D138C62737388635C0D615
:1010400033CC2B32708930E7DB2EE53C1E42A20DFB
:1010500000803F00204100C842007A44401C4650B6
:10106000C34724744997184BBCBE4C6B6E4E031596
:101070005079AD60F349712054656D70657261748B
:10108000757265203D2025642046200D200A004C05
:101090006967687420566F6C74203D202564206D4C
:1010A00056200D0A0A00566F6C74616765203D205A
:1010B000256620286D56290D0A005374657073202B
:1010C0002D202564200D0A000000420E4E6E000EF9
:1010D0004F6E93D3250E6118D8B404D0615022EC22
:1010E00017F08BD3000E516E000E506E05D093D3C7
:1010F000518418D082D316D040C0F6FF41C0F7FF0C
:10110000404A412A0800F5CF61F06150000AD8B486
:1011100082D3640AD8B406D0020AD8B4E9D70F0A39
:10112000D8A46BD3070E5114D8B4CAD2000E536E94
:10113000060E526E4EC0D9FF4FC0DAFFDECF5EF012
:10114000DECF5FF0DDCF60F0030E4E26000E4F22A3
:1011500060AE11D05EC001F05FC002F060C003F06D
:10116000E0EC16F001C05EF002C05FF003C060F07A
:10117000030E501200D0000E596E000E586E5E50D5
:101180005F106010D8B485D0820E456EFF0E466E9B
:101190005EC047F05FC048F060C049F061C04AF0EF
:1011A000100E05D0D8904A32493248324732E82EE4
:1011B000F9D747504524586E000E4620596E580600
:1011C000D8A0590658C00FF059C010F0000E126E8A
:1011D000030E116EB9EC16F00FC058F010C059F0A4
:1011E00058C007F059C008F0000E0A6E0A0E096ECA
:1011F0006FEC14F007C058F008C059F059AE04D095
:101200005806D8A0590600D0585000080CEC0CF035
:1012100024C05AF025C05BF026C05CF05AC015F01F
:101220005BC016F05CC017F05EC018F05FC019F02C
:1012300060C01AF011EC12F015C05AF016C05BF045
:1012400017C05CF05AC001F05BC002F05CC003F054
:10125000000E046E800E056E3F0E066E24EC14F038
:10126000D8B004D05806D8A0590613D05AC001F0FF
:101270005BC002F05CC003F0000E046E200E056E31
:10128000410E066E24EC14F0D8A003D0584A592A17
:1012900000D053BE06D053501CE10D0E525CD8B0A6
:1012A00018D05EC02EF05FC02FF060C030F05250FA
:1012B000FCEC0DF024C031F025C032F026C033F034
:1012C00022EC10F02EC05EF02FC05FF030C060F056
:1012D00000D059BE06D0595020E10A0E585CD8B053
:1012E0001CD05E505F106010D8B46DD05EC02BF083
:1012F0005FC02CF060C02DF08DEC12F02B502C1044
:101300002D102E10D8B459BE5ED0595006E1020EF1
:10131000585CD8B002D057D000D05AC001F05BC0A2
:1013200002F05CC003F0700E046E890E056E400E74
:10133000066E24EC14F0D8B002D0F70E01D0F80EEF
:101340005826FF0E592200D058500CEC0CF024C047
:101350005AF025C05BF026C05CF017D05EC001F0EB
:101360005FC002F060C003F05AC004F05BC005F03B
:101370005CC006F08CEC11F001C054F002C055F0D6
:1013800003C056F004C057F017D05EC001F05FC034
:1013900002F060C003F05AC004F05BC005F05CC00E
:1013A00006F004EC11F001C054F002C055F003C087
:1013B00056F004C057F000D0000E5E6E000E5F6E57
:1013C000000E606E33D05EC02BF05FC02CF060C0AA
:1013D0002DF08DEC12F02BC054F02CC055F02DC028
:1013E00056F02EC057F05EC03AF05FC03BF060C0D0
:1013F0003CF054C009F055C00AF056C00BF057C07D
:101400000CF0F5EC15F009C03DF00AC03EF00BC041
:101410003FF025EC16F03AC05EF03BC05FF03CC0F8
:1014200060F0000E596E000E586E00D0010E616E15
:101430000A0E6118D8B41CD001D01AD06150040D26
:10144000010EF324F66E100EF420F76E0900F5502D
:10145000545C0900F55055580900F55056580900DC
:10146000F5505758D8A004D001D002D0612AE0D757
:10147000030E5014456E000E5114466E4550461032
:10148000D8B449D02D0E22EC17F045D054C001F04D
:1014900055C002F056C003F057C004F06150040D6F
:1014A000010EF324F66E100EF420F76E0900F5CF4E
:1014B00005F00900F5CF06F00900F5CF07F00A00A6
:1014C000F5CF08F0BAEC14F001C05AF002C05BF09E
:1014D00003C05CF004C05DF05AC00EF05BC00FF0BA
:1014E0005CC010F05DC011F00A0E126E000E136E9B
:1014F000000E146E000E156E85EC15F00EC05AF03D
:101500000FC05BF010C05CF011C05DF05A50300F9E
:1015100022EC17F000D061066128D8B409D0B6D704
:1015200007D0300E22EC17F05806D8A0590600D08C
:1015300059BE05D05950F5E15804D8B0F2D753BE82
:1015400009D0535004E1090E525CD8A003D0080E14
:10155000616E03D052C061F000D06150525E000E47
:1015600061BEFF0E535A6150D8B404D02E0E22EC47
:1015700017F000D061500CEC0CF024C04BF025C0EB
:101580004CF026C04DF05EC018F05FC019F060C08E
:101590001AF04BC015F04CC016F04DC017F011EC0E
:1015A00012F015C02BF016C02CF017C02DF08DECEA
:1015B00012F02BC054F02CC055F02DC056F02EC0A8
:1015C00057F06BD054C001F055C002F056C003F084
:1015D00057C004F06150040D010EF324F66E100E96
:1015E000F420F76E0900F5CF05F00900F5CF06F0FD
:1015F0000900F5CF07F00A00F5CF08F0BAEC14F0B7
:1016000001C05AF002C05BF003C05CF004C05DF0A2
:101610005AC00EF05BC00FF05CC010F05DC011F05E
:101620000A0E126E000E136E000E146E000E156E72
:1016300085EC15F00EC05AF00FC05BF010C05CF0E6
:1016400011C05DF05A50300F22EC17F054C00EF06C
:1016500055C00FF056C010F057C011F06150040D86
:10166000010EF324F66E100EF420F76E0900F5CF8C
:1016700012F00900F5CF13F00900F5CF14F00A00BD
:10168000F5CF15F085EC15F00EC054F00FC055F0F5
:1016900010C056F011C057F000D061066128D8B4D0
:1016A00009D090D707D0300E22EC17F05206D8A000
:1016B000530600D052505310D8B49FD0F4D79DD0C9
:1016C0004EC0D9FF4FC0DAFFDECF54F0DDCF55F06A
:1016D000000E55BEFF0E566E576E020E4E26000EC1
:1016E0004F2257AE0BD0030E5012571E561E551EDA
:1016F000546C000E55225622572200D0010E616E06
:101700000A0E6118D8B41CD001D01AD06150040D53
:10171000010EF324F66E100EF420F76E0900F5505A
:10172000545C0900F55055580900F5505658090009
:10173000F5505758D8A004D001D002D0612AE0D784
:10174000030E5014456E000E5114466E455046105F
:10175000D8B404D02D0E22EC17F000D06150526E98
:10176000536A52BE53063FD052C045F053C046F0B4
:10177000D89045364636D89045364636010E452433
:10178000F66E100E4620F76E0900F5CF05F0090041
:10179000F5CF06F00900F5CF07F00A00F5CF08F005
:1017A00054C001F055C002F056C003F057C004F019
:1017B000BAEC14F001C00EF002C00FF003C010F03C
:1017C00004C011F00A0E126E000E136E000E146E9D
:1017D000000E156E85EC15F00E50300F616E6150E5
:1017E00022EC17F000D05206D8A053065228BCE1D4
:1017F0005328D8B402D0B8D700D040C0F6FF41C0BB
:10180000F7FF404A412A0800F5CF61F06150D8B493
:1018100002D060D400D012002A6E2AAEEFD02A6C1B
:101820002A50800A120FD8A08DD0000E126E030E1F
:10183000116E000E0A6E0A0E096E000E046E640E22
:10184000036E2A50016E026A01BE020644EC15F0D6
:1018500001C007F002C008F06FEC14F0090E072475
:101860000F6E000E0820106EB9EC16F0290E0F2432
:10187000F66E100E1020F76E0900F5CF18F0090073
:10188000F5CF19F00A00F5CF1AF0000E0A6E640EBB
:10189000096E2A50076E086A07BE08066FEC14F03E
:1018A000120E07240F6E000E0820106E000E126E2E
:1018B000030E116EB9EC16F0290E0F24F66E100E01
:1018C0001020F76E0900F5CF15F00900F5CF16F0DE
:1018D0000A00F5CF17F011EC12F015C027F016C072
:1018E00028F017C029F027C015F028C016F029C02D
:1018F00017F0000E126E030E116E000E046E0A0E2B
:10190000036E2A50016E026A01BE020644EC15F015
:1019100001C00FF002C010F0B9EC16F0290E0F2430
:10192000F66E100E1020F76E0900F5CF18F00900C2
:10193000F5CF19F00A00F5CF1AF011EC12F041D1F1
:101940005AD154D02A50800A750FD8A04FD0000E1B
:101950000A6E0A0E096E2A50076E086A07BE08064C
:101960006FEC14F0090E07240F6E000E0820106EA5
:10197000000E126E030E116EB9EC16F0290E0F2434
:10198000F66E100E1020F76E0900F5CF15F0090065
:10199000F5CF16F00A00F5CF17F0000E126E030E09
:1019A000116E000E046E0A0E036E2A50016E026A5A
:1019B00001BE020644EC15F001C00FF002C010F0A9
:1019C000B9EC16F0290E0F24F66E100E1020F76EEB
:1019D0000900F5CF18F00900F5CF19F00A00F5CF8E
:1019E0001AF011EC12F0EDD006D100D02A50030D00
:1019F000290EF324F66E100EF2D0FDD02A50800A84
:101A0000120FD8A08DD0000E126E030E116E000EB4
:101A10000A6E0A0E096E000E046E640E036E2A50E2
:101A2000016E026A01BE020644EC15F001C007F027
:101A300002C008F06FEC14F0090E07240F6E000EC0
:101A40000820106EB9EC16F0500E0F24F66E100E32
:101A50001020F76E0900F5CF18F00900F5CF19F046
:101A60000A00F5CF1AF0000E0A6E640E096E2A50B5
:101A7000076E086A07BE08066FEC14F0120E072402
:101A80000F6E000E0820106E000E126E030E116E07
:101A9000B9EC16F0500E0F24F66E100E1020F76EF3
:101AA0000900F5CF15F00900F5CF16F00A00F5CFC3
:101AB00017F011EC12F015C027F016C028F017C06F
:101AC00029F027C015F028C016F029C017F0000E25
:101AD000126E030E116E000E046E0A0E036E2A5073
:101AE000016E026A01BE020644EC15F001C00FF05F
:101AF00002C010F0B9EC16F0500E0F24F66E100E66
:101B00001020F76E0900F5CF18F00900F5CF19F095
:101B10000A00F5CF1AF011EC12F053D06CD059D066
:101B20002A50800A750FD8A054D0000E0A6E0A0EF3
:101B3000096E2A50076E086A07BE08066FEC14F09B
:101B4000090E07240F6E000E0820106E000E126E94
:101B5000030E116EB9EC16F0500E0F24F66E100E37
:101B60001020F76E0900F5CF15F00900F5CF16F03B
:101B70000A00F5CF17F0000E126E030E116E000E64
:101B8000046E0A0E036E2A50016E026A01BE02063E
:101B900044EC15F001C00FF002C010F0B9EC16F0E3
:101BA000500E0F24F66E100E1020F76E0900F5CFC0
:101BB00018F00900F5CF19F00A00F5CF1AF011EC72
:101BC00012F015C024F016C025F017C026F013D06F
:101BD00000D02A50030D500EF324F66E100EF420A0
:101BE000F76E0900F5CF24F00900F5CF25F00A00C3
:101BF000F5CF26F000D012002D6E6D0E2D649BD017
:101C0000000E126E030E116E000E0A6E0A0E096EA1
:101C1000000E046E640E036E2DC001F0026A44ECE7
:101C200015F001C007F002C008F06FEC14F0090EC7
:101C300007240F6E000E0820106EB9EC16F0290E66
:101C40000F24F66E100E1020F76E0900F5CF18F075
:101C50000900F5CF19F00A00F5CF1AF0000E0A6E50
:101C6000640E096E2DC007F0086A6FEC14F0120EB6
:101C700007240F6E000E0820106E000E126E030E69
:101C8000116EB9EC16F0290E0F24F66E100E10200E
:101C9000F76E0900F5CF15F00900F5CF16F00A0030
:101CA000F5CF17F011EC12F015C02AF016C02BF08A
:101CB00017C02CF0000E126E030E116E000E046E93
:101CC0000A0E036E2DC001F0026A44EC15F001C04B
:101CD0000FF002C010F0B9EC16F0290E0F24F66ECA
:101CE000100E1020F76E0900F5CF18F00900F5CF9F
:101CF00019F00A00F5CF1AF02AC015F02BC016F023
:101D00002CC017F011EC12F015C027F016C028F007
:101D100017C029F027C015F028C016F029C017F009
:101D2000000E186E000E196E3F0E1A6E11EC12F0B6
:101D30007DD083D062D00A0E2D645FD0000E126E6B
:101D4000030E116E000E046E0A0E036E2DC001F01C
:101D5000026A44EC15F001C00FF002C010F0B9ECBB
:101D600016F0290E0F24F66E100E1020F76E0900E3
:101D7000F5CF18F00900F5CF19F00A00F5CF1AF0E9
:101D8000000E0A6E0A0E096E2DC007F0086A6FEC8D
:101D900014F0090E07240F6E000E0820106E000EBE
:101DA000126E030E116EB9EC16F0290E0F24F66EAA
:101DB000100E1020F76E0900F5CF15F00900F5CFD1
:101DC00016F00A00F5CF17F011EC12F015C02AF04A
:101DD00016C02BF017C02CF02AC015F02BC016F03F
:101DE0002CC017F0000E186E000E196E3F0E1A6E02
:101DF00011EC12F01BD021D000D02D50030D290E74
:101E0000F324F66E100EF420F76E0900F5CF15F0EE
:101E10000900F5CF16F00A00F5CF17F0000E186E86
:101E2000000E196E3F0E1A6E11EC12F015C024F060
:101E300016C025F017C026F000D0120018EC17F0DD
:101E400029EC17F00F0E926E000E936E000E946E3A
:101E5000000E956E000E966E82688368000E816E8D
:101E600000D0000E30EC17F0CDEC16F001C071F090
:101E700002C072F071C009F072C00AF067EC16F08F
:101E800009C015F00AC016F00BC017F0000E186E4E
:101E9000800E196E400E1A6E11EC12F015C06CF027
:101EA00016C06DF017C06EF0600E316E810E326E8E
:101EB000440E336E6CC001F06DC002F06EC003F0D2
:101EC000E0EC16F001C02EF002C02FF003C030F09D
:101ED00022EC10F02EC03AF02FC03BF030C03CF0A6
:101EE000000E3D6EB00E3E6E400E3F6E00EC13F0E5
:101EF0003AC064F03BC065F03CC066F0660E186EF8
:101F0000E60E196E3F0E1A6E64C015F065C016F02D
:101F100066C017F011EC12F015C02EF016C02FF0AD
:101F200017C030F0000E316E000E326E420E336E6E
:101F300022EC10F02EC067F02FC068F030C069F0BE
:101F400067C02BF068C02CF069C02DF08DEC12F04A
:101F50002BC073F02CC074F073C007F074C008F08D
:101F6000000E0A6E0A0E096E6FEC14F007506A6ECE
:101F700073C001F074C002F0000E046E0A0E036E0E
:101F800044EC15F001506B6E6A5002EC17F06B5088
:101F900000EC15F0BA0E406E100E416E71C042F0AA
:101FA00072C043F065EC08F0A60E406E100E416E54
:101FB0006CC042F06DC043F06EC044F065EC08F0B8
:101FC000770E406E100E416E73C042F074C043F045
:101FD00065EC08F073C00FF074C010F0A0EC16F0C0
:101FE00073C001F074C002F0D4EC13F0010E30ECB9
:101FF00017F0CDEC16F001C071F002C072F071C0A4
:1020000062F072C063F0D89062366336D890623660
:10201000633662C06FF063C070F08F0E406E100EBA
:10202000416E6FC042F070C043F065EC08F06FC0C5
:1020300001F070C002F047EC16F0F2EC16F011D788
:1020400000EF00F030C034F0356A366A2F34343691
:1020500001E335803450396E33C034F0356A366A66
:102060003234343601E335803450386E3950D8B4C8
:102070000BD03850395CD8B00ED039500008382415
:10208000346E180E346407D031C02EF032C02FF0F9
:1020900033C030F0B8D03850D8B40BD03950385C99
:1020A000D8B00ED0385000083924346E180E34647D
:1020B00007D02EC02EF02FC02FF030C030F0A3D0AC
:1020C000060E376E30AE02D0378E00D033BE378C5E
:1020D0002F8EFF0E2E16FF0E2F16000E3016328E8C
:1020E000FF0E3116FF0E3216000E33163850395CD3
:1020F000D8B01ED0D8903136323633363806395003
:102100003818D8B40FD0370637C034F0070E34165D
:10211000D8B408D0EFD706D0D89030322F322E3234
:10212000392A00D038503918D8B424D0F5D722D065
:102130003950385CD8B01ED0D8902E362F36303675
:10214000390639503818D8B40FD0370637C034F0B4
:10215000070E3416D8B408D0EFD706D0D890333253
:1021600032323132382A00D038503918D8B402D03F
:10217000F5D700D037AE0CD0FF0E2E1AFF0E2F1A57
:10218000FF0E301A010E2E26000E2F22000E3022D6
:1021900037AC0DD0FF0E311AFF0E321AFF0E331A74
:1021A000010E3126000E3222000E332200D0000E26
:1021B000376E2E5031262F5032223050332233AE1C
:1021C0000FD0FF0E311AFF0E321AFF0E331A010E16
:1021D0003126000E3222000E3322010E376E00D05F
:1021E00031C001F032C002F033C003F039C004F056
:1021F00037C005F071EC13F001C02EF002C02FF0D3
:1022000003C030F000D0120003C007F0086A096A6A
:102210000234073601E3088007500F6E0F50D8A430
:1022200002D05DD078D006C007F0086A096A05348C
:10223000073601E3088007500E6E0E50D8A402D076
:102240004ED069D0028EFF0E0116FF0E0216000E50
:102250000316058EFF0E0416FF0E0516000E061659
:10226000000E0A6E000E0B6E000E0C6E000E0D6E50
:102270007F0E0F5E0E50980F0F5E180E0E6ED890E8
:102280000A360B360C360D360450015C05500258E8
:1022900006500358D8A007D00450015E0550025ADA
:1022A0000650035A0A80D8900136023603360E2EA5
:1022B000E6D700D00FAE10D00F50800A970FD8B0DD
:1022C00003D00DD028D000D0D8900D320C320B3274
:1022D0000A320F3EF9D717D0170E0F6411D0000E37
:1022E000016E000E026E000E036E000E046E13D01F
:1022F00007D0D8900A360B360C360D360F0600D0B4
:102300000F50D8A4F6D70AC001F00BC002F00CC0E1
:1023100003F00DC004F01200033404340C6E0C50B2
:10232000D8A402D061D07CD0063407340B6E0B5099
:10233000D8A402D059D074D0038EFF0E0116FF0E20
:102340000216FF0E0316000E0416068EFF0E04166C
:10235000FF0E0516FF0E0616000E0716000E076E7E
:10236000000E086E000E096E000E0A6E7F0E0C5EE7
:102370000B50A00F0C5E200E0B6E00D0D8900736CD
:10238000083609360A360450015C055002580650DA
:10239000035807500458D8A00AD00450015E0550D5
:1023A000025A0650035A0750045A078000D0D890AA
:1023B00001360236033604360B2EE0D700D00CAEC1
:1023C00010D00C50800A9F0FD8B003D00DD028D069
:1023D00000D0D8900A320932083207320C3EF9D7C1
:1023E00017D01F0E0C6411D0000E016E000E026E8D
:1023F000000E036E000E046E13D007D0D89007367F
:10240000083609360A360C0600D00C50D8A4F6D788
:1024100007C001F008C002F009C003F00AC004F0D0
:10242000120017C01BF01C6A1D6A16341B3601E32C
:102430001C801B501E6E1E50D8A402D00ED06CD033
:102440001AC01BF01C6A1D6A19341B3601E31C807C
:102450001B50236E2350D8A407D0000E156E000E1B
:10246000166E000E176E58D023507B0F1E2617C015
:1024700023F01A50231A800E2316168E198EFF0E83
:102480001816FF0E1916000E1A16000E1F6E000EFB
:10249000206E000E216E070E226E00D015A007D010
:1024A00018501F26195020221A50212200D0D890EF
:1024B000173216321532D890183619361A36222E9F
:1024C000EDD700D0090E226E00D015A007D018500D
:1024D0001F26195020221A50212200D0D8901732DE
:1024E00016321532D890213220321F32222EEDD7EB
:1024F00000D01FC001F020C002F021C003F01EC0B8
:1025000004F023C005F071EC13F001C015F002C017
:1025100016F003C017F000D012002DC02FF0306A63
:10252000316A2C342F3601E330802F50396E395008
:10253000D8A402D039D063D0170E2F6E2BC030F044
:102540002CC031F02DC032F02F28336E04D0D8903B
:10255000323231323032332EFAD73050346E2C8E44
:10256000FF0E2B16FF0E2C16000E2D162B50356E5F
:102570002C50366E2D50376E386A8E0E395E39AE5D
:1025800010D03950800A8F0FD8B003D00DD037D07B
:1025900000D0D8903832373236323532393EF9D71A
:1025A00019D0170E396411D0000E2B6E000E2C6E50
:1025B000000E2D6E000E2E6E22D007D0D89035362C
:1025C000363637363836390600D03950D8B402D0CE
:1025D000F5D700D03450D8B409D0381E371E361E77
:1025E000356C000E36223722382200D035C02BF051
:1025F00036C02CF037C02DF038C02EF000D01200BD
:102600003CC040F0416A426A3B34403601E34180BD
:102610004050476E4750D8A402D00ED061D03FC082
:1026200040F0416A426A3E34403601E34180405006
:10263000486E4850D8A407D0000E3A6E000E3B6E8C
:10264000000E3C6E4DD0000E446E000E456E000E26
:10265000466E4850890F475E3CC048F03F50481ACC
:10266000800E48163B8EFF0E3A16FF0E3B16000EEC
:102670003C163E8EFF0E3D16FF0E3E16000E3F1618
:10268000180E436E00D0D8904436453646363D503D
:102690003A5C3E503B583F503C58D8A007D03D5084
:1026A0003A5E3E503B5A3F503C5A4480D8903A36AE
:1026B0003B363C36432EE7D700D044C001F045C03E
:1026C00002F046C003F047C004F048C005F071ECCA
:1026D00013F001C03AF002C03BF003C03CF000D060
:1026E00012000450D8B405D0015002100310D8A431
:1026F0000ED0000E016E000E026E000E036E53D05F
:1027000006D0042AD89003320232013200D0000EE3
:102710000114066E000E0214076EFE0E0314086EFE
:10272000065007100810D8B40ED0EBD70CD0042AEE
:10273000010E0126000E0222000E0322D890033261
:102740000232013200D0000E0114066E000E021497
:10275000076EFF0E0314086E065007100810D8B459
:1027600008D0E5D706D00406D890013602360336E5
:1027700000D002BE04D0020E0460F5D700D004B031
:1027800002D0029E00D0D8900432045003120550AB
:10279000D8B402D0038E00D001C001F002C002F014
:1027A00003C003F000D0120002BE06D0025007E1C1
:1027B0002D0E015CD8B003D042EC17F044D002BE1D
:1027C00011D0025004E12E0E015CD8A00BD002BE45
:1027D00006D0025007E1380E015CD8B003D03EECC1
:1027E00017F031D002BE11D0025004E1380E015C66
:1027F000D8A00BD002BE06D0025007E1420E015C09
:10280000D8B003D046EC17F01ED002BE11D0025053
:1028100004E1420E015CD8A00BD002BE06D00250EB
:1028200007E14C0E015CD8B003D04AEC17F00BD096
:1028300002BE09D0025004E14C0E015CD8A003D0C6
:102840003AEC17F000D0120003AE17D001C007F029
:1028500002C008F003C009F0071E081E091E072A5F
:10286000000E08220922000E0724016E000E082027
:10287000026E800E0920036E00D006AE17D004C091
:1028800007F005C008F006C009F0071E081E091E63
:10289000072A000E08220922000E0724046E000EEB
:1028A0000820056E800E0920066E00D0000E011A69
:1028B000000E021A800E031A000E041A000E051AEA
:1028C000800E061A0450015C055002580650035849
:1028D000D8B002D0D89002D0D88000D01200000E1C
:1028E0000C6E0AAE07D0096C0A1ED8B00A2A010E77
:1028F0000C6E00D008AE07D0076C081ED8B0082AAE
:10290000010E0C1A00D0000E0E6E000E0D6E095056
:102910000A10D8B421D0010E0B6E05D0D89009361C
:102920000A360B2A00D00ABE02D0F8D700D0D890C1
:102930000D360E360950075C0A500858D8A006D04C
:102940000950075E0A50085A0D8000D0D8900A320C
:1029500009320B2EECD700D00C50D8B405D00D6C3A
:102960000E1ED8B00E2A00D00DC007F00EC008F021
:1029700000D01200000E096E000E0A6E000E0B6EE3
:10298000000E0C6E0550061007100810D8B42FD09A
:10299000010E0D6E07D0D89005360636073608367C
:1029A0000D2A00D008BE02D0F6D700D0D890093644
:1029B0000A360B360C360550015C0650025807509B
:1029C000035808500458D8A00AD00550015E06509C
:1029D000025A0750035A0850045A098000D0D89070
:1029E00008320732063205320D2EE0D700D009C07A
:1029F00001F00AC002F00BC003F00CC004F012009A
:102A0000016E0150020D800EF324D96E000EF420E9
:102A1000DA6EDF503F0B826E0150020D800EF32400
:102A2000D96E000EF420DA6EDF50010B026E0150F9
:102A3000020D800EF324D96E000EF420DA6EDF5002
:102A4000400B036E0350D8A405D00250D8A402D086
:102A5000000E17D00250D8A405D00350D8B402D02D
:102A6000010E0FD00204D8A405D00350D8A402D080
:102A7000020E07D00204D8A406D00350D8B403D065
:102A8000030E846E00D01200000E066E02AE07D058
:102A9000016C021ED8B0022A010E066E00D004AEF0
:102AA00005D0036C041ED8B0042A00D003500410D3
:102AB000D8B41DD0010E056E05D0D890033604366B
:102AC000052A00D004BE02D0F8D700D00350015C24
:102AD00004500258D8A005D00350015E0450025A99
:102AE00000D0D89004320332052EF0D700D0065023
:102AF000D8B405D0016C021ED8B0022A00D001C0A3
:102B000001F002C002F000D0120012501310141095
:102B10001510D8B429D0010E166E07D0D8901236F1
:102B2000133614361536162A00D015BE02D0F6D745
:102B300000D012500E5C13500F58145010581550FE
:102B40001158D8A009D012500E5E13500F5A1450CD
:102B5000105A1550115A00D0D89015321432133231
:102B60001232162EE6D700D00EC00EF00FC00FF0B6
:102B700010C010F011C011F01200036E000EAC6E08
:102B8000000EAB6E03A002D0AC8800D003A203D02D
:102B9000AC8CAB8C00D003A402D0AC8E00D003A6CA
:102BA00002D0AB8802D0AB8A00D003B8AC849E9828
:102BB00003AA02D0AB8600D003AC02D09D8A01D01C
:102BC0009D9A9E9A03AE02D09D8801D09D9801C027
:102BD000AFFF0250B06EAC8AAB8E949C948EACB8B2
:102BE000ACBE02D0948C00D012008E0E116E07D0B5
:102BF000D8900C320B320A320932112A00D0000E62
:102C000009140D6E000E0A140E6E000E0B140F6EDA
:102C1000FF0E0C14106E0D500E100F101010D8A4D3
:102C2000E7D709C001F00AC002F00BC003F011C0E1
:102C300004F0000E056E71EC13F001C009F002C043
:102C40000AF003C00BF000D012003D503E103F10C0
:102C5000D8B407D0000E3D1A000E3E1A800E3F1A5F
:102C600000D03AC02EF03BC02FF03CC030F03DC049
:102C700031F03EC032F03FC033F022EC10F02EC0F5
:102C80003AF02FC03BF030C03CF000D0120002BE42
:102C900006D0C40E015C090E0258D8B002D0100E46
:102CA00013D002BE10D0C40E015C090E0258D8A089
:102CB0000AD002BE06D0480E015C0D0E0258D8B0F4
:102CC00002D0200E01D0300E806E00D01200000E17
:102CD0000C6E0AAE07D0096C0A1ED8B00A2A010E83
:102CE0000C6E00D009C001F00AC002F0036A8E0E1B
:102CF000046E0CC005F071EC13F001C009F002C0C5
:102D00000AF003C00BF000D0120000EE75F00A0EBE
:102D1000EE6AE806FDE11C0EF66E2E0EF76E000E52
:102D2000F86E00EE80F010EE14F00900F5CFEEFF23
:102D3000E550E150FAE1000EF86E00011EEF0FF0D1
:102D400010BE09D0105004E1470E0F5CD8A003D08C
:102D500036EC17F00DD00FC007F010C008F0000ED1
:102D60000A6E0A0E096E6FEC14F00750816E00D0E7
:102D700012000F501102F3CF13F0F4CF14F00F50E4
:102D80001202F350142610501102F350142613C0EF
:102D90000FF014C010F000D01200C28200D0C2B2F6
:102DA000FED7C450046E036AC3500324056E000EA0
:102DB0000420066E05C001F006C002F000D012002B
:102DC000015002100310D8B406D0000E011A000EF4
:102DD000021A800E031A01C001F002C002F003C003
:102DE00003F01200000E026E000E016E012805E1D4
:102DF0000228D8B406D001D004D0014A022AF6D75E
:102E0000FCD71200016E0150020D800EF324D96E22
:102E1000000EF420DA6EDF50836E1200400079005D
:102E20002400300019001200020078000000100099
:102E3000000E026E190E016E3C0EBDEC15F0600E18
:102E4000D36E1200016E00D0ACA2FED701C0ADFF60
:102E50001200010EC26E1B0EC16EA90EC06E1200D2
:102E6000016E0150040DF328C26E1200818481822C
:102E700081801200818A818881861200819A8198DE
:102E800081861200819A819881961200819A8188A8
:0C2E900081961200818A819881961200C0
:020000040020DA
:08000000FFFFFFFFFFFFFFFF00
:020000040030CA
:0E000000FF08191EFF8381FF0FC00FE00F40A5
:00000001FF
