:040000000CEF00F011
:10000800FACF03F0FBCF04F0E9CF05F08AED03F057
:1000180049EF03F01F0E0001B56F000E0001B66F27
:10002800D6D1250E0001BD19D8B405D00001BD51A7
:10003800D5EC05F0CCD1000E0001BC6F000EBB6FF3
:10004800000E0001BA6F06D00001BA851D4A1E2AAB
:1000580001D00BD01DC0F6FF1EC0F7FF0800F550F9
:10006800300AD8B4F1D701D0F5D71DC0F6FF1EC0AD
:10007800F7FF0800F5505DEC05F0D8A03FD0000E62
:100088000001BC6F000EBB6F00D0BBC011F0BCC03C
:1000980012F0000E146E0A0E136E49EC05F011C032
:1000A800BBF012C0BCF0D00E2B6EFF0E2C6E1DC024
:1000B800F6FF1EC0F7FF0800F5502D6E2E6A2B5074
:1000C8002D262C502E222D500001BB272E5000012A
:1000D800BC231D4A1E2A1DC0F6FF1EC0F7FF0800DC
:1000E800F5505DEC05F0D8A009D0CFD707D07ED168
:1000F8001DD00001BA8F1AD06AD118D01DC0F6FFE2
:100108001EC0F7FF1D4A1E2A0800F5CFBDF00001EA
:10011800BD51000AD8B46AD1640AD8B407D00D0A10
:10012800D8B404D0110AD8B4E4D751D10001BABF69
:1001380019D0B5C0D9FFB6C0DAFFDECFB8F0DDCF31
:10014800B9F0020E0001B527000EB6230001B9AFC1
:100158005DD0030E0001BA130001B86DB91FD8B005
:10016800B92B54D0B5C0D9FFB6C0DAFFDECFB8F08E
:10017800DDCFB9F0020E0001B527000EB62346D038
:10018800010E0001BD6F050E0001BD19D8B448D09D
:1001980001D046D00001BD51020D920EF324F66E37
:1001A800FF0EF420F76E0900F5500001B85D090054
:1001B800F5500001B959D8A033D001D031D0000191
:1001C800BD2BE1D72DD0010E0001BD6F040E00013B
:1001D800BD19D8B425D001D023D00001BD51020DDE
:1001E8009C0EF324F66EFF0EF420F76E0900F5500E
:1001F8000001B85D0900F5500001B959D8A010D028
:1002080001D00ED00001BD2BE1D70AD00001BA51B0
:10021800800B000AD8B4B4D7800AD8B4D4D700D099
:100228000001BB510001BC11D8B40BD0BAC02BF0EF
:10023800030E2B16D8B405D00001BB07D8A0BC0705
:1002480000D0800E0001BDBF7F0E2B6E0001BB5198
:100258000001BD5D0001BC51800A2B58D8B00BD0FD
:100268000001BD510001BB5F000E0001BDBFFF0EC4
:100278000001BC5B06D0000E0001BC6F000EBB6F16
:1002880000D00001BAA51FD0BAC02BF0030E2B1660
:10029800D8B404D02D0ED5EC05F000D00001BB5128
:1002A8000001BC11D8B42ED0300ED5EC05F00001F9
:1002B800BB07D8A0BC070001BB510001BC11D8B4D2
:1002C80021D0F2D71FD00001BB510001BC11D8B416
:1002D8000FD0200ED5EC05F00001BB07D8A0BC0755
:1002E8000001BB510001BC11D8B402D0F2D700D034
:1002F800BAC02BF0030E2B16D8B404D02D0ED5ECB3
:1003080005F000D0BDC0B7F05AD04AD00001B751AF
:10031800020D920EF324F66EFF0EF420F76E09001C
:10032800F5CF13F00A00F5CF14F0B8C011F0B9C03A
:1003380012F032EC04F011C018F012C019F0000EDF
:100348001B6E0A0E1A6E8AEC04F01850300F00016A
:10035800BD6F30D0B8C011F0B9C012F00001B7516C
:10036800020D9C0EF324F66EFF0EF420F76E0900C2
:10037800F5CF13F00A00F5CF14F032EC04F0115069
:100388000F0B0001B46F0001B451010DED0EF32401
:10039800F66EFF0EF420F76E0800F5CFBDF00AD018
:1003A8000001BA51800B000AD8B4B0D7800AD8B47B
:1003B800D1D700D00001BD51D5EC05F000D0000127
:1003C800B7070001B729D8B402D0EAD700D01DC0BA
:1003D800F6FF1EC0F7FF1D4A1E2A0800F5CFBDF024
:1003E8000001BD51D8B402D01CD600D01200F29240
:1003F8004150D8B49AD0CE50CFCF01F0026A01C094
:1004080002F0016A0110356E0250366E000ECF6E92
:10041800000ECE6E8AD0000ECF6E000ECE6E9E906D
:10042800900ECD6ECD80000E486E000E316E000E1F
:10043800326E000E336E000E346E010E416E73D0B4
:1004480085D0350E355C210E3658D8A009D01C0E43
:10045800355C250E3658D8B003D0020E416E2AD02E
:1004680005EC06F027D026D071D0A10E355C0F0E12
:100478003658D8A009D0880E355C130E3658D8B037
:1004880003D0030E416E4FD005EC06F04CD04BD094
:100498005DD0910E355C010E3658D8A008D0BC0E40
:1004A800355C020E3658D8B002D0040ED7D705EC0A
:1004B80006F000D0F19C4AD0910E355C010E3658FA
:1004C800D8A02ED0080E355C070E3658D8B028D0E4
:1004D800D8903134316E3234326E3334336E343432
:1004E800346EE90E355C030E3658D8A00CD0010ED8
:1004F8003124316E000E3220326E000E3320336EFE
:10050800000E3420346E4828486E1F0E4864B9D750
:10051800000E3A6E010E396EF298000E416EB1D798
:1005280005EC06F000D0F18C11D04150000AD8B487
:1005380072D7010AD8B485D7030AD8B496D7010A66
:10054800D8B4A7D7070AD8B4B7D700D01200D4ECCC
:1005580004F000EC04F000EC04F053506A18D8B42E
:10056800FAD753C06AF013EC05F01450306E3050CF
:10057800116E126A11BE1206000E146E090E136E69
:1005880049EC05F011C017F012C018F0000E1A6EF1
:10059800050E196EFEEC02F01750200F2F6ECF0ECD
:1005A8001D6EFF0E1E6E4DC01FF0206A4FC021F059
:1005B800226A53C023F0246A50C025F0266A4AC034
:1005C80027F0286A5FC029F02A6A0EEC00F0A40E12
:1005D8001D6EFF0E1E6E30501F6E206A1FBE200655
:1005E8002F50216E226A21BE22060EEC00F0B3D7EE
:1005F8000CEF00F0000E1C6E1AAE07D0196C1A1E14
:10060800D8B01A2A010E1C6E00D018AE07D0176C8D
:10061800181ED8B0182A010E1C1A00D0000E1E6E23
:10062800000E1D6E19501A10D8B421D0010E1B6E81
:1006380005D0D89019361A361B2A00D01ABE02D017
:10064800F8D700D0D8901D361E361950175C1A50AE
:100658001858D8A006D01950175E1A50185A1D807D
:1006680000D0D8901A3219321B2EECD700D01C506B
:10067800D8B405D01D6C1E1ED8B01E2A00D01DC0CF
:1006880017F01EC018F000D0120000EE80F01F0E08
:10069800EE6AE806FDE100EE31F02F0EEE6AE8069C
:1006A800FDE1C00EF66E080EF76E000EF86E01EE54
:1006B80000F010EE54F00900F5CFEEFFE550E150E0
:1006C800FAE14A0EF66E0B0EF76E000EF86E00EEAB
:1006D8009FF010EE15F00900F5CFEEFFE550E15060
:1006E800FAE1B80EF66E0B0EF76E000EF86E00EE1D
:1006F80060F010EE0CF00900F5CFEEFFE550E15088
:10070800FAE1000EF86E0001ABEF02F00600EACF46
:1007180006F0E1CF07F0E2CF08F0D9CF09F0DACF41
:100728000AF0F3CF0BF0F4CF0CF0F6CF0DF0F7CFC3
:100738000EF0F8CF0FF0F5CF10F09EA003D0E8EC44
:1007480005F000D0F2A203D0FBEC01F000D010C0FD
:10075800F5FF0FC0F8FF0EC0F7FF0DC0F6FF0CC085
:10076800F4FF0BC0F3FF0AC0DAFF09C0D9FF08C0C5
:10077800E2FF07C0E1FF06C0EAFF05C0E9FF04C0C9
:10078800FBFF03C0FAFF1100136E000EAC6E000EE3
:10079800AB6E13A002D0AC8800D013A203D0AC8CEF
:1007A800AB8C00D013A402D0AC8E00D013A602D01C
:1007B800AB8802D0AB8A00D013B8AC849E9813AA39
:1007C80002D0AB8600D013AC02D09D8A01D09D9A8E
:1007D8009E9A13AE02D09D8801D09D9811C0AFFF9C
:1007E8001250B06EAC8AAB8E949C948EACB8ACBEF2
:1007F80002D0948C00D01200680E156E000E146E94
:10080800C3EC05F015501524F4EC04F01450F4EC86
:1008180004F09AEC05F0D8801534F4EC04F0010EDD
:10082800B0EC04F0536E010EB0EC04F04F6E010E04
:10083800B0EC04F04D6E010EB0EC04F04B6E010EFE
:10084800B0EC04F04A6E010EB0EC04F0506E000EED
:10085800B0EC04F05F6EBAEC05F01200000E176EF3
:10086800000E166E13501410D8B421D0010E156E58
:1008780005D0D89013361436152A00D014BE02D0ED
:10088800F8D700D0D890163617361350115C14508C
:100898001258D8A006D01350115E1450125A168060
:1008A80000D0D89014321332152EECD700D016C0D1
:1008B80011F017C012F0120043482D0043482000E1
:1008C80043482B00505256004E585400504C590083
:1008D800202D2000202B2000204551002030200012
:1008E80031303000323030002031200020322000FA
:1008F800203320002034200020352000203620001E
:100908002037200020382000203920001A501B10E2
:10091800D8B41DD0010E1C6E05D0D8901A361B36DF
:100928001C2A00D01BBE02D0F8D700D01A50185C81
:100938001B501958D8A005D01A50185E1B50195AC8
:1009480000D0D8901B321A321C2EF0D700D018C015
:1009580018F019C019F01200116E01EC06F0000E23
:10096800126E070E126401D00FD0E2EC05F082A2DD
:1009780003D0D880133604D013501324136E00D03C
:10098800FDEC05F0122AEDD71150D8B403D0CCEC09
:1009980005F003D0F3EC05F000D0135000D012009E
:1009A800B0EC05F0700ED36E0F0EC16E000E926E95
:1009B800010E936E000E946E000E956E000E966EEC
:1009C800F19E7EEC05F031EC05F0A00E116E860E5E
:1009D800126E010E136E000E146EEEEC05F012008E
:1009E800116E000E126E070E126401D011D011AEF6
:1009F80003D001EC06F003D0F8EC05F000D0E2ECEF
:100A080005F0FDEC05F011501124116E122AEBD7F8
:100A180001EC06F0E2EC05F0FDEC05F01200480EE2
:100A2800186EAA0E166EC3EC05F018501824F4ECD4
:100A380004F01650F4EC04F09AEC05F0D880183461
:100A4800F4EC04F0000EB0EC04F0176EBAEC05F00C
:100A580017C014F0156A00D01200F292F19CF288C7
:100A6800000ECF6E000ECE6E9E909D80F28CF28EA0
:100A7800000E3A6E000E396E000E316E000E326EA8
:100A8800000E336E000E346E120011501302F3CFB5
:100A980015F0F4CF16F011501402F3501626125028
:100AA8001302F350162615C011F016C012F000D02C
:100AB8001200136E000E126E3A0E136006D02F0E3F
:100AC800136403D0010E126E00D012C011F0113061
:100AD80000D01200156EC3EC05F015501524F4EC87
:100AE80004F01350F4EC04F01450F4EC04F0BAECF5
:100AF80005F01200480E166EAC0E136E020E146E40
:100B080016506EEC05F0EE0E136E16508DEC05F0D7
:100B18001200146EC3EC05F014501424F4EC04F025
:100B28001350F4EC04F0BAEC05F01200FDEC05F0FB
:100B380001EC06F0E2EC05F0F8EC05F0FDEC05F050
:100B48001200A262E22202C2E0A8906898B03018AF
:100B58007A10385A424A5200000E126E190E116E5F
:100B68003C0EC8EC03F0700ED36E1200FDEC05F0DD
:100B7800F8EC05F0E2EC05F001EC06F0120001ECEF
:100B880006F0E2EC05F0F8EC05F0FDEC05F01200DB
:100B9800F8EC05F0E2EC05F0FDEC05F001EC06F0F0
:100BA8001200116E00D0ACA2FED711C0ADFF12002A
:100BB80000020406101214161616FF019484060E7D
:100BC800E82EFED700D01200000E416EF19CCD90A9
:100BD8009E901200E2EC05F001EC06F01200E2EC47
:100BE80005F0FDEC05F012008292949200D000D03E
:100BF80012008294949400D01200948200D000D005
:0A0C08001200000E416ECD901200A4
:10FDB60000000000000000005F00000007000700D0
:10FDC600147F147F14242A7F2A12231308646236B0
:10FDD600495620500008070300001C22410000413C
:10FDE600221C002A1C7F1C2A08083E080800807076
:10FDF60030000808080808000060600020100804A9
:10FE0600023E5149453E00427F40007249494946FB
:10FE16002141494D331814127F1027454545393C79
:10FE26004A49493141211109073649494936464966
:10FE360049291E0000140000004034000000081488
:10FE46002241141414141400412214080201590901
:10FE5600063E415D594E7C1211127C7F4949493656
:10FE66003E414141227F4141413E7F494949417FCF
:10FE7600090909013E414151737F0808087F004185
:10FE86007F41002040413F017F081422417F4040CE
:10FE960040407F021C027F7F0408107F3E414141A3
:10FEA6003E7F090909063E4151215E7F091929460F
:10FEB600264949493203017F01033F4040403F1F25
:10FEC6002040201F3F4038403F631408146303045A
:10FED6007804036159494D43007F414141020408BA
:10FEE6001020004141417F0402010204404040408D
:10FEF60040000307080020545478407F28444438C3
:10FF06003844444428384444287F3854545418000C
:10FF1600087E090218A4A49C787F0804047800448B
:10FF26007D40002040403D007F1028440000417F76
:10FF360040007C047804787C0804047838444444FF
:10FF460038FC1824241818242418FC7C08040408F7
:10FF5600485454542404043F44243C4040207C1C10
:10FF66002040201C3C4030403C44281028444C9003
:10FF760090907C4464544C4400083641000000775D
:10FF860000000041360800020102040201000A00D6
:10FF96006400E8031027010010000001001020543F
:10FFA600656D7065726174757265203D20256420EB
:10FFB6006465677265657343203D2025642064652A
:10FFC6006772656573460D0A00253032783A25302A
:10FFD60032783A2530327820253032782F25303263
:10FFE600782F253032780030313233343536373891
:0AFFF6003961626364656600000073
:020000040020DA
:08000000FFFFFFFFFFFFFFFF00
:020000040030CA
:0E000000FF08191EFF8281FF0FC00FE00F40A6
:00000001FF
