:040000000CEF00F011
:10000800FACF01F0FBCF02F0E9CF03F0F2ED0EF0EA
:1000180057EF10F016EC13F09FEC12F0000E236E61
:10002800000E226EDBEC12F0880E476E000E486E52
:1000380047C00FF048C010F0AD0E116EFF0E126EE3
:1000480059EC12F0020E376E47C038F048C039F04C
:10005800FF0E3B6E3A68000E3D6E000E3C6E010EC0
:100068003E6E020ECDEC09F047C00FF048C010F00C
:10007800E50E116EFF0E126E59EC12F00A0E376E75
:1000880047C038F048C039F0FF0E3B6E3A68000EA2
:100098003D6E000E3C6E010E3E6E020ECDEC09F078
:1000A8000A0E376E620E386E000E396EFF0E3B6E0A
:1000B8003A68000E3D6E000E3C6E010E3E6E230E39
:1000C800CDEC09F047C00FF048C010F0EB0E116EF0
:1000D800FF0E126E59EC12F00A0E376E47C038F058
:1000E80048C039F0FF0E3B6E3A68000E3D6E000EB8
:1000F8003C6E010E3E6E320ECDEC09F00A0E376EE4
:10010800640E386E000E396EFF0E3B6E3A68000EB4
:100118003D6E000E3C6E010E3E6E460ECDEC09F0B3
:1001280047C00FF048C010F0EF0E116EFF0E126EB0
:1001380059EC12F00A0E376E47C038F048C039F053
:10014800FF0E3B6E3A68000E3D6E000E3C6E010ECF
:100158003E6E500ECDEC09F00A0E376E660E386E04
:10016800000E396EFF0E3B6E3A68000E3D6E000EB3
:100178003C6E010E3E6E640ECDEC09F047C00FF0E8
:1001880048C010F0FD0E116EFF0E126E59EC12F001
:100198000A0E376E47C038F048C039F0FF0E3B6E84
:1001A8003A68000E3D6E000E3C6E010E3E6E780EF3
:1001B800CDEC09F047C00FF048C010F0CD0E116E1D
:1001C800FF0E126E59EC12F0140E376E47C038F05D
:1001D80048C039F0070E3B6E3A68000E3D6E000EBF
:1001E8003C6E010E3E6E1E0ECDEC09F0000E226E26
:1001F8001E0E216E000E246E1B0E236E000E266E40
:100208003C0E256E000E286E120E276E070E2A6E03
:10021800296824EC10F0000E1B6E280E1A6E000ED2
:100228001D6E230E1C6E000E1F6E070E1E6EF80E3E
:10023800216E000E206E62EC06F0000E1B6E3C0E66
:100248001A6E000E1D6E230E1C6E000E1F6E070E1A
:100258001E6EFF0E216EE00E206E62EC06F0000EA0
:100268003A6E500E396E000E3C6E230E3B6E000E39
:100278003E6E070E3D6E070E406EE00E3F6EDDECE3
:1002880010F01E0E376E5F0E386E000E396E070EB8
:100298003B6E3A68000E3D6E000E3C6E020E3E6EDE
:1002A800640ECDEC09F047C00FF048C010F0DE0E28
:1002B800116EFF0E126E59EC12F0320E376E47C0F7
:1002C80038F048C039F0FF0E3B6E3A68000E3D6EBC
:1002D800000E3C6E010E3E6E1E0ECDEC09F0000EB7
:1002E800226E1E0E216E000E246E390E236E000E35
:1002F800266E3C0E256E000E286E120E276EFF0E1F
:100308002A6E296824EC10F0000E3A6E280E396E19
:10031800000E3C6E410E3B6E000E3E6E070E3D6EAB
:10032800F80E406E000E3F6EDDEC10F0000E1B6EF6
:100338003C0E1A6E000E1D6E410E1C6E000E1F6ED6
:10034800070E1E6EFF0E216EE00E206E62EC06F0A8
:10035800000E1B6E500E1A6E000E1D6E410E1C6EA6
:10036800000E1F6E070E1E6E070E216EE00E206E29
:1003780062EC06F03C0E376E5C0E386E000E396E7D
:10038800FF0E3B6E3A68000E3D6E000E3C6E020E8C
:100398003E6E640ECDEC09F047C00FF048C010F077
:1003A800C10E116EFF0E126E59EC12F0500E376E20
:1003B80047C038F048C039F0000E3B6E1F0E3A6E49
:1003C800000E3D6E000E3C6E010E3E6E1E0ECDEC14
:1003D80009F0000E226E1E0E216E000E246E570EBE
:1003E800236E000E266E3C0E256E000E286E120E31
:1003F800276E000E2A6E1F0E296E24EC10F0000ED8
:100408003A6E280E396E000E3C6E5F0E3B6E000E83
:100418003E6E070E3D6EF80E406E000E3F6EDDEC30
:1004280010F0000E1B6E3C0E1A6E000E1D6E5F0E55
:100438001C6E000E1F6E070E1E6EFF0E216EE00E64
:10044800206E62EC06F0000E1B6E500E1A6E000E47
:100458001D6E5F0E1C6E000E1F6E070E1E6E070EC1
:10046800216EE00E206E62EC06F05A0E376EB70E63
:10047800386E000E396E000E3B6E1F0E3A6E000E7F
:100488003D6E000E3C6E020E3E6E640ECDEC09F021
:1004980047C00FF048C010F0D70E116EFF0E126E55
:1004A80059EC12F06E0E376E47C038F048C039F07C
:1004B800F80E3B6E1F0E3A6E000E3D6E000E3C6E3F
:1004C800010E3E6E1E0ECDEC09F0000E226E1E0EC1
:1004D800216E000E246E750E236E000E266E3C0EE5
:1004E800256E000E286E120E276EF80E2A6E1F0E4D
:1004F800296E24EC10F0000E3A6E280E396E000EAC
:100508003C6E7D0E3B6E000E3E6E070E3D6EF80E85
:10051800406E000E3F6EDDEC10F0000E1B6E3C0EC0
:100528001A6E000E1D6E7D0E1C6E000E1F6E070EDD
:100538001E6EFF0E216EE00E206E62EC06F0000EBD
:100548001B6E500E1A6E000E1D6E7D0E1C6E000E78
:100558001F6E070E1E6E070E216EE00E206E62ECF7
:1005680006F0780E376EB40E386E000E396EF80E3F
:100578003B6E1F0E3A6E000E3D6E000E3C6E020E74
:100588003E6E640ECDEC09F01E0E376EBA0E386E54
:10059800000E396E070E3B6E3A68000E3D6E000E77
:1005A8003C6E020E3E6E020ECDEC09F047C00FF015
:1005B80048C010F0F70E116EFF0E126E59EC12F0D3
:1005C800140E376E47C038F048C039F0070E3B6E3E
:1005D8003A68000E3D6E000E3C6E010E3E6E030E34
:1005E800CDEC09F047C00FF048C010F0F30E116EC3
:1005F800FF0E126E59EC12F0500E376E47C038F0ED
:1006080048C039F0000E3B6E1F0E3A6E000E3D6E6C
:10061800000E3C6E010E3E6E030ECDEC09F05A0E34
:10062800376EBD0E386E000E396E000E3B6E1F0E13
:100638003A6E000E3D6E000E3C6E020E3E6E020ECD
:10064800CDEC09F047C00FF048C010F0980E116EBD
:10065800FF0E126E59EC12F08C0E376E47C038F050
:1006680048C039F0FF0E3B6E3A68000E3D6E000E32
:100678003C6E010E3E6E010ECDEC09F0950E376E04
:100688006A0E386E000E396EFF0E3B6E3A68000E29
:100698003D6E000E3C6E010E3E6E060ECDEC09F06E
:1006A800950E376E680E386E000E396EFF0E3B6E73
:1006B8003A68000E3D6E000E3C6E010E3E6E200E36
:1006C800CDEC09F0950E376E700E386E000E396E4F
:1006D800FF0E3B6E3A68000E3D6E000E3C6E010E3A
:1006E8003E6E3A0ECDEC09F0950E376E6E0E386EF2
:1006F800000E396EFF0E3B6E3A68000E3D6E000E1E
:100708003C6E010E3E6E570ECDEC09F0950E376E1D
:100718006C0E386E000E396EFF0E3B6E3A68000E96
:100728003D6E000E3C6E010E3E6E700ECDEC09F073
:1007380012000001A76F0001A7511E0DF350230FEF
:100748000001A86F4150D8A467D0000E3A6E280E59
:10075800396EA8C03BF03C6A000E3E6E070E3D6E37
:10076800000E406E000E3F6EDDEC10F0000E3A6E8B
:100778003C0E396EA8C03BF03C6A000E3E6E070E78
:100788003D6E000E406E000E3F6EDDEC10F0000E68
:100798003A6E500E396EA8C03BF03C6A000E3E6EB1
:1007A800070E3D6E000E406E000E3F6EDDEC10F041
:1007B800000E1B6E280E1A6EA8C01CF01D6A000ED3
:1007C8001F6E070E1E6EF80E216E000E206E62EC74
:1007D80006F0000E1B6E3C0E1A6EA8C01CF01D6AB7
:1007E800000E1F6E070E1E6EFF0E216EE00E206EAD
:1007F80062EC06F0000E1B6E500E1A6EA8C01CF0BC
:100808001D6A000E1F6E070E1E6E070E216EE00E8B
:10081800206E62EC06F000D04104D8A467D0000E28
:100828003A6E280E396EA8C03BF03C6A000E3E6E48
:10083800070E3D6EF80E406E000E3F6EDDEC10F0B8
:10084800000E3A6E3C0E396EA8C03BF03C6A000EB2
:100858003E6E070E3D6E000E406E000E3F6EDDECE4
:1008680010F0000E3A6E500E396EA8C03BF03C6A8C
:10087800000E3E6E070E3D6E000E406E000E3F6E7F
:10088800DDEC10F0000E1B6E280E1A6EA8C01CF0CE
:100898001D6A000E1F6E070E1E6EF80E216E000EEA
:1008A800206E62EC06F0000E1B6E3C0E1A6EA8C09D
:1008B8001CF01D6A000E1F6E070E1E6EFF0E216EC5
:1008C800E00E206E62EC06F0000E1B6E500E1A6EE3
:1008D800A8C01CF01D6A000E1F6E070E1E6E070EC4
:1008E800216EE00E206E62EC06F000D0030E411877
:1008F800D8A467D0000E3A6E280E396EA8C03BF017
:100908003C6A000E3E6E070E3D6E000E406E000EF5
:100918003F6EDDEC10F0000E3A6E3C0E396EA8C04A
:100928003BF03C6A000E3E6E070E3D6EFF0E406EB9
:10093800E00E3F6EDDEC10F0000E3A6E500E396E90
:10094800A8C03BF03C6A000E3E6E070E3D6E000EDE
:10095800406E000E3F6EDDEC10F0000E1B6E280E90
:100968001A6EA8C01CF01D6A000E1F6E070E1E6EC0
:10097800F80E216E000E206E62EC06F0000E1B6E63
:100988003C0E1A6EA8C01CF01D6A000E1F6E070EE2
:100998001E6EFF0E216EE00E206E62EC06F0000E59
:1009A8001B6E500E1A6EA8C01CF01D6A000E1F6E3A
:1009B800070E1E6E070E216EE00E206E62EC06F02A
:1009C80000D0020E4118D8A467D0000E3A6E280E47
:1009D800396EA8C03BF03C6A000E3E6E070E3D6EB5
:1009E800000E406E000E3F6EDDEC10F0000E3A6E09
:1009F8003C0E396EA8C03BF03C6A000E3E6E070EF6
:100A08003D6E000E406E000E3F6EDDEC10F0000EE5
:100A18003A6E500E396EA8C03BF03C6A000E3E6E2E
:100A2800070E3D6E070E406EE00E3F6EDDEC10F0D7
:100A3800000E1B6E280E1A6EA8C01CF01D6A000E50
:100A48001F6E070E1E6EF80E216E000E206E62ECF1
:100A580006F0000E1B6E3C0E1A6EA8C01CF01D6A34
:100A6800000E1F6E070E1E6EFF0E216EE00E206E2A
:100A780062EC06F0000E1B6E500E1A6EA8C01CF039
:100A88001D6A000E1F6E070E1E6E070E216EE00E09
:100A9800206E62EC06F000D01200C8EC12F00FC015
:100AA800AEF010C0AFF0AEC00FF0AFC010F0000E47
:100AB800126E050E116EB4EC12F00FC017F010C0D4
:100AC80018F020EC12F017C01BF018C01CF019C069
:100AD8001DF0000E1E6E800E1F6E440E206ECBECB5
:100AE8000AF01BC042F01CC043F01DC044F042C0D5
:100AF8000FF043C010F044C011F0000E126E200E2B
:100B0800136E400E146EDCEC0DF0D8B002D0010E5E
:100B180001D0000E536E4AC050F0000E80B8010E8E
:100B28004F6E4DC055F0000E80BA010E546E4CC089
:100B380052F04BC051F05350D8A402D04E0E01D001
:100B4800440E6C6E5550D8A402D0300E01D0310E30
:100B5800706E5450D8A402D0300E01D0310E6E6E93
:100B68005050D8A402D0300E01D0310E6A6E4F50CA
:100B7800D8A402D0300E01D0310E686E5250D8A4DD
:100B880002D0300E01D0310E646E5150D8A402D07C
:100B9800300E01D0310E666E00D00A0E376E620E2E
:100BA800386E000E396EFF0E3B6E3A68000E3D6ED1
:100BB800000E3C6E010E3E6E230ECDEC09F00A0EBF
:100BC800376E640E386E000E396EFF0E3B6E3A6853
:100BD800000E3D6E000E3C6E010E3E6E460ECDECD4
:100BE80009F00A0E376E660E386E000E396EFF0E6B
:100BF8003B6E3A68000E3D6E000E3C6E010E3E6E76
:100C0800640ECDEC09F0950E376E6A0E386E000E44
:100C1800396EFF0E3B6E3A68000E3D6E000E3C6E5C
:100C2800010E3E6E060ECDEC09F0950E376E680E7D
:100C3800386E000E396EFF0E3B6E3A68000E3D6E40
:100C4800000E3C6E010E3E6E200ECDEC09F0950EA6
:100C5800376E700E386E000E396EFF0E3B6E3A68B6
:100C6800000E3D6E000E3C6E010E3E6E3A0ECDEC4F
:100C780009F0950E376E6E0E386E000E396EFF0E47
:100C88003B6E3A68000E3D6E000E3C6E010E3E6EE5
:100C9800570ECDEC09F0950E376E6C0E386E000EBF
:100CA800396EFF0E3B6E3A68000E3D6E000E3C6ECC
:100CB800010E3E6E700ECDEC09F012001EC022F03F
:100CC8001FC023F0221E231E224A232A010E22249B
:100CD800286E000E2320296E000E256E010E246E4C
:100CE8001EC022F01FC023F0D89022362336221EC1
:100CF800231E224A232A22C026F023C027F0000EF2
:100D08002B6E000E2A6E1EC02CF01FC02DF01C503A
:100D18001E24166E20C017F021C018F01A5072EC6D
:100D280012F01E5000081C24166E20C017F021C0B7
:100D380018F01A5072EC12F01CC016F020C017F010
:100D480021C018F01A501E2472EC12F01CC016F0C4
:100D580020C017F021C018F01E5000081A2472ECA9
:100D680012F078D029BE0BD02C06D8A02D06020E82
:100D78002626000E272226502826275029222A4ACE
:100D88002B2A020E2426000E252224502826255020
:100D980029221C502C24166E20C017F021C018F0F0
:100DA8001A502A2472EC12F01C502C24166E20C003
:100DB80017F021C018F02A5000081A2472EC12F01B
:100DC8002C5000081C24166E20C017F021C018F003
:100DD8001A502A2472EC12F02C5000081C24166EAB
:100DE80020C017F021C018F02A5000081A2472EC0D
:100DF80012F01C502A24166E20C017F021C018F0DB
:100E08001A502C2472EC12F01C502A24166E20C0A2
:100E180017F021C018F02C5000081A2472EC12F0B8
:100E28002A5000081C24166E20C017F021C018F0A4
:100E38001A502C2472EC12F02A5000081C24166E4A
:100E480020C017F021C018F02C5000081A2472ECAA
:100E580012F000D02C502A5C2B50800A226E2D50A4
:100E6800800A2258D8A07ED712000001AE6FB2D0F7
:100E780041C00FF0106A000E126E0A0E116E91EC4E
:100E88000DF00F50300F5F6E41C00FF0106A000E6A
:100E9800126E0A0E116E35EC0FF00F50300F606EA7
:100EA8001E0E376E5F0E386E000E396E070E3B6EE3
:100EB8003A68000E3D6E000E3C6E020E3E6E640EE9
:100EC800CDEC09F096D041C00FF0106A000E126EFA
:100ED8000A0E116E91EC0DF00F50300F0001B46F37
:100EE80041C00FF0106A000E126E0A0E116E35EC3A
:100EF8000FF00F50300F0001B56F780E376EB40E3B
:100F0800386E000E396EF80E3B6E1F0E3A6E000EEC
:100F18003D6E000E3C6E020E3E6E640ECDEC09F086
:100F280068D041C00FF0106A000E126E0A0E116EE2
:100F380091EC0DF00F50300F0001B76F41C00FF06A
:100F4800106A000E126E0A0E116E35EC0FF00F507B
:100F5800300F0001B86F5A0E376EB70E386E000E9C
:100F6800396E000E3B6E1F0E3A6E000E3D6E000E7F
:100F78003C6E020E3E6E640ECDEC09F03AD041C0D4
:100F88000FF0106A000E126E0A0E116E91EC0DF041
:100F98000F50300F5C6E41C00FF0106A000E126ED9
:100FA8000A0E116E35EC0FF00F50300F5D6E3C0ECF
:100FB800376E5C0E386E000E396EFF0E3B6E3A6867
:100FC800000E3D6E000E3C6E020E3E6E640ECDECC1
:100FD80009F00FD00001AE51000AD8B449D7010A70
:100FE800D8B4CDD7030AD8B49CD7010AD8B46BD7E4
:100FF80000D01200346E800E3460A6D09F0E2C6490
:1010080001D0A2D03250D8A403D0010E326E00D045
:101018001F0E2D6404D07E0E2D6403D000D03F0E29
:101028002D6E000E366E040E366401D08DD0530E30
:101038002D6015D0E00E2D240F6E106AFF0E1022C1
:10104800000E126E050E116EB4EC12F036500F261B
:10105800000E1022BD0E0F24F66EFD0E14D0AD0E3C
:101068002D240F6E106AFF0E1022000E126E050E50
:10107800116EB4EC12F036500F26000E1022BC0E82
:101088000F24F66EFE0E1020F76E0800F5CF33F031
:1010980000D0000E356E060E356401D053D033A053
:1010A80023D03204D8A40CD02C503524166E2EC070
:1010B80017F02FC018F03450362472EC12F03ED0DE
:1010C80035503202F3502C24216E32C022F032C047
:1010D80023F02EC024F02FC025F036503202F350F2
:1010E80034242DEC11F02AD02E50301804E12F5062
:1010F8003118D8B423D03204D8A40CD02C503524BD
:10110800166E30C017F031C018F03450362472EC27
:1011180012F014D035503202F3502C24216E32C014
:1011280022F032C023F030C024F031C025F0365010
:101138003202F35034242DEC11F000D0352AD89027
:101148003332A9D7362A6FD7120025C02DF026C012
:101158002EF02D1E2E1E2D4A2E2A010E2D24336E02
:10116800000E2E20346E000E306E010E2F6E25C03C
:101178002DF026C02EF0D8902D362E362D1E2E1E80
:101188002D4A2E2A2DC031F02EC032F0000E366EB8
:10119800000E356E25C037F026C038F067D034BE53
:1011A8000BD03706D8A03806020E3126000E3222A0
:1011B8003150332632503422354A362A020E2F2631
:1011C800000E30222F5033263050342227A025D04D
:1011D800375000082324166E3750372429242D6EE3
:1011E8002D28176E2BC018F02CC019F0215035246B
:1011F8006BEC0EF0355000082324166E355035245C
:1012080029242D6E2D28176E2BC018F02CC019F02C
:10121800215037246BEC0EF000D027A227D037508E
:1012280000082324166E3750372429242D6E2D28C4
:10123800176E2BC018F02CC019F035500008212467
:101248006BEC0EF0355000082324166E355035240B
:1012580029242D6E2D28176E2BC018F02CC019F0DC
:101268003750000821246BEC0EF000D03750355C65
:101278003650800A2D6E3850800A2D58D8A08FD746
:101288001200010E42EC13F0000E166E960E156E4B
:10129800B4EC10F0110E42EC13F0010E166EF40EC1
:1012A800156EB4EC10F0B10E42EC13F0010E3AECEE
:1012B80013F02C0E3AEC13F02D0E3AEC13F0B20E9C
:1012C80042EC13F0010E3AEC13F02C0E3AEC13F04A
:1012D8002D0E3AEC13F0B30E42EC13F0010E3AEC7B
:1012E80013F02C0E3AEC13F02D0E3AEC13F0010E1D
:1012F8003AEC13F02C0E3AEC13F02D0E3AEC13F0F6
:10130800B40E42EC13F0070E3AEC13F0C00E42ECA8
:1013180013F0A20E3AEC13F0020E3AEC13F0840E1E
:101328003AEC13F0C10E42EC13F0C50E3AEC13F090
:10133800C20E42EC13F00A0E3AEC13F0000E3AEC2F
:1013480013F0C30E42EC13F08A0E3AEC13F02A0E97
:101358003AEC13F0C40E42EC13F08A0E3AEC13F098
:10136800EE0E3AEC13F0C50E42EC13F00E0E3AEC0A
:1013780013F0200E42EC13F0360E42EC13F0C80EB8
:101388003AEC13F03A0E42EC13F0050E3AEC13F077
:1013980012000001A76FA7C0ADF037C0ACF038C08D
:1013A8000FF039C010F001EC12F00FC0A8F010C017
:1013B800A9F0000E0001AB6F000EAA6F64D05B505D
:1013C800D8B434D03E50050D0001AD513F6E406A8F
:1013D800F3503F26F450402240BE28D0405004E14C
:1013E800810E3F5CD8A022D0000E0001AD6F3E50A8
:1013F800070DF3500001AC25030F0001AC6FA00EE0
:101408000001AC6504D0A00E0001AC6F00D0000153
:10141800AA513824D96E0001AB513920DA6E200E5A
:10142800DE18D8B42CD002D02AD000D0ACC02CF012
:101438000001AA513824D96E0001AB513920DA6E67
:10144800DF502D6E3AC02EF03BC02FF03CC030F07C
:101458003DC031F03EC032F00001AD51FEEC07F066
:101468003E50060DF3500001AD250001AD6F800E12
:101478000001AD6504D0800E0001AD6F00D0000101
:10148800AA4BAB2B00D00001A8510001AA5D0001B6
:10149800A9510001AB59D8A092D71200E00E42EC36
:1014A80013F0020E3AEC13F01C0E3AEC13F0070E90
:1014B8003AEC13F0120E3AEC13F0370E3AEC13F044
:1014C800320E3AEC13F0290E3AEC13F02D0E3AECEA
:1014D80013F0290E3AEC13F0250E3AEC13F02B0E0C
:1014E8003AEC13F0390E3AEC13F0000E3AEC13F024
:1014F800010E3AEC13F0030E3AEC13F0100E3AEC2E
:1015080013F0E10E42EC13F0030E3AEC13F01D0E4B
:101518003AEC13F0070E3AEC13F0060E3AEC13F01F
:101528002E0E3AEC13F02C0E3AEC13F0290E3AEC8E
:1015380013F02D0E3AEC13F02E0E3AEC13F02E0E9B
:101548003AEC13F0370E3AEC13F03F0E3AEC13F086
:10155800000E3AEC13F0000E3AEC13F0020E3AECDF
:1015680013F0100E3AEC13F0130E42EC13F0000EC9
:10157800166E0A0E156EB4EC10F0290E42EC13F03C
:10158800000E166E640E156EB4EC10F012001DC03D
:1015980021F0226A236A1C34213601E3228021507B
:1015A800286E2850D8A402D00ED061D020C021F0D7
:1015B800226A236A1F34213601E322802150296ED2
:1015C8002950D8A407D0000E1B6E000E1C6E000E0A
:1015D8001D6E4DD0000E256E000E266E000E276E75
:1015E8002950890F285E1DC029F02050291A800E25
:1015F80029161C8EFF0E1B16FF0E1C16000E1D163C
:101608001F8EFF0E1E16FF0E1F16000E2016180E38
:10161800246E00D0D8902536263627361E501B5CFF
:101628001F501C5820501D58D8A007D01E501B5EB4
:101638001F501C5A20501D5A2580D8901B361C3626
:101648001D36242EE7D700D025C00FF026C010F095
:1016580027C011F028C012F029C013F07DEC0CF05F
:101668000FC01BF010C01CF011C01DF000D01200FC
:10167800216E800E216069D09F0E166401D065D05E
:10168800FF0E1B6EFF0E1C6E175021C01DF01E6A48
:101698001D26000E1E221B501D261C501E221EBE7B
:1016A8000AD01E5004E1800E1D5CD8A004D0215041
:1016B8000008800F176EFF0E1B6EFF0E1C6E185071
:1016C80016C01DF01E6A1D26000E1E221B501D2668
:1016D8001C501E221EBE0BD01E5004E1A00E1D5C25
:1016E800D8A005D016500008A00F186E00D016C05C
:1016F80012F0215017241B6E1B04136E1650182469
:101708001C6E1C04146E215006EC11F01A501F6E4A
:1017180019C020F08380839218C016F01650D8B4F0
:1017280013D001D011D017C021F02150D8B40AD05D
:1017380001D008D01F500CEC13F020500CEC13F023
:101748002106F3D71606EAD783821200000E466EEA
:10175800010E456E8482000E4C6E440E626E00D0FF
:10176800010EBEEC11F0010E9AEC11F0010E52ECD4
:1017780011F0020E76EC11F04D04D8A406D0070E35
:101788000001AF6F020E88EC10F0090E3EEC12F06B
:10179800030E76EC11F0030E3EEC12F0010E76EC1F
:1017A80011F080A810D0020E9AEC11F0070E3EEC52
:1017B80012F0030E9AEC11F0030E3EEC12F0010E3B
:1017C8009AEC11F000D0020EBEEC11F04A04D8A435
:1017D80006D0090E0001AF6F000E88EC10F0080E5D
:1017E8003EEC12F0030EBEEC11F0030E3EEC12F0CC
:1017F800010EBEEC11F080AA11D0020E52EC11F0CD
:10180800070E3EEC12F0030E52EC11F0030E3EEC04
:1018180012F0010E52EC11F001D0A2D7EFEC0FF04C
:1018280012000001AE6F5BD041C00FF0106A000ECD
:10183800126E0A0E116E91EC0DF00F50300F000170
:10184800BA6F41C00FF0106A000E126E0A0E116EC8
:1018580035EC0FF00F50300F0001BB6F1E0E376EC6
:10186800BA0E386E000E396E070E3B6E3A68000EDF
:101878003D6E000E3C6E020E3E6E020ECDEC09F07F
:1018880037D041C00FF0106A000E126E0A0E116EAA
:1018980091EC0DF00F50300F0001BD6F41C00FF0FB
:1018A800106A000E126E0A0E116E35EC0FF00F5012
:1018B800300F0001BE6F5A0E376EBD0E386E000E27
:1018C800396E000E3B6E1F0E3A6E000E3D6E000E16
:1018D8003C6E020E3E6E020ECDEC09F009D00001FE
:1018E800AE51000AD8B4A0D7020AD8B4CAD700D0DB
:1018F80012001250D8B405D00F5010101110D8A4EF
:101908000ED0000E0F6E000E106E000E116E53D02A
:1019180006D0122AD890113210320F3200D0000EA1
:101928000F14146E000E1014156EFE0E1114166EA0
:10193800145015101610D8B40ED0EBD70CD0122AAC
:10194800010E0F26000E1022000E1122D89011321F
:1019580010320F3200D0000E0F14146E000E101447
:10196800156EFF0E1114166E145015101610D8B4FB
:1019780008D0E5D706D01206D8900F3610361136A3
:1019880000D010BE04D0020E1260F5D700D012B0FD
:1019980002D0109E00D0D89012321250111213505B
:1019A800D8B402D0118E00D00FC00FF010C010F0C4
:1019B80011C011F000D01200000E466E000E456EE8
:1019C8008492000E4C6E4E0E626E000E4D6E000E2E
:1019D8004A6E010EBEEC11F0010E9AEC11F0010EE8
:1019E80052EC11F0020E76EC11F0090E3EEC12F0FA
:1019F800030E76EC11F0030E3EEC12F0010E76ECBD
:101A080011F080A810D0020E9AEC11F0070E3EECEF
:101A180012F0030E9AEC11F0030E3EEC12F0010ED8
:101A28009AEC11F000D0020EBEEC11F0090E3EEC5B
:101A380012F0030EBEEC11F0030E3EEC12F0010E94
:101A4800BEEC11F080AA11D0020E52EC11F0070E74
:101A58003EEC12F0030E52EC11F0030E3EEC12F0C5
:101A6800010E52EC11F001D0B0D7EFEC0FF01200DC
:101A78008AEC12F04AEC13F002EC13F0700ED36EFD
:101A8800F19E0EEC00F0C8EC12F00FC0B2F010C0DE
:101A9800B3F0B2C00FF0B3C010F0000E126E050E16
:101AA800116EB4EC12F00FC017F010C018F020EC53
:101AB80012F017C01BF018C01CF019C01DF0000E62
:101AC8001E6E800E1F6E440E206ECBEC0AF01BC0FB
:101AD80042F01CC043F01DC044F042C00FF043C0A8
:101AE80010F044C011F0000E126E200E136E400E5E
:101AF800146EDCEC0DF0D8B002D0010E01D0000E4F
:101B0800536E00D05350D8B403D0AAEC0BF0FAD7D8
:101B1800E0EC0CF0F7D70CEF00F0000E146E12AEEC
:101B280007D0116C121ED8B0122A010E146E00D004
:101B380010AE07D00F6C101ED8B0102A010E141A60
:101B480000D0000E166E000E156E11501210D8B48B
:101B580021D0010E136E05D0D89011361236132AF3
:101B680000D012BE02D0F8D700D0D890153616365D
:101B780011500F5C12501058D8A006D011500F5EAB
:101B88001250105A158000D0D89012321132132EEC
:101B9800ECD700D01450D8B405D0156C161ED8B0A8
:101BA800162A00D015C00FF016C010F000D0120091
:101BB80011AE17D00FC015F010C016F011C017F0F5
:101BC800151E161E171E152A000E16221722000EA5
:101BD80015240F6E000E1620106E800E1720116E41
:101BE80000D014AE17D012C015F013C016F014C0F0
:101BF80017F0151E161E171E152A000E162217227C
:101C0800000E1524126E000E1620136E800E17207B
:101C1800146E00D0000E0F1A000E101A800E111A42
:101C2800000E121A000E131A800E141A12500F5CAE
:101C38001350105814501158D8B002D0D89002D070
:101C4800D88000D01200206E800E20603FD09F0EFA
:101C5800166401D03BD0FF0E1A6EFF0E1B6E175094
:101C680020C01CF01D6A1C26000E1D221A501C26BE
:101C78001B501D221DBE0BD01D5004E1800E1C5CA4
:101C8800D8A005D020500008800F176E00D019503A
:101C98001E6E18C01FF016C012F0205017241A6EBE
:101CA8001A04136E16C014F0205006EC11F083804D
:101CB800839207D01E500CEC13F01F500CEC13F05D
:101CC80000D017061728D8A4F5D783821200206EF3
:101CD800800E20603FD09F0E166401D03BD0FF0ECF
:101CE8001A6EFF0E1B6E175016C01CF01D6A1C26BC
:101CF800000E1D221A501C261B501D221DBE0BD083
:101D08001D5004E1A00E1C5CD8A005D01650000898
:101D1800A00F176E00D019501E6E18C01FF016C005
:101D280012F020C013F0165017241A6E1A04146EFD
:101D3800205006EC11F08380839207D01E500CECE3
:101D480013F01F500CEC13F000D017061728D8A476
:101D5800F5D783821200838E1FEC13F047C00FF073
:101D680048C010F0FD0E116EFF0E126E59EC12F005
:101D78000A0E376E47C038F048C039F0FF0E3B6E88
:101D88003A68000E3D6E000E3C6E010E3E6E780EF7
:101D9800CDEC09F0E9EC12F0839E47C00FF048C083
:101DA80010F0FB0E116EFF0E126E59EC12F00A0EB7
:101DB800376E47C038F048C039F0FF0E3B6E3A68BE
:101DC800000E3D6E000E3C6E010E3E6E780ECDECA0
:101DD80009F057EC13F0E9EC12F012000600EACF14
:101DE80004F0E1CF05F0E2CF06F0D9CF07F0DACF63
:101DF80008F0F3CF09F0F4CF0AF0F6CF0BF0F7CFE5
:101E08000CF0F8CF0DF0F5CF0EF0F2A203D031ECC4
:101E180013F000D0F0A003D028EC13F000D0F0A20B
:101E280003D05BEC13F000D00EC0F5FF0DC0F8FF37
:101E38000CC0F7FF0BC0F6FF0AC0F4FF09C0F3FFA0
:101E480008C0DAFF07C0D9FF06C0E2FF05C0E1FFFE
:101E580004C0EAFF03C0E9FF02C0FBFF01C0FAFFAC
:101E68001100000E146E10AE07D00F6C101ED8B003
:101E7800102A010E146E00D012AE05D0116C121E7D
:101E8800D8B0122A00D011501210D8B41DD0010EAB
:101E9800136E05D0D89011361236132A00D012BE10
:101EA80002D0F8D700D011500F5C12501058D8A0AB
:101EB80005D011500F5E1250105A00D0D89012322F
:101EC8001132132EF0D700D01450D8B405D00F6CAF
:101ED800101ED8B0102A00D00FC00FF010C010F09C
:101EE80000D01200838E47C00FF048C010F0FD0EDE
:101EF800116EFF0E126E59EC12F00A0E376E47C0C3
:101F080038F048C039F0FF0E3B6E3A68000E3D6E5F
:101F1800000E3C6E010E3E6E780ECDEC09F0E9EC39
:101F280012F0839E47C00FF048C010F0FB0E116EF0
:101F3800FF0E126E59EC12F00A0E376E47C038F0D9
:101F480048C039F0FF0E3B6E3A68000E3D6E000E39
:101F58003C6E010E3E6E780ECDEC09F0E9EC12F005
:101F680051EC05F01200116E000EAC6E000EAB6E57
:101F780011A002D0AC8800D011A203D0AC8CAB8CDD
:101F880000D011A402D0AC8E00D011A602D0AB882C
:101F980002D0AB8A00D011B8AC849E9811AA02D0A6
:101FA800AB8600D011AC02D09D8A01D09D9A9E9A32
:101FB80011AE02D09D8801D09D980FC0AFFF105080
:101FC800B06EAC8AAB8E949C948EACB8ACBE02D08A
:101FD800948C00D012004C04D8A431D0010E4B6E62
:101FE800000E4C6E27D04C04D8A405D0000E4C6EC1
:101FF800000E4B6E1FD0010E4B6E010EBEEC11F0A1
:10200800010E9AEC11F0010E52EC11F0010E76EC73
:1020180011F076EC0FF0000EBEEC11F0000E9AEC09
:1020280011F0000E52EC11F0000E76EC11F076EC87
:102038000FF000D04B04D8A402D0D5D700D012009E
:1020480023C016F025C017F029C018F02AC019F0CF
:10205800215027EC0EF0235027242B6E2B04166EEC
:1020680025C017F029C018F02AC019F0215027EC14
:102078000EF023C016F027C017F029C018F02AC0A8
:1020880019F021506BEC0EF023C016F027C017F0A2
:1020980029C018F02AC019F0215025242B6E2B04D2
:1020A8006BEC0EF0120000EE80F0270EEE6AE806E8
:1020B800FDE100EE42F0190EEE6AE806FDE1A20E1F
:1020C800F66E260EF76E000EF86E00EEB4F010EE07
:1020D8000CF00900F5CFEEFFE550E150FAE1EC0E07
:1020E800F66E250EF76E000EF86E00EE5BF010EE41
:1020F80017F00900F5CFEEFFE550E150FAE1000EC8
:10210800F86E00013CEF0DF00001B06F0001AF0563
:102118000001B16F0001B1510001D8B40DD001D058
:102128000BD0B1C041F00001B05115EC0CF0AFEC90
:102138000EF00001B107EED7000E416E0001B0515C
:1021480015EC0CF0AFEC0EF0020E0001B019D8A49B
:1021580003D0000E4D6E03D0000E4A6E00D0120060
:1021680015C00FF016C010F0000E126EFA0E116EA8
:10217800B4EC12F00FC019F010C01AF019C017F023
:102188001AC018F0171E181E174A182AFF0E17240F
:10219800196EFF0E18201A6EB80EB16E19C0D6FF50
:1021A8001A50D76EA192B18000D0A1A2FED7B190EB
:1021B80012003D5000083B24166ED8803D34176E3F
:1021C8003FC018F040C019F039506BEC0EF039C020
:1021D80021F03AC022F03BC023F03CC024F03DC0BF
:1021E80025F03EC026F0000E286E030E276E000E66
:1021F8002A6E000E296E3FC02BF040C02CF0A9ECCF
:1022080008F01200156E2A0E42EC13F0000E3AEC9C
:1022180013F0155057243AEC13F0000E3AEC13F073
:10222800135057243AEC13F02B0E42EC13F0000E27
:102238003AEC13F012505A243AEC13F0000E3AEC30
:1022480013F014505A243AEC13F02C0E42EC13F00D
:102258001200296E29C02AF02B6A0ED021C016F070
:1022680023C017F024C018F025C019F02A506BECD1
:102278000EF02A4A2B2A00D0225029C026F0276ABD
:102288002626000E272226502A5C2B50800A286E0C
:102298002750800A2858D8A0E1D712000001A96F5A
:1022A800030E596EA9C041F059509DEC03F00AD0B5
:1022B800819801D08188819A14D0819801D0818831
:1022C800818A0FD00001A951000AD8B4F1D7010AB8
:1022D800D8B4F0D7030AD8B4F0D7010AD8B4EFD7E6
:1022E80000D012000001A96F020E596EA9C041F07A
:1022F80059509DEC03F00AD0809201D080828094DE
:1023080014D0809201D0808280840FD00001A9511E
:10231800000AD8B4F1D7010AD8B4F0D7030AD8B460
:10232800F0D7010AD8B4EFD700D012000001A96F86
:10233800010E596EA9C041F059509DEC03F00AD026
:10234800849001D08480849414D0849001D08480B7
:1023580084840FD00001A951000AD8B4F1D7010A2A
:10236800D8B4F0D7030AD8B4F0D7010AD8B4EFD755
:1023780000D012000001A96F000E596EA9C041F0EB
:1023880059509DEC03F00AD0819C01D0818C819E2C
:1023980014D0819C01D0818C818E0FD00001A9516D
:1023A800000AD8B4F1D7010AD8B4F0D7030AD8B4D0
:1023B800F0D7010AD8B4EFD700D012002A0E42ECA9
:1023C80013F0000E3AEC13F0000E3AEC13F0000E86
:1023D8003AEC13F07F0E3AEC13F02B0E42EC13F0AC
:1023E800000E3AEC13F0000E3AEC13F0000E3AEC43
:1023F80013F09F0E3AEC13F012000FC013F010C048
:1024080014F003D0134A142A00D013C0D9FF14C003
:10241800DAFFDF50D8A4F6D70FC011F010C012F0C1
:10242800111E121E114A122A135011240F6E145035
:102438001220106E00D01200000E1A6E18AE07D0CF
:10244800176C181ED8B0182A010E1A6E00D017C0C3
:102458000FF018C010F0116A8E0E126E1AC013F029
:102468007DEC0CF00FC017F010C018F011C019F077
:1024780000D012000001B06FB0C0B1F00001B1513E
:102488000001D8B40CD001D00AD0B1C041F05950E5
:1024980039EC07F076EC0FF00001B107EFD7000E2A
:1024A800416E595039EC07F012000FC013F010C0FC
:1024B80014F005D0134A142A114A122A00D011C068
:1024C800F6FF12C0F7FF13C0D9FF14C0DAFF0800E7
:1024D800F5CFDFFFDF50D8A4EDD71200196E800EBC
:1024E800196013D09F0E166401D00FD016C012F0D9
:1024F8001928136E1628146E195006EC11F018508E
:102508003AEC13F017503AEC13F01200310E926EB9
:10251800070E936E000E946E000E956E000E966E6A
:10252800F292F090F092F19CF19AF188F288F0869C
:10253800F088F28E120083828390800EC76E300E70
:10254800C66E45EC09F0E2EC11F052EC0AF0360EDA
:1025580042EC13F0C00E3AEC13F0010E566E120066
:102568000F501102F3CF13F0F4CF14F00F501202F2
:10257800F350142610501102F350142613C00FF014
:1025880014C010F000D01200C28200D0C2B2FED730
:10259800C450126E116AC3501124136E000E12201B
:1025A800146E13C00FF014C010F000D01200000E0B
:1025B800166E800E176EA00E186E22C019F023C07A
:1025C8001AF0000E3CEC0BF01200030ED56EDB0E79
:1025D800D66E0B0ED76EF294D58E00D0F2A4FED72D
:1025E800D59E1200013030003030004400300030F9
:1025F800003000300044003000300000000E106E43
:10260800190E0F6E3C0EB7EC0FF0600ED36E120071
:10261800106E9E96C9CF0FF010C0C9FF00D0C7A09A
:10262800FED712008394000E166E640E156EB4EC7D
:1026380010F083841200F90ECB6E050ECA6E4A0E96
:10264800BB6E3C0EBA6E1200F09045044610D8A43A
:1026580003D0010E4A6E00D01200F29245044610D3
:10266800D8A403D0010E4D6E00D01200116E8392D3
:10267800838011500CEC13F083821200116E839248
:10268800839011500CEC13F083821200010EC26E7D
:102698000E0EC16EA90EC06E120030300030300030
:1026A800303000303000000EBA6E81961200F09281
:0626B800010E4C6E120041
:10FDBC0000000000000000005F00000007000700CA
:10FDCC00147F147F14242A7F2A12231308646236AA
:10FDDC00495620500008070300001C224100004136
:10FDEC00221C002A1C7F1C2A08083E080800807070
:10FDFC0030000808080808000060600020100804A3
:10FE0C00023E5149453E00427F40007249494946F5
:10FE1C002141494D331814127F1027454545393C73
:10FE2C004A49493141211109073649494936464960
:10FE3C0049291E0000140000004034000000081482
:10FE4C0022411414141414004122140802015909FB
:10FE5C00063E415D594E7C1211127C7F4949493650
:10FE6C003E414141227F4141413E7F494949417FC9
:10FE7C00090909013E414151737F0808087F00417F
:10FE8C007F41002040413F017F081422417F4040C8
:10FE9C0040407F021C027F7F0408107F3E4141419D
:10FEAC003E7F090909063E4151215E7F0919294609
:10FEBC00264949493203017F01033F4040403F1F1F
:10FECC002040201F3F4038403F6314081463030454
:10FEDC007804036159494D43007F414141020408B4
:10FEEC001020004141417F04020102044040404087
:10FEFC0040000307080020545478407F28444438BD
:10FF0C003844444428384444287F38545454180006
:10FF1C00087E090218A4A49C787F08040478004485
:10FF2C007D40002040403D007F1028440000417F70
:10FF3C0040007C047804787C0804047838444444F9
:10FF4C0038FC1824241818242418FC7C08040408F1
:10FF5C00485454542404043F44243C4040207C1C0A
:10FF6C002040201C3C4030403C44281028444C90FD
:10FF7C0090907C4464544C44000836410000007757
:10FF8C0000000041360800020102040245575020CF
:10FF9C0045574C54204E5350204E534C54204D52E8
:10FFAC0000454345333330314C2046616C6C203274
:10FFBC00312D5334004E4F5254482F534F55544803
:10FFCC0000454153542F57455354004E2F53204C4A
:10FFDC005400452F57204C54004D6F64653A004631
:10FFEC00523A0046533A00504E53005045570020A9
:04FFFC00002A0000D7
:020000040020DA
:08000000FFFFFFFFFFFFFFFF00
:020000040030CA
:0E000000FF08191EFF8281FF0FC00FE00F40A6
:00000001FF
