:040000000CEF00F011
:10000800FACF03F0FBCF04F0E9CF05F008ED0DF0CF
:10001800C8EF0CF042AE1CD02D0E0001E36F7F0E2E
:100028004214176E186A000E1A6E0A0E196EF8EC52
:100038000BF01750300F0001E46F7F0E42141F6E53
:10004800206A000E226E0A0E216E87EC0CF01BD07F
:100058002B0E0001E36F42C017F043C018F0000EEA
:100068001A6E0A0E196EF8EC0BF01750300F0001DB
:10007800E46F42C01FF043C020F0000E226E0A0E4B
:10008800216E87EC0CF01F50300F0001E56F00D097
:1000980045AE29D02D0E0001E76F44C0F4F045C0ED
:1000A800F5F00001F41FF51FF44BF52BF4C0F6F042
:1000B800F5C0F7F0F6C017F0F7C018F0000E1A6E8A
:1000C8000A0E196EF8EC0BF01750300F0001E86FAC
:1000D800F6C01FF0F7C020F0000E226E0A0E216E47
:1000E80087EC0CF01BD02B0E0001E76F44C017F013
:1000F80045C018F0000E1A6E0A0E196EF8EC0BF0D7
:100108001750300F0001E86F44C01FF045C020F0C1
:10011800000E226E0A0E216E87EC0CF01F50300F75
:100128000001E96F00D05E380F0B300F0001CD6F72
:100138005E500F0B300F0001CE6F5F380F0B300F82
:100148000001D06F5F500F0B300F0001D16F623884
:100158000F0B300F0001D36F62500F0B300F0001EF
:10016800D46F60380F0B300F0001C46F60500F0B55
:10017800300F0001C56F5A380F0B300F0001C76FE1
:100188005A500F0B300F0001C86F6C380F0B300F2F
:100198000001CA6F6C500F0B300F0001CB6F500479
:1001A800D8A40BD0DF0E116E000E126EEC0E136E7B
:1001B800FF0E146E93EC0FF00BD0DF0E116E000ED5
:1001C800126EF00E136EFF0E146E93EC0FF000D04B
:1001D8005CC017F0186A000E1A6E640E196EF8ECFF
:1001E8000BF01750300F0001DB6F000E1A6E0A0E6D
:1001F800196E5CC017F0186AF8EC0BF017C01FF006
:1002080018C020F0000E226E0A0E216E87EC0CF04A
:100218001F50300F0001DC6F5CC01FF0206A000E19
:10022800226E0A0E216E87EC0CF01F50300F000171
:10023800DD6F4AC017F04BC018F0030E1A6EE80EB7
:10024800196EF8EC0BF01750300F0001D66F000E46
:100258001A6E640E196E4AC017F04BC018F0F8EC0D
:100268000BF017C01FF018C020F0000E226E0A0E07
:10027800216E87EC0CF01F50300F0001D76F000E75
:100288001A6E0A0E196E4AC017F04BC018F0F8EC37
:100298000BF017C01FF018C020F0000E226E0A0ED7
:1002A800216E87EC0CF01F50300F0001D86F4AC048
:1002B8001FF04BC020F0000E226E0A0E216E87EC54
:1002C8000CF01F50300F0001D96F170E396EE30E76
:1002D8003A6E000E3B6EFF0E3D6EE00E3C6E000E59
:1002E8003F6E000E3E6E020E406E010EDAEC07F015
:1002F800170E396EE70E3A6E000E3B6EFF0E3D6E1E
:10030800E00E3C6E000E3F6E000E3E6E020E406E1A
:10031800460EDAEC07F0340E396ECD0E3A6E000E4A
:100328003B6E070E3D6E3C68000E3F6E000E3E6E43
:10033800020E406E0F0EDAEC07F0520E396EC40E44
:100348003A6E000E3B6E070E3D6EE00E3C6E000EE0
:100358003F6E000E3E6E020E406E0F0EDAEC07F096
:10036800820E396EDF0E3A6E000E3B6EF80E3D6E51
:10037800000E3C6E000E3F6E000E3E6E010E406E8B
:100388005F0EDAEC07F0960E396EDB0E3A6E000E51
:100398003B6E070E3D6EE00E3C6E000E3F6E000E8B
:1003A8003E6E010E406E0A0EDAEC07F0960E396EBC
:1003B800D60E3A6E000E3B6E070E3D6EE00E3C6E9A
:1003C800000E3F6E000E3E6E010E406E5D0EDAECC2
:1003D80007F012001F0E306E000E316E99D1250EF7
:1003E8003818D8B404D03850F0EC10F091D1000E81
:1003F800376E000E366E000E356E05D035841D4AF8
:100408001E2A01D00BD01DC0F6FF1EC0F7FF080042
:10041800F550300AD8B4F2D701D0F5D71DC0F6FF91
:100428001EC0F7FF0800F55019EC10F0D8A03BD01B
:10043800000E376E000E366E00D036C011F037C091
:1004480012F0000E146E0A0E136EF2EC0FF011C0CB
:1004580036F012C037F0D00E2B6EFF0E2C6E1DC07A
:10046800F6FF1EC0F7FF0800F5502D6E2E6A2B50C0
:100478002D262C502E222D5036262E5037221D4A3E
:100488001E2A1DC0F6FF1EC0F7FF0800F55019EC24
:1004980010F0D8A008D0D1D706D048D11BD0358EBF
:1004A80019D036D117D01DC0F6FF1EC0F7FF1D4A60
:1004B8001E2A0800F5CF38F03850000AD8B436D1D3
:1004C800640AD8B407D00D0AD8B404D0110AD8B435
:1004D800E6D71ED135BE15D030C0D9FF31C0DAFFFE
:1004E800DECF33F0DDCF34F0020E3026000E31229D
:1004F80034AE4ED0030E3512336C341ED8B0342AC5
:1005080047D030C0D9FF31C0DAFFDECF33F0DDCFBE
:1005180034F0020E3026000E31223AD0010E386E29
:10052800050E3818D8B43DD001D03BD03850020D54
:100538001A0EF324F66EFF0EF420F76E0900F5503C
:10054800335C0900F5503458D8A02BD001D029D0FD
:10055800382AE6D726D0010E386E040E3818D8B4DB
:1005680020D001D01ED03850020D240EF324F66E90
:10057800FF0EF420F76E0900F550335C0900F550C2
:100588003458D8A00ED001D00CD0382AE6D709D0DC
:100598003550800B000AD8B4C1D7800AD8B4DBD74D
:1005A80000D036503710D8B40AD035C02BF0030E1F
:1005B8002B16D8B404D03606D8A0370600D0800E43
:1005C80038BE7F0E2B6E3650385C3750800A2B5859
:1005D800D8B007D03850365E000E38BEFF0E375AF6
:1005E80005D0000E376E000E366E00D035A41AD036
:1005F80035C02BF0030E2B16D8B404D02D0EF0EC1A
:1006080010F000D036503710D8B426D0300EF0ECA9
:1006180010F03606D8A0370636503710D8B41CD09C
:10062800F5D71AD036503710D8B40CD0200EF0ECCD
:1006380010F03606D8A0370636503710D8B402D096
:10064800F5D700D035C02BF0030E2B16D8B404D044
:100658002D0EF0EC10F000D038C032F053D045D059
:100668003250020D1A0EF324F66EFF0EF420F76EC8
:100678000900F5CF13F00A00F5CF14F033C011F0DC
:1006880034C012F0E6EC0DF011C018F012C019F0E9
:10069800000E1B6E0A0E1A6E64EC0EF01850300F26
:1006A800386E2CD033C011F034C012F03250020D25
:1006B800240EF324F66EFF0EF420F76E0900F5CF32
:1006C80013F00A00F5CF14F0E6EC0DF011500F0B03
:1006D8002F6E2F50010D9F0EF324F66EFF0EF4209F
:1006E800F76E0800F5CF38F009D03550800B000AB6
:1006F800D8B4B6D7800AD8B4D5D700D03850F0ECE3
:1007080010F000D032063228D8B402D0EED700D08C
:100718001DC0F6FF1EC0F7FF1D4A1E2A0800F5CFB0
:1007280038F03850D8B402D05AD600D01200ABEC0A
:1007380010F0DDEC0FF0000E256E000E246E5AEC62
:1007480010F0000E4E6E010E4F6E4EC011F04FC0ED
:1007580012F04A0E136EFF0E146E93EC0FF0010E9A
:10076800396E4EC03AF04FC03BF0FF0E3D6E3C680C
:10077800000E3F6E000E3E6E010E406E010EDAEC6A
:1007880007F04EC011F04FC012F0CF0E136EFF0EDF
:10079800146E93EC0FF00B0E396E4EC03AF04FC04A
:1007A8003BF0F80E3D6E1F0E3C6E000E3F6E000EC5
:1007B8003E6E010E406E180EDAEC07F0000E1D6E4C
:1007C800280E1C6E000E1F6E170E1E6E000E216E78
:1007D800020E206EFF0E236EE00E226ED0EC04F0A7
:1007E8004EC011F04FC012F0F80E136EFF0E146ECB
:1007F80093EC0FF0170E396E4EC03AF04FC03BF035
:10080800FF0E3D6EE00E3C6E000E3F6E000E3E6E1B
:10081800020E406E2D0EDAEC07F04EC011F04FC0FC
:1008280012F0F20E136EFF0E146E93EC0FF0000E22
:100838001D6E6E0E1C6E000E1F6E170E1E6E000EC5
:10084800216E020E206EFF0E236EE00E226ED0EC9B
:1008580004F0170E396E4EC03AF04FC03BF0FF0E51
:100868003D6EE00E3C6E000E3F6E000E3E6E020EB8
:10087800406E730EDAEC07F04EC011F04FC012F064
:10088800E20E136EFF0E146E93EC0FF0280E396E05
:100898004EC03AF04FC03BF0000E3D6E1F0E3C6E4E
:1008A800000E3F6E000E3E6E010E406E320EDAEC08
:1008B80007F04EC011F04FC012F0E70E136EFF0E96
:1008C800146E93EC0FF0470E396E4EC03AF04FC0DD
:1008D8003BF0F80E3D6E000E3C6E000E3F6E000EB3
:1008E8003E6E010E406E320EDAEC07F04EC011F08B
:1008F8004FC012F0DC0E136EFF0E146E93EC0FF067
:10090800780E396E4EC03AF04FC03BF0000E3D6E87
:100918001F0E3C6E000E3F6E000E3E6E010E406EC6
:10092800550EDAEC07F04EC011F04FC012F0FB0E76
:10093800136EFF0E146E93EC0FF08C0E396E4EC0D2
:100948003AF04FC03BF0FF0E3D6E3C68000E3F6E24
:10095800000E3E6E010E406E0C0EDAEC07F04EC033
:1009680011F04FC012F0F40E136EFF0E146E93ECDC
:100978000FF08C0E396E4EC03AF04FC03BF0FF0EB0
:100988003D6E3C68000E3F6E000E3E6E010E406EDE
:100998005F0EDAEC07F0120020C024F021C025F029
:1009A800241E251E244A252A010E24242A6E000E00
:1009B80025202B6E000E276E010E266E20C024F017
:1009C80021C025F0D89024362536241E251E244A19
:1009D800252A24C028F025C029F0000E2D6E000E0F
:1009E8002C6E20C02EF021C02FF01E502024186E2F
:1009F80022C019F023C01AF01C50C5EC0FF020508B
:100A080000081E24186E22C019F023C01AF01C50CA
:100A1800C5EC0FF01EC018F022C019F023C01AF060
:100A28001C502024C5EC0FF01EC018F022C019F08D
:100A380023C01AF0205000081C24C5EC0FF078D011
:100A48002BBE0BD02E06D8A02F06020E2826000E8D
:100A5800292228502A2629502B222C4A2D2A020ED8
:100A68002626000E272226502A2627502B221E50E3
:100A78002E24186E22C019F023C01AF01C502C2402
:100A8800C5EC0FF01E502E24186E22C019F023C09A
:100A98001AF02C5000081C24C5EC0FF02E5000084A
:100AA8001E24186E22C019F023C01AF01C502C24E2
:100AB800C5EC0FF02E5000081E24186E22C019F045
:100AC80023C01AF02C5000081C24C5EC0FF01E504F
:100AD8002C24186E22C019F023C01AF01C502E24A2
:100AE800C5EC0FF01E502C24186E22C019F023C03C
:100AF8001AF02E5000081C24C5EC0FF02C500008EA
:100B08001E24186E22C019F023C01AF01C502E247F
:100B1800C5EC0FF02C5000081E24186E22C019F0E6
:100B280023C01AF02E5000081C24C5EC0FF000D08A
:100B38002E502C5C2D50800A246E2F50800A245889
:100B4800D8A07ED712008AEC0EF09BEC03F0D8EC0C
:100B580010F0320E5C6E5C5097EC0BF000D0B4ECE9
:100B68000DF062506E18D8B45ED062C06EF075ECAD
:100B78000FF014C042F015C043F042C011F043C05A
:100B880012F0000E146E090E136EF2EC0FF011C085
:100B980017F012C018F0000E1A6E050E196EF8EC58
:100BA8000BF0200E1724446E000E1820456EF9EC49
:100BB8000EF01FC04AF020C04BF02C0E1D6EFF0E29
:100BC8001E6E5EC01FF0206A5FC021F0226A62C0FC
:100BD80023F0246A60C025F0266A5AC027F0286AE4
:100BE8006CC029F02A6AEEEC01F0760E1D6EFF0E3D
:100BF8001E6E42C01FF043C020F044C021F045C023
:100C080022F0EEEC01F08B0E1D6EFF0E1E6E4AC038
:100C18001FF04BC020F05CC021F0226AEEEC01F01E
:100C28000EEC00F000D048044910D8A498D7000E64
:100C3800496E000E486EB00E1D6EFF0E1E6E51C03E
:100C48001FF0206AEEEC01F0F288F19C5D68000E5E
:100C58000101226F000E216F010122BF0AD001019C
:100C6800225120E1150E0101215DD8B01BD001D021
:100C780019D0800E01012125D96E000E0101222113
:100C8800DA6E5150DE18D8A408D021C15DF0000EEC
:100C98000101226F150E216F00D00101214B222B7B
:100CA800DBD700D05D28D8A407D0600E1D6EFF0EDC
:100CB8001E6EEEEC01F053D7A1EC10F0C00E1D6EC5
:100CC800FF0E1E6E5DC01FF0206AEEEC01F047D7E4
:100CD8000CEF00F0F2925250D8B4ABD0CE50CFCF38
:100CE80001F0026A01C002F0016A0110466E02506A
:100CF800476E000ECF6E000ECE6E9BD0000ECF6EEC
:100D0800000ECE6E9E90900ECD6ECD80000E586E69
:100D1800000E0001F86F000EF96F000EFA6F000E5A
:100D2800FB6F010E526E83D095D0350E465C210EB6
:100D38004758D8A009D01C0E465C250E4758D8B095
:100D480003D0020E526E2AD028EC11F027D026D0FC
:100D580081D0A10E465C0F0E4758D8A009D0880E46
:100D6800465C130E4758D8B003D0030E526E5FD0BE
:100D780028EC11F05CD05BD06DD0910E465C010E72
:100D88004758D8A008D0BC0E465C020E4758D8B0C9
:100D980002D0040ED7D728EC11F000D0F19C5AD01D
:100DA800910E465C010E4758D8A03ED0080E465C0E
:100DB800070E4758D8B038D0D8900001F835000150
:100DC800F86F0001F9350001F96F0001FA350001EB
:100DD800FA6F0001FB350001FB6FE90E465C030E5C
:100DE8004758D8A014D0010E0001F8250001F86F6B
:100DF800000E0001F9210001F96F000E0001FA212F
:100E08000001FA6F000E0001FB210001FB6F58285A
:100E1800586E1F0E5864A9D7000E496E010E486E11
:100E2800F298000E526EA1D728EC11F000D0F18C88
:100E380011D05250000AD8B461D7010AD8B475D776
:100E4800030AD8B486D7010AD8B497D7070AD8B402
:100E5800A7D700D01200366E800E3660A6D09F0E3F
:100E68002E6401D0A2D03450D8A403D0010E346E21
:100E780000D01F0E2F6404D07E0E2F6403D000D044
:100E88003F0E2F6E000E386E040E386401D08DD0E0
:100E9800530E2F6015D0E00E2F24116E126AFF0E2C
:100EA8001222000E146E050E136EF2EC0FF038507D
:100EB8001126000E12223F0E1124F66EFD0E14D0DC
:100EC800AD0E2F24116E126AFF0E1222000E146E40
:100ED800050E136EF2EC0FF038501126000E122298
:100EE8003E0E1124F66EFE0E1220F76E0800F5CFA6
:100EF80035F000D0000E376E060E376401D053D09F
:100F080035A023D03404D8A40CD02E503724186E22
:100F180030C019F031C01AF036503824C5EC0FF043
:100F28003ED037503402F3502E24236E34C024F0C0
:100F380034C025F030C026F031C027F038503402D4
:100F4800F3503624B0EC0EF02AD03050321804E1B9
:100F580031503318D8B423D03404D8A40CD02E5030
:100F68003724186E32C019F033C01AF036503824BE
:100F7800C5EC0FF014D037503402F3502E24236EF2
:100F880034C024F034C025F032C026F033C027F036
:100F980038503402F3503624B0EC0EF000D0372A23
:100FA800D8903532A9D7382A6FD712000001ED6FD3
:100FB800EDC0F3F039C0F2F03AC011F03BC012F0C6
:100FC80018EC0FF011C0EEF012C0EFF0000E0001A7
:100FD800F16F000EF06F6AD06F50D8B43AD040501D
:100FE800050D0001F3510001EB6FEC6BF3500001AC
:100FF800EB27F4500001EC230001ECBF2AD00001DC
:10100800EC5105E1810E0001EB5DD8A022D0000E65
:101018000001F36F4050070DF3500001F225030F54
:101028000001F26FA00E0001F26504D0A00E0001CD
:10103800F26F00D00001F0513A24D96E0001F1514D
:101048003B20DA6E200EDE18D8B42CD002D02AD07D
:1010580000D0F2C02EF00001F0513A24D96E000100
:10106800F1513B20DA6EDF502F6E3CC030F03DC0AE
:1010780031F03EC032F03FC033F040C034F00001E0
:10108800F3512FEC07F04050060DF3500001F32503
:101098000001F36F800E0001F36504D0800E00019B
:1010A800F36F00D00001F04BF12B00D00001EE519E
:1010B8000001F05D0001EF510001F159D8A08CD773
:1010C8001200010EE8EC10F0000E186E960E176E66
:1010D80014EC0EF0110EE8EC10F0010E186EF40E80
:1010E800176E14EC0EF0B10EE8EC10F0010EE0EC07
:1010F80010F02C0EE0EC10F02D0EE0EC10F0B20E1B
:10110800E8EC10F0010EE0EC10F02C0EE0EC10F022
:101118002D0EE0EC10F0B30EE8EC10F0010EE0EC50
:1011280010F02C0EE0EC10F02D0EE0EC10F0010E9B
:10113800E0EC10F02C0EE0EC10F02D0EE0EC10F0CE
:10114800B40EE8EC10F0070EE0EC10F0C00EE8EC7E
:1011580010F0A20EE0EC10F0020EE0EC10F0840E9D
:10116800E0EC10F0C10EE8EC10F0C50EE0EC10F069
:10117800C20EE8EC10F00A0EE0EC10F0000EE0EC05
:1011880010F0C30EE8EC10F08A0EE0EC10F02A0E16
:10119800E0EC10F0C40EE8EC10F08A0EE0EC10F071
:1011A800EE0EE0EC10F0C50EE8EC10F00E0EE0ECE0
:1011B80010F0200EE8EC10F0360EE8EC10F0C80E37
:1011C800E0EC10F03A0EE8EC10F0050EE0EC10F050
:1011D80012001FC023F0246A256A1E34233601E357
:1011E80024802350266E2650D8A402D00ED06CD06E
:1011F80022C023F0246A256A2134233601E324809F
:1012080023502B6E2B50D8A407D0000E1D6E000E55
:101218001E6E000E1F6E58D02B507B0F26261FC047
:101228002BF022502B1A800E2B161E8E218EFF0EAD
:101238002016FF0E2116000E2216000E276E000E35
:10124800286E000E296E070E2A6E00D01DA007D04A
:1012580020502726215028222250292200D0D89019
:101268001F321E321D32D8902036213622362A2EC1
:10127800EDD700D0090E2A6E00D01DA007D020504F
:101288002726215028222250292200D0D8901F3208
:101298001E321D32D8902932283227322A2EEDD715
:1012A80000D027C011F028C012F029C013F026C0C2
:1012B80014F02BC015F034EC0BF011C01DF012C067
:1012C8001EF013C01FF000D01200E00EE8EC10F082
:1012D800020EE0EC10F01C0EE0EC10F0070EE0EC53
:1012E80010F0120EE0EC10F0370EE0EC10F0320EB9
:1012F800E0EC10F0290EE0EC10F02D0EE0EC10F010
:10130800290EE0EC10F0250EE0EC10F02B0EE0ECCE
:1013180010F0390EE0EC10F0000EE0EC10F0010EC9
:10132800E0EC10F0030EE0EC10F0100EE0EC10F022
:10133800E10EE8EC10F0030EE0EC10F01D0EE0EC0E
:1013480010F0070EE0EC10F0060EE0EC10F02E0E98
:10135800E0EC10F02C0EE0EC10F0290EE0EC10F0B0
:101368002D0EE0EC10F02E0EE0EC10F02E0EE0EC5E
:1013780010F0370EE0EC10F03F0EE0EC10F0000E2D
:10138800E0EC10F0000EE0EC10F0020EE0EC10F0D3
:10139800100EE0EC10F0130EE8EC10F0000E186ED2
:1013A8000A0E176E14EC0EF0290EE8EC10F0000E81
:1013B800186E640E176E14EC0EF0120013C015F0C0
:1013C800166A176A1234153601E3168015501F6E17
:1013D8001F50D8A402D039D063D0170E156E11C093
:1013E80016F012C017F013C018F01528196E04D0A3
:1013F800D890183217321632192EFAD716501A6E9C
:10140800128EFF0E1116FF0E1216000E1316115033
:101418001B6E12501C6E13501D6E1E6A8E0E1F5EC0
:101428001FAE10D01F50800A8F0FD8B003D00DD038
:1014380037D000D0D8901E321D321C321B321F3ECE
:10144800F9D719D0170E1F6411D0000E116E000EB7
:10145800126E000E136E000E146E22D007D0D890B4
:101468001B361C361D361E361F0600D01F50D8B43A
:1014780002D0F5D700D01A50D8B409D01E1E1D1EB0
:101488001C1E1B6C000E1C221D221E2200D01BC01D
:1014980011F01CC012F01DC013F01EC014F000D0D3
:1014A80012002EC032F0336A346A2D34323601E32A
:1014B80033803250396E3950D8A402D00ED061D062
:1014C80031C032F0336A346A3034323601E3338063
:1014D80032503A6E3A50D8A407D0000E2C6E000E47
:1014E8002D6E000E2E6E4DD0000E366E000E376E2D
:1014F800000E386E3A50890F395E2EC03AF03150DE
:101508003A1A800E3A162D8EFF0E2C16FF0E2D1647
:10151800000E2E16308EFF0E2F16FF0E3016000E00
:101528003116180E356E00D0D89036363736383624
:101538002F502C5C30502D5831502E58D8A007D041
:101548002F502C5E30502D5A31502E5A3680D8905C
:101558002C362D362E36352EE7D700D036C011F072
:1015680037C012F038C013F039C014F03AC015F083
:1015780034EC0BF011C02CF012C02DF013C02EF07B
:1015880000D01200236E800E236069D09F0E18646D
:1015980001D065D0FF0E1D6EFF0E1E6E195023C0C0
:1015A8001FF0206A1F26000E20221D501F261E50E5
:1015B800202220BE0AD0205004E1800E1F5CD8A053
:1015C80004D023500008800F196EFF0E1D6EFF0E09
:1015D8001E6E1A5018C01FF0206A1F26000E202207
:1015E8001D501F261E50202220BE0BD0205004E183
:1015F800A00E1F5CD8A005D018500008A00F1A6EC6
:1016080000D018C014F0235019241D6E1D04156E47
:1016180018501A241E6E1E04166E23503DEC0EF050
:101628001C50216E1BC022F0838083921AC018F0D0
:101638001850D8B413D001D011D019C023F02350BA
:10164800D8B40AD001D008D021508DEC10F0225027
:101658008DEC10F02306F3D71806EAD78382120020
:101668001450D8B405D0115012101310D8A40ED0AD
:10167800000E116E000E126E000E136E53D006D0BF
:10168800142AD89013321232113200D0000E1114DD
:10169800166E000E1214176EFE0E1314186E1650E6
:1016A80017101810D8B40ED0EBD70CD0142A010E8E
:1016B8001126000E1222000E1322D8901332123275
:1016C800113200D0000E1114166E000E1214176E8F
:1016D800FF0E1314186E165017101810D8B408D02F
:1016E800E5D706D01406D89011361236133600D036
:1016F80012BE04D0020E1460F5D700D014B002D088
:10170800129E00D0D8901432145013121550D8B429
:1017180002D0138E00D011C011F012C012F013C005
:1017280013F000D012000001EE6F040ECB6E070E0E
:10173800CA6E000E206E800E216E400E226E0001D1
:10174800EE5106EC10F019C01DF01AC01EF01BC0B7
:101758001FF0EDEC08F01DC02CF01EC02DF01FC0CE
:101768002EF0000E2F6EA00E306E410E316E55EC2D
:101778000AF02CC0EBF02DC0ECF02EC0EDF0EBC061
:1017880011F0ECC012F0EDC013F0E2EC09F011C05A
:10179800EFF012C0F0F00001EE513B6E3C6A000120
:1017A800EF513B5C3C50800A3D6E0001F051800ACD
:1017B8003D58D8B004D00001EF4BF02B00D0EFC05B
:1017C8003BF0030E3B163B38F00B0C09BD6EEFC027
:1017D8003BF0F0C03CF03C343C323B323C343C32D1
:1017E8003B323B50BE6E1200000E1C6E1AAE07D084
:1017F800196C1A1ED8B01A2A010E1C6E00D018AE29
:1018080007D0176C181ED8B0182A010E1C1A00D061
:10181800000E1E6E000E1D6E19501A10D8B421D07D
:10182800010E1B6E05D0D89019361A361B2A00D027
:101838001ABE02D0F8D700D0D8901D361E361950DF
:10184800175C1A501858D8A006D01950175E1A50AD
:10185800185A1D8000D0D8901A3219321B2EECD796
:1018680000D01C50D8B405D01D6C1E1ED8B01E2A3E
:1018780000D01DC017F01EC018F000D01200226E54
:10188800800E22603FD09F0E186401D03BD0FF0E1F
:101898001C6EFF0E1D6E195018C01EF01F6A1E2602
:1018A800000E1F221C501E261D501F221FBE0BD0CB
:1018B8001F5004E1A00E1E5CD8A005D018500008E7
:1018C800A00F196E00D01B50206E1AC021F018C04E
:1018D80014F022C015F0185019241C6E1C04166E42
:1018E80022503DEC0EF08380839207D020508DEC7F
:1018F80010F021508DEC10F000D019061928D8A44A
:10190800F5D783821200000E246E20AE07D01F6C1C
:10191800201ED8B0202A010E246E00D022AE05D099
:10192800216C221ED8B0222A00D021502210D8B40F
:101938001DD0010E236E05D0D89021362236232AD9
:1019480000D022BE02D0F8D700D021501F5C225010
:101958002058D8A005D021501F5E2250205A00D010
:10196800D89022322132232EF0D700D02450D8B478
:1019780005D01F6C201ED8B0202A00D01FC01FF031
:1019880020C020F000D0120000EEF8F0080EEE6A39
:10199800E806FDE100EE42F02B0EEE6AE806FDE1F6
:1019A800540EF66E200EF76E000EF86E01EE00F083
:1019B80010EE21F00900F5CFEEFFE550E150FAE115
:1019C800FC0EF66E1A0EF76E000EF86E00EE80F042
:1019D80010EE6BF00900F5CFEEFFE550E150FAE1AB
:1019E800580EF66E220EF76E000EF86E0900F5CF4F
:1019F8006DF00900F5CF6EF00900F5CF6FF0000E1D
:101A0800F86E0001A7EF05F00600EACF06F0E1CF77
:101A180007F0E2CF08F0D9CF09F0DACF0AF0F3CF18
:101A28000BF0F4CF0CF0F6CF0DF0F7CF0EF0F8CFA7
:101A38000FF0F5CF10F09EA003D0FDEC10F000D011
:101A4800F2A203D06EEC06F000D010C0F5FF0FC074
:101A5800F8FF0EC0F7FF0DC0F6FF0CC0F4FF0BC077
:101A6800F3FF0AC0DAFF09C0D9FF08C0E2FF07C0C8
:101A7800E1FF06C0EAFF05C0E9FF04C0FBFF03C0A1
:101A8800FAFF1100136E000EAC6E000EAB6E13A0C1
:101A980002D0AC8800D013A203D0AC8CAB8C00D0A1
:101AA80013A402D0AC8E00D013A602D0AB8802D00B
:101AB800AB8A00D013B8AC849E9813AA02D0AB8628
:101AC80000D013AC02D09D8A01D09D9A9E9A13AE85
:101AD80002D09D8801D09D9811C0AFFF1250B06E02
:101AE800AC8AAB8E949C948EACB8ACBE02D0948C6D
:101AF80000D01200A262E22202C2E0A8906898B068
:101B080030187A10385A424A5230303A30303A3027
:101B1800300030303A30303A30300030312F303108
:101B28002F30300030303A30303A303000303735EE
:101B380046004F464600300030302F30302F3030CE
:101B48000030303A30303A30300030303030003009
:101B58003030004F4646002B3235002B3737000017
:101B6800680E156E000E146EC6EC10F01550152494
:101B780056EC0FF0145056EC0FF082EC10F0D880B1
:101B8800153456EC0FF0010ED5EC0EF0626E010E16
:101B9800D5EC0EF05F6E010ED5EC0EF05E6E010E08
:101BA800D5EC0EF05B6E010ED5EC0EF05A6E010E00
:101BB800D5EC0EF0606E000ED5EC0EF06C6EBDEC40
:101BC80010F01200000E176E000E166E135014104F
:101BD800D8B421D0010E156E05D0D890133614361E
:101BE800152A00D014BE02D0F8D700D0D8901636E7
:101BF80017361350115C14501258D8A006D0135041
:101C0800115E1450125A168000D0D8901432133234
:101C1800152EECD700D016C011F017C012F0120024
:101C280017C011F018C012F0000E146EFA0E136EE1
:101C3800F2EC0FF011C01BF012C01CF01BC019F021
:101C48001CC01AF0191E1A1E194A1A2AFF0E192446
:101C58001B6EFF0E1A201C6EB80EB16E1BC0B2FFB1
:101C68001C50B36EA192B18000D0A1A2FED7B19052
:101C78001200176E2A0EE8EC10F0000EE0EC10F0DF
:101C880017505924E0EC10F0000EE0EC10F015505D
:101C98005924E0EC10F02B0EE8EC10F0000EE0EC0C
:101CA80010F014506124E0EC10F0000EE0EC10F09D
:101CB80016506124E0EC10F02C0EE8EC10F0120045
:101CC8001A501B10D8B41DD0010E1C6E05D0D89028
:101CD8001A361B361C2A00D01BBE02D0F8D700D0FB
:101CE8001A50185C1B501958D8A005D01A50185E05
:101CF8001B50195A00D0D8901B321A321C2EF0D71C
:101D080000D018C018F019C019F0120097EC10F0A4
:101D1800700ED36E0F0EC16E000E926E010E936E92
:101D2800010E946E000E956E000E506EF19E000E20
:101D3800B26E030EB16EA00E116E860E126E010EFB
:101D4800136E000E146E08EC11F04BEC10F0ACECB6
:101D58000FF003EC11F012002B6E2BC02CF02D6A43
:101D68000ED023C018F025C019F026C01AF027C0DD
:101D78001BF02C5043EC0CF02C4A2D2A00D0245098
:101D88002BC028F0296A2826000E292228502C5C0E
:101D98002D50800A2A6E2950800A2A58D8A0E1D7E7
:101DA8001200116E24EC11F0000E126E070E126470
:101DB80001D00FD0F7EC10F082A203D0D8801336F0
:101DC80004D013501324136E00D020EC11F0122A03
:101DD800EDD71150D8B403D0CFEC10F003D012ECEB
:101DE80011F000D0135000D01200B2CF17F0186ACB
:101DF800000E1A6E020E196EF8EC0BF017C021F0E7
:101E080018C022F0000EB26E21C011F022C012F0EC
:101E1800000E146E3C0E136EF2EC0FF011C01FF0A2
:101E280012C020F000D0120011C015F012C016F038
:101E380003D0154A162A00D015C0D9FF16C0DAFFFC
:101E4800DF50D8A4F6D711C013F012C014F0131E37
:101E5800141E134A142A15501324116E16501420F8
:101E6800126E00D012002A0EE8EC10F0000EE0EC22
:101E780010F0000EE0EC10F0000EE0EC10F07F0E19
:101E8800E0EC10F02B0EE8EC10F0000EE0EC10F097
:101E9800000EE0EC10F0000EE0EC10F09F0EE0EC0D
:101EA80010F01200116E000E126E070E126401D0AF
:101EB80011D011AE03D024EC11F003D017EC11F0BF
:101EC80000D0F7EC10F020EC11F011501124116E35
:101ED800122AEBD724EC11F0F7EC10F020EC11F0FB
:101EE8001200480E186EAA0E166EC6EC10F01850A6
:101EF800182456EC0FF0165056EC0FF082EC10F048
:101F0800D880183456EC0FF0000ED5EC0EF0176E92
:101F1800BDEC10F017C014F0156A00D0120011C003
:101F280015F012C016F005D0154A162A134A142ABD
:101F380000D013C0F6FF14C0F7FF15C0D9FF16C0B4
:101F4800DAFF0800F5CFDFFFDF50D8A4EDD7120085
:101F5800F292F19CF288000ECF6E000ECE6E9E902B
:101F68009D80F28CF28E000E496E000E486E000EB7
:101F78000001F86F000EF96F000EFA6F000EFB6F8C
:101F880012001B6E800E1B6013D09F0E186401D0C8
:101F98000FD018C014F01B28156E1828166E1B5089
:101FA8003DEC0EF01A50E0EC10F01950E0EC10F097
:101FB800120083828390800EC76E300EC66E65EC69
:101FC80008F037EC0FF069EC09F0360EE8EC10F089
:101FD800C00EE0EC10F0010E536E12001150130207
:101FE800F3CF15F0F4CF16F011501402F350162663
:101FF80012501302F350162615C011F016C012F035
:1020080000D012001C6E1C50116E126A136A8E0EDC
:10201800146E000E156E34EC0BF011C019F012C0DE
:102028001AF013C01BF000D01200136E000E126ECF
:102038003A0E136006D02F0E136403D0010E126EF1
:1020480000D012C011F0113000D0120020454345D5
:10205800333330314C205370273231204C31320029
:102068000000000000000000000000000000156EE5
:10207800C6EC10F01550152456EC0FF0135056EC22
:102088000FF0145056EC0FF0BDEC10F01200480E93
:10209800166EAC0E136E020E146E16503BEC10F05A
:1020A800EE0E136E165068EC10F01200000E186E4B
:1020B800800E196EA00E1A6E24C01BF025C01CF0ED
:1020C800000EC6EC0AF01200146EC6EC10F01450A4
:1020D800142456EC0FF0135056EC0FF0BDEC10F032
:1020E8001200030ED56EDB0ED66E0B0ED76EF29471
:1020F800D58E00D0F2A4FED7D59E120020EC11F0A8
:1021080024EC11F0F7EC10F017EC11F020EC11F0C2
:102118001200126E9E96C9CF11F012C0C9FF00D0EE
:10212800C7A0FED71200000E126E190E116E3C0EDB
:1021380046EC0DF0700ED36E1200B4EC10F00DECFE
:1021480011F01CEC11F05C5097EC0BF0120083942A
:10215800000E186E640E176E14EC0EF083841200D5
:10216800F90ECB6E050ECA6E4A0EBB6E3C0EBA6EE9
:10217800120020EC11F017EC11F0F7EC10F024EC41
:1021880011F0120024EC11F0F7EC10F017EC11F03C
:1021980020EC11F0120017EC11F0F7EC10F020EC25
:1021A80011F024EC11F01200010E506E5C5097EC07
:1021B8000BF0808A84841200136E839283801350FC
:1021C8008DEC10F083821200136E8392839013506B
:1021D8008DEC10F083821200116E00D0ACA2FED7F5
:1021E80011C0ADFF12009484060EE82EFED700D071
:1021F8001200000E526EF19CCD909E901200000EBF
:10220800506E809A84941200F7EC10F024EC11F0D0
:10221800120075EC10F075EC10F01200F7EC10F0ED
:1022280020EC11F012008292949200D000D012009B
:10223800000EBA6E819612008294949400D0120017
:10224800948200D000D01200000E526ECD90120081
:042258004BFF010037
:10FD3E0000000000000000005F0000000700070048
:10FD4E00147F147F14242A7F2A1223130864623628
:10FD5E00495620500008070300001C2241000041B4
:10FD6E00221C002A1C7F1C2A08083E0808008070EE
:10FD7E003000080808080800006060002010080421
:10FD8E00023E5149453E00427F4000724949494674
:10FD9E002141494D331814127F1027454545393CF2
:10FDAE004A494931412111090736494949364649DF
:10FDBE0049291E0000140000004034000000081401
:10FDCE00224114141414140041221408020159097A
:10FDDE00063E415D594E7C1211127C7F49494936CF
:10FDEE003E414141227F4141413E7F494949417F48
:10FDFE00090909013E414151737F0808087F0041FE
:10FE0E007F41002040413F017F081422417F404046
:10FE1E0040407F021C027F7F0408107F3E4141411B
:10FE2E003E7F090909063E4151215E7F0919294687
:10FE3E00264949493203017F01033F4040403F1F9D
:10FE4E002040201F3F4038403F63140814630304D2
:10FE5E007804036159494D43007F41414102040832
:10FE6E001020004141417F04020102044040404005
:10FE7E0040000307080020545478407F284444383B
:10FE8E003844444428384444287F38545454180085
:10FE9E00087E090218A4A49C787F08040478004404
:10FEAE007D40002040403D007F1028440000417FEF
:10FEBE0040007C047804787C080404783844444478
:10FECE0038FC1824241818242418FC7C0804040870
:10FEDE00485454542404043F44243C4040207C1C89
:10FEEE002040201C3C4030403C44281028444C907C
:10FEFE0090907C4464544C440008364100000077D6
:10FF0E0000000041360800020102040201000A004E
:10FF1E006400E803102701001000000100102530D6
:10FF2E0032783A253032783A253032782025303200
:10FF3E00782F253032782F253032780045434533DF
:10FF4E003330314C20537072696E672032312D532D
:10FF5E00310043616E6E6F742066696E6420627547
:10FF6E0074746F6E200D0A002054656D70203D2054
:10FF7E0025642043203D2025642046200052504D0C
:10FF8E00203D20256420206463203D2025640D0A39
:10FF9E000030313233343536373839616263646557
:10FFAE0066004E45435F436F6465203D2025780D06
:10FFBE000A00627574746F6E203D202564200D0A50
:10FFCE000054656D70657261747572653A0020201B
:10FFDE0046414E0054696D650044617465004F4E94
:10FFEE0020004F46460052504D00432F0044430020
:02FFFE00000001
:020000040020DA
:08000000FFFFFFFFFFFFFFFF00
:020000040030CA
:0E000000FF08191EFF8281FF0FC00FE00F40A6
:00000001FF
