:040000000CEF00F011
:10000800FACF03F0FBCF04F0E9CF05F0E1ED04F0FF
:100018001FEF05F0F2924D50D8B49AD0CE50CFCF02
:1000280001F0026A01C002F0016A0110416E02503B
:10003800426E000ECF6E000ECE6E8AD0000ECF6ECE
:10004800000ECE6E9E90900ECD6ECD80000E546E3A
:10005800000E3D6E000E3E6E000E3F6E000E406EAE
:10006800010E4D6E73D085D0350E415C210E42587D
:10007800D8A009D01C0E415C250E4258D8B003D038
:10008800020E4D6E2AD0DEEC08F027D026D071D0B3
:10009800A10E415C0F0E4258D8A009D0880E415CD1
:1000A800130E4258D8B003D0030E4D6E4FD0DEEC7D
:1000B80008F04CD04BD05DD0910E415C010E4258F7
:1000C800D8A008D0BC0E415C020E4258D8B002D06D
:1000D800040ED7D7DEEC08F000D0F19C4AD0910E80
:1000E800415C010E4258D8A02ED0080E415C070E84
:1000F8004258D8B028D0D8903D343D6E3E343E6E3C
:100108003F343F6E4034406EE90E415C030E425866
:10011800D8A00CD0010E3D243D6E000E3E203E6E50
:10012800000E3F203F6E000E4020406E5428546E53
:100138001F0E5464B9D7000E466E010E456EF29834
:10014800000E4D6EB1D7DEEC08F000D0F18C11D066
:100158004D50000AD8B472D7010AD8B485D7030A1B
:10016800D8B496D7010AD8B4A7D7070AD8B4B7D74E
:1001780000D01200366E800E3660A6D09F0E2E6418
:1001880001D0A2D03450D8A403D0010E346E00D0D0
:100198001F0E2F6404D07E0E2F6403D000D03F0EB4
:1001A8002F6E000E386E040E386401D08DD0530EB9
:1001B8002F6015D0E00E2F24116E126AFF0E122246
:1001C800000E146E050E136EFFEC07F03850112662
:1001D800000E1222D30E1124F66EFD0E14D0AD0EB1
:1001E8002F24116E126AFF0E1222000E146E050ED5
:1001F800136EFFEC07F038501126000E1222D20EB3
:100208001124F66EFE0E1220F76E0800F5CF35F0B9
:1002180000D0000E376E060E376401D053D035A0DB
:1002280023D03404D8A40CD02E503724186E30C0F4
:1002380019F031C01AF036503824D2EC07F03ED00D
:1002480037503402F3502E24236E34C024F034C0C7
:1002580025F030C026F031C027F038503402F35072
:10026800362496EC06F02AD03050321804E131508A
:100278003318D8B423D03404D8A40CD02E50372443
:10028800186E32C019F033C01AF036503824D2EC48
:1002980007F014D037503402F3502E24236E34C0A4
:1002A80024F034C025F032C026F033C027F038508F
:1002B8003402F350362496EC06F000D0372AD89052
:1002C8003532A9D7382A6FD712001F0E246E000EB8
:1002D800256E8BD0250E2A18D8B404D02A50ADEC40
:1002E80008F083D0000E266E04D08DD015D07DD0B6
:1002F80013D01DC0F6FF1EC0F7FF1D4A1E2A0800B6
:10030800F5CF2AF02A50000AD8B47DD0640AD8B4B0
:1003180003D00D0AD8A469D024C0D9FF25C0DAFFBC
:10032800DECF28F0DDCF29F0020E2426000E25228C
:1003380029AE07D0030E2612286C291ED8B0292A08
:1003480000D0010E2A6E050E2A18D8B416D001D096
:1003580014D02A50020DAE0EF324F66EFF0EF420D0
:10036800F76E0900F550285C0900F5502958D8A007
:1003780004D001D002D02A2AE6D726C023F0030EE3
:100388002316D8B404D02D0EADEC08F000D02AC046
:1003980027F025D02750020DAE0EF324F66EFF0E7F
:1003A800F420F76E0900F5CF13F00A00F5CF14F02A
:1003B80028C011F029C012F0C8EC05F011C018F0DF
:1003C80012C019F0000E1B6E0A0E1A6E70EC06F0C1
:1003D8001850300F2A6E2A50ADEC08F000D02706CE
:1003E8002728D8B402D0D6D700D01DC0F6FF1EC02B
:1003F800F7FF1D4A1E2A0800F5CF2AF02A50D8B464
:1004080002D068D700D012000001F06FF0C0F6F0FB
:10041800E8C0F5F0E9C011F0EAC012F026EC07F0E8
:1004280011C0F1F012C0F2F0000E0001F46F000EDE
:10043800F36F6BD06D50D8B438D00001EF51050D73
:100448000001F651396E3A6AF3503926F4503A22CF
:100458003ABE2BD03A5004E1810E395CD8A025D0A1
:10046800000E0001F66F0001EF51070DF350000177
:10047800F525030F0001F56FA00E0001F56504D006
:10048800A00E0001F56F00D00001F3510001E9252D
:10049800D96E0001F4510001EA21DA6E200EDE184F
:1004A800D8B42FD002D02DD000D0F5C02EF0000146
:1004B800F3510001E925D96E0001F4510001EA2148
:1004C800DA6EDF502F6EEBC030F0ECC031F0EDC0CB
:1004D80032F0EEC033F0EFC034F00001F651BEEC5C
:1004E80000F00001EF51060DF3500001F625000160
:1004F800F66F800E0001F66504D0800E0001F66FDD
:1005080000D00001F34BF42B00D00001F1510001A1
:10051800F35D0001F2510001F459D8A08BD7120005
:10052800010EA5EC08F0000E186E960E176E20EC62
:1005380006F0110EA5EC08F0010E186EF40E176EF9
:1005480020EC06F0B10EA5EC08F0010E9DEC08F0C9
:100558002C0E9DEC08F02D0E9DEC08F0B20EA5ECCB
:1005680008F0010E9DEC08F02C0E9DEC08F02D0E05
:100578009DEC08F0B30EA5EC08F0010E9DEC08F018
:100588002C0E9DEC08F02D0E9DEC08F0010E9DEC54
:1005980008F02C0E9DEC08F02D0E9DEC08F0B40E22
:1005A800A5EC08F0070E9DEC08F0C00EA5EC08F0CD
:1005B800A20E9DEC08F0020E9DEC08F0840E9DEC56
:1005C80008F0C10EA5EC08F0C50E9DEC08F0C20EAF
:1005D800A5EC08F00A0E9DEC08F0000E9DEC08F062
:1005E800C30EA5EC08F08A0E9DEC08F02A0E9DECCF
:1005F80008F0C40EA5EC08F08A0E9DEC08F0EE0E8B
:100608009DEC08F0C50EA5EC08F00E0E9DEC08F068
:10061800200EA5EC08F0360EA5EC08F0C80E9DECEF
:1006280008F03A0EA5EC08F0050E9DEC08F0120053
:10063800E00EA5EC08F0020E9DEC08F01C0E9DECF7
:1006480008F0070E9DEC08F0120E9DEC08F0370E2E
:100658009DEC08F0320E9DEC08F0290E9DEC08F098
:100668002D0E9DEC08F0290E9DEC08F0250E9DEC52
:1006780008F02B0E9DEC08F0390E9DEC08F0000EEA
:100688009DEC08F0010E9DEC08F0030E9DEC08F0BF
:10069800100E9DEC08F0E10EA5EC08F0030E9DECA1
:1006A80008F01D0E9DEC08F0070E9DEC08F0060EF4
:1006B8009DEC08F02E0E9DEC08F02C0E9DEC08F039
:1006C800290E9DEC08F02D0E9DEC08F02E0E9DECE9
:1006D80008F02E0E9DEC08F0370E9DEC08F03F0E4A
:1006E8009DEC08F0000E9DEC08F0000E9DEC08F063
:1006F800020E9DEC08F0100E9DEC08F0130EA5EC10
:1007080008F0000E186E0A0E176E20EC06F0290E7F
:10071800A5EC08F0000E186E640E176E20EC06F0BB
:100728001200236E800E236069D09F0E186401D0DA
:1007380065D0FF0E1D6EFF0E1E6E195023C01FF0F0
:10074800206A1F26000E20221D501F261E50202220
:1007580020BE0AD0205004E1800E1F5CD8A004D02F
:1007680023500008800F196EFF0E1D6EFF0E1E6EBF
:100778001A5018C01FF0206A1F26000E20221D5094
:100788001F261E50202220BE0BD0205004E1A00EB0
:100798001F5CD8A005D018500008A00F1A6E00D012
:1007A80018C014F0235019241D6E1D04156E18501E
:1007B8001A241E6E1E04166E235049EC06F01C50B7
:1007C800216E1BC022F0838083921AC018F0185043
:1007D800D8B413D001D011D019C023F02350D8B405
:1007E8000AD001D008D021506FEC08F022506FECED
:1007F80008F02306F3D71806EAD78382120079ECAB
:1008080008F0EAEC07F0000E256E000E246E32ECBC
:1008180008F0C90E476E000E486E47C011F048C078
:1008280012F0E30E136EFF0E146EA1EC07F0020E29
:100838000001E86F47C0E9F048C0EAF0FF0E000188
:10084800EC6FEB69000E0001EE6F000EED6F010E0C
:100858000001EF6F020E08EC02F047C011F048C02B
:1008680012F0F70E136EFF0E146EA1EC07F00A0ECD
:100878000001E86F47C0E9F048C0EAF0FF0E000148
:10088800EC6FEB69000E0001EE6F000EED6F010ECC
:100898000001EF6F320E08EC02F01200000E1C6E21
:1008A8001AAE07D0196C1A1ED8B01A2A010E1C6E7F
:1008B80000D018AE07D0176C181ED8B0182A010E31
:1008C8001C1A00D0000E1E6E000E1D6E19501A1054
:1008D800D8B421D0010E1B6E05D0D89019361A361F
:1008E8001B2A00D01ABE02D0F8D700D0D8901D36E7
:1008F8001E361950175C1A501858D8A006D019502F
:10090800175E1A50185A1D8000D0D8901A32193222
:100918001B2EECD700D01C50D8B405D01D6C1E1E61
:10092800D8B01E2A00D01DC017F01EC018F000D085
:100938001200226E800E22603FD09F0E186401D0F4
:100948003BD0FF0E1C6EFF0E1D6E195018C01EF016
:100958001F6A1E26000E1F221C501E261D501F2215
:100968001FBE0BD01F5004E1A00E1E5CD8A005D0FE
:1009780018500008A00F196E00D01B50206E1AC026
:1009880021F018C014F022C015F0185019241C6E5C
:100998001C04166E225049EC06F08380839207D01F
:1009A80020506FEC08F021506FEC08F000D01906C9
:1009B8001928D8A4F5D7838212000600EACF06F0DA
:1009C800E1CF07F0E2CF08F0D9CF09F0DACF0AF08B
:1009D800F3CF0BF0F4CF0CF0F6CF0DF0F7CF0EF00D
:1009E800F8CF0FF0F5CF10F09EA003D0C1EC08F0BF
:1009F80000D0F2A203D00EEC00F000D010C0F5FF3A
:100A08000FC0F8FF0EC0F7FF0DC0F6FF0CC0F4FFD3
:100A18000BC0F3FF0AC0DAFF09C0D9FF08C0E2FF24
:100A280007C0E1FF06C0EAFF05C0E9FF04C0FBFFFD
:100A380003C0FAFF110000EEC9F01F0EEE6AE806C7
:100A4800FDE100EE3DF02F0EEE6AE806FDE1EC0E4A
:100A5800F66E0B0EF76E000EF86E01EE00F010EE5B
:100A680054F00900F5CFEEFFE550E150FAE1760EBB
:100A7800F66E0D0EF76E000EF86E00EE80F010EEBA
:100A880049F00900F5CFEEFFE550E150FAE1C40E58
:100A9800F66E110EF76E000EF86E0900F5CF6CF0C9
:100AA8000900F5CF6DF0000EF86E000194EF05F027
:100AB800136E000EAC6E000EAB6E13A002D0AC88A5
:100AC80000D013A203D0AC8CAB8C00D013A402D0FE
:100AD800AC8E00D013A602D0AB8802D0AB8A00D06F
:100AE80013B8AC849E9813AA02D0AB8600D013AC7E
:100AF80002D09D8A01D09D9A9E9A13AE02D09D88FD
:100B080001D09D9811C0AFFF1250B06EAC8AAB8E69
:100B1800949C948EACB8ACBE02D0948C00D01200D9
:100B280004EC07F000D083EC07F014503C6E3C5006
:100B3800116E126A11BE1206000E146E090E136EA3
:100B4800FFEC07F011C017F012C018F0000E1A6E73
:100B5800050E196E52EC04F01750200F3B6EB80EBC
:100B68001D6EFF0E1E6E3C501F6E206A1FBE2006B3
:100B78003B50216E226A21BE220669EC01F0B4ECDA
:100B880008F0D1D70CEF00F0000E166E000E156EAF
:100B980013501410D8B421D0010E176E05D0D89078
:100BA80013361436172A00D014BE02D0F8D700D056
:100BB800D890153616361350115C14501258D8A018
:100BC80006D01350115E1450125A158000D0D890D8
:100BD80014321332172EECD700D015C011F016C0FE
:100BE80012F0120043482D004348200043482B00D0
:100BF800505256004E585400504C5900202D200099
:100C0800202B2000204551002030200031303000BA
:100C180032303000203120002032200020332000E4
:100C280020342000203520002036200020372000E6
:100C3800203820002039200017C011F018C012F009
:100C4800000E146EFA0E136EFFEC07F011C01BF0C5
:100C580012C01CF01BC019F01CC01AF0191E1A1E75
:100C6800194A1A2AFF0E19241B6EFF0E1A201C6E31
:100C7800B80EB16E1BC0B2FF1C50B36EA192B1800A
:100C880000D0A1A2FED7B1901200176E2A0EA5ECD3
:100C980008F0000E9DEC08F0175055249DEC08F064
:100CA800000E9DEC08F0155055249DEC08F02B0E15
:100CB800A5EC08F0000E9DEC08F014505E249DECA5
:100CC80008F0000E9DEC08F016505E249DEC08F02C
:100CD8002C0EA5EC08F012001A501B10D8B41DD029
:100CE800010E1C6E05D0D8901A361B361C2A00D06F
:100CF8001BBE02D0F8D700D01A50185C1B501958E8
:100D0800D8A005D01A50185E1B50195A00D0D89098
:100D18001B321A321C2EF0D700D018C018F019C098
:100D280019F012002B6E2BC02CF02D6A0ED023C0A8
:100D380018F025C019F026C01AF027C01BF02C5057
:100D48009DEC04F02C4A2D2A00D024502BC028F00A
:100D5800296A2826000E292228502C5C2D50800A4A
:100D68002A6E2950800A2A58D8A0E1D7120000F824
:100D780000F800F8FF07FF07E0071F001F001FF833
:100D8800000000000000000000000000000000005B
:100D98000000000000000000A262E22202C2E0A8F7
:100DA800906898B030187A10385A424A52000204B3
:100DB8000610121416161600116EDAEC08F0000E62
:100DC800126E070E126401D00FD0BBEC08F082A29D
:100DD80003D0D880133604D013501324136E00D0D8
:100DE800D6EC08F0122AEDD71150D8B403D094EC01
:100DF80008F003D0CCEC08F000D0135000D012005B
:100E080065EC08F0700ED36E0F0EC16E000E926E78
:100E1800010E936E000E946E000E956E000E966E87
:100E280003EC04F0F19E23EC08F0BAEC07F0A00EF6
:100E3800116E860E126E010E136E000E146EC7EC44
:100E480008F0120011C015F012C016F003D0154AB0
:100E5800162A00D015C0D9FF16C0DAFFDF50D8A473
:100E6800F6D711C013F012C014F0131E141E134A43
:100E7800142A15501324116E16501420126E00D027
:100E880012002A0EA5EC08F0000E9DEC08F0000EEA
:100E98009DEC08F0000E9DEC08F07F0E9DEC08F02C
:100EA8002B0EA5EC08F0000E9DEC08F0000E9DEC52
:100EB80008F0000E9DEC08F09F0E9DEC08F0120063
:100EC800116E000E126E070E126401D011D011AE11
:100ED80003D0DAEC08F003D0D1EC08F000D0BBEC7A
:100EE80008F0D6EC08F011501124116E122AEBD735
:100EF800DAEC08F0BBEC08F0D6EC08F01200480E6B
:100F0800186EAA0E166E8BEC08F01850182464ECB4
:100F180007F0165064EC07F05AEC08F0D880183443
:100F280064EC07F0000EE0EC06F0176E82EC08F0B7
:100F380017C014F0156A00D0120011C015F012C0C5
:100F480016F005D0154A162A134A142A00D013C0E1
:100F5800F6FF14C0F7FF15C0D9FF16C0DAFF080066
:100F6800F5CFDFFFDF50D8A4EDD71200F292F19C45
:100F7800F288000ECF6E000ECE6E9E909D80F28C91
:100F8800F28E000E466E000E456E000E3D6E000E8F
:100F98003E6E000E3F6E000E406E12001B6E800EFD
:100FA8001B6013D09F0E186401D00FD018C014F026
:100FB8001B28156E1828166E1B5049EC06F01A509F
:100FC8009DEC08F019509DEC08F012008382839084
:100FD800800EC76E300EC66E94EC02F045EC07F03A
:100FE8001CEC03F0360EA5EC08F0C00E9DEC08F0E2
:100FF800010E4F6E120011501302F3CF15F0F4CF0B
:1010080016F011501402F350162612501302F35022
:10101800162615C011F016C012F000D01200156E79
:101028008BEC08F01550152464EC07F0135064ECB1
:1010380007F0145064EC07F082EC08F01200480E38
:10104800166EAC0E136E020E146E165013EC08F0EA
:10105800EE0E136E16504DEC08F01200000E186ECE
:10106800800E196EA00E1A6E24C01BF025C01CF04D
:10107800000E95EC03F01200030ED56EDB0ED66E53
:101088000B0ED76EF294D58E00D0F2A4FED7D59E63
:101098001200146E8BEC08F01450142464EC07F062
:1010A800135064EC07F082EC08F01200D6EC08F05C
:1010B800DAEC08F0BBEC08F0D1EC08F0D6EC08F05C
:1010C8001200000E126E190E116E3C0E5CEC05F04B
:1010D800700ED36E1200126E9E96C9CF11F012C018
:1010E800C9FF00D0C7A0FED712008394000E186E67
:1010F800640E176E20EC06F083841200D6EC08F01C
:10110800D1EC08F0BBEC08F0DAEC08F01200DAECED
:1011180008F0BBEC08F0D1EC08F0D6EC08F01200AF
:10112800D1EC08F0BBEC08F0D6EC08F0DAEC08F0EB
:101138001200136E8392838013506FEC08F0838241
:101148001200136E8392839013506FEC08F0838221
:101158001200116E00D0ACA2FED711C0ADFF120074
:1011680040EC08F0849240EC08F0848212009484E9
:10117800060EE82EFED700D01200000E4D6EF19C30
:10118800CD909E901200BBEC08F0DAEC08F012004B
:10119800BBEC08F0D6EC08F012008292949200D0D2
:1011A80000D012008294949400D01200948200D04F
:0E11B80000D01200000E4D6ECD901200FF010F
:10FDD20000000000000000005F00000007000700B4
:10FDE200147F147F14242A7F2A1223130864623694
:10FDF200495620500008070300001C224100004120
:10FE0200221C002A1C7F1C2A08083E080800807059
:10FE1200300008080808080000606000201008048C
:10FE2200023E5149453E00427F40007249494946DF
:10FE32002141494D331814127F1027454545393C5D
:10FE42004A4949314121110907364949493646494A
:10FE520049291E000014000000403400000008146C
:10FE620022411414141414004122140802015909E5
:10FE7200063E415D594E7C1211127C7F494949363A
:10FE82003E414141227F4141413E7F494949417FB3
:10FE9200090909013E414151737F0808087F004169
:10FEA2007F41002040413F017F081422417F4040B2
:10FEB20040407F021C027F7F0408107F3E41414187
:10FEC2003E7F090909063E4151215E7F09192946F3
:10FED200264949493203017F01033F4040403F1F09
:10FEE2002040201F3F4038403F631408146303043E
:10FEF2007804036159494D43007F4141410204089E
:10FF02001020004141417F04020102044040404070
:10FF120040000307080020545478407F28444438A6
:10FF22003844444428384444287F385454541800F0
:10FF3200087E090218A4A49C787F0804047800446F
:10FF42007D40002040403D007F1028440000417F5A
:10FF520040007C047804787C0804047838444444E3
:10FF620038FC1824241818242418FC7C08040408DB
:10FF7200485454542404043F44243C4040207C1CF4
:10FF82002040201C3C4030403C44281028444C90E7
:10FF920090907C4464544C44000836410000007741
:10FFA20000000041360800020102040201000A00BA
:10FFB2006400E80310272054656D706572617475E2
:10FFC2007265203D20256420646567726565734310
:10FFD200203D2025642064656772656573460D0ABD
:10FFE20000454345333330314C2046616C6C20323E
:0EFFF200312D5334004C4142203130200000AC
:020000040020DA
:08000000FFFFFFFFFFFFFFFF00
:020000040030CA
:0E000000FF08191EFF8281FF0FC00FE00F40A6
:00000001FF
