:04000000BAEF7FF0E4
:10FF4800F0C1A28364452607000E026E000E016E02
:10FF580002BE08D0680E015C420E0258D8B005D027
:10FF680001D003D0014A022AF3D71200480EF66ED8
:10FF7800FF0EF76E000EF86E00EE0DF010EE08F0B2
:10FF88000900F5CFEEFFE550E150FAE10001CDEFB1
:10FF98007FF020EE0DF010EE03F0070EDBCFE3FF4D
:10FFA800E806FCE29268000E936E000E946E000E56
:10FFB800956E000E816E000E826E00D0000E0C6EE3
:10FFC800000E0B6E0CBE08D00C50F8E1080E0B5C4E
:10FFD800D8B0F4D701D0F2D7030E0B24D96E000E97
:10FFE8000C20DA6EDF50836EA8EC7FF00B4A0C2AE7
:08FFF800E9D7E4D700EF00F0A7
:020000040020DA
:08000000FFFFFFFFFFFFFFFF00
:020000040030CA
:0E000000FF08191EFF8381FF0FC00FE00F40A5
:00000001FF
